{
	"contracts/lab01_2.sol": {
		"RockPaperScissors": {
			"abi": [
				{
					"anonymous": false,
					"inputs": [
						{
							"indexed": false,
							"internalType": "address",
							"name": "addr",
							"type": "address"
						},
						{
							"indexed": false,
							"internalType": "bytes32",
							"name": "encVote",
							"type": "bytes32"
						}
					],
					"name": "playEvent",
					"type": "event"
				},
				{
					"anonymous": false,
					"inputs": [
						{
							"indexed": false,
							"internalType": "address",
							"name": "addr",
							"type": "address"
						},
						{
							"indexed": false,
							"internalType": "uint256",
							"name": "Vote",
							"type": "uint256"
						}
					],
					"name": "revealEvent",
					"type": "event"
				},
				{
					"anonymous": false,
					"inputs": [
						{
							"indexed": false,
							"internalType": "address",
							"name": "addr",
							"type": "address"
						},
						{
							"indexed": false,
							"internalType": "uint256",
							"name": "amount",
							"type": "uint256"
						}
					],
					"name": "withdrawEvent",
					"type": "event"
				},
				{
					"inputs": [],
					"name": "PAPER",
					"outputs": [
						{
							"internalType": "uint256",
							"name": "",
							"type": "uint256"
						}
					],
					"stateMutability": "view",
					"type": "function"
				},
				{
					"inputs": [],
					"name": "ROCK",
					"outputs": [
						{
							"internalType": "uint256",
							"name": "",
							"type": "uint256"
						}
					],
					"stateMutability": "view",
					"type": "function"
				},
				{
					"inputs": [],
					"name": "SCISSORS",
					"outputs": [
						{
							"internalType": "uint256",
							"name": "",
							"type": "uint256"
						}
					],
					"stateMutability": "view",
					"type": "function"
				},
				{
					"inputs": [],
					"name": "forceWin",
					"outputs": [],
					"stateMutability": "nonpayable",
					"type": "function"
				},
				{
					"inputs": [],
					"name": "gameDone",
					"outputs": [
						{
							"internalType": "bool",
							"name": "",
							"type": "bool"
						}
					],
					"stateMutability": "view",
					"type": "function"
				},
				{
					"inputs": [
						{
							"internalType": "uint256",
							"name": "_move",
							"type": "uint256"
						},
						{
							"internalType": "uint256",
							"name": "salt",
							"type": "uint256"
						}
					],
					"name": "play",
					"outputs": [],
					"stateMutability": "payable",
					"type": "function"
				},
				{
					"inputs": [],
					"name": "playerA",
					"outputs": [
						{
							"internalType": "address",
							"name": "",
							"type": "address"
						}
					],
					"stateMutability": "view",
					"type": "function"
				},
				{
					"inputs": [],
					"name": "playerAEncVote",
					"outputs": [
						{
							"internalType": "bytes32",
							"name": "",
							"type": "bytes32"
						}
					],
					"stateMutability": "view",
					"type": "function"
				},
				{
					"inputs": [],
					"name": "playerARevealed",
					"outputs": [
						{
							"internalType": "bool",
							"name": "",
							"type": "bool"
						}
					],
					"stateMutability": "view",
					"type": "function"
				},
				{
					"inputs": [],
					"name": "playerAVote",
					"outputs": [
						{
							"internalType": "uint256",
							"name": "",
							"type": "uint256"
						}
					],
					"stateMutability": "view",
					"type": "function"
				},
				{
					"inputs": [],
					"name": "playerB",
					"outputs": [
						{
							"internalType": "address",
							"name": "",
							"type": "address"
						}
					],
					"stateMutability": "view",
					"type": "function"
				},
				{
					"inputs": [],
					"name": "playerBEncVote",
					"outputs": [
						{
							"internalType": "bytes32",
							"name": "",
							"type": "bytes32"
						}
					],
					"stateMutability": "view",
					"type": "function"
				},
				{
					"inputs": [],
					"name": "playerBRevealed",
					"outputs": [
						{
							"internalType": "bool",
							"name": "",
							"type": "bool"
						}
					],
					"stateMutability": "view",
					"type": "function"
				},
				{
					"inputs": [],
					"name": "playerBVote",
					"outputs": [
						{
							"internalType": "uint256",
							"name": "",
							"type": "uint256"
						}
					],
					"stateMutability": "view",
					"type": "function"
				},
				{
					"inputs": [
						{
							"internalType": "uint256",
							"name": "_move",
							"type": "uint256"
						},
						{
							"internalType": "uint256",
							"name": "salt",
							"type": "uint256"
						}
					],
					"name": "reveal",
					"outputs": [],
					"stateMutability": "nonpayable",
					"type": "function"
				},
				{
					"inputs": [],
					"name": "revealDeadline",
					"outputs": [
						{
							"internalType": "uint256",
							"name": "",
							"type": "uint256"
						}
					],
					"stateMutability": "view",
					"type": "function"
				},
				{
					"inputs": [],
					"name": "stake",
					"outputs": [
						{
							"internalType": "uint256",
							"name": "",
							"type": "uint256"
						}
					],
					"stateMutability": "view",
					"type": "function"
				},
				{
					"inputs": [],
					"name": "winner",
					"outputs": [
						{
							"internalType": "address",
							"name": "",
							"type": "address"
						}
					],
					"stateMutability": "view",
					"type": "function"
				}
			],
			"devdoc": {
				"kind": "dev",
				"methods": {},
				"version": 1
			},
			"evm": {
				"assembly": "    /* \"contracts/lab01_2.sol\":72:5333  contract RockPaperScissors {... */\n  mstore(0x40, 0x80)\n  callvalue\n  dup1\n  iszero\n  tag_1\n  jumpi\n  0x00\n  dup1\n  revert\ntag_1:\n  pop\n  dataSize(sub_0)\n  dup1\n  dataOffset(sub_0)\n  0x00\n  codecopy\n  0x00\n  return\nstop\n\nsub_0: assembly {\n        /* \"contracts/lab01_2.sol\":72:5333  contract RockPaperScissors {... */\n      mstore(0x40, 0x80)\n      jumpi(tag_1, lt(calldatasize, 0x04))\n      shr(0xe0, calldataload(0x00))\n      dup1\n      0xa285c54a\n      gt\n      tag_20\n      jumpi\n      dup1\n      0xb14b28a3\n      gt\n      tag_21\n      jumpi\n      dup1\n      0xb14b28a3\n      eq\n      tag_15\n      jumpi\n      dup1\n      0xb357a028\n      eq\n      tag_16\n      jumpi\n      dup1\n      0xb93e0e39\n      eq\n      tag_17\n      jumpi\n      dup1\n      0xc44d6f87\n      eq\n      tag_18\n      jumpi\n      dup1\n      0xdfbf53ae\n      eq\n      tag_19\n      jumpi\n      jump(tag_1)\n    tag_21:\n      dup1\n      0xa285c54a\n      eq\n      tag_11\n      jumpi\n      dup1\n      0xad622811\n      eq\n      tag_12\n      jumpi\n      dup1\n      0xb040905b\n      eq\n      tag_13\n      jumpi\n      dup1\n      0xb0d74a39\n      eq\n      tag_14\n      jumpi\n      jump(tag_1)\n    tag_20:\n      dup1\n      0x3e9feea7\n      gt\n      tag_22\n      jumpi\n      dup1\n      0x3e9feea7\n      eq\n      tag_6\n      jumpi\n      dup1\n      0x560b3986\n      eq\n      tag_7\n      jumpi\n      dup1\n      0x7ba9f72e\n      eq\n      tag_8\n      jumpi\n      dup1\n      0x7bc49a95\n      eq\n      tag_9\n      jumpi\n      dup1\n      0x9348cef7\n      eq\n      tag_10\n      jumpi\n      jump(tag_1)\n    tag_22:\n      dup1\n      0x62388e\n      eq\n      tag_2\n      jumpi\n      dup1\n      0x05ca5dda\n      eq\n      tag_3\n      jumpi\n      dup1\n      0x11bb1537\n      eq\n      tag_4\n      jumpi\n      dup1\n      0x3a4b66f1\n      eq\n      tag_5\n      jumpi\n    tag_1:\n      0x00\n      dup1\n      revert\n        /* \"contracts/lab01_2.sol\":337:363  uint256 public playerAVote */\n    tag_2:\n      callvalue\n      dup1\n      iszero\n      tag_23\n      jumpi\n      0x00\n      dup1\n      revert\n    tag_23:\n      pop\n      tag_24\n      tag_25\n      jump\t// in\n    tag_24:\n      mload(0x40)\n      tag_26\n      swap2\n      swap1\n      tag_27\n      jump\t// in\n    tag_26:\n      mload(0x40)\n      dup1\n      swap2\n      sub\n      swap1\n      return\n        /* \"contracts/lab01_2.sol\":532:559  bool public playerBRevealed */\n    tag_3:\n      callvalue\n      dup1\n      iszero\n      tag_28\n      jumpi\n      0x00\n      dup1\n      revert\n    tag_28:\n      pop\n      tag_29\n      tag_30\n      jump\t// in\n    tag_29:\n      mload(0x40)\n      tag_31\n      swap2\n      swap1\n      tag_32\n      jump\t// in\n    tag_31:\n      mload(0x40)\n      dup1\n      swap2\n      sub\n      swap1\n      return\n        /* \"contracts/lab01_2.sol\":434:456  address public playerB */\n    tag_4:\n      callvalue\n      dup1\n      iszero\n      tag_33\n      jumpi\n      0x00\n      dup1\n      revert\n    tag_33:\n      pop\n      tag_34\n      tag_35\n      jump\t// in\n    tag_34:\n      mload(0x40)\n      tag_36\n      swap2\n      swap1\n      tag_37\n      jump\t// in\n    tag_36:\n      mload(0x40)\n      dup1\n      swap2\n      sub\n      swap1\n      return\n        /* \"contracts/lab01_2.sol\":595:615  uint256 public stake */\n    tag_5:\n      callvalue\n      dup1\n      iszero\n      tag_38\n      jumpi\n      0x00\n      dup1\n      revert\n    tag_38:\n      pop\n      tag_39\n      tag_40\n      jump\t// in\n    tag_39:\n      mload(0x40)\n      tag_41\n      swap2\n      swap1\n      tag_27\n      jump\t// in\n    tag_41:\n      mload(0x40)\n      dup1\n      swap2\n      sub\n      swap1\n      return\n        /* \"contracts/lab01_2.sol\":370:397  bool public playerARevealed */\n    tag_6:\n      callvalue\n      dup1\n      iszero\n      tag_42\n      jumpi\n      0x00\n      dup1\n      revert\n    tag_42:\n      pop\n      tag_43\n      tag_44\n      jump\t// in\n    tag_43:\n      mload(0x40)\n      tag_45\n      swap2\n      swap1\n      tag_32\n      jump\t// in\n    tag_45:\n      mload(0x40)\n      dup1\n      swap2\n      sub\n      swap1\n      return\n        /* \"contracts/lab01_2.sol\":463:492  bytes32 public playerBEncVote */\n    tag_7:\n      callvalue\n      dup1\n      iszero\n      tag_46\n      jumpi\n      0x00\n      dup1\n      revert\n    tag_46:\n      pop\n      tag_47\n      tag_48\n      jump\t// in\n    tag_47:\n      mload(0x40)\n      tag_49\n      swap2\n      swap1\n      tag_50\n      jump\t// in\n    tag_49:\n      mload(0x40)\n      dup1\n      swap2\n      sub\n      swap1\n      return\n        /* \"contracts/lab01_2.sol\":499:525  uint256 public playerBVote */\n    tag_8:\n      callvalue\n      dup1\n      iszero\n      tag_51\n      jumpi\n      0x00\n      dup1\n      revert\n    tag_51:\n      pop\n      tag_52\n      tag_53\n      jump\t// in\n    tag_52:\n      mload(0x40)\n      tag_54\n      swap2\n      swap1\n      tag_27\n      jump\t// in\n    tag_54:\n      mload(0x40)\n      dup1\n      swap2\n      sub\n      swap1\n      return\n        /* \"contracts/lab01_2.sol\":896:1925  function play(uint256 _move, uint256 salt) public payable {... */\n    tag_9:\n      tag_55\n      0x04\n      dup1\n      calldatasize\n      sub\n      dup2\n      add\n      swap1\n      tag_56\n      swap2\n      swap1\n      tag_57\n      jump\t// in\n    tag_56:\n      tag_58\n      jump\t// in\n    tag_55:\n      stop\n        /* \"contracts/lab01_2.sol\":1933:3366  function reveal(uint256 _move, uint256 salt) public {... */\n    tag_10:\n      callvalue\n      dup1\n      iszero\n      tag_59\n      jumpi\n      0x00\n      dup1\n      revert\n    tag_59:\n      pop\n      tag_60\n      0x04\n      dup1\n      calldatasize\n      sub\n      dup2\n      add\n      swap1\n      tag_61\n      swap2\n      swap1\n      tag_57\n      jump\t// in\n    tag_61:\n      tag_62\n      jump\t// in\n    tag_60:\n      stop\n        /* \"contracts/lab01_2.sol\":272:294  address public playerA */\n    tag_11:\n      callvalue\n      dup1\n      iszero\n      tag_63\n      jumpi\n      0x00\n      dup1\n      revert\n    tag_63:\n      pop\n      tag_64\n      tag_65\n      jump\t// in\n    tag_64:\n      mload(0x40)\n      tag_66\n      swap2\n      swap1\n      tag_37\n      jump\t// in\n    tag_66:\n      mload(0x40)\n      dup1\n      swap2\n      sub\n      swap1\n      return\n        /* \"contracts/lab01_2.sol\":3897:4480  function forceWin() public {... */\n    tag_12:\n      callvalue\n      dup1\n      iszero\n      tag_67\n      jumpi\n      0x00\n      dup1\n      revert\n    tag_67:\n      pop\n      tag_68\n      tag_69\n      jump\t// in\n    tag_68:\n      stop\n        /* \"contracts/lab01_2.sol\":301:330  bytes32 public playerAEncVote */\n    tag_13:\n      callvalue\n      dup1\n      iszero\n      tag_70\n      jumpi\n      0x00\n      dup1\n      revert\n    tag_70:\n      pop\n      tag_71\n      tag_72\n      jump\t// in\n    tag_71:\n      mload(0x40)\n      tag_73\n      swap2\n      swap1\n      tag_50\n      jump\t// in\n    tag_73:\n      mload(0x40)\n      dup1\n      swap2\n      sub\n      swap1\n      return\n        /* \"contracts/lab01_2.sol\":650:670  bool public gameDone */\n    tag_14:\n      callvalue\n      dup1\n      iszero\n      tag_74\n      jumpi\n      0x00\n      dup1\n      revert\n    tag_74:\n      pop\n      tag_75\n      tag_76\n      jump\t// in\n    tag_75:\n      mload(0x40)\n      tag_77\n      swap2\n      swap1\n      tag_32\n      jump\t// in\n    tag_77:\n      mload(0x40)\n      dup1\n      swap2\n      sub\n      swap1\n      return\n        /* \"contracts/lab01_2.sol\":677:706  uint256 public revealDeadline */\n    tag_15:\n      callvalue\n      dup1\n      iszero\n      tag_78\n      jumpi\n      0x00\n      dup1\n      revert\n    tag_78:\n      pop\n      tag_79\n      tag_80\n      jump\t// in\n    tag_79:\n      mload(0x40)\n      tag_81\n      swap2\n      swap1\n      tag_27\n      jump\t// in\n    tag_81:\n      mload(0x40)\n      dup1\n      swap2\n      sub\n      swap1\n      return\n        /* \"contracts/lab01_2.sol\":199:235  uint256 public constant SCISSORS = 3 */\n    tag_16:\n      callvalue\n      dup1\n      iszero\n      tag_82\n      jumpi\n      0x00\n      dup1\n      revert\n    tag_82:\n      pop\n      tag_83\n      tag_84\n      jump\t// in\n    tag_83:\n      mload(0x40)\n      tag_85\n      swap2\n      swap1\n      tag_27\n      jump\t// in\n    tag_85:\n      mload(0x40)\n      dup1\n      swap2\n      sub\n      swap1\n      return\n        /* \"contracts/lab01_2.sol\":120:152  uint256 public constant ROCK = 1 */\n    tag_17:\n      callvalue\n      dup1\n      iszero\n      tag_86\n      jumpi\n      0x00\n      dup1\n      revert\n    tag_86:\n      pop\n      tag_87\n      tag_88\n      jump\t// in\n    tag_87:\n      mload(0x40)\n      tag_89\n      swap2\n      swap1\n      tag_27\n      jump\t// in\n    tag_89:\n      mload(0x40)\n      dup1\n      swap2\n      sub\n      swap1\n      return\n        /* \"contracts/lab01_2.sol\":159:192  uint256 public constant PAPER = 2 */\n    tag_18:\n      callvalue\n      dup1\n      iszero\n      tag_90\n      jumpi\n      0x00\n      dup1\n      revert\n    tag_90:\n      pop\n      tag_91\n      tag_92\n      jump\t// in\n    tag_91:\n      mload(0x40)\n      tag_93\n      swap2\n      swap1\n      tag_27\n      jump\t// in\n    tag_93:\n      mload(0x40)\n      dup1\n      swap2\n      sub\n      swap1\n      return\n        /* \"contracts/lab01_2.sol\":622:643  address public winner */\n    tag_19:\n      callvalue\n      dup1\n      iszero\n      tag_94\n      jumpi\n      0x00\n      dup1\n      revert\n    tag_94:\n      pop\n      tag_95\n      tag_96\n      jump\t// in\n    tag_95:\n      mload(0x40)\n      tag_97\n      swap2\n      swap1\n      tag_37\n      jump\t// in\n    tag_97:\n      mload(0x40)\n      dup1\n      swap2\n      sub\n      swap1\n      return\n        /* \"contracts/lab01_2.sol\":337:363  uint256 public playerAVote */\n    tag_25:\n      sload(0x02)\n      dup2\n      jump\t// out\n        /* \"contracts/lab01_2.sol\":532:559  bool public playerBRevealed */\n    tag_30:\n      0x06\n      0x00\n      swap1\n      sload\n      swap1\n      0x0100\n      exp\n      swap1\n      div\n      0xff\n      and\n      dup2\n      jump\t// out\n        /* \"contracts/lab01_2.sol\":434:456  address public playerB */\n    tag_35:\n      0x03\n      0x01\n      swap1\n      sload\n      swap1\n      0x0100\n      exp\n      swap1\n      div\n      0xffffffffffffffffffffffffffffffffffffffff\n      and\n      dup2\n      jump\t// out\n        /* \"contracts/lab01_2.sol\":595:615  uint256 public stake */\n    tag_40:\n      sload(0x07)\n      dup2\n      jump\t// out\n        /* \"contracts/lab01_2.sol\":370:397  bool public playerARevealed */\n    tag_44:\n      0x03\n      0x00\n      swap1\n      sload\n      swap1\n      0x0100\n      exp\n      swap1\n      div\n      0xff\n      and\n      dup2\n      jump\t// out\n        /* \"contracts/lab01_2.sol\":463:492  bytes32 public playerBEncVote */\n    tag_48:\n      sload(0x04)\n      dup2\n      jump\t// out\n        /* \"contracts/lab01_2.sol\":499:525  uint256 public playerBVote */\n    tag_53:\n      sload(0x05)\n      dup2\n      jump\t// out\n        /* \"contracts/lab01_2.sol\":896:1925  function play(uint256 _move, uint256 salt) public payable {... */\n    tag_58:\n        /* \"contracts/lab01_2.sol\":986:993  1 ether */\n      0x0de0b6b3a7640000\n        /* \"contracts/lab01_2.sol\":973:982  msg.value */\n      callvalue\n        /* \"contracts/lab01_2.sol\":973:993  msg.value >= 1 ether */\n      lt\n      iszero\n        /* \"contracts/lab01_2.sol\":965:1022  require(msg.value >= 1 ether, \"Bet must be over 1 ether\") */\n      tag_99\n      jumpi\n      mload(0x40)\n      0x08c379a000000000000000000000000000000000000000000000000000000000\n      dup2\n      mstore\n      0x04\n      add\n      tag_100\n      swap1\n      tag_101\n      jump\t// in\n    tag_100:\n      mload(0x40)\n      dup1\n      swap2\n      sub\n      swap1\n      revert\n    tag_99:\n        /* \"contracts/lab01_2.sol\":1050:1051  1 */\n      0x01\n        /* \"contracts/lab01_2.sol\":1041:1046  _move */\n      dup3\n        /* \"contracts/lab01_2.sol\":1041:1051  _move == 1 */\n      eq\n        /* \"contracts/lab01_2.sol\":1041:1065  _move == 1 || _move == 2 */\n      dup1\n      tag_102\n      jumpi\n      pop\n        /* \"contracts/lab01_2.sol\":1064:1065  2 */\n      0x02\n        /* \"contracts/lab01_2.sol\":1055:1060  _move */\n      dup3\n        /* \"contracts/lab01_2.sol\":1055:1065  _move == 2 */\n      eq\n        /* \"contracts/lab01_2.sol\":1041:1065  _move == 1 || _move == 2 */\n    tag_102:\n        /* \"contracts/lab01_2.sol\":1041:1079  _move == 1 || _move == 2 || _move == 3 */\n      dup1\n      tag_103\n      jumpi\n      pop\n        /* \"contracts/lab01_2.sol\":1078:1079  3 */\n      0x03\n        /* \"contracts/lab01_2.sol\":1069:1074  _move */\n      dup3\n        /* \"contracts/lab01_2.sol\":1069:1079  _move == 3 */\n      eq\n        /* \"contracts/lab01_2.sol\":1041:1079  _move == 1 || _move == 2 || _move == 3 */\n    tag_103:\n        /* \"contracts/lab01_2.sol\":1033:1096  require(_move == 1 || _move == 2 || _move == 3, \"Invalid Move\") */\n      tag_104\n      jumpi\n      mload(0x40)\n      0x08c379a000000000000000000000000000000000000000000000000000000000\n      dup2\n      mstore\n      0x04\n      add\n      tag_105\n      swap1\n      tag_106\n      jump\t// in\n    tag_105:\n      mload(0x40)\n      dup1\n      swap2\n      sub\n      swap1\n      revert\n    tag_104:\n        /* \"contracts/lab01_2.sol\":1131:1132  0 */\n      0x00\n        /* \"contracts/lab01_2.sol\":1112:1133  playerA == address(0) */\n      0xffffffffffffffffffffffffffffffffffffffff\n      and\n        /* \"contracts/lab01_2.sol\":1112:1119  playerA */\n      0x00\n      dup1\n      sload\n      swap1\n      0x0100\n      exp\n      swap1\n      div\n      0xffffffffffffffffffffffffffffffffffffffff\n      and\n        /* \"contracts/lab01_2.sol\":1112:1133  playerA == address(0) */\n      0xffffffffffffffffffffffffffffffffffffffff\n      and\n      sub\n        /* \"contracts/lab01_2.sol\":1109:1918  if(playerA == address(0)){... */\n      tag_107\n      jumpi\n        /* \"contracts/lab01_2.sol\":1159:1169  msg.sender */\n      caller\n        /* \"contracts/lab01_2.sol\":1149:1156  playerA */\n      0x00\n      dup1\n        /* \"contracts/lab01_2.sol\":1149:1169  playerA = msg.sender */\n      0x0100\n      exp\n      dup2\n      sload\n      dup2\n      0xffffffffffffffffffffffffffffffffffffffff\n      mul\n      not\n      and\n      swap1\n      dup4\n      0xffffffffffffffffffffffffffffffffffffffff\n      and\n      mul\n      or\n      swap1\n      sstore\n      pop\n        /* \"contracts/lab01_2.sol\":1198:1199  0 */\n      0x00\n        /* \"contracts/lab01_2.sol\":1184:1195  playerAVote */\n      0x02\n        /* \"contracts/lab01_2.sol\":1184:1199  playerAVote = 0 */\n      dup2\n      swap1\n      sstore\n      pop\n        /* \"contracts/lab01_2.sol\":1258:1263  _move */\n      dup2\n        /* \"contracts/lab01_2.sol\":1265:1269  salt */\n      dup2\n        /* \"contracts/lab01_2.sol\":1241:1270  abi.encodePacked(_move, salt) */\n      add(0x20, mload(0x40))\n      tag_108\n      swap3\n      swap2\n      swap1\n      tag_109\n      jump\t// in\n    tag_108:\n      mload(0x40)\n      0x20\n      dup2\n      dup4\n      sub\n      sub\n      dup2\n      mstore\n      swap1\n      0x40\n      mstore\n        /* \"contracts/lab01_2.sol\":1231:1271  keccak256(abi.encodePacked(_move, salt)) */\n      dup1\n      mload\n      swap1\n      0x20\n      add\n      keccak256\n        /* \"contracts/lab01_2.sol\":1214:1228  playerAEncVote */\n      0x01\n        /* \"contracts/lab01_2.sol\":1214:1271  playerAEncVote = keccak256(abi.encodePacked(_move, salt)) */\n      dup2\n      swap1\n      sstore\n      pop\n        /* \"contracts/lab01_2.sol\":1304:1309  false */\n      0x00\n        /* \"contracts/lab01_2.sol\":1286:1301  playerARevealed */\n      0x03\n      0x00\n        /* \"contracts/lab01_2.sol\":1286:1309  playerARevealed = false */\n      0x0100\n      exp\n      dup2\n      sload\n      dup2\n      0xff\n      mul\n      not\n      and\n      swap1\n      dup4\n      iszero\n      iszero\n      mul\n      or\n      swap1\n      sstore\n      pop\n        /* \"contracts/lab01_2.sol\":1332:1341  msg.value */\n      callvalue\n        /* \"contracts/lab01_2.sol\":1324:1329  stake */\n      0x07\n        /* \"contracts/lab01_2.sol\":1324:1341  stake = msg.value */\n      dup2\n      swap1\n      sstore\n      pop\n        /* \"contracts/lab01_2.sol\":1361:1398  playEvent(msg.sender, playerAEncVote) */\n      0xc75a7eb1b909ed9b3dfae875baf41024b531546fcd92ccd27947af1b9212b4f2\n        /* \"contracts/lab01_2.sol\":1371:1381  msg.sender */\n      caller\n        /* \"contracts/lab01_2.sol\":1383:1397  playerAEncVote */\n      sload(0x01)\n        /* \"contracts/lab01_2.sol\":1361:1398  playEvent(msg.sender, playerAEncVote) */\n      mload(0x40)\n      tag_110\n      swap3\n      swap2\n      swap1\n      tag_111\n      jump\t// in\n    tag_110:\n      mload(0x40)\n      dup1\n      swap2\n      sub\n      swap1\n      log1\n        /* \"contracts/lab01_2.sol\":1109:1918  if(playerA == address(0)){... */\n      jump(tag_112)\n    tag_107:\n        /* \"contracts/lab01_2.sol\":1447:1448  0 */\n      0x00\n        /* \"contracts/lab01_2.sol\":1428:1449  playerB == address(0) */\n      0xffffffffffffffffffffffffffffffffffffffff\n      and\n        /* \"contracts/lab01_2.sol\":1428:1435  playerB */\n      0x03\n      0x01\n      swap1\n      sload\n      swap1\n      0x0100\n      exp\n      swap1\n      div\n      0xffffffffffffffffffffffffffffffffffffffff\n      and\n        /* \"contracts/lab01_2.sol\":1428:1449  playerB == address(0) */\n      0xffffffffffffffffffffffffffffffffffffffff\n      and\n      sub\n        /* \"contracts/lab01_2.sol\":1425:1918  if(playerB == address(0)){... */\n      tag_113\n      jumpi\n        /* \"contracts/lab01_2.sol\":1487:1494  playerA */\n      0x00\n      dup1\n      sload\n      swap1\n      0x0100\n      exp\n      swap1\n      div\n      0xffffffffffffffffffffffffffffffffffffffff\n      and\n        /* \"contracts/lab01_2.sol\":1473:1494  msg.sender != playerA */\n      0xffffffffffffffffffffffffffffffffffffffff\n      and\n        /* \"contracts/lab01_2.sol\":1473:1483  msg.sender */\n      caller\n        /* \"contracts/lab01_2.sol\":1473:1494  msg.sender != playerA */\n      0xffffffffffffffffffffffffffffffffffffffff\n      and\n      sub\n        /* \"contracts/lab01_2.sol\":1465:1531  require(msg.sender != playerA, \"Same player cannot join the game\") */\n      tag_114\n      jumpi\n      mload(0x40)\n      0x08c379a000000000000000000000000000000000000000000000000000000000\n      dup2\n      mstore\n      0x04\n      add\n      tag_115\n      swap1\n      tag_116\n      jump\t// in\n    tag_115:\n      mload(0x40)\n      dup1\n      swap2\n      sub\n      swap1\n      revert\n    tag_114:\n        /* \"contracts/lab01_2.sol\":1567:1572  stake */\n      sload(0x07)\n        /* \"contracts/lab01_2.sol\":1554:1563  msg.value */\n      callvalue\n        /* \"contracts/lab01_2.sol\":1554:1572  msg.value == stake */\n      eq\n        /* \"contracts/lab01_2.sol\":1546:1613  require(msg.value == stake, \"Must match the stake of first player\") */\n      tag_117\n      jumpi\n      mload(0x40)\n      0x08c379a000000000000000000000000000000000000000000000000000000000\n      dup2\n      mstore\n      0x04\n      add\n      tag_118\n      swap1\n      tag_119\n      jump\t// in\n    tag_118:\n      mload(0x40)\n      dup1\n      swap2\n      sub\n      swap1\n      revert\n    tag_117:\n        /* \"contracts/lab01_2.sol\":1638:1648  msg.sender */\n      caller\n        /* \"contracts/lab01_2.sol\":1628:1635  playerB */\n      0x03\n      0x01\n        /* \"contracts/lab01_2.sol\":1628:1648  playerB = msg.sender */\n      0x0100\n      exp\n      dup2\n      sload\n      dup2\n      0xffffffffffffffffffffffffffffffffffffffff\n      mul\n      not\n      and\n      swap1\n      dup4\n      0xffffffffffffffffffffffffffffffffffffffff\n      and\n      mul\n      or\n      swap1\n      sstore\n      pop\n        /* \"contracts/lab01_2.sol\":1677:1678  0 */\n      0x00\n        /* \"contracts/lab01_2.sol\":1663:1674  playerBVote */\n      0x05\n        /* \"contracts/lab01_2.sol\":1663:1678  playerBVote = 0 */\n      dup2\n      swap1\n      sstore\n      pop\n        /* \"contracts/lab01_2.sol\":1737:1742  _move */\n      dup2\n        /* \"contracts/lab01_2.sol\":1744:1748  salt */\n      dup2\n        /* \"contracts/lab01_2.sol\":1720:1749  abi.encodePacked(_move, salt) */\n      add(0x20, mload(0x40))\n      tag_120\n      swap3\n      swap2\n      swap1\n      tag_109\n      jump\t// in\n    tag_120:\n      mload(0x40)\n      0x20\n      dup2\n      dup4\n      sub\n      sub\n      dup2\n      mstore\n      swap1\n      0x40\n      mstore\n        /* \"contracts/lab01_2.sol\":1710:1750  keccak256(abi.encodePacked(_move, salt)) */\n      dup1\n      mload\n      swap1\n      0x20\n      add\n      keccak256\n        /* \"contracts/lab01_2.sol\":1693:1707  playerBEncVote */\n      0x04\n        /* \"contracts/lab01_2.sol\":1693:1750  playerBEncVote = keccak256(abi.encodePacked(_move, salt)) */\n      dup2\n      swap1\n      sstore\n      pop\n        /* \"contracts/lab01_2.sol\":1783:1788  false */\n      0x00\n        /* \"contracts/lab01_2.sol\":1765:1780  playerBRevealed */\n      0x06\n      0x00\n        /* \"contracts/lab01_2.sol\":1765:1788  playerBRevealed = false */\n      0x0100\n      exp\n      dup2\n      sload\n      dup2\n      0xff\n      mul\n      not\n      and\n      swap1\n      dup4\n      iszero\n      iszero\n      mul\n      or\n      swap1\n      sstore\n      pop\n        /* \"contracts/lab01_2.sol\":1808:1845  playEvent(msg.sender, playerBEncVote) */\n      0xc75a7eb1b909ed9b3dfae875baf41024b531546fcd92ccd27947af1b9212b4f2\n        /* \"contracts/lab01_2.sol\":1818:1828  msg.sender */\n      caller\n        /* \"contracts/lab01_2.sol\":1830:1844  playerBEncVote */\n      sload(0x04)\n        /* \"contracts/lab01_2.sol\":1808:1845  playEvent(msg.sender, playerBEncVote) */\n      mload(0x40)\n      tag_121\n      swap3\n      swap2\n      swap1\n      tag_111\n      jump\t// in\n    tag_121:\n      mload(0x40)\n      dup1\n      swap2\n      sub\n      swap1\n      log1\n        /* \"contracts/lab01_2.sol\":1425:1918  if(playerB == address(0)){... */\n      jump(tag_122)\n    tag_113:\n        /* \"contracts/lab01_2.sol\":1887:1906  revert(\"Full game\") */\n      mload(0x40)\n      0x08c379a000000000000000000000000000000000000000000000000000000000\n      dup2\n      mstore\n      0x04\n      add\n      tag_123\n      swap1\n      tag_124\n      jump\t// in\n    tag_123:\n      mload(0x40)\n      dup1\n      swap2\n      sub\n      swap1\n      revert\n        /* \"contracts/lab01_2.sol\":1425:1918  if(playerB == address(0)){... */\n    tag_122:\n        /* \"contracts/lab01_2.sol\":1109:1918  if(playerA == address(0)){... */\n    tag_112:\n        /* \"contracts/lab01_2.sol\":896:1925  function play(uint256 _move, uint256 salt) public payable {... */\n      pop\n      pop\n      jump\t// out\n        /* \"contracts/lab01_2.sol\":1933:3366  function reveal(uint256 _move, uint256 salt) public {... */\n    tag_62:\n        /* \"contracts/lab01_2.sol\":2005:2013  gameDone */\n      0x08\n      0x14\n      swap1\n      sload\n      swap1\n      0x0100\n      exp\n      swap1\n      div\n      0xff\n      and\n        /* \"contracts/lab01_2.sol\":2004:2013  !gameDone */\n      iszero\n        /* \"contracts/lab01_2.sol\":1996:2038  require(!gameDone, \"game is already done\") */\n      tag_126\n      jumpi\n      mload(0x40)\n      0x08c379a000000000000000000000000000000000000000000000000000000000\n      dup2\n      mstore\n      0x04\n      add\n      tag_127\n      swap1\n      tag_128\n      jump\t// in\n    tag_127:\n      mload(0x40)\n      dup1\n      swap2\n      sub\n      swap1\n      revert\n    tag_126:\n        /* \"contracts/lab01_2.sol\":2083:2084  0 */\n      0x00\n        /* \"contracts/lab01_2.sol\":2075:2085  bytes32(0) */\n      dup1\n      shl\n        /* \"contracts/lab01_2.sol\":2057:2071  playerAEncVote */\n      sload(0x01)\n        /* \"contracts/lab01_2.sol\":2057:2085  playerAEncVote != bytes32(0) */\n      eq\n      iszero\n        /* \"contracts/lab01_2.sol\":2057:2117  playerAEncVote != bytes32(0) || playerBEncVote != bytes32(0) */\n      dup1\n      tag_129\n      jumpi\n      pop\n        /* \"contracts/lab01_2.sol\":2115:2116  0 */\n      0x00\n        /* \"contracts/lab01_2.sol\":2107:2117  bytes32(0) */\n      dup1\n      shl\n        /* \"contracts/lab01_2.sol\":2089:2103  playerBEncVote */\n      sload(0x04)\n        /* \"contracts/lab01_2.sol\":2089:2117  playerBEncVote != bytes32(0) */\n      eq\n      iszero\n        /* \"contracts/lab01_2.sol\":2057:2117  playerAEncVote != bytes32(0) || playerBEncVote != bytes32(0) */\n    tag_129:\n        /* \"contracts/lab01_2.sol\":2049:2153  require(playerAEncVote != bytes32(0) || playerBEncVote != bytes32(0), \"Both players need to vote first\") */\n      tag_130\n      jumpi\n      mload(0x40)\n      0x08c379a000000000000000000000000000000000000000000000000000000000\n      dup2\n      mstore\n      0x04\n      add\n      tag_131\n      swap1\n      tag_132\n      jump\t// in\n    tag_131:\n      mload(0x40)\n      dup1\n      swap2\n      sub\n      swap1\n      revert\n    tag_130:\n        /* \"contracts/lab01_2.sol\":2181:2188  playerA */\n      0x00\n      dup1\n      sload\n      swap1\n      0x0100\n      exp\n      swap1\n      div\n      0xffffffffffffffffffffffffffffffffffffffff\n      and\n        /* \"contracts/lab01_2.sol\":2167:2188  msg.sender == playerA */\n      0xffffffffffffffffffffffffffffffffffffffff\n      and\n        /* \"contracts/lab01_2.sol\":2167:2177  msg.sender */\n      caller\n        /* \"contracts/lab01_2.sol\":2167:2188  msg.sender == playerA */\n      0xffffffffffffffffffffffffffffffffffffffff\n      and\n      sub\n        /* \"contracts/lab01_2.sol\":2164:3068  if(msg.sender == playerA){... */\n      tag_133\n      jumpi\n        /* \"contracts/lab01_2.sol\":2231:2236  false */\n      0x00\n        /* \"contracts/lab01_2.sol\":2212:2236  playerARevealed == false */\n      iszero\n      iszero\n        /* \"contracts/lab01_2.sol\":2212:2227  playerARevealed */\n      0x03\n      0x00\n      swap1\n      sload\n      swap1\n      0x0100\n      exp\n      swap1\n      div\n      0xff\n      and\n        /* \"contracts/lab01_2.sol\":2212:2236  playerARevealed == false */\n      iszero\n      iszero\n      eq\n        /* \"contracts/lab01_2.sol\":2204:2266  require(playerARevealed == false, \"You have already revealed\") */\n      tag_134\n      jumpi\n      mload(0x40)\n      0x08c379a000000000000000000000000000000000000000000000000000000000\n      dup2\n      mstore\n      0x04\n      add\n      tag_135\n      swap1\n      tag_136\n      jump\t// in\n    tag_135:\n      mload(0x40)\n      dup1\n      swap2\n      sub\n      swap1\n      revert\n    tag_134:\n        /* \"contracts/lab01_2.sol\":2281:2298  bytes32 checkVote */\n      0x00\n        /* \"contracts/lab01_2.sol\":2328:2333  _move */\n      dup3\n        /* \"contracts/lab01_2.sol\":2335:2339  salt */\n      dup3\n        /* \"contracts/lab01_2.sol\":2311:2340  abi.encodePacked(_move, salt) */\n      add(0x20, mload(0x40))\n      tag_137\n      swap3\n      swap2\n      swap1\n      tag_109\n      jump\t// in\n    tag_137:\n      mload(0x40)\n      0x20\n      dup2\n      dup4\n      sub\n      sub\n      dup2\n      mstore\n      swap1\n      0x40\n      mstore\n        /* \"contracts/lab01_2.sol\":2301:2341  keccak256(abi.encodePacked(_move, salt)) */\n      dup1\n      mload\n      swap1\n      0x20\n      add\n      keccak256\n        /* \"contracts/lab01_2.sol\":2281:2341  bytes32 checkVote = keccak256(abi.encodePacked(_move, salt)) */\n      swap1\n      pop\n        /* \"contracts/lab01_2.sol\":2377:2391  playerAEncVote */\n      sload(0x01)\n        /* \"contracts/lab01_2.sol\":2364:2373  checkVote */\n      dup2\n        /* \"contracts/lab01_2.sol\":2364:2391  checkVote == playerAEncVote */\n      eq\n        /* \"contracts/lab01_2.sol\":2356:2410  require(checkVote == playerAEncVote, \"Invalid reveal\") */\n      tag_138\n      jumpi\n      mload(0x40)\n      0x08c379a000000000000000000000000000000000000000000000000000000000\n      dup2\n      mstore\n      0x04\n      add\n      tag_139\n      swap1\n      tag_140\n      jump\t// in\n    tag_139:\n      mload(0x40)\n      dup1\n      swap2\n      sub\n      swap1\n      revert\n    tag_138:\n        /* \"contracts/lab01_2.sol\":2498:2503  _move */\n      dup3\n        /* \"contracts/lab01_2.sol\":2484:2495  playerAVote */\n      0x02\n        /* \"contracts/lab01_2.sol\":2484:2503  playerAVote = _move */\n      dup2\n      swap1\n      sstore\n      pop\n        /* \"contracts/lab01_2.sol\":2536:2540  true */\n      0x01\n        /* \"contracts/lab01_2.sol\":2518:2533  playerARevealed */\n      0x03\n      0x00\n        /* \"contracts/lab01_2.sol\":2518:2540  playerARevealed = true */\n      0x0100\n      exp\n      dup2\n      sload\n      dup2\n      0xff\n      mul\n      not\n      and\n      swap1\n      dup4\n      iszero\n      iszero\n      mul\n      or\n      swap1\n      sstore\n      pop\n        /* \"contracts/lab01_2.sol\":2560:2590  revealEvent(msg.sender, _move) */\n      0xf171bd6ddf36696fe0e7c299df1970ee9347e8229ef483465fe9f8862995c530\n        /* \"contracts/lab01_2.sol\":2572:2582  msg.sender */\n      caller\n        /* \"contracts/lab01_2.sol\":2584:2589  _move */\n      dup5\n        /* \"contracts/lab01_2.sol\":2560:2590  revealEvent(msg.sender, _move) */\n      mload(0x40)\n      tag_141\n      swap3\n      swap2\n      swap1\n      tag_142\n      jump\t// in\n    tag_141:\n      mload(0x40)\n      dup1\n      swap2\n      sub\n      swap1\n      log1\n        /* \"contracts/lab01_2.sol\":2189:2602  {... */\n      pop\n        /* \"contracts/lab01_2.sol\":2164:3068  if(msg.sender == playerA){... */\n      jump(tag_143)\n    tag_133:\n        /* \"contracts/lab01_2.sol\":2634:2641  playerA */\n      0x00\n      dup1\n      sload\n      swap1\n      0x0100\n      exp\n      swap1\n      div\n      0xffffffffffffffffffffffffffffffffffffffff\n      and\n        /* \"contracts/lab01_2.sol\":2620:2641  msg.sender == playerA */\n      0xffffffffffffffffffffffffffffffffffffffff\n      and\n        /* \"contracts/lab01_2.sol\":2620:2630  msg.sender */\n      caller\n        /* \"contracts/lab01_2.sol\":2620:2641  msg.sender == playerA */\n      0xffffffffffffffffffffffffffffffffffffffff\n      and\n      sub\n        /* \"contracts/lab01_2.sol\":2617:3068  if(msg.sender == playerA){... */\n      tag_144\n      jumpi\n        /* \"contracts/lab01_2.sol\":2684:2689  false */\n      0x00\n        /* \"contracts/lab01_2.sol\":2665:2689  playerBRevealed == false */\n      iszero\n      iszero\n        /* \"contracts/lab01_2.sol\":2665:2680  playerBRevealed */\n      0x06\n      0x00\n      swap1\n      sload\n      swap1\n      0x0100\n      exp\n      swap1\n      div\n      0xff\n      and\n        /* \"contracts/lab01_2.sol\":2665:2689  playerBRevealed == false */\n      iszero\n      iszero\n      eq\n        /* \"contracts/lab01_2.sol\":2657:2719  require(playerBRevealed == false, \"You have already revealed\") */\n      tag_145\n      jumpi\n      mload(0x40)\n      0x08c379a000000000000000000000000000000000000000000000000000000000\n      dup2\n      mstore\n      0x04\n      add\n      tag_146\n      swap1\n      tag_136\n      jump\t// in\n    tag_146:\n      mload(0x40)\n      dup1\n      swap2\n      sub\n      swap1\n      revert\n    tag_145:\n        /* \"contracts/lab01_2.sol\":2734:2751  bytes32 checkVote */\n      0x00\n        /* \"contracts/lab01_2.sol\":2781:2786  _move */\n      dup3\n        /* \"contracts/lab01_2.sol\":2788:2792  salt */\n      dup3\n        /* \"contracts/lab01_2.sol\":2764:2793  abi.encodePacked(_move, salt) */\n      add(0x20, mload(0x40))\n      tag_147\n      swap3\n      swap2\n      swap1\n      tag_109\n      jump\t// in\n    tag_147:\n      mload(0x40)\n      0x20\n      dup2\n      dup4\n      sub\n      sub\n      dup2\n      mstore\n      swap1\n      0x40\n      mstore\n        /* \"contracts/lab01_2.sol\":2754:2794  keccak256(abi.encodePacked(_move, salt)) */\n      dup1\n      mload\n      swap1\n      0x20\n      add\n      keccak256\n        /* \"contracts/lab01_2.sol\":2734:2794  bytes32 checkVote = keccak256(abi.encodePacked(_move, salt)) */\n      swap1\n      pop\n        /* \"contracts/lab01_2.sol\":2830:2844  playerBEncVote */\n      sload(0x04)\n        /* \"contracts/lab01_2.sol\":2817:2826  checkVote */\n      dup2\n        /* \"contracts/lab01_2.sol\":2817:2844  checkVote == playerBEncVote */\n      eq\n        /* \"contracts/lab01_2.sol\":2809:2863  require(checkVote == playerBEncVote, \"Invalid reveal\") */\n      tag_148\n      jumpi\n      mload(0x40)\n      0x08c379a000000000000000000000000000000000000000000000000000000000\n      dup2\n      mstore\n      0x04\n      add\n      tag_149\n      swap1\n      tag_140\n      jump\t// in\n    tag_149:\n      mload(0x40)\n      dup1\n      swap2\n      sub\n      swap1\n      revert\n    tag_148:\n        /* \"contracts/lab01_2.sol\":2893:2898  _move */\n      dup3\n        /* \"contracts/lab01_2.sol\":2879:2890  playerBVote */\n      0x05\n        /* \"contracts/lab01_2.sol\":2879:2898  playerBVote = _move */\n      dup2\n      swap1\n      sstore\n      pop\n        /* \"contracts/lab01_2.sol\":2931:2935  true */\n      0x01\n        /* \"contracts/lab01_2.sol\":2913:2928  playerBRevealed */\n      0x06\n      0x00\n        /* \"contracts/lab01_2.sol\":2913:2935  playerBRevealed = true */\n      0x0100\n      exp\n      dup2\n      sload\n      dup2\n      0xff\n      mul\n      not\n      and\n      swap1\n      dup4\n      iszero\n      iszero\n      mul\n      or\n      swap1\n      sstore\n      pop\n        /* \"contracts/lab01_2.sol\":2955:2985  revealEvent(msg.sender, _move) */\n      0xf171bd6ddf36696fe0e7c299df1970ee9347e8229ef483465fe9f8862995c530\n        /* \"contracts/lab01_2.sol\":2967:2977  msg.sender */\n      caller\n        /* \"contracts/lab01_2.sol\":2979:2984  _move */\n      dup5\n        /* \"contracts/lab01_2.sol\":2955:2985  revealEvent(msg.sender, _move) */\n      mload(0x40)\n      tag_150\n      swap3\n      swap2\n      swap1\n      tag_142\n      jump\t// in\n    tag_150:\n      mload(0x40)\n      dup1\n      swap2\n      sub\n      swap1\n      log1\n        /* \"contracts/lab01_2.sol\":2642:2997  {... */\n      pop\n        /* \"contracts/lab01_2.sol\":2617:3068  if(msg.sender == playerA){... */\n      jump(tag_151)\n    tag_144:\n        /* \"contracts/lab01_2.sol\":3027:3056  revert(\"Can not find player\") */\n      mload(0x40)\n      0x08c379a000000000000000000000000000000000000000000000000000000000\n      dup2\n      mstore\n      0x04\n      add\n      tag_152\n      swap1\n      tag_153\n      jump\t// in\n    tag_152:\n      mload(0x40)\n      dup1\n      swap2\n      sub\n      swap1\n      revert\n        /* \"contracts/lab01_2.sol\":2617:3068  if(msg.sender == playerA){... */\n    tag_151:\n        /* \"contracts/lab01_2.sol\":2164:3068  if(msg.sender == playerA){... */\n    tag_143:\n        /* \"contracts/lab01_2.sol\":3100:3101  0 */\n      0x00\n        /* \"contracts/lab01_2.sol\":3082:3096  revealDeadline */\n      sload(0x09)\n        /* \"contracts/lab01_2.sol\":3082:3101  revealDeadline == 0 */\n      sub\n        /* \"contracts/lab01_2.sol\":3078:3191  if (revealDeadline == 0) {... */\n      tag_154\n      jumpi\n        /* \"contracts/lab01_2.sol\":3153:3155  60 */\n      0x3c\n        /* \"contracts/lab01_2.sol\":3135:3150  block.timestamp */\n      timestamp\n        /* \"contracts/lab01_2.sol\":3135:3155  block.timestamp + 60 */\n      tag_155\n      swap2\n      swap1\n      tag_156\n      jump\t// in\n    tag_155:\n        /* \"contracts/lab01_2.sol\":3118:3132  revealDeadline */\n      0x09\n        /* \"contracts/lab01_2.sol\":3118:3155  revealDeadline = block.timestamp + 60 */\n      dup2\n      swap1\n      sstore\n      pop\n        /* \"contracts/lab01_2.sol\":3078:3191  if (revealDeadline == 0) {... */\n    tag_154:\n        /* \"contracts/lab01_2.sol\":3223:3227  true */\n      0x01\n        /* \"contracts/lab01_2.sol\":3204:3227  playerARevealed == true */\n      iszero\n      iszero\n        /* \"contracts/lab01_2.sol\":3204:3219  playerARevealed */\n      0x03\n      0x00\n      swap1\n      sload\n      swap1\n      0x0100\n      exp\n      swap1\n      div\n      0xff\n      and\n        /* \"contracts/lab01_2.sol\":3204:3227  playerARevealed == true */\n      iszero\n      iszero\n      eq\n        /* \"contracts/lab01_2.sol\":3204:3254  playerARevealed == true && playerBRevealed == true */\n      dup1\n      iszero\n      tag_157\n      jumpi\n      pop\n        /* \"contracts/lab01_2.sol\":3250:3254  true */\n      0x01\n        /* \"contracts/lab01_2.sol\":3231:3254  playerBRevealed == true */\n      iszero\n      iszero\n        /* \"contracts/lab01_2.sol\":3231:3246  playerBRevealed */\n      0x06\n      0x00\n      swap1\n      sload\n      swap1\n      0x0100\n      exp\n      swap1\n      div\n      0xff\n      and\n        /* \"contracts/lab01_2.sol\":3231:3254  playerBRevealed == true */\n      iszero\n      iszero\n      eq\n        /* \"contracts/lab01_2.sol\":3204:3254  playerARevealed == true && playerBRevealed == true */\n    tag_157:\n        /* \"contracts/lab01_2.sol\":3201:3359  if(playerARevealed == true && playerBRevealed == true) {... */\n      iszero\n      tag_158\n      jumpi\n        /* \"contracts/lab01_2.sol\":3280:3292  findWinner() */\n      tag_159\n        /* \"contracts/lab01_2.sol\":3280:3290  findWinner */\n      tag_160\n        /* \"contracts/lab01_2.sol\":3280:3292  findWinner() */\n      jump\t// in\n    tag_159:\n        /* \"contracts/lab01_2.sol\":3271:3277  winner */\n      0x08\n      0x00\n        /* \"contracts/lab01_2.sol\":3271:3292  winner = findWinner() */\n      0x0100\n      exp\n      dup2\n      sload\n      dup2\n      0xffffffffffffffffffffffffffffffffffffffff\n      mul\n      not\n      and\n      swap1\n      dup4\n      0xffffffffffffffffffffffffffffffffffffffff\n      and\n      mul\n      or\n      swap1\n      sstore\n      pop\n        /* \"contracts/lab01_2.sol\":3318:3322  true */\n      0x01\n        /* \"contracts/lab01_2.sol\":3307:3315  gameDone */\n      0x08\n      0x14\n        /* \"contracts/lab01_2.sol\":3307:3322  gameDone = true */\n      0x0100\n      exp\n      dup2\n      sload\n      dup2\n      0xff\n      mul\n      not\n      and\n      swap1\n      dup4\n      iszero\n      iszero\n      mul\n      or\n      swap1\n      sstore\n      pop\n        /* \"contracts/lab01_2.sol\":3337:3347  withdraw() */\n      tag_161\n        /* \"contracts/lab01_2.sol\":3337:3345  withdraw */\n      tag_162\n        /* \"contracts/lab01_2.sol\":3337:3347  withdraw() */\n      jump\t// in\n    tag_161:\n        /* \"contracts/lab01_2.sol\":3201:3359  if(playerARevealed == true && playerBRevealed == true) {... */\n    tag_158:\n        /* \"contracts/lab01_2.sol\":1933:3366  function reveal(uint256 _move, uint256 salt) public {... */\n      pop\n      pop\n      jump\t// out\n        /* \"contracts/lab01_2.sol\":272:294  address public playerA */\n    tag_65:\n      0x00\n      dup1\n      sload\n      swap1\n      0x0100\n      exp\n      swap1\n      div\n      0xffffffffffffffffffffffffffffffffffffffff\n      and\n      dup2\n      jump\t// out\n        /* \"contracts/lab01_2.sol\":3897:4480  function forceWin() public {... */\n    tag_69:\n        /* \"contracts/lab01_2.sol\":3960:3961  0 */\n      0x00\n        /* \"contracts/lab01_2.sol\":3943:3957  revealDeadline */\n      sload(0x09)\n        /* \"contracts/lab01_2.sol\":3943:3961  revealDeadline > 0 */\n      gt\n        /* \"contracts/lab01_2.sol\":3935:3994  require(revealDeadline > 0, \"Reveal phase has not started\") */\n      tag_164\n      jumpi\n      mload(0x40)\n      0x08c379a000000000000000000000000000000000000000000000000000000000\n      dup2\n      mstore\n      0x04\n      add\n      tag_165\n      swap1\n      tag_166\n      jump\t// in\n    tag_165:\n      mload(0x40)\n      dup1\n      swap2\n      sub\n      swap1\n      revert\n    tag_164:\n        /* \"contracts/lab01_2.sol\":4031:4045  revealDeadline */\n      sload(0x09)\n        /* \"contracts/lab01_2.sol\":4013:4028  block.timestamp */\n      timestamp\n        /* \"contracts/lab01_2.sol\":4013:4045  block.timestamp > revealDeadline */\n      gt\n        /* \"contracts/lab01_2.sol\":4005:4077  require(block.timestamp > revealDeadline, \"Reveal time has not expired\") */\n      tag_167\n      jumpi\n      mload(0x40)\n      0x08c379a000000000000000000000000000000000000000000000000000000000\n      dup2\n      mstore\n      0x04\n      add\n      tag_168\n      swap1\n      tag_169\n      jump\t// in\n    tag_168:\n      mload(0x40)\n      dup1\n      swap2\n      sub\n      swap1\n      revert\n    tag_167:\n        /* \"contracts/lab01_2.sol\":4097:4105  gameDone */\n      0x08\n      0x14\n      swap1\n      sload\n      swap1\n      0x0100\n      exp\n      swap1\n      div\n      0xff\n      and\n        /* \"contracts/lab01_2.sol\":4096:4105  !gameDone */\n      iszero\n        /* \"contracts/lab01_2.sol\":4088:4130  require(!gameDone, \"Game is already done\") */\n      tag_170\n      jumpi\n      mload(0x40)\n      0x08c379a000000000000000000000000000000000000000000000000000000000\n      dup2\n      mstore\n      0x04\n      add\n      tag_171\n      swap1\n      tag_172\n      jump\t// in\n    tag_171:\n      mload(0x40)\n      dup1\n      swap2\n      sub\n      swap1\n      revert\n    tag_170:\n        /* \"contracts/lab01_2.sol\":4195:4210  playerARevealed */\n      0x03\n      0x00\n      swap1\n      sload\n      swap1\n      0x0100\n      exp\n      swap1\n      div\n      0xff\n      and\n        /* \"contracts/lab01_2.sol\":4195:4230  playerARevealed && !playerBRevealed */\n      dup1\n      iszero\n      tag_173\n      jumpi\n      pop\n        /* \"contracts/lab01_2.sol\":4215:4230  playerBRevealed */\n      0x06\n      0x00\n      swap1\n      sload\n      swap1\n      0x0100\n      exp\n      swap1\n      div\n      0xff\n      and\n        /* \"contracts/lab01_2.sol\":4214:4230  !playerBRevealed */\n      iszero\n        /* \"contracts/lab01_2.sol\":4195:4230  playerARevealed && !playerBRevealed */\n    tag_173:\n        /* \"contracts/lab01_2.sol\":4191:4423  if (playerARevealed && !playerBRevealed) {... */\n      iszero\n      tag_174\n      jumpi\n        /* \"contracts/lab01_2.sol\":4256:4263  playerA */\n      0x00\n      dup1\n      sload\n      swap1\n      0x0100\n      exp\n      swap1\n      div\n      0xffffffffffffffffffffffffffffffffffffffff\n      and\n        /* \"contracts/lab01_2.sol\":4247:4253  winner */\n      0x08\n      0x00\n        /* \"contracts/lab01_2.sol\":4247:4263  winner = playerA */\n      0x0100\n      exp\n      dup2\n      sload\n      dup2\n      0xffffffffffffffffffffffffffffffffffffffff\n      mul\n      not\n      and\n      swap1\n      dup4\n      0xffffffffffffffffffffffffffffffffffffffff\n      and\n      mul\n      or\n      swap1\n      sstore\n      pop\n        /* \"contracts/lab01_2.sol\":4191:4423  if (playerARevealed && !playerBRevealed) {... */\n      jump(tag_175)\n    tag_174:\n        /* \"contracts/lab01_2.sol\":4343:4358  playerBRevealed */\n      0x06\n      0x00\n      swap1\n      sload\n      swap1\n      0x0100\n      exp\n      swap1\n      div\n      0xff\n      and\n        /* \"contracts/lab01_2.sol\":4343:4378  playerBRevealed && !playerARevealed */\n      dup1\n      iszero\n      tag_176\n      jumpi\n      pop\n        /* \"contracts/lab01_2.sol\":4363:4378  playerARevealed */\n      0x03\n      0x00\n      swap1\n      sload\n      swap1\n      0x0100\n      exp\n      swap1\n      div\n      0xff\n      and\n        /* \"contracts/lab01_2.sol\":4362:4378  !playerARevealed */\n      iszero\n        /* \"contracts/lab01_2.sol\":4343:4378  playerBRevealed && !playerARevealed */\n    tag_176:\n        /* \"contracts/lab01_2.sol\":4339:4423  if (playerBRevealed && !playerARevealed) {... */\n      iszero\n      tag_177\n      jumpi\n        /* \"contracts/lab01_2.sol\":4404:4411  playerB */\n      0x03\n      0x01\n      swap1\n      sload\n      swap1\n      0x0100\n      exp\n      swap1\n      div\n      0xffffffffffffffffffffffffffffffffffffffff\n      and\n        /* \"contracts/lab01_2.sol\":4395:4401  winner */\n      0x08\n      0x00\n        /* \"contracts/lab01_2.sol\":4395:4411  winner = playerB */\n      0x0100\n      exp\n      dup2\n      sload\n      dup2\n      0xffffffffffffffffffffffffffffffffffffffff\n      mul\n      not\n      and\n      swap1\n      dup4\n      0xffffffffffffffffffffffffffffffffffffffff\n      and\n      mul\n      or\n      swap1\n      sstore\n      pop\n        /* \"contracts/lab01_2.sol\":4339:4423  if (playerBRevealed && !playerARevealed) {... */\n    tag_177:\n        /* \"contracts/lab01_2.sol\":4191:4423  if (playerARevealed && !playerBRevealed) {... */\n    tag_175:\n        /* \"contracts/lab01_2.sol\":4447:4451  true */\n      0x01\n        /* \"contracts/lab01_2.sol\":4436:4444  gameDone */\n      0x08\n      0x14\n        /* \"contracts/lab01_2.sol\":4436:4451  gameDone = true */\n      0x0100\n      exp\n      dup2\n      sload\n      dup2\n      0xff\n      mul\n      not\n      and\n      swap1\n      dup4\n      iszero\n      iszero\n      mul\n      or\n      swap1\n      sstore\n      pop\n        /* \"contracts/lab01_2.sol\":4462:4472  withdraw() */\n      tag_178\n        /* \"contracts/lab01_2.sol\":4462:4470  withdraw */\n      tag_162\n        /* \"contracts/lab01_2.sol\":4462:4472  withdraw() */\n      jump\t// in\n    tag_178:\n        /* \"contracts/lab01_2.sol\":3897:4480  function forceWin() public {... */\n      jump\t// out\n        /* \"contracts/lab01_2.sol\":301:330  bytes32 public playerAEncVote */\n    tag_72:\n      sload(0x01)\n      dup2\n      jump\t// out\n        /* \"contracts/lab01_2.sol\":650:670  bool public gameDone */\n    tag_76:\n      0x08\n      0x14\n      swap1\n      sload\n      swap1\n      0x0100\n      exp\n      swap1\n      div\n      0xff\n      and\n      dup2\n      jump\t// out\n        /* \"contracts/lab01_2.sol\":677:706  uint256 public revealDeadline */\n    tag_80:\n      sload(0x09)\n      dup2\n      jump\t// out\n        /* \"contracts/lab01_2.sol\":199:235  uint256 public constant SCISSORS = 3 */\n    tag_84:\n        /* \"contracts/lab01_2.sol\":234:235  3 */\n      0x03\n        /* \"contracts/lab01_2.sol\":199:235  uint256 public constant SCISSORS = 3 */\n      dup2\n      jump\t// out\n        /* \"contracts/lab01_2.sol\":120:152  uint256 public constant ROCK = 1 */\n    tag_88:\n        /* \"contracts/lab01_2.sol\":151:152  1 */\n      0x01\n        /* \"contracts/lab01_2.sol\":120:152  uint256 public constant ROCK = 1 */\n      dup2\n      jump\t// out\n        /* \"contracts/lab01_2.sol\":159:192  uint256 public constant PAPER = 2 */\n    tag_92:\n        /* \"contracts/lab01_2.sol\":191:192  2 */\n      0x02\n        /* \"contracts/lab01_2.sol\":159:192  uint256 public constant PAPER = 2 */\n      dup2\n      jump\t// out\n        /* \"contracts/lab01_2.sol\":622:643  address public winner */\n    tag_96:\n      0x08\n      0x00\n      swap1\n      sload\n      swap1\n      0x0100\n      exp\n      swap1\n      div\n      0xffffffffffffffffffffffffffffffffffffffff\n      and\n      dup2\n      jump\t// out\n        /* \"contracts/lab01_2.sol\":3374:3891  function findWinner() private view returns (address) {... */\n    tag_160:\n        /* \"contracts/lab01_2.sol\":3418:3425  address */\n      0x00\n        /* \"contracts/lab01_2.sol\":3456:3467  playerBVote */\n      sload(0x05)\n        /* \"contracts/lab01_2.sol\":3441:3452  playerAVote */\n      sload(0x02)\n        /* \"contracts/lab01_2.sol\":3441:3467  playerAVote == playerBVote */\n      sub\n        /* \"contracts/lab01_2.sol\":3438:3884  if(playerAVote == playerBVote){... */\n      tag_180\n      jumpi\n        /* \"contracts/lab01_2.sol\":3498:3499  0 */\n      0x00\n        /* \"contracts/lab01_2.sol\":3483:3500  return address(0) */\n      swap1\n      pop\n      jump(tag_179)\n        /* \"contracts/lab01_2.sol\":3438:3884  if(playerAVote == playerBVote){... */\n    tag_180:\n        /* \"contracts/lab01_2.sol\":3568:3569  1 */\n      0x01\n        /* \"contracts/lab01_2.sol\":3553:3564  playerAVote */\n      sload(0x02)\n        /* \"contracts/lab01_2.sol\":3553:3569  playerAVote == 1 */\n      eq\n        /* \"contracts/lab01_2.sol\":3553:3589  playerAVote == 1 && playerBVote == 3 */\n      dup1\n      iszero\n      tag_182\n      jumpi\n      pop\n        /* \"contracts/lab01_2.sol\":3588:3589  3 */\n      0x03\n        /* \"contracts/lab01_2.sol\":3573:3584  playerBVote */\n      sload(0x05)\n        /* \"contracts/lab01_2.sol\":3573:3589  playerBVote == 3 */\n      eq\n        /* \"contracts/lab01_2.sol\":3553:3589  playerAVote == 1 && playerBVote == 3 */\n    tag_182:\n        /* \"contracts/lab01_2.sol\":3552:3668  (playerAVote == 1 && playerBVote == 3) || // Rock beats Scissors... */\n      dup1\n      tag_183\n      jumpi\n      pop\n        /* \"contracts/lab01_2.sol\":3646:3647  2 */\n      0x02\n        /* \"contracts/lab01_2.sol\":3631:3642  playerAVote */\n      dup1\n      sload\n        /* \"contracts/lab01_2.sol\":3631:3647  playerAVote == 2 */\n      eq\n        /* \"contracts/lab01_2.sol\":3631:3667  playerAVote == 2 && playerBVote == 1 */\n      dup1\n      iszero\n      tag_184\n      jumpi\n      pop\n        /* \"contracts/lab01_2.sol\":3666:3667  1 */\n      0x01\n        /* \"contracts/lab01_2.sol\":3651:3662  playerBVote */\n      sload(0x05)\n        /* \"contracts/lab01_2.sol\":3651:3667  playerBVote == 1 */\n      eq\n        /* \"contracts/lab01_2.sol\":3631:3667  playerAVote == 2 && playerBVote == 1 */\n    tag_184:\n        /* \"contracts/lab01_2.sol\":3552:3668  (playerAVote == 1 && playerBVote == 3) || // Rock beats Scissors... */\n    tag_183:\n        /* \"contracts/lab01_2.sol\":3552:3743  (playerAVote == 1 && playerBVote == 3) || // Rock beats Scissors... */\n      dup1\n      tag_185\n      jumpi\n      pop\n        /* \"contracts/lab01_2.sol\":3721:3722  3 */\n      0x03\n        /* \"contracts/lab01_2.sol\":3706:3717  playerAVote */\n      sload(0x02)\n        /* \"contracts/lab01_2.sol\":3706:3722  playerAVote == 3 */\n      eq\n        /* \"contracts/lab01_2.sol\":3706:3742  playerAVote == 3 && playerBVote == 2 */\n      dup1\n      iszero\n      tag_186\n      jumpi\n      pop\n        /* \"contracts/lab01_2.sol\":3741:3742  2 */\n      0x02\n        /* \"contracts/lab01_2.sol\":3726:3737  playerBVote */\n      sload(0x05)\n        /* \"contracts/lab01_2.sol\":3726:3742  playerBVote == 2 */\n      eq\n        /* \"contracts/lab01_2.sol\":3706:3742  playerAVote == 3 && playerBVote == 2 */\n    tag_186:\n        /* \"contracts/lab01_2.sol\":3552:3743  (playerAVote == 1 && playerBVote == 3) || // Rock beats Scissors... */\n    tag_185:\n        /* \"contracts/lab01_2.sol\":3535:3884  if(... */\n      iszero\n      tag_187\n      jumpi\n        /* \"contracts/lab01_2.sol\":3813:3820  playerA */\n      0x00\n      dup1\n      sload\n      swap1\n      0x0100\n      exp\n      swap1\n      div\n      0xffffffffffffffffffffffffffffffffffffffff\n      and\n        /* \"contracts/lab01_2.sol\":3806:3820  return playerA */\n      swap1\n      pop\n      jump(tag_179)\n        /* \"contracts/lab01_2.sol\":3535:3884  if(... */\n    tag_187:\n        /* \"contracts/lab01_2.sol\":3865:3872  playerB */\n      0x03\n      0x01\n      swap1\n      sload\n      swap1\n      0x0100\n      exp\n      swap1\n      div\n      0xffffffffffffffffffffffffffffffffffffffff\n      and\n        /* \"contracts/lab01_2.sol\":3858:3872  return playerB */\n      swap1\n      pop\n        /* \"contracts/lab01_2.sol\":3374:3891  function findWinner() private view returns (address) {... */\n    tag_179:\n      swap1\n      jump\t// out\n        /* \"contracts/lab01_2.sol\":4488:4918  function withdraw() private {... */\n    tag_162:\n        /* \"contracts/lab01_2.sol\":4548:4549  0 */\n      0x00\n        /* \"contracts/lab01_2.sol\":4530:4550  winner == address(0) */\n      0xffffffffffffffffffffffffffffffffffffffff\n      and\n        /* \"contracts/lab01_2.sol\":4530:4536  winner */\n      0x08\n      0x00\n      swap1\n      sload\n      swap1\n      0x0100\n      exp\n      swap1\n      div\n      0xffffffffffffffffffffffffffffffffffffffff\n      and\n        /* \"contracts/lab01_2.sol\":4530:4550  winner == address(0) */\n      0xffffffffffffffffffffffffffffffffffffffff\n      and\n      sub\n        /* \"contracts/lab01_2.sol\":4527:4879  if(winner == address(0)){... */\n      tag_190\n      jumpi\n        /* \"contracts/lab01_2.sol\":4574:4581  playerA */\n      0x00\n      dup1\n      sload\n      swap1\n      0x0100\n      exp\n      swap1\n      div\n      0xffffffffffffffffffffffffffffffffffffffff\n      and\n        /* \"contracts/lab01_2.sol\":4566:4591  payable(playerA).transfer */\n      0xffffffffffffffffffffffffffffffffffffffff\n      and\n        /* \"contracts/lab01_2.sol\":4566:4598  payable(playerA).transfer(stake) */\n      0x08fc\n        /* \"contracts/lab01_2.sol\":4592:4597  stake */\n      sload(0x07)\n        /* \"contracts/lab01_2.sol\":4566:4598  payable(playerA).transfer(stake) */\n      swap1\n      dup2\n      iszero\n      mul\n      swap1\n      mload(0x40)\n      0x00\n      mload(0x40)\n      dup1\n      dup4\n      sub\n      dup2\n      dup6\n      dup9\n      dup9\n      call\n      swap4\n      pop\n      pop\n      pop\n      pop\n      iszero\n      dup1\n      iszero\n      tag_192\n      jumpi\n      returndatasize\n      0x00\n      dup1\n      returndatacopy\n      revert(0x00, returndatasize)\n    tag_192:\n      pop\n        /* \"contracts/lab01_2.sol\":4621:4628  playerB */\n      0x03\n      0x01\n      swap1\n      sload\n      swap1\n      0x0100\n      exp\n      swap1\n      div\n      0xffffffffffffffffffffffffffffffffffffffff\n      and\n        /* \"contracts/lab01_2.sol\":4613:4638  payable(playerB).transfer */\n      0xffffffffffffffffffffffffffffffffffffffff\n      and\n        /* \"contracts/lab01_2.sol\":4613:4645  payable(playerB).transfer(stake) */\n      0x08fc\n        /* \"contracts/lab01_2.sol\":4639:4644  stake */\n      sload(0x07)\n        /* \"contracts/lab01_2.sol\":4613:4645  payable(playerB).transfer(stake) */\n      swap1\n      dup2\n      iszero\n      mul\n      swap1\n      mload(0x40)\n      0x00\n      mload(0x40)\n      dup1\n      dup4\n      sub\n      dup2\n      dup6\n      dup9\n      dup9\n      call\n      swap4\n      pop\n      pop\n      pop\n      pop\n      iszero\n      dup1\n      iszero\n      tag_194\n      jumpi\n      returndatasize\n      0x00\n      dup1\n      returndatacopy\n      revert(0x00, returndatasize)\n    tag_194:\n      pop\n        /* \"contracts/lab01_2.sol\":4665:4694  withdrawEvent(playerA, stake) */\n      0x87d5f4772963d1f9b76047158b4ae97c420a1b3bff2a746c828beffd9e7c3e26\n        /* \"contracts/lab01_2.sol\":4679:4686  playerA */\n      0x00\n      dup1\n      sload\n      swap1\n      0x0100\n      exp\n      swap1\n      div\n      0xffffffffffffffffffffffffffffffffffffffff\n      and\n        /* \"contracts/lab01_2.sol\":4688:4693  stake */\n      sload(0x07)\n        /* \"contracts/lab01_2.sol\":4665:4694  withdrawEvent(playerA, stake) */\n      mload(0x40)\n      tag_195\n      swap3\n      swap2\n      swap1\n      tag_142\n      jump\t// in\n    tag_195:\n      mload(0x40)\n      dup1\n      swap2\n      sub\n      swap1\n      log1\n        /* \"contracts/lab01_2.sol\":4714:4743  withdrawEvent(playerB, stake) */\n      0x87d5f4772963d1f9b76047158b4ae97c420a1b3bff2a746c828beffd9e7c3e26\n        /* \"contracts/lab01_2.sol\":4728:4735  playerB */\n      0x03\n      0x01\n      swap1\n      sload\n      swap1\n      0x0100\n      exp\n      swap1\n      div\n      0xffffffffffffffffffffffffffffffffffffffff\n      and\n        /* \"contracts/lab01_2.sol\":4737:4742  stake */\n      sload(0x07)\n        /* \"contracts/lab01_2.sol\":4714:4743  withdrawEvent(playerB, stake) */\n      mload(0x40)\n      tag_196\n      swap3\n      swap2\n      swap1\n      tag_142\n      jump\t// in\n    tag_196:\n      mload(0x40)\n      dup1\n      swap2\n      sub\n      swap1\n      log1\n        /* \"contracts/lab01_2.sol\":4527:4879  if(winner == address(0)){... */\n      jump(tag_197)\n    tag_190:\n        /* \"contracts/lab01_2.sol\":4792:4798  winner */\n      0x08\n      0x00\n      swap1\n      sload\n      swap1\n      0x0100\n      exp\n      swap1\n      div\n      0xffffffffffffffffffffffffffffffffffffffff\n      and\n        /* \"contracts/lab01_2.sol\":4784:4808  payable(winner).transfer */\n      0xffffffffffffffffffffffffffffffffffffffff\n      and\n        /* \"contracts/lab01_2.sol\":4784:4817  payable(winner).transfer(stake*2) */\n      0x08fc\n        /* \"contracts/lab01_2.sol\":4815:4816  2 */\n      0x02\n        /* \"contracts/lab01_2.sol\":4809:4814  stake */\n      sload(0x07)\n        /* \"contracts/lab01_2.sol\":4809:4816  stake*2 */\n      tag_198\n      swap2\n      swap1\n      tag_199\n      jump\t// in\n    tag_198:\n        /* \"contracts/lab01_2.sol\":4784:4817  payable(winner).transfer(stake*2) */\n      swap1\n      dup2\n      iszero\n      mul\n      swap1\n      mload(0x40)\n      0x00\n      mload(0x40)\n      dup1\n      dup4\n      sub\n      dup2\n      dup6\n      dup9\n      dup9\n      call\n      swap4\n      pop\n      pop\n      pop\n      pop\n      iszero\n      dup1\n      iszero\n      tag_201\n      jumpi\n      returndatasize\n      0x00\n      dup1\n      returndatacopy\n      revert(0x00, returndatasize)\n    tag_201:\n      pop\n        /* \"contracts/lab01_2.sol\":4837:4867  withdrawEvent(winner, stake*2) */\n      0x87d5f4772963d1f9b76047158b4ae97c420a1b3bff2a746c828beffd9e7c3e26\n        /* \"contracts/lab01_2.sol\":4851:4857  winner */\n      0x08\n      0x00\n      swap1\n      sload\n      swap1\n      0x0100\n      exp\n      swap1\n      div\n      0xffffffffffffffffffffffffffffffffffffffff\n      and\n        /* \"contracts/lab01_2.sol\":4865:4866  2 */\n      0x02\n        /* \"contracts/lab01_2.sol\":4859:4864  stake */\n      sload(0x07)\n        /* \"contracts/lab01_2.sol\":4859:4866  stake*2 */\n      tag_202\n      swap2\n      swap1\n      tag_199\n      jump\t// in\n    tag_202:\n        /* \"contracts/lab01_2.sol\":4837:4867  withdrawEvent(winner, stake*2) */\n      mload(0x40)\n      tag_203\n      swap3\n      swap2\n      swap1\n      tag_142\n      jump\t// in\n    tag_203:\n      mload(0x40)\n      dup1\n      swap2\n      sub\n      swap1\n      log1\n        /* \"contracts/lab01_2.sol\":4527:4879  if(winner == address(0)){... */\n    tag_197:\n        /* \"contracts/lab01_2.sol\":4899:4910  resetGame() */\n      tag_204\n        /* \"contracts/lab01_2.sol\":4899:4908  resetGame */\n      tag_205\n        /* \"contracts/lab01_2.sol\":4899:4910  resetGame() */\n      jump\t// in\n    tag_204:\n        /* \"contracts/lab01_2.sol\":4488:4918  function withdraw() private {... */\n      jump\t// out\n        /* \"contracts/lab01_2.sol\":4926:5330  function resetGame() private{... */\n    tag_205:\n        /* \"contracts/lab01_2.sol\":4983:4984  0 */\n      0x00\n        /* \"contracts/lab01_2.sol\":4965:4972  playerA */\n      dup1\n      0x00\n        /* \"contracts/lab01_2.sol\":4965:4985  playerA = address(0) */\n      0x0100\n      exp\n      dup2\n      sload\n      dup2\n      0xffffffffffffffffffffffffffffffffffffffff\n      mul\n      not\n      and\n      swap1\n      dup4\n      0xffffffffffffffffffffffffffffffffffffffff\n      and\n      mul\n      or\n      swap1\n      sstore\n      pop\n        /* \"contracts/lab01_2.sol\":5021:5022  0 */\n      0x00\n        /* \"contracts/lab01_2.sol\":5013:5023  bytes32(0) */\n      dup1\n      shl\n        /* \"contracts/lab01_2.sol\":4996:5010  playerAEncVote */\n      0x01\n        /* \"contracts/lab01_2.sol\":4996:5023  playerAEncVote = bytes32(0) */\n      dup2\n      swap1\n      sstore\n      pop\n        /* \"contracts/lab01_2.sol\":5048:5049  0 */\n      0x00\n        /* \"contracts/lab01_2.sol\":5034:5045  playerAVote */\n      0x02\n        /* \"contracts/lab01_2.sol\":5034:5049  playerAVote = 0 */\n      dup2\n      swap1\n      sstore\n      pop\n        /* \"contracts/lab01_2.sol\":5078:5083  false */\n      0x00\n        /* \"contracts/lab01_2.sol\":5060:5075  playerARevealed */\n      0x03\n      0x00\n        /* \"contracts/lab01_2.sol\":5060:5083  playerARevealed = false */\n      0x0100\n      exp\n      dup2\n      sload\n      dup2\n      0xff\n      mul\n      not\n      and\n      swap1\n      dup4\n      iszero\n      iszero\n      mul\n      or\n      swap1\n      sstore\n      pop\n        /* \"contracts/lab01_2.sol\":5114:5115  0 */\n      0x00\n        /* \"contracts/lab01_2.sol\":5096:5103  playerB */\n      0x03\n      0x01\n        /* \"contracts/lab01_2.sol\":5096:5116  playerB = address(0) */\n      0x0100\n      exp\n      dup2\n      sload\n      dup2\n      0xffffffffffffffffffffffffffffffffffffffff\n      mul\n      not\n      and\n      swap1\n      dup4\n      0xffffffffffffffffffffffffffffffffffffffff\n      and\n      mul\n      or\n      swap1\n      sstore\n      pop\n        /* \"contracts/lab01_2.sol\":5152:5153  0 */\n      0x00\n        /* \"contracts/lab01_2.sol\":5144:5154  bytes32(0) */\n      dup1\n      shl\n        /* \"contracts/lab01_2.sol\":5127:5141  playerBEncVote */\n      0x04\n        /* \"contracts/lab01_2.sol\":5127:5154  playerBEncVote = bytes32(0) */\n      dup2\n      swap1\n      sstore\n      pop\n        /* \"contracts/lab01_2.sol\":5179:5180  0 */\n      0x00\n        /* \"contracts/lab01_2.sol\":5165:5176  playerBVote */\n      0x05\n        /* \"contracts/lab01_2.sol\":5165:5180  playerBVote = 0 */\n      dup2\n      swap1\n      sstore\n      pop\n        /* \"contracts/lab01_2.sol\":5209:5214  false */\n      0x00\n        /* \"contracts/lab01_2.sol\":5191:5206  playerBRevealed */\n      0x06\n      0x00\n        /* \"contracts/lab01_2.sol\":5191:5214  playerBRevealed = false */\n      0x0100\n      exp\n      dup2\n      sload\n      dup2\n      0xff\n      mul\n      not\n      and\n      swap1\n      dup4\n      iszero\n      iszero\n      mul\n      or\n      swap1\n      sstore\n      pop\n        /* \"contracts/lab01_2.sol\":5235:5236  0 */\n      0x00\n        /* \"contracts/lab01_2.sol\":5227:5232  stake */\n      0x07\n        /* \"contracts/lab01_2.sol\":5227:5236  stake = 0 */\n      dup2\n      swap1\n      sstore\n      pop\n        /* \"contracts/lab01_2.sol\":5264:5265  0 */\n      0x00\n        /* \"contracts/lab01_2.sol\":5247:5253  winner */\n      0x08\n      0x00\n        /* \"contracts/lab01_2.sol\":5247:5266  winner = address(0) */\n      0x0100\n      exp\n      dup2\n      sload\n      dup2\n      0xffffffffffffffffffffffffffffffffffffffff\n      mul\n      not\n      and\n      swap1\n      dup4\n      0xffffffffffffffffffffffffffffffffffffffff\n      and\n      mul\n      or\n      swap1\n      sstore\n      pop\n        /* \"contracts/lab01_2.sol\":5288:5293  false */\n      0x00\n        /* \"contracts/lab01_2.sol\":5277:5285  gameDone */\n      0x08\n      0x14\n        /* \"contracts/lab01_2.sol\":5277:5293  gameDone = false */\n      0x0100\n      exp\n      dup2\n      sload\n      dup2\n      0xff\n      mul\n      not\n      and\n      swap1\n      dup4\n      iszero\n      iszero\n      mul\n      or\n      swap1\n      sstore\n      pop\n        /* \"contracts/lab01_2.sol\":5321:5322  0 */\n      0x00\n        /* \"contracts/lab01_2.sol\":5304:5318  revealDeadline */\n      0x09\n        /* \"contracts/lab01_2.sol\":5304:5322  revealDeadline = 0 */\n      dup2\n      swap1\n      sstore\n      pop\n        /* \"contracts/lab01_2.sol\":4926:5330  function resetGame() private{... */\n      jump\t// out\n        /* \"#utility.yul\":7:84   */\n    tag_207:\n        /* \"#utility.yul\":44:51   */\n      0x00\n        /* \"#utility.yul\":73:78   */\n      dup2\n        /* \"#utility.yul\":62:78   */\n      swap1\n      pop\n        /* \"#utility.yul\":7:84   */\n      swap2\n      swap1\n      pop\n      jump\t// out\n        /* \"#utility.yul\":90:208   */\n    tag_208:\n        /* \"#utility.yul\":177:201   */\n      tag_254\n        /* \"#utility.yul\":195:200   */\n      dup2\n        /* \"#utility.yul\":177:201   */\n      tag_207\n      jump\t// in\n    tag_254:\n        /* \"#utility.yul\":172:175   */\n      dup3\n        /* \"#utility.yul\":165:202   */\n      mstore\n        /* \"#utility.yul\":90:208   */\n      pop\n      pop\n      jump\t// out\n        /* \"#utility.yul\":214:436   */\n    tag_27:\n        /* \"#utility.yul\":307:311   */\n      0x00\n        /* \"#utility.yul\":345:347   */\n      0x20\n        /* \"#utility.yul\":334:343   */\n      dup3\n        /* \"#utility.yul\":330:348   */\n      add\n        /* \"#utility.yul\":322:348   */\n      swap1\n      pop\n        /* \"#utility.yul\":358:429   */\n      tag_256\n        /* \"#utility.yul\":426:427   */\n      0x00\n        /* \"#utility.yul\":415:424   */\n      dup4\n        /* \"#utility.yul\":411:428   */\n      add\n        /* \"#utility.yul\":402:408   */\n      dup5\n        /* \"#utility.yul\":358:429   */\n      tag_208\n      jump\t// in\n    tag_256:\n        /* \"#utility.yul\":214:436   */\n      swap3\n      swap2\n      pop\n      pop\n      jump\t// out\n        /* \"#utility.yul\":442:532   */\n    tag_209:\n        /* \"#utility.yul\":476:483   */\n      0x00\n        /* \"#utility.yul\":519:524   */\n      dup2\n        /* \"#utility.yul\":512:525   */\n      iszero\n        /* \"#utility.yul\":505:526   */\n      iszero\n        /* \"#utility.yul\":494:526   */\n      swap1\n      pop\n        /* \"#utility.yul\":442:532   */\n      swap2\n      swap1\n      pop\n      jump\t// out\n        /* \"#utility.yul\":538:647   */\n    tag_210:\n        /* \"#utility.yul\":619:640   */\n      tag_259\n        /* \"#utility.yul\":634:639   */\n      dup2\n        /* \"#utility.yul\":619:640   */\n      tag_209\n      jump\t// in\n    tag_259:\n        /* \"#utility.yul\":614:617   */\n      dup3\n        /* \"#utility.yul\":607:641   */\n      mstore\n        /* \"#utility.yul\":538:647   */\n      pop\n      pop\n      jump\t// out\n        /* \"#utility.yul\":653:863   */\n    tag_32:\n        /* \"#utility.yul\":740:744   */\n      0x00\n        /* \"#utility.yul\":778:780   */\n      0x20\n        /* \"#utility.yul\":767:776   */\n      dup3\n        /* \"#utility.yul\":763:781   */\n      add\n        /* \"#utility.yul\":755:781   */\n      swap1\n      pop\n        /* \"#utility.yul\":791:856   */\n      tag_261\n        /* \"#utility.yul\":853:854   */\n      0x00\n        /* \"#utility.yul\":842:851   */\n      dup4\n        /* \"#utility.yul\":838:855   */\n      add\n        /* \"#utility.yul\":829:835   */\n      dup5\n        /* \"#utility.yul\":791:856   */\n      tag_210\n      jump\t// in\n    tag_261:\n        /* \"#utility.yul\":653:863   */\n      swap3\n      swap2\n      pop\n      pop\n      jump\t// out\n        /* \"#utility.yul\":869:995   */\n    tag_211:\n        /* \"#utility.yul\":906:913   */\n      0x00\n        /* \"#utility.yul\":946:988   */\n      0xffffffffffffffffffffffffffffffffffffffff\n        /* \"#utility.yul\":939:944   */\n      dup3\n        /* \"#utility.yul\":935:989   */\n      and\n        /* \"#utility.yul\":924:989   */\n      swap1\n      pop\n        /* \"#utility.yul\":869:995   */\n      swap2\n      swap1\n      pop\n      jump\t// out\n        /* \"#utility.yul\":1001:1097   */\n    tag_212:\n        /* \"#utility.yul\":1038:1045   */\n      0x00\n        /* \"#utility.yul\":1067:1091   */\n      tag_264\n        /* \"#utility.yul\":1085:1090   */\n      dup3\n        /* \"#utility.yul\":1067:1091   */\n      tag_211\n      jump\t// in\n    tag_264:\n        /* \"#utility.yul\":1056:1091   */\n      swap1\n      pop\n        /* \"#utility.yul\":1001:1097   */\n      swap2\n      swap1\n      pop\n      jump\t// out\n        /* \"#utility.yul\":1103:1221   */\n    tag_213:\n        /* \"#utility.yul\":1190:1214   */\n      tag_266\n        /* \"#utility.yul\":1208:1213   */\n      dup2\n        /* \"#utility.yul\":1190:1214   */\n      tag_212\n      jump\t// in\n    tag_266:\n        /* \"#utility.yul\":1185:1188   */\n      dup3\n        /* \"#utility.yul\":1178:1215   */\n      mstore\n        /* \"#utility.yul\":1103:1221   */\n      pop\n      pop\n      jump\t// out\n        /* \"#utility.yul\":1227:1449   */\n    tag_37:\n        /* \"#utility.yul\":1320:1324   */\n      0x00\n        /* \"#utility.yul\":1358:1360   */\n      0x20\n        /* \"#utility.yul\":1347:1356   */\n      dup3\n        /* \"#utility.yul\":1343:1361   */\n      add\n        /* \"#utility.yul\":1335:1361   */\n      swap1\n      pop\n        /* \"#utility.yul\":1371:1442   */\n      tag_268\n        /* \"#utility.yul\":1439:1440   */\n      0x00\n        /* \"#utility.yul\":1428:1437   */\n      dup4\n        /* \"#utility.yul\":1424:1441   */\n      add\n        /* \"#utility.yul\":1415:1421   */\n      dup5\n        /* \"#utility.yul\":1371:1442   */\n      tag_213\n      jump\t// in\n    tag_268:\n        /* \"#utility.yul\":1227:1449   */\n      swap3\n      swap2\n      pop\n      pop\n      jump\t// out\n        /* \"#utility.yul\":1455:1532   */\n    tag_214:\n        /* \"#utility.yul\":1492:1499   */\n      0x00\n        /* \"#utility.yul\":1521:1526   */\n      dup2\n        /* \"#utility.yul\":1510:1526   */\n      swap1\n      pop\n        /* \"#utility.yul\":1455:1532   */\n      swap2\n      swap1\n      pop\n      jump\t// out\n        /* \"#utility.yul\":1538:1656   */\n    tag_215:\n        /* \"#utility.yul\":1625:1649   */\n      tag_271\n        /* \"#utility.yul\":1643:1648   */\n      dup2\n        /* \"#utility.yul\":1625:1649   */\n      tag_214\n      jump\t// in\n    tag_271:\n        /* \"#utility.yul\":1620:1623   */\n      dup3\n        /* \"#utility.yul\":1613:1650   */\n      mstore\n        /* \"#utility.yul\":1538:1656   */\n      pop\n      pop\n      jump\t// out\n        /* \"#utility.yul\":1662:1884   */\n    tag_50:\n        /* \"#utility.yul\":1755:1759   */\n      0x00\n        /* \"#utility.yul\":1793:1795   */\n      0x20\n        /* \"#utility.yul\":1782:1791   */\n      dup3\n        /* \"#utility.yul\":1778:1796   */\n      add\n        /* \"#utility.yul\":1770:1796   */\n      swap1\n      pop\n        /* \"#utility.yul\":1806:1877   */\n      tag_273\n        /* \"#utility.yul\":1874:1875   */\n      0x00\n        /* \"#utility.yul\":1863:1872   */\n      dup4\n        /* \"#utility.yul\":1859:1876   */\n      add\n        /* \"#utility.yul\":1850:1856   */\n      dup5\n        /* \"#utility.yul\":1806:1877   */\n      tag_215\n      jump\t// in\n    tag_273:\n        /* \"#utility.yul\":1662:1884   */\n      swap3\n      swap2\n      pop\n      pop\n      jump\t// out\n        /* \"#utility.yul\":1971:2088   */\n    tag_217:\n        /* \"#utility.yul\":2080:2081   */\n      0x00\n        /* \"#utility.yul\":2077:2078   */\n      dup1\n        /* \"#utility.yul\":2070:2082   */\n      revert\n        /* \"#utility.yul\":2217:2339   */\n    tag_219:\n        /* \"#utility.yul\":2290:2314   */\n      tag_278\n        /* \"#utility.yul\":2308:2313   */\n      dup2\n        /* \"#utility.yul\":2290:2314   */\n      tag_207\n      jump\t// in\n    tag_278:\n        /* \"#utility.yul\":2283:2288   */\n      dup2\n        /* \"#utility.yul\":2280:2315   */\n      eq\n        /* \"#utility.yul\":2270:2333   */\n      tag_279\n      jumpi\n        /* \"#utility.yul\":2329:2330   */\n      0x00\n        /* \"#utility.yul\":2326:2327   */\n      dup1\n        /* \"#utility.yul\":2319:2331   */\n      revert\n        /* \"#utility.yul\":2270:2333   */\n    tag_279:\n        /* \"#utility.yul\":2217:2339   */\n      pop\n      jump\t// out\n        /* \"#utility.yul\":2345:2484   */\n    tag_220:\n        /* \"#utility.yul\":2391:2396   */\n      0x00\n        /* \"#utility.yul\":2429:2435   */\n      dup2\n        /* \"#utility.yul\":2416:2436   */\n      calldataload\n        /* \"#utility.yul\":2407:2436   */\n      swap1\n      pop\n        /* \"#utility.yul\":2445:2478   */\n      tag_281\n        /* \"#utility.yul\":2472:2477   */\n      dup2\n        /* \"#utility.yul\":2445:2478   */\n      tag_219\n      jump\t// in\n    tag_281:\n        /* \"#utility.yul\":2345:2484   */\n      swap3\n      swap2\n      pop\n      pop\n      jump\t// out\n        /* \"#utility.yul\":2490:2964   */\n    tag_57:\n        /* \"#utility.yul\":2558:2564   */\n      0x00\n        /* \"#utility.yul\":2566:2572   */\n      dup1\n        /* \"#utility.yul\":2615:2617   */\n      0x40\n        /* \"#utility.yul\":2603:2612   */\n      dup4\n        /* \"#utility.yul\":2594:2601   */\n      dup6\n        /* \"#utility.yul\":2590:2613   */\n      sub\n        /* \"#utility.yul\":2586:2618   */\n      slt\n        /* \"#utility.yul\":2583:2702   */\n      iszero\n      tag_283\n      jumpi\n        /* \"#utility.yul\":2621:2700   */\n      tag_284\n      tag_217\n      jump\t// in\n    tag_284:\n        /* \"#utility.yul\":2583:2702   */\n    tag_283:\n        /* \"#utility.yul\":2741:2742   */\n      0x00\n        /* \"#utility.yul\":2766:2819   */\n      tag_285\n        /* \"#utility.yul\":2811:2818   */\n      dup6\n        /* \"#utility.yul\":2802:2808   */\n      dup3\n        /* \"#utility.yul\":2791:2800   */\n      dup7\n        /* \"#utility.yul\":2787:2809   */\n      add\n        /* \"#utility.yul\":2766:2819   */\n      tag_220\n      jump\t// in\n    tag_285:\n        /* \"#utility.yul\":2756:2819   */\n      swap3\n      pop\n        /* \"#utility.yul\":2712:2829   */\n      pop\n        /* \"#utility.yul\":2868:2870   */\n      0x20\n        /* \"#utility.yul\":2894:2947   */\n      tag_286\n        /* \"#utility.yul\":2939:2946   */\n      dup6\n        /* \"#utility.yul\":2930:2936   */\n      dup3\n        /* \"#utility.yul\":2919:2928   */\n      dup7\n        /* \"#utility.yul\":2915:2937   */\n      add\n        /* \"#utility.yul\":2894:2947   */\n      tag_220\n      jump\t// in\n    tag_286:\n        /* \"#utility.yul\":2884:2947   */\n      swap2\n      pop\n        /* \"#utility.yul\":2839:2957   */\n      pop\n        /* \"#utility.yul\":2490:2964   */\n      swap3\n      pop\n      swap3\n      swap1\n      pop\n      jump\t// out\n        /* \"#utility.yul\":2970:3139   */\n    tag_221:\n        /* \"#utility.yul\":3054:3065   */\n      0x00\n        /* \"#utility.yul\":3088:3094   */\n      dup3\n        /* \"#utility.yul\":3083:3086   */\n      dup3\n        /* \"#utility.yul\":3076:3095   */\n      mstore\n        /* \"#utility.yul\":3128:3132   */\n      0x20\n        /* \"#utility.yul\":3123:3126   */\n      dup3\n        /* \"#utility.yul\":3119:3133   */\n      add\n        /* \"#utility.yul\":3104:3133   */\n      swap1\n      pop\n        /* \"#utility.yul\":2970:3139   */\n      swap3\n      swap2\n      pop\n      pop\n      jump\t// out\n        /* \"#utility.yul\":3145:3319   */\n    tag_222:\n        /* \"#utility.yul\":3285:3311   */\n      0x426574206d757374206265206f76657220312065746865720000000000000000\n        /* \"#utility.yul\":3281:3282   */\n      0x00\n        /* \"#utility.yul\":3273:3279   */\n      dup3\n        /* \"#utility.yul\":3269:3283   */\n      add\n        /* \"#utility.yul\":3262:3312   */\n      mstore\n        /* \"#utility.yul\":3145:3319   */\n      pop\n      jump\t// out\n        /* \"#utility.yul\":3325:3691   */\n    tag_223:\n        /* \"#utility.yul\":3467:3470   */\n      0x00\n        /* \"#utility.yul\":3488:3555   */\n      tag_290\n        /* \"#utility.yul\":3552:3554   */\n      0x18\n        /* \"#utility.yul\":3547:3550   */\n      dup4\n        /* \"#utility.yul\":3488:3555   */\n      tag_221\n      jump\t// in\n    tag_290:\n        /* \"#utility.yul\":3481:3555   */\n      swap2\n      pop\n        /* \"#utility.yul\":3564:3657   */\n      tag_291\n        /* \"#utility.yul\":3653:3656   */\n      dup3\n        /* \"#utility.yul\":3564:3657   */\n      tag_222\n      jump\t// in\n    tag_291:\n        /* \"#utility.yul\":3682:3684   */\n      0x20\n        /* \"#utility.yul\":3677:3680   */\n      dup3\n        /* \"#utility.yul\":3673:3685   */\n      add\n        /* \"#utility.yul\":3666:3685   */\n      swap1\n      pop\n        /* \"#utility.yul\":3325:3691   */\n      swap2\n      swap1\n      pop\n      jump\t// out\n        /* \"#utility.yul\":3697:4116   */\n    tag_101:\n        /* \"#utility.yul\":3863:3867   */\n      0x00\n        /* \"#utility.yul\":3901:3903   */\n      0x20\n        /* \"#utility.yul\":3890:3899   */\n      dup3\n        /* \"#utility.yul\":3886:3904   */\n      add\n        /* \"#utility.yul\":3878:3904   */\n      swap1\n      pop\n        /* \"#utility.yul\":3950:3959   */\n      dup2\n        /* \"#utility.yul\":3944:3948   */\n      dup2\n        /* \"#utility.yul\":3940:3960   */\n      sub\n        /* \"#utility.yul\":3936:3937   */\n      0x00\n        /* \"#utility.yul\":3925:3934   */\n      dup4\n        /* \"#utility.yul\":3921:3938   */\n      add\n        /* \"#utility.yul\":3914:3961   */\n      mstore\n        /* \"#utility.yul\":3978:4109   */\n      tag_293\n        /* \"#utility.yul\":4104:4108   */\n      dup2\n        /* \"#utility.yul\":3978:4109   */\n      tag_223\n      jump\t// in\n    tag_293:\n        /* \"#utility.yul\":3970:4109   */\n      swap1\n      pop\n        /* \"#utility.yul\":3697:4116   */\n      swap2\n      swap1\n      pop\n      jump\t// out\n        /* \"#utility.yul\":4122:4284   */\n    tag_224:\n        /* \"#utility.yul\":4262:4276   */\n      0x496e76616c6964204d6f76650000000000000000000000000000000000000000\n        /* \"#utility.yul\":4258:4259   */\n      0x00\n        /* \"#utility.yul\":4250:4256   */\n      dup3\n        /* \"#utility.yul\":4246:4260   */\n      add\n        /* \"#utility.yul\":4239:4277   */\n      mstore\n        /* \"#utility.yul\":4122:4284   */\n      pop\n      jump\t// out\n        /* \"#utility.yul\":4290:4656   */\n    tag_225:\n        /* \"#utility.yul\":4432:4435   */\n      0x00\n        /* \"#utility.yul\":4453:4520   */\n      tag_296\n        /* \"#utility.yul\":4517:4519   */\n      0x0c\n        /* \"#utility.yul\":4512:4515   */\n      dup4\n        /* \"#utility.yul\":4453:4520   */\n      tag_221\n      jump\t// in\n    tag_296:\n        /* \"#utility.yul\":4446:4520   */\n      swap2\n      pop\n        /* \"#utility.yul\":4529:4622   */\n      tag_297\n        /* \"#utility.yul\":4618:4621   */\n      dup3\n        /* \"#utility.yul\":4529:4622   */\n      tag_224\n      jump\t// in\n    tag_297:\n        /* \"#utility.yul\":4647:4649   */\n      0x20\n        /* \"#utility.yul\":4642:4645   */\n      dup3\n        /* \"#utility.yul\":4638:4650   */\n      add\n        /* \"#utility.yul\":4631:4650   */\n      swap1\n      pop\n        /* \"#utility.yul\":4290:4656   */\n      swap2\n      swap1\n      pop\n      jump\t// out\n        /* \"#utility.yul\":4662:5081   */\n    tag_106:\n        /* \"#utility.yul\":4828:4832   */\n      0x00\n        /* \"#utility.yul\":4866:4868   */\n      0x20\n        /* \"#utility.yul\":4855:4864   */\n      dup3\n        /* \"#utility.yul\":4851:4869   */\n      add\n        /* \"#utility.yul\":4843:4869   */\n      swap1\n      pop\n        /* \"#utility.yul\":4915:4924   */\n      dup2\n        /* \"#utility.yul\":4909:4913   */\n      dup2\n        /* \"#utility.yul\":4905:4925   */\n      sub\n        /* \"#utility.yul\":4901:4902   */\n      0x00\n        /* \"#utility.yul\":4890:4899   */\n      dup4\n        /* \"#utility.yul\":4886:4903   */\n      add\n        /* \"#utility.yul\":4879:4926   */\n      mstore\n        /* \"#utility.yul\":4943:5074   */\n      tag_299\n        /* \"#utility.yul\":5069:5073   */\n      dup2\n        /* \"#utility.yul\":4943:5074   */\n      tag_225\n      jump\t// in\n    tag_299:\n        /* \"#utility.yul\":4935:5074   */\n      swap1\n      pop\n        /* \"#utility.yul\":4662:5081   */\n      swap2\n      swap1\n      pop\n      jump\t// out\n        /* \"#utility.yul\":5087:5166   */\n    tag_226:\n        /* \"#utility.yul\":5126:5133   */\n      0x00\n        /* \"#utility.yul\":5155:5160   */\n      dup2\n        /* \"#utility.yul\":5144:5160   */\n      swap1\n      pop\n        /* \"#utility.yul\":5087:5166   */\n      swap2\n      swap1\n      pop\n      jump\t// out\n        /* \"#utility.yul\":5172:5329   */\n    tag_227:\n        /* \"#utility.yul\":5277:5322   */\n      tag_302\n        /* \"#utility.yul\":5297:5321   */\n      tag_303\n        /* \"#utility.yul\":5315:5320   */\n      dup3\n        /* \"#utility.yul\":5297:5321   */\n      tag_207\n      jump\t// in\n    tag_303:\n        /* \"#utility.yul\":5277:5322   */\n      tag_226\n      jump\t// in\n    tag_302:\n        /* \"#utility.yul\":5272:5275   */\n      dup3\n        /* \"#utility.yul\":5265:5323   */\n      mstore\n        /* \"#utility.yul\":5172:5329   */\n      pop\n      pop\n      jump\t// out\n        /* \"#utility.yul\":5335:5732   */\n    tag_109:\n        /* \"#utility.yul\":5475:5478   */\n      0x00\n        /* \"#utility.yul\":5490:5565   */\n      tag_305\n        /* \"#utility.yul\":5561:5564   */\n      dup3\n        /* \"#utility.yul\":5552:5558   */\n      dup6\n        /* \"#utility.yul\":5490:5565   */\n      tag_227\n      jump\t// in\n    tag_305:\n        /* \"#utility.yul\":5590:5592   */\n      0x20\n        /* \"#utility.yul\":5585:5588   */\n      dup3\n        /* \"#utility.yul\":5581:5593   */\n      add\n        /* \"#utility.yul\":5574:5593   */\n      swap2\n      pop\n        /* \"#utility.yul\":5603:5678   */\n      tag_306\n        /* \"#utility.yul\":5674:5677   */\n      dup3\n        /* \"#utility.yul\":5665:5671   */\n      dup5\n        /* \"#utility.yul\":5603:5678   */\n      tag_227\n      jump\t// in\n    tag_306:\n        /* \"#utility.yul\":5703:5705   */\n      0x20\n        /* \"#utility.yul\":5698:5701   */\n      dup3\n        /* \"#utility.yul\":5694:5706   */\n      add\n        /* \"#utility.yul\":5687:5706   */\n      swap2\n      pop\n        /* \"#utility.yul\":5723:5726   */\n      dup2\n        /* \"#utility.yul\":5716:5726   */\n      swap1\n      pop\n        /* \"#utility.yul\":5335:5732   */\n      swap4\n      swap3\n      pop\n      pop\n      pop\n      jump\t// out\n        /* \"#utility.yul\":5738:6070   */\n    tag_111:\n        /* \"#utility.yul\":5859:5863   */\n      0x00\n        /* \"#utility.yul\":5897:5899   */\n      0x40\n        /* \"#utility.yul\":5886:5895   */\n      dup3\n        /* \"#utility.yul\":5882:5900   */\n      add\n        /* \"#utility.yul\":5874:5900   */\n      swap1\n      pop\n        /* \"#utility.yul\":5910:5981   */\n      tag_308\n        /* \"#utility.yul\":5978:5979   */\n      0x00\n        /* \"#utility.yul\":5967:5976   */\n      dup4\n        /* \"#utility.yul\":5963:5980   */\n      add\n        /* \"#utility.yul\":5954:5960   */\n      dup6\n        /* \"#utility.yul\":5910:5981   */\n      tag_213\n      jump\t// in\n    tag_308:\n        /* \"#utility.yul\":5991:6063   */\n      tag_309\n        /* \"#utility.yul\":6059:6061   */\n      0x20\n        /* \"#utility.yul\":6048:6057   */\n      dup4\n        /* \"#utility.yul\":6044:6062   */\n      add\n        /* \"#utility.yul\":6035:6041   */\n      dup5\n        /* \"#utility.yul\":5991:6063   */\n      tag_215\n      jump\t// in\n    tag_309:\n        /* \"#utility.yul\":5738:6070   */\n      swap4\n      swap3\n      pop\n      pop\n      pop\n      jump\t// out\n        /* \"#utility.yul\":6076:6258   */\n    tag_228:\n        /* \"#utility.yul\":6216:6250   */\n      0x53616d6520706c617965722063616e6e6f74206a6f696e207468652067616d65\n        /* \"#utility.yul\":6212:6213   */\n      0x00\n        /* \"#utility.yul\":6204:6210   */\n      dup3\n        /* \"#utility.yul\":6200:6214   */\n      add\n        /* \"#utility.yul\":6193:6251   */\n      mstore\n        /* \"#utility.yul\":6076:6258   */\n      pop\n      jump\t// out\n        /* \"#utility.yul\":6264:6630   */\n    tag_229:\n        /* \"#utility.yul\":6406:6409   */\n      0x00\n        /* \"#utility.yul\":6427:6494   */\n      tag_312\n        /* \"#utility.yul\":6491:6493   */\n      0x20\n        /* \"#utility.yul\":6486:6489   */\n      dup4\n        /* \"#utility.yul\":6427:6494   */\n      tag_221\n      jump\t// in\n    tag_312:\n        /* \"#utility.yul\":6420:6494   */\n      swap2\n      pop\n        /* \"#utility.yul\":6503:6596   */\n      tag_313\n        /* \"#utility.yul\":6592:6595   */\n      dup3\n        /* \"#utility.yul\":6503:6596   */\n      tag_228\n      jump\t// in\n    tag_313:\n        /* \"#utility.yul\":6621:6623   */\n      0x20\n        /* \"#utility.yul\":6616:6619   */\n      dup3\n        /* \"#utility.yul\":6612:6624   */\n      add\n        /* \"#utility.yul\":6605:6624   */\n      swap1\n      pop\n        /* \"#utility.yul\":6264:6630   */\n      swap2\n      swap1\n      pop\n      jump\t// out\n        /* \"#utility.yul\":6636:7055   */\n    tag_116:\n        /* \"#utility.yul\":6802:6806   */\n      0x00\n        /* \"#utility.yul\":6840:6842   */\n      0x20\n        /* \"#utility.yul\":6829:6838   */\n      dup3\n        /* \"#utility.yul\":6825:6843   */\n      add\n        /* \"#utility.yul\":6817:6843   */\n      swap1\n      pop\n        /* \"#utility.yul\":6889:6898   */\n      dup2\n        /* \"#utility.yul\":6883:6887   */\n      dup2\n        /* \"#utility.yul\":6879:6899   */\n      sub\n        /* \"#utility.yul\":6875:6876   */\n      0x00\n        /* \"#utility.yul\":6864:6873   */\n      dup4\n        /* \"#utility.yul\":6860:6877   */\n      add\n        /* \"#utility.yul\":6853:6900   */\n      mstore\n        /* \"#utility.yul\":6917:7048   */\n      tag_315\n        /* \"#utility.yul\":7043:7047   */\n      dup2\n        /* \"#utility.yul\":6917:7048   */\n      tag_229\n      jump\t// in\n    tag_315:\n        /* \"#utility.yul\":6909:7048   */\n      swap1\n      pop\n        /* \"#utility.yul\":6636:7055   */\n      swap2\n      swap1\n      pop\n      jump\t// out\n        /* \"#utility.yul\":7061:7284   */\n    tag_230:\n        /* \"#utility.yul\":7201:7235   */\n      0x4d757374206d6174636820746865207374616b65206f6620666972737420706c\n        /* \"#utility.yul\":7197:7198   */\n      0x00\n        /* \"#utility.yul\":7189:7195   */\n      dup3\n        /* \"#utility.yul\":7185:7199   */\n      add\n        /* \"#utility.yul\":7178:7236   */\n      mstore\n        /* \"#utility.yul\":7270:7276   */\n      0x6179657200000000000000000000000000000000000000000000000000000000\n        /* \"#utility.yul\":7265:7267   */\n      0x20\n        /* \"#utility.yul\":7257:7263   */\n      dup3\n        /* \"#utility.yul\":7253:7268   */\n      add\n        /* \"#utility.yul\":7246:7277   */\n      mstore\n        /* \"#utility.yul\":7061:7284   */\n      pop\n      jump\t// out\n        /* \"#utility.yul\":7290:7656   */\n    tag_231:\n        /* \"#utility.yul\":7432:7435   */\n      0x00\n        /* \"#utility.yul\":7453:7520   */\n      tag_318\n        /* \"#utility.yul\":7517:7519   */\n      0x24\n        /* \"#utility.yul\":7512:7515   */\n      dup4\n        /* \"#utility.yul\":7453:7520   */\n      tag_221\n      jump\t// in\n    tag_318:\n        /* \"#utility.yul\":7446:7520   */\n      swap2\n      pop\n        /* \"#utility.yul\":7529:7622   */\n      tag_319\n        /* \"#utility.yul\":7618:7621   */\n      dup3\n        /* \"#utility.yul\":7529:7622   */\n      tag_230\n      jump\t// in\n    tag_319:\n        /* \"#utility.yul\":7647:7649   */\n      0x40\n        /* \"#utility.yul\":7642:7645   */\n      dup3\n        /* \"#utility.yul\":7638:7650   */\n      add\n        /* \"#utility.yul\":7631:7650   */\n      swap1\n      pop\n        /* \"#utility.yul\":7290:7656   */\n      swap2\n      swap1\n      pop\n      jump\t// out\n        /* \"#utility.yul\":7662:8081   */\n    tag_119:\n        /* \"#utility.yul\":7828:7832   */\n      0x00\n        /* \"#utility.yul\":7866:7868   */\n      0x20\n        /* \"#utility.yul\":7855:7864   */\n      dup3\n        /* \"#utility.yul\":7851:7869   */\n      add\n        /* \"#utility.yul\":7843:7869   */\n      swap1\n      pop\n        /* \"#utility.yul\":7915:7924   */\n      dup2\n        /* \"#utility.yul\":7909:7913   */\n      dup2\n        /* \"#utility.yul\":7905:7925   */\n      sub\n        /* \"#utility.yul\":7901:7902   */\n      0x00\n        /* \"#utility.yul\":7890:7899   */\n      dup4\n        /* \"#utility.yul\":7886:7903   */\n      add\n        /* \"#utility.yul\":7879:7926   */\n      mstore\n        /* \"#utility.yul\":7943:8074   */\n      tag_321\n        /* \"#utility.yul\":8069:8073   */\n      dup2\n        /* \"#utility.yul\":7943:8074   */\n      tag_231\n      jump\t// in\n    tag_321:\n        /* \"#utility.yul\":7935:8074   */\n      swap1\n      pop\n        /* \"#utility.yul\":7662:8081   */\n      swap2\n      swap1\n      pop\n      jump\t// out\n        /* \"#utility.yul\":8087:8246   */\n    tag_232:\n        /* \"#utility.yul\":8227:8238   */\n      0x46756c6c2067616d650000000000000000000000000000000000000000000000\n        /* \"#utility.yul\":8223:8224   */\n      0x00\n        /* \"#utility.yul\":8215:8221   */\n      dup3\n        /* \"#utility.yul\":8211:8225   */\n      add\n        /* \"#utility.yul\":8204:8239   */\n      mstore\n        /* \"#utility.yul\":8087:8246   */\n      pop\n      jump\t// out\n        /* \"#utility.yul\":8252:8617   */\n    tag_233:\n        /* \"#utility.yul\":8394:8397   */\n      0x00\n        /* \"#utility.yul\":8415:8481   */\n      tag_324\n        /* \"#utility.yul\":8479:8480   */\n      0x09\n        /* \"#utility.yul\":8474:8477   */\n      dup4\n        /* \"#utility.yul\":8415:8481   */\n      tag_221\n      jump\t// in\n    tag_324:\n        /* \"#utility.yul\":8408:8481   */\n      swap2\n      pop\n        /* \"#utility.yul\":8490:8583   */\n      tag_325\n        /* \"#utility.yul\":8579:8582   */\n      dup3\n        /* \"#utility.yul\":8490:8583   */\n      tag_232\n      jump\t// in\n    tag_325:\n        /* \"#utility.yul\":8608:8610   */\n      0x20\n        /* \"#utility.yul\":8603:8606   */\n      dup3\n        /* \"#utility.yul\":8599:8611   */\n      add\n        /* \"#utility.yul\":8592:8611   */\n      swap1\n      pop\n        /* \"#utility.yul\":8252:8617   */\n      swap2\n      swap1\n      pop\n      jump\t// out\n        /* \"#utility.yul\":8623:9042   */\n    tag_124:\n        /* \"#utility.yul\":8789:8793   */\n      0x00\n        /* \"#utility.yul\":8827:8829   */\n      0x20\n        /* \"#utility.yul\":8816:8825   */\n      dup3\n        /* \"#utility.yul\":8812:8830   */\n      add\n        /* \"#utility.yul\":8804:8830   */\n      swap1\n      pop\n        /* \"#utility.yul\":8876:8885   */\n      dup2\n        /* \"#utility.yul\":8870:8874   */\n      dup2\n        /* \"#utility.yul\":8866:8886   */\n      sub\n        /* \"#utility.yul\":8862:8863   */\n      0x00\n        /* \"#utility.yul\":8851:8860   */\n      dup4\n        /* \"#utility.yul\":8847:8864   */\n      add\n        /* \"#utility.yul\":8840:8887   */\n      mstore\n        /* \"#utility.yul\":8904:9035   */\n      tag_327\n        /* \"#utility.yul\":9030:9034   */\n      dup2\n        /* \"#utility.yul\":8904:9035   */\n      tag_233\n      jump\t// in\n    tag_327:\n        /* \"#utility.yul\":8896:9035   */\n      swap1\n      pop\n        /* \"#utility.yul\":8623:9042   */\n      swap2\n      swap1\n      pop\n      jump\t// out\n        /* \"#utility.yul\":9048:9218   */\n    tag_234:\n        /* \"#utility.yul\":9188:9210   */\n      0x67616d6520697320616c726561647920646f6e65000000000000000000000000\n        /* \"#utility.yul\":9184:9185   */\n      0x00\n        /* \"#utility.yul\":9176:9182   */\n      dup3\n        /* \"#utility.yul\":9172:9186   */\n      add\n        /* \"#utility.yul\":9165:9211   */\n      mstore\n        /* \"#utility.yul\":9048:9218   */\n      pop\n      jump\t// out\n        /* \"#utility.yul\":9224:9590   */\n    tag_235:\n        /* \"#utility.yul\":9366:9369   */\n      0x00\n        /* \"#utility.yul\":9387:9454   */\n      tag_330\n        /* \"#utility.yul\":9451:9453   */\n      0x14\n        /* \"#utility.yul\":9446:9449   */\n      dup4\n        /* \"#utility.yul\":9387:9454   */\n      tag_221\n      jump\t// in\n    tag_330:\n        /* \"#utility.yul\":9380:9454   */\n      swap2\n      pop\n        /* \"#utility.yul\":9463:9556   */\n      tag_331\n        /* \"#utility.yul\":9552:9555   */\n      dup3\n        /* \"#utility.yul\":9463:9556   */\n      tag_234\n      jump\t// in\n    tag_331:\n        /* \"#utility.yul\":9581:9583   */\n      0x20\n        /* \"#utility.yul\":9576:9579   */\n      dup3\n        /* \"#utility.yul\":9572:9584   */\n      add\n        /* \"#utility.yul\":9565:9584   */\n      swap1\n      pop\n        /* \"#utility.yul\":9224:9590   */\n      swap2\n      swap1\n      pop\n      jump\t// out\n        /* \"#utility.yul\":9596:10015   */\n    tag_128:\n        /* \"#utility.yul\":9762:9766   */\n      0x00\n        /* \"#utility.yul\":9800:9802   */\n      0x20\n        /* \"#utility.yul\":9789:9798   */\n      dup3\n        /* \"#utility.yul\":9785:9803   */\n      add\n        /* \"#utility.yul\":9777:9803   */\n      swap1\n      pop\n        /* \"#utility.yul\":9849:9858   */\n      dup2\n        /* \"#utility.yul\":9843:9847   */\n      dup2\n        /* \"#utility.yul\":9839:9859   */\n      sub\n        /* \"#utility.yul\":9835:9836   */\n      0x00\n        /* \"#utility.yul\":9824:9833   */\n      dup4\n        /* \"#utility.yul\":9820:9837   */\n      add\n        /* \"#utility.yul\":9813:9860   */\n      mstore\n        /* \"#utility.yul\":9877:10008   */\n      tag_333\n        /* \"#utility.yul\":10003:10007   */\n      dup2\n        /* \"#utility.yul\":9877:10008   */\n      tag_235\n      jump\t// in\n    tag_333:\n        /* \"#utility.yul\":9869:10008   */\n      swap1\n      pop\n        /* \"#utility.yul\":9596:10015   */\n      swap2\n      swap1\n      pop\n      jump\t// out\n        /* \"#utility.yul\":10021:10202   */\n    tag_236:\n        /* \"#utility.yul\":10161:10194   */\n      0x426f746820706c6179657273206e65656420746f20766f746520666972737400\n        /* \"#utility.yul\":10157:10158   */\n      0x00\n        /* \"#utility.yul\":10149:10155   */\n      dup3\n        /* \"#utility.yul\":10145:10159   */\n      add\n        /* \"#utility.yul\":10138:10195   */\n      mstore\n        /* \"#utility.yul\":10021:10202   */\n      pop\n      jump\t// out\n        /* \"#utility.yul\":10208:10574   */\n    tag_237:\n        /* \"#utility.yul\":10350:10353   */\n      0x00\n        /* \"#utility.yul\":10371:10438   */\n      tag_336\n        /* \"#utility.yul\":10435:10437   */\n      0x1f\n        /* \"#utility.yul\":10430:10433   */\n      dup4\n        /* \"#utility.yul\":10371:10438   */\n      tag_221\n      jump\t// in\n    tag_336:\n        /* \"#utility.yul\":10364:10438   */\n      swap2\n      pop\n        /* \"#utility.yul\":10447:10540   */\n      tag_337\n        /* \"#utility.yul\":10536:10539   */\n      dup3\n        /* \"#utility.yul\":10447:10540   */\n      tag_236\n      jump\t// in\n    tag_337:\n        /* \"#utility.yul\":10565:10567   */\n      0x20\n        /* \"#utility.yul\":10560:10563   */\n      dup3\n        /* \"#utility.yul\":10556:10568   */\n      add\n        /* \"#utility.yul\":10549:10568   */\n      swap1\n      pop\n        /* \"#utility.yul\":10208:10574   */\n      swap2\n      swap1\n      pop\n      jump\t// out\n        /* \"#utility.yul\":10580:10999   */\n    tag_132:\n        /* \"#utility.yul\":10746:10750   */\n      0x00\n        /* \"#utility.yul\":10784:10786   */\n      0x20\n        /* \"#utility.yul\":10773:10782   */\n      dup3\n        /* \"#utility.yul\":10769:10787   */\n      add\n        /* \"#utility.yul\":10761:10787   */\n      swap1\n      pop\n        /* \"#utility.yul\":10833:10842   */\n      dup2\n        /* \"#utility.yul\":10827:10831   */\n      dup2\n        /* \"#utility.yul\":10823:10843   */\n      sub\n        /* \"#utility.yul\":10819:10820   */\n      0x00\n        /* \"#utility.yul\":10808:10817   */\n      dup4\n        /* \"#utility.yul\":10804:10821   */\n      add\n        /* \"#utility.yul\":10797:10844   */\n      mstore\n        /* \"#utility.yul\":10861:10992   */\n      tag_339\n        /* \"#utility.yul\":10987:10991   */\n      dup2\n        /* \"#utility.yul\":10861:10992   */\n      tag_237\n      jump\t// in\n    tag_339:\n        /* \"#utility.yul\":10853:10992   */\n      swap1\n      pop\n        /* \"#utility.yul\":10580:10999   */\n      swap2\n      swap1\n      pop\n      jump\t// out\n        /* \"#utility.yul\":11005:11180   */\n    tag_238:\n        /* \"#utility.yul\":11145:11172   */\n      0x596f75206861766520616c72656164792072657665616c656400000000000000\n        /* \"#utility.yul\":11141:11142   */\n      0x00\n        /* \"#utility.yul\":11133:11139   */\n      dup3\n        /* \"#utility.yul\":11129:11143   */\n      add\n        /* \"#utility.yul\":11122:11173   */\n      mstore\n        /* \"#utility.yul\":11005:11180   */\n      pop\n      jump\t// out\n        /* \"#utility.yul\":11186:11552   */\n    tag_239:\n        /* \"#utility.yul\":11328:11331   */\n      0x00\n        /* \"#utility.yul\":11349:11416   */\n      tag_342\n        /* \"#utility.yul\":11413:11415   */\n      0x19\n        /* \"#utility.yul\":11408:11411   */\n      dup4\n        /* \"#utility.yul\":11349:11416   */\n      tag_221\n      jump\t// in\n    tag_342:\n        /* \"#utility.yul\":11342:11416   */\n      swap2\n      pop\n        /* \"#utility.yul\":11425:11518   */\n      tag_343\n        /* \"#utility.yul\":11514:11517   */\n      dup3\n        /* \"#utility.yul\":11425:11518   */\n      tag_238\n      jump\t// in\n    tag_343:\n        /* \"#utility.yul\":11543:11545   */\n      0x20\n        /* \"#utility.yul\":11538:11541   */\n      dup3\n        /* \"#utility.yul\":11534:11546   */\n      add\n        /* \"#utility.yul\":11527:11546   */\n      swap1\n      pop\n        /* \"#utility.yul\":11186:11552   */\n      swap2\n      swap1\n      pop\n      jump\t// out\n        /* \"#utility.yul\":11558:11977   */\n    tag_136:\n        /* \"#utility.yul\":11724:11728   */\n      0x00\n        /* \"#utility.yul\":11762:11764   */\n      0x20\n        /* \"#utility.yul\":11751:11760   */\n      dup3\n        /* \"#utility.yul\":11747:11765   */\n      add\n        /* \"#utility.yul\":11739:11765   */\n      swap1\n      pop\n        /* \"#utility.yul\":11811:11820   */\n      dup2\n        /* \"#utility.yul\":11805:11809   */\n      dup2\n        /* \"#utility.yul\":11801:11821   */\n      sub\n        /* \"#utility.yul\":11797:11798   */\n      0x00\n        /* \"#utility.yul\":11786:11795   */\n      dup4\n        /* \"#utility.yul\":11782:11799   */\n      add\n        /* \"#utility.yul\":11775:11822   */\n      mstore\n        /* \"#utility.yul\":11839:11970   */\n      tag_345\n        /* \"#utility.yul\":11965:11969   */\n      dup2\n        /* \"#utility.yul\":11839:11970   */\n      tag_239\n      jump\t// in\n    tag_345:\n        /* \"#utility.yul\":11831:11970   */\n      swap1\n      pop\n        /* \"#utility.yul\":11558:11977   */\n      swap2\n      swap1\n      pop\n      jump\t// out\n        /* \"#utility.yul\":11983:12147   */\n    tag_240:\n        /* \"#utility.yul\":12123:12139   */\n      0x496e76616c69642072657665616c000000000000000000000000000000000000\n        /* \"#utility.yul\":12119:12120   */\n      0x00\n        /* \"#utility.yul\":12111:12117   */\n      dup3\n        /* \"#utility.yul\":12107:12121   */\n      add\n        /* \"#utility.yul\":12100:12140   */\n      mstore\n        /* \"#utility.yul\":11983:12147   */\n      pop\n      jump\t// out\n        /* \"#utility.yul\":12153:12519   */\n    tag_241:\n        /* \"#utility.yul\":12295:12298   */\n      0x00\n        /* \"#utility.yul\":12316:12383   */\n      tag_348\n        /* \"#utility.yul\":12380:12382   */\n      0x0e\n        /* \"#utility.yul\":12375:12378   */\n      dup4\n        /* \"#utility.yul\":12316:12383   */\n      tag_221\n      jump\t// in\n    tag_348:\n        /* \"#utility.yul\":12309:12383   */\n      swap2\n      pop\n        /* \"#utility.yul\":12392:12485   */\n      tag_349\n        /* \"#utility.yul\":12481:12484   */\n      dup3\n        /* \"#utility.yul\":12392:12485   */\n      tag_240\n      jump\t// in\n    tag_349:\n        /* \"#utility.yul\":12510:12512   */\n      0x20\n        /* \"#utility.yul\":12505:12508   */\n      dup3\n        /* \"#utility.yul\":12501:12513   */\n      add\n        /* \"#utility.yul\":12494:12513   */\n      swap1\n      pop\n        /* \"#utility.yul\":12153:12519   */\n      swap2\n      swap1\n      pop\n      jump\t// out\n        /* \"#utility.yul\":12525:12944   */\n    tag_140:\n        /* \"#utility.yul\":12691:12695   */\n      0x00\n        /* \"#utility.yul\":12729:12731   */\n      0x20\n        /* \"#utility.yul\":12718:12727   */\n      dup3\n        /* \"#utility.yul\":12714:12732   */\n      add\n        /* \"#utility.yul\":12706:12732   */\n      swap1\n      pop\n        /* \"#utility.yul\":12778:12787   */\n      dup2\n        /* \"#utility.yul\":12772:12776   */\n      dup2\n        /* \"#utility.yul\":12768:12788   */\n      sub\n        /* \"#utility.yul\":12764:12765   */\n      0x00\n        /* \"#utility.yul\":12753:12762   */\n      dup4\n        /* \"#utility.yul\":12749:12766   */\n      add\n        /* \"#utility.yul\":12742:12789   */\n      mstore\n        /* \"#utility.yul\":12806:12937   */\n      tag_351\n        /* \"#utility.yul\":12932:12936   */\n      dup2\n        /* \"#utility.yul\":12806:12937   */\n      tag_241\n      jump\t// in\n    tag_351:\n        /* \"#utility.yul\":12798:12937   */\n      swap1\n      pop\n        /* \"#utility.yul\":12525:12944   */\n      swap2\n      swap1\n      pop\n      jump\t// out\n        /* \"#utility.yul\":12950:13282   */\n    tag_142:\n        /* \"#utility.yul\":13071:13075   */\n      0x00\n        /* \"#utility.yul\":13109:13111   */\n      0x40\n        /* \"#utility.yul\":13098:13107   */\n      dup3\n        /* \"#utility.yul\":13094:13112   */\n      add\n        /* \"#utility.yul\":13086:13112   */\n      swap1\n      pop\n        /* \"#utility.yul\":13122:13193   */\n      tag_353\n        /* \"#utility.yul\":13190:13191   */\n      0x00\n        /* \"#utility.yul\":13179:13188   */\n      dup4\n        /* \"#utility.yul\":13175:13192   */\n      add\n        /* \"#utility.yul\":13166:13172   */\n      dup6\n        /* \"#utility.yul\":13122:13193   */\n      tag_213\n      jump\t// in\n    tag_353:\n        /* \"#utility.yul\":13203:13275   */\n      tag_354\n        /* \"#utility.yul\":13271:13273   */\n      0x20\n        /* \"#utility.yul\":13260:13269   */\n      dup4\n        /* \"#utility.yul\":13256:13274   */\n      add\n        /* \"#utility.yul\":13247:13253   */\n      dup5\n        /* \"#utility.yul\":13203:13275   */\n      tag_208\n      jump\t// in\n    tag_354:\n        /* \"#utility.yul\":12950:13282   */\n      swap4\n      swap3\n      pop\n      pop\n      pop\n      jump\t// out\n        /* \"#utility.yul\":13288:13457   */\n    tag_242:\n        /* \"#utility.yul\":13428:13449   */\n      0x43616e206e6f742066696e6420706c6179657200000000000000000000000000\n        /* \"#utility.yul\":13424:13425   */\n      0x00\n        /* \"#utility.yul\":13416:13422   */\n      dup3\n        /* \"#utility.yul\":13412:13426   */\n      add\n        /* \"#utility.yul\":13405:13450   */\n      mstore\n        /* \"#utility.yul\":13288:13457   */\n      pop\n      jump\t// out\n        /* \"#utility.yul\":13463:13829   */\n    tag_243:\n        /* \"#utility.yul\":13605:13608   */\n      0x00\n        /* \"#utility.yul\":13626:13693   */\n      tag_357\n        /* \"#utility.yul\":13690:13692   */\n      0x13\n        /* \"#utility.yul\":13685:13688   */\n      dup4\n        /* \"#utility.yul\":13626:13693   */\n      tag_221\n      jump\t// in\n    tag_357:\n        /* \"#utility.yul\":13619:13693   */\n      swap2\n      pop\n        /* \"#utility.yul\":13702:13795   */\n      tag_358\n        /* \"#utility.yul\":13791:13794   */\n      dup3\n        /* \"#utility.yul\":13702:13795   */\n      tag_242\n      jump\t// in\n    tag_358:\n        /* \"#utility.yul\":13820:13822   */\n      0x20\n        /* \"#utility.yul\":13815:13818   */\n      dup3\n        /* \"#utility.yul\":13811:13823   */\n      add\n        /* \"#utility.yul\":13804:13823   */\n      swap1\n      pop\n        /* \"#utility.yul\":13463:13829   */\n      swap2\n      swap1\n      pop\n      jump\t// out\n        /* \"#utility.yul\":13835:14254   */\n    tag_153:\n        /* \"#utility.yul\":14001:14005   */\n      0x00\n        /* \"#utility.yul\":14039:14041   */\n      0x20\n        /* \"#utility.yul\":14028:14037   */\n      dup3\n        /* \"#utility.yul\":14024:14042   */\n      add\n        /* \"#utility.yul\":14016:14042   */\n      swap1\n      pop\n        /* \"#utility.yul\":14088:14097   */\n      dup2\n        /* \"#utility.yul\":14082:14086   */\n      dup2\n        /* \"#utility.yul\":14078:14098   */\n      sub\n        /* \"#utility.yul\":14074:14075   */\n      0x00\n        /* \"#utility.yul\":14063:14072   */\n      dup4\n        /* \"#utility.yul\":14059:14076   */\n      add\n        /* \"#utility.yul\":14052:14099   */\n      mstore\n        /* \"#utility.yul\":14116:14247   */\n      tag_360\n        /* \"#utility.yul\":14242:14246   */\n      dup2\n        /* \"#utility.yul\":14116:14247   */\n      tag_243\n      jump\t// in\n    tag_360:\n        /* \"#utility.yul\":14108:14247   */\n      swap1\n      pop\n        /* \"#utility.yul\":13835:14254   */\n      swap2\n      swap1\n      pop\n      jump\t// out\n        /* \"#utility.yul\":14260:14440   */\n    tag_244:\n        /* \"#utility.yul\":14308:14385   */\n      0x4e487b7100000000000000000000000000000000000000000000000000000000\n        /* \"#utility.yul\":14305:14306   */\n      0x00\n        /* \"#utility.yul\":14298:14386   */\n      mstore\n        /* \"#utility.yul\":14405:14409   */\n      0x11\n        /* \"#utility.yul\":14402:14403   */\n      0x04\n        /* \"#utility.yul\":14395:14410   */\n      mstore\n        /* \"#utility.yul\":14429:14433   */\n      0x24\n        /* \"#utility.yul\":14426:14427   */\n      0x00\n        /* \"#utility.yul\":14419:14434   */\n      revert\n        /* \"#utility.yul\":14446:14637   */\n    tag_156:\n        /* \"#utility.yul\":14486:14489   */\n      0x00\n        /* \"#utility.yul\":14505:14525   */\n      tag_363\n        /* \"#utility.yul\":14523:14524   */\n      dup3\n        /* \"#utility.yul\":14505:14525   */\n      tag_207\n      jump\t// in\n    tag_363:\n        /* \"#utility.yul\":14500:14525   */\n      swap2\n      pop\n        /* \"#utility.yul\":14539:14559   */\n      tag_364\n        /* \"#utility.yul\":14557:14558   */\n      dup4\n        /* \"#utility.yul\":14539:14559   */\n      tag_207\n      jump\t// in\n    tag_364:\n        /* \"#utility.yul\":14534:14559   */\n      swap3\n      pop\n        /* \"#utility.yul\":14582:14583   */\n      dup3\n        /* \"#utility.yul\":14579:14580   */\n      dup3\n        /* \"#utility.yul\":14575:14584   */\n      add\n        /* \"#utility.yul\":14568:14584   */\n      swap1\n      pop\n        /* \"#utility.yul\":14603:14606   */\n      dup1\n        /* \"#utility.yul\":14600:14601   */\n      dup3\n        /* \"#utility.yul\":14597:14607   */\n      gt\n        /* \"#utility.yul\":14594:14630   */\n      iszero\n      tag_365\n      jumpi\n        /* \"#utility.yul\":14610:14628   */\n      tag_366\n      tag_244\n      jump\t// in\n    tag_366:\n        /* \"#utility.yul\":14594:14630   */\n    tag_365:\n        /* \"#utility.yul\":14446:14637   */\n      swap3\n      swap2\n      pop\n      pop\n      jump\t// out\n        /* \"#utility.yul\":14643:14821   */\n    tag_245:\n        /* \"#utility.yul\":14783:14813   */\n      0x52657665616c20706861736520686173206e6f74207374617274656400000000\n        /* \"#utility.yul\":14779:14780   */\n      0x00\n        /* \"#utility.yul\":14771:14777   */\n      dup3\n        /* \"#utility.yul\":14767:14781   */\n      add\n        /* \"#utility.yul\":14760:14814   */\n      mstore\n        /* \"#utility.yul\":14643:14821   */\n      pop\n      jump\t// out\n        /* \"#utility.yul\":14827:15193   */\n    tag_246:\n        /* \"#utility.yul\":14969:14972   */\n      0x00\n        /* \"#utility.yul\":14990:15057   */\n      tag_369\n        /* \"#utility.yul\":15054:15056   */\n      0x1c\n        /* \"#utility.yul\":15049:15052   */\n      dup4\n        /* \"#utility.yul\":14990:15057   */\n      tag_221\n      jump\t// in\n    tag_369:\n        /* \"#utility.yul\":14983:15057   */\n      swap2\n      pop\n        /* \"#utility.yul\":15066:15159   */\n      tag_370\n        /* \"#utility.yul\":15155:15158   */\n      dup3\n        /* \"#utility.yul\":15066:15159   */\n      tag_245\n      jump\t// in\n    tag_370:\n        /* \"#utility.yul\":15184:15186   */\n      0x20\n        /* \"#utility.yul\":15179:15182   */\n      dup3\n        /* \"#utility.yul\":15175:15187   */\n      add\n        /* \"#utility.yul\":15168:15187   */\n      swap1\n      pop\n        /* \"#utility.yul\":14827:15193   */\n      swap2\n      swap1\n      pop\n      jump\t// out\n        /* \"#utility.yul\":15199:15618   */\n    tag_166:\n        /* \"#utility.yul\":15365:15369   */\n      0x00\n        /* \"#utility.yul\":15403:15405   */\n      0x20\n        /* \"#utility.yul\":15392:15401   */\n      dup3\n        /* \"#utility.yul\":15388:15406   */\n      add\n        /* \"#utility.yul\":15380:15406   */\n      swap1\n      pop\n        /* \"#utility.yul\":15452:15461   */\n      dup2\n        /* \"#utility.yul\":15446:15450   */\n      dup2\n        /* \"#utility.yul\":15442:15462   */\n      sub\n        /* \"#utility.yul\":15438:15439   */\n      0x00\n        /* \"#utility.yul\":15427:15436   */\n      dup4\n        /* \"#utility.yul\":15423:15440   */\n      add\n        /* \"#utility.yul\":15416:15463   */\n      mstore\n        /* \"#utility.yul\":15480:15611   */\n      tag_372\n        /* \"#utility.yul\":15606:15610   */\n      dup2\n        /* \"#utility.yul\":15480:15611   */\n      tag_246\n      jump\t// in\n    tag_372:\n        /* \"#utility.yul\":15472:15611   */\n      swap1\n      pop\n        /* \"#utility.yul\":15199:15618   */\n      swap2\n      swap1\n      pop\n      jump\t// out\n        /* \"#utility.yul\":15624:15801   */\n    tag_247:\n        /* \"#utility.yul\":15764:15793   */\n      0x52657665616c2074696d6520686173206e6f7420657870697265640000000000\n        /* \"#utility.yul\":15760:15761   */\n      0x00\n        /* \"#utility.yul\":15752:15758   */\n      dup3\n        /* \"#utility.yul\":15748:15762   */\n      add\n        /* \"#utility.yul\":15741:15794   */\n      mstore\n        /* \"#utility.yul\":15624:15801   */\n      pop\n      jump\t// out\n        /* \"#utility.yul\":15807:16173   */\n    tag_248:\n        /* \"#utility.yul\":15949:15952   */\n      0x00\n        /* \"#utility.yul\":15970:16037   */\n      tag_375\n        /* \"#utility.yul\":16034:16036   */\n      0x1b\n        /* \"#utility.yul\":16029:16032   */\n      dup4\n        /* \"#utility.yul\":15970:16037   */\n      tag_221\n      jump\t// in\n    tag_375:\n        /* \"#utility.yul\":15963:16037   */\n      swap2\n      pop\n        /* \"#utility.yul\":16046:16139   */\n      tag_376\n        /* \"#utility.yul\":16135:16138   */\n      dup3\n        /* \"#utility.yul\":16046:16139   */\n      tag_247\n      jump\t// in\n    tag_376:\n        /* \"#utility.yul\":16164:16166   */\n      0x20\n        /* \"#utility.yul\":16159:16162   */\n      dup3\n        /* \"#utility.yul\":16155:16167   */\n      add\n        /* \"#utility.yul\":16148:16167   */\n      swap1\n      pop\n        /* \"#utility.yul\":15807:16173   */\n      swap2\n      swap1\n      pop\n      jump\t// out\n        /* \"#utility.yul\":16179:16598   */\n    tag_169:\n        /* \"#utility.yul\":16345:16349   */\n      0x00\n        /* \"#utility.yul\":16383:16385   */\n      0x20\n        /* \"#utility.yul\":16372:16381   */\n      dup3\n        /* \"#utility.yul\":16368:16386   */\n      add\n        /* \"#utility.yul\":16360:16386   */\n      swap1\n      pop\n        /* \"#utility.yul\":16432:16441   */\n      dup2\n        /* \"#utility.yul\":16426:16430   */\n      dup2\n        /* \"#utility.yul\":16422:16442   */\n      sub\n        /* \"#utility.yul\":16418:16419   */\n      0x00\n        /* \"#utility.yul\":16407:16416   */\n      dup4\n        /* \"#utility.yul\":16403:16420   */\n      add\n        /* \"#utility.yul\":16396:16443   */\n      mstore\n        /* \"#utility.yul\":16460:16591   */\n      tag_378\n        /* \"#utility.yul\":16586:16590   */\n      dup2\n        /* \"#utility.yul\":16460:16591   */\n      tag_248\n      jump\t// in\n    tag_378:\n        /* \"#utility.yul\":16452:16591   */\n      swap1\n      pop\n        /* \"#utility.yul\":16179:16598   */\n      swap2\n      swap1\n      pop\n      jump\t// out\n        /* \"#utility.yul\":16604:16774   */\n    tag_249:\n        /* \"#utility.yul\":16744:16766   */\n      0x47616d6520697320616c726561647920646f6e65000000000000000000000000\n        /* \"#utility.yul\":16740:16741   */\n      0x00\n        /* \"#utility.yul\":16732:16738   */\n      dup3\n        /* \"#utility.yul\":16728:16742   */\n      add\n        /* \"#utility.yul\":16721:16767   */\n      mstore\n        /* \"#utility.yul\":16604:16774   */\n      pop\n      jump\t// out\n        /* \"#utility.yul\":16780:17146   */\n    tag_250:\n        /* \"#utility.yul\":16922:16925   */\n      0x00\n        /* \"#utility.yul\":16943:17010   */\n      tag_381\n        /* \"#utility.yul\":17007:17009   */\n      0x14\n        /* \"#utility.yul\":17002:17005   */\n      dup4\n        /* \"#utility.yul\":16943:17010   */\n      tag_221\n      jump\t// in\n    tag_381:\n        /* \"#utility.yul\":16936:17010   */\n      swap2\n      pop\n        /* \"#utility.yul\":17019:17112   */\n      tag_382\n        /* \"#utility.yul\":17108:17111   */\n      dup3\n        /* \"#utility.yul\":17019:17112   */\n      tag_249\n      jump\t// in\n    tag_382:\n        /* \"#utility.yul\":17137:17139   */\n      0x20\n        /* \"#utility.yul\":17132:17135   */\n      dup3\n        /* \"#utility.yul\":17128:17140   */\n      add\n        /* \"#utility.yul\":17121:17140   */\n      swap1\n      pop\n        /* \"#utility.yul\":16780:17146   */\n      swap2\n      swap1\n      pop\n      jump\t// out\n        /* \"#utility.yul\":17152:17571   */\n    tag_172:\n        /* \"#utility.yul\":17318:17322   */\n      0x00\n        /* \"#utility.yul\":17356:17358   */\n      0x20\n        /* \"#utility.yul\":17345:17354   */\n      dup3\n        /* \"#utility.yul\":17341:17359   */\n      add\n        /* \"#utility.yul\":17333:17359   */\n      swap1\n      pop\n        /* \"#utility.yul\":17405:17414   */\n      dup2\n        /* \"#utility.yul\":17399:17403   */\n      dup2\n        /* \"#utility.yul\":17395:17415   */\n      sub\n        /* \"#utility.yul\":17391:17392   */\n      0x00\n        /* \"#utility.yul\":17380:17389   */\n      dup4\n        /* \"#utility.yul\":17376:17393   */\n      add\n        /* \"#utility.yul\":17369:17416   */\n      mstore\n        /* \"#utility.yul\":17433:17564   */\n      tag_384\n        /* \"#utility.yul\":17559:17563   */\n      dup2\n        /* \"#utility.yul\":17433:17564   */\n      tag_250\n      jump\t// in\n    tag_384:\n        /* \"#utility.yul\":17425:17564   */\n      swap1\n      pop\n        /* \"#utility.yul\":17152:17571   */\n      swap2\n      swap1\n      pop\n      jump\t// out\n        /* \"#utility.yul\":17577:17987   */\n    tag_199:\n        /* \"#utility.yul\":17617:17624   */\n      0x00\n        /* \"#utility.yul\":17640:17660   */\n      tag_386\n        /* \"#utility.yul\":17658:17659   */\n      dup3\n        /* \"#utility.yul\":17640:17660   */\n      tag_207\n      jump\t// in\n    tag_386:\n        /* \"#utility.yul\":17635:17660   */\n      swap2\n      pop\n        /* \"#utility.yul\":17674:17694   */\n      tag_387\n        /* \"#utility.yul\":17692:17693   */\n      dup4\n        /* \"#utility.yul\":17674:17694   */\n      tag_207\n      jump\t// in\n    tag_387:\n        /* \"#utility.yul\":17669:17694   */\n      swap3\n      pop\n        /* \"#utility.yul\":17729:17730   */\n      dup3\n        /* \"#utility.yul\":17726:17727   */\n      dup3\n        /* \"#utility.yul\":17722:17731   */\n      mul\n        /* \"#utility.yul\":17751:17781   */\n      tag_388\n        /* \"#utility.yul\":17769:17780   */\n      dup2\n        /* \"#utility.yul\":17751:17781   */\n      tag_207\n      jump\t// in\n    tag_388:\n        /* \"#utility.yul\":17740:17781   */\n      swap2\n      pop\n        /* \"#utility.yul\":17930:17931   */\n      dup3\n        /* \"#utility.yul\":17921:17928   */\n      dup3\n        /* \"#utility.yul\":17917:17932   */\n      div\n        /* \"#utility.yul\":17914:17915   */\n      dup5\n        /* \"#utility.yul\":17911:17933   */\n      eq\n        /* \"#utility.yul\":17891:17892   */\n      dup4\n        /* \"#utility.yul\":17884:17893   */\n      iszero\n        /* \"#utility.yul\":17864:17947   */\n      or\n        /* \"#utility.yul\":17841:17980   */\n      tag_389\n      jumpi\n        /* \"#utility.yul\":17960:17978   */\n      tag_390\n      tag_244\n      jump\t// in\n    tag_390:\n        /* \"#utility.yul\":17841:17980   */\n    tag_389:\n        /* \"#utility.yul\":17625:17987   */\n      pop\n        /* \"#utility.yul\":17577:17987   */\n      swap3\n      swap2\n      pop\n      pop\n      jump\t// out\n\n    auxdata: 0xa2646970667358221220baa32685647200723742cc37a55e163ea4a97bd560bc7bd3f51e0ed0d871d44264736f6c63430008190033\n}\n",
				"bytecode": {
					"linkReferences": {},
					"object": "6080604052348015600e575f80fd5b50611c5c8061001c5f395ff3fe608060405260043610610107575f3560e01c8063a285c54a11610094578063b14b28a311610063578063b14b28a314610309578063b357a02814610333578063b93e0e391461035d578063c44d6f8714610387578063dfbf53ae146103b157610107565b8063a285c54a14610275578063ad6228111461029f578063b040905b146102b5578063b0d74a39146102df57610107565b80633e9feea7116100db5780633e9feea7146101b3578063560b3986146101dd5780637ba9f72e146102075780637bc49a95146102315780639348cef71461024d57610107565b806262388e1461010b57806305ca5dda1461013557806311bb15371461015f5780633a4b66f114610189575b5f80fd5b348015610116575f80fd5b5061011f6103db565b60405161012c919061142d565b60405180910390f35b348015610140575f80fd5b506101496103e1565b6040516101569190611460565b60405180910390f35b34801561016a575f80fd5b506101736103f3565b60405161018091906114b8565b60405180910390f35b348015610194575f80fd5b5061019d610419565b6040516101aa919061142d565b60405180910390f35b3480156101be575f80fd5b506101c761041f565b6040516101d49190611460565b60405180910390f35b3480156101e8575f80fd5b506101f1610431565b6040516101fe91906114e9565b60405180910390f35b348015610212575f80fd5b5061021b610437565b604051610228919061142d565b60405180910390f35b61024b60048036038101906102469190611530565b61043d565b005b348015610258575f80fd5b50610273600480360381019061026e9190611530565b61083e565b005b348015610280575f80fd5b50610289610cd1565b60405161029691906114b8565b60405180910390f35b3480156102aa575f80fd5b506102b3610cf4565b005b3480156102c0575f80fd5b506102c9610f11565b6040516102d691906114e9565b60405180910390f35b3480156102ea575f80fd5b506102f3610f17565b6040516103009190611460565b60405180910390f35b348015610314575f80fd5b5061031d610f2a565b60405161032a919061142d565b60405180910390f35b34801561033e575f80fd5b50610347610f30565b604051610354919061142d565b60405180910390f35b348015610368575f80fd5b50610371610f35565b60405161037e919061142d565b60405180910390f35b348015610392575f80fd5b5061039b610f3a565b6040516103a8919061142d565b60405180910390f35b3480156103bc575f80fd5b506103c5610f3f565b6040516103d291906114b8565b60405180910390f35b60025481565b60065f9054906101000a900460ff1681565b600360019054906101000a900473ffffffffffffffffffffffffffffffffffffffff1681565b60075481565b60035f9054906101000a900460ff1681565b60045481565b60055481565b670de0b6b3a7640000341015610488576040517f08c379a000000000000000000000000000000000000000000000000000000000815260040161047f906115c8565b60405180910390fd5b60018214806104975750600282145b806104a25750600382145b6104e1576040517f08c379a00000000000000000000000000000000000000000000000000000000081526004016104d890611630565b60405180910390fd5b5f73ffffffffffffffffffffffffffffffffffffffff165f8054906101000a900473ffffffffffffffffffffffffffffffffffffffff1673ffffffffffffffffffffffffffffffffffffffff160361060857335f806101000a81548173ffffffffffffffffffffffffffffffffffffffff021916908373ffffffffffffffffffffffffffffffffffffffff1602179055505f600281905550818160405160200161058c92919061166e565b604051602081830303815290604052805190602001206001819055505f60035f6101000a81548160ff021916908315150217905550346007819055507fc75a7eb1b909ed9b3dfae875baf41024b531546fcd92ccd27947af1b9212b4f2336001546040516105fb929190611699565b60405180910390a161083a565b5f73ffffffffffffffffffffffffffffffffffffffff16600360019054906101000a900473ffffffffffffffffffffffffffffffffffffffff1673ffffffffffffffffffffffffffffffffffffffff16036107fe575f8054906101000a900473ffffffffffffffffffffffffffffffffffffffff1673ffffffffffffffffffffffffffffffffffffffff163373ffffffffffffffffffffffffffffffffffffffff16036106ea576040517f08c379a00000000000000000000000000000000000000000000000000000000081526004016106e19061170a565b60405180910390fd5b600754341461072e576040517f08c379a000000000000000000000000000000000000000000000000000000000815260040161072590611798565b60405180910390fd5b33600360016101000a81548173ffffffffffffffffffffffffffffffffffffffff021916908373ffffffffffffffffffffffffffffffffffffffff1602179055505f600581905550818160405160200161078992919061166e565b604051602081830303815290604052805190602001206004819055505f60065f6101000a81548160ff0219169083151502179055507fc75a7eb1b909ed9b3dfae875baf41024b531546fcd92ccd27947af1b9212b4f2336004546040516107f1929190611699565b60405180910390a1610839565b6040517f08c379a000000000000000000000000000000000000000000000000000000000815260040161083090611800565b60405180910390fd5b5b5050565b600860149054906101000a900460ff161561088e576040517f08c379a000000000000000000000000000000000000000000000000000000000815260040161088590611868565b60405180910390fd5b5f801b6001541415806108a557505f801b60045414155b6108e4576040517f08c379a00000000000000000000000000000000000000000000000000000000081526004016108db906118d0565b60405180910390fd5b5f8054906101000a900473ffffffffffffffffffffffffffffffffffffffff1673ffffffffffffffffffffffffffffffffffffffff163373ffffffffffffffffffffffffffffffffffffffff1603610a5a575f151560035f9054906101000a900460ff1615151461098a576040517f08c379a000000000000000000000000000000000000000000000000000000000815260040161098190611938565b60405180910390fd5b5f828260405160200161099e92919061166e565b60405160208183030381529060405280519060200120905060015481146109fa576040517f08c379a00000000000000000000000000000000000000000000000000000000081526004016109f1906119a0565b60405180910390fd5b82600281905550600160035f6101000a81548160ff0219169083151502179055507ff171bd6ddf36696fe0e7c299df1970ee9347e8229ef483465fe9f8862995c5303384604051610a4c9291906119be565b60405180910390a150610c0c565b5f8054906101000a900473ffffffffffffffffffffffffffffffffffffffff1673ffffffffffffffffffffffffffffffffffffffff163373ffffffffffffffffffffffffffffffffffffffff1603610bd0575f151560065f9054906101000a900460ff16151514610b00576040517f08c379a0000000000000000000000000000000000000000000000000000000008152600401610af790611938565b60405180910390fd5b5f8282604051602001610b1492919061166e565b6040516020818303038152906040528051906020012090506004548114610b70576040517f08c379a0000000000000000000000000000000000000000000000000000000008152600401610b67906119a0565b60405180910390fd5b82600581905550600160065f6101000a81548160ff0219169083151502179055507ff171bd6ddf36696fe0e7c299df1970ee9347e8229ef483465fe9f8862995c5303384604051610bc29291906119be565b60405180910390a150610c0b565b6040517f08c379a0000000000000000000000000000000000000000000000000000000008152600401610c0290611a2f565b60405180910390fd5b5b5f60095403610c2957603c42610c229190611a7a565b6009819055505b6001151560035f9054906101000a900460ff161515148015610c5d57506001151560065f9054906101000a900460ff161515145b15610ccd57610c6a610f64565b60085f6101000a81548173ffffffffffffffffffffffffffffffffffffffff021916908373ffffffffffffffffffffffffffffffffffffffff1602179055506001600860146101000a81548160ff021916908315150217905550610ccc611016565b5b5050565b5f8054906101000a900473ffffffffffffffffffffffffffffffffffffffff1681565b5f60095411610d38576040517f08c379a0000000000000000000000000000000000000000000000000000000008152600401610d2f90611af7565b60405180910390fd5b6009544211610d7c576040517f08c379a0000000000000000000000000000000000000000000000000000000008152600401610d7390611b5f565b60405180910390fd5b600860149054906101000a900460ff1615610dcc576040517f08c379a0000000000000000000000000000000000000000000000000000000008152600401610dc390611bc7565b60405180910390fd5b60035f9054906101000a900460ff168015610df3575060065f9054906101000a900460ff16155b15610e5c575f8054906101000a900473ffffffffffffffffffffffffffffffffffffffff1660085f6101000a81548173ffffffffffffffffffffffffffffffffffffffff021916908373ffffffffffffffffffffffffffffffffffffffff160217905550610eec565b60065f9054906101000a900460ff168015610e83575060035f9054906101000a900460ff16155b15610eeb57600360019054906101000a900473ffffffffffffffffffffffffffffffffffffffff1660085f6101000a81548173ffffffffffffffffffffffffffffffffffffffff021916908373ffffffffffffffffffffffffffffffffffffffff1602179055505b5b6001600860146101000a81548160ff021916908315150217905550610f0f611016565b565b60015481565b600860149054906101000a900460ff1681565b60095481565b600381565b600181565b600281565b60085f9054906101000a900473ffffffffffffffffffffffffffffffffffffffff1681565b5f60055460025403610f78575f9050611013565b6001600254148015610f8c57506003600554145b80610fa6575060028054148015610fa557506001600554145b5b80610fc157506003600254148015610fc057506002600554145b5b15610fed575f8054906101000a900473ffffffffffffffffffffffffffffffffffffffff169050611013565b600360019054906101000a900473ffffffffffffffffffffffffffffffffffffffff1690505b90565b5f73ffffffffffffffffffffffffffffffffffffffff1660085f9054906101000a900473ffffffffffffffffffffffffffffffffffffffff1673ffffffffffffffffffffffffffffffffffffffff16036111f3575f8054906101000a900473ffffffffffffffffffffffffffffffffffffffff1673ffffffffffffffffffffffffffffffffffffffff166108fc60075490811502906040515f60405180830381858888f193505050501580156110ce573d5f803e3d5ffd5b50600360019054906101000a900473ffffffffffffffffffffffffffffffffffffffff1673ffffffffffffffffffffffffffffffffffffffff166108fc60075490811502906040515f60405180830381858888f19350505050158015611136573d5f803e3d5ffd5b507f87d5f4772963d1f9b76047158b4ae97c420a1b3bff2a746c828beffd9e7c3e265f8054906101000a900473ffffffffffffffffffffffffffffffffffffffff166007546040516111899291906119be565b60405180910390a17f87d5f4772963d1f9b76047158b4ae97c420a1b3bff2a746c828beffd9e7c3e26600360019054906101000a900473ffffffffffffffffffffffffffffffffffffffff166007546040516111e69291906119be565b60405180910390a16112cf565b60085f9054906101000a900473ffffffffffffffffffffffffffffffffffffffff1673ffffffffffffffffffffffffffffffffffffffff166108fc600260075461123d9190611be5565b90811502906040515f60405180830381858888f19350505050158015611265573d5f803e3d5ffd5b507f87d5f4772963d1f9b76047158b4ae97c420a1b3bff2a746c828beffd9e7c3e2660085f9054906101000a900473ffffffffffffffffffffffffffffffffffffffff1660026007546112b89190611be5565b6040516112c69291906119be565b60405180910390a15b6112d76112d9565b565b5f805f6101000a81548173ffffffffffffffffffffffffffffffffffffffff021916908373ffffffffffffffffffffffffffffffffffffffff1602179055505f801b6001819055505f6002819055505f60035f6101000a81548160ff0219169083151502179055505f600360016101000a81548173ffffffffffffffffffffffffffffffffffffffff021916908373ffffffffffffffffffffffffffffffffffffffff1602179055505f801b6004819055505f6005819055505f60065f6101000a81548160ff0219169083151502179055505f6007819055505f60085f6101000a81548173ffffffffffffffffffffffffffffffffffffffff021916908373ffffffffffffffffffffffffffffffffffffffff1602179055505f600860146101000a81548160ff0219169083151502179055505f600981905550565b5f819050919050565b61142781611415565b82525050565b5f6020820190506114405f83018461141e565b92915050565b5f8115159050919050565b61145a81611446565b82525050565b5f6020820190506114735f830184611451565b92915050565b5f73ffffffffffffffffffffffffffffffffffffffff82169050919050565b5f6114a282611479565b9050919050565b6114b281611498565b82525050565b5f6020820190506114cb5f8301846114a9565b92915050565b5f819050919050565b6114e3816114d1565b82525050565b5f6020820190506114fc5f8301846114da565b92915050565b5f80fd5b61150f81611415565b8114611519575f80fd5b50565b5f8135905061152a81611506565b92915050565b5f806040838503121561154657611545611502565b5b5f6115538582860161151c565b92505060206115648582860161151c565b9150509250929050565b5f82825260208201905092915050565b7f426574206d757374206265206f766572203120657468657200000000000000005f82015250565b5f6115b260188361156e565b91506115bd8261157e565b602082019050919050565b5f6020820190508181035f8301526115df816115a6565b9050919050565b7f496e76616c6964204d6f766500000000000000000000000000000000000000005f82015250565b5f61161a600c8361156e565b9150611625826115e6565b602082019050919050565b5f6020820190508181035f8301526116478161160e565b9050919050565b5f819050919050565b61166861166382611415565b61164e565b82525050565b5f6116798285611657565b6020820191506116898284611657565b6020820191508190509392505050565b5f6040820190506116ac5f8301856114a9565b6116b960208301846114da565b9392505050565b7f53616d6520706c617965722063616e6e6f74206a6f696e207468652067616d655f82015250565b5f6116f460208361156e565b91506116ff826116c0565b602082019050919050565b5f6020820190508181035f830152611721816116e8565b9050919050565b7f4d757374206d6174636820746865207374616b65206f6620666972737420706c5f8201527f6179657200000000000000000000000000000000000000000000000000000000602082015250565b5f61178260248361156e565b915061178d82611728565b604082019050919050565b5f6020820190508181035f8301526117af81611776565b9050919050565b7f46756c6c2067616d6500000000000000000000000000000000000000000000005f82015250565b5f6117ea60098361156e565b91506117f5826117b6565b602082019050919050565b5f6020820190508181035f830152611817816117de565b9050919050565b7f67616d6520697320616c726561647920646f6e650000000000000000000000005f82015250565b5f61185260148361156e565b915061185d8261181e565b602082019050919050565b5f6020820190508181035f83015261187f81611846565b9050919050565b7f426f746820706c6179657273206e65656420746f20766f7465206669727374005f82015250565b5f6118ba601f8361156e565b91506118c582611886565b602082019050919050565b5f6020820190508181035f8301526118e7816118ae565b9050919050565b7f596f75206861766520616c72656164792072657665616c6564000000000000005f82015250565b5f61192260198361156e565b915061192d826118ee565b602082019050919050565b5f6020820190508181035f83015261194f81611916565b9050919050565b7f496e76616c69642072657665616c0000000000000000000000000000000000005f82015250565b5f61198a600e8361156e565b915061199582611956565b602082019050919050565b5f6020820190508181035f8301526119b78161197e565b9050919050565b5f6040820190506119d15f8301856114a9565b6119de602083018461141e565b9392505050565b7f43616e206e6f742066696e6420706c61796572000000000000000000000000005f82015250565b5f611a1960138361156e565b9150611a24826119e5565b602082019050919050565b5f6020820190508181035f830152611a4681611a0d565b9050919050565b7f4e487b71000000000000000000000000000000000000000000000000000000005f52601160045260245ffd5b5f611a8482611415565b9150611a8f83611415565b9250828201905080821115611aa757611aa6611a4d565b5b92915050565b7f52657665616c20706861736520686173206e6f742073746172746564000000005f82015250565b5f611ae1601c8361156e565b9150611aec82611aad565b602082019050919050565b5f6020820190508181035f830152611b0e81611ad5565b9050919050565b7f52657665616c2074696d6520686173206e6f74206578706972656400000000005f82015250565b5f611b49601b8361156e565b9150611b5482611b15565b602082019050919050565b5f6020820190508181035f830152611b7681611b3d565b9050919050565b7f47616d6520697320616c726561647920646f6e650000000000000000000000005f82015250565b5f611bb160148361156e565b9150611bbc82611b7d565b602082019050919050565b5f6020820190508181035f830152611bde81611ba5565b9050919050565b5f611bef82611415565b9150611bfa83611415565b9250828202611c0881611415565b91508282048414831517611c1f57611c1e611a4d565b5b509291505056fea2646970667358221220baa32685647200723742cc37a55e163ea4a97bd560bc7bd3f51e0ed0d871d44264736f6c63430008190033",
					"opcodes": "PUSH1 0x80 PUSH1 0x40 MSTORE CALLVALUE DUP1 ISZERO PUSH1 0xE JUMPI PUSH0 DUP1 REVERT JUMPDEST POP PUSH2 0x1C5C DUP1 PUSH2 0x1C PUSH0 CODECOPY PUSH0 RETURN INVALID PUSH1 0x80 PUSH1 0x40 MSTORE PUSH1 0x4 CALLDATASIZE LT PUSH2 0x107 JUMPI PUSH0 CALLDATALOAD PUSH1 0xE0 SHR DUP1 PUSH4 0xA285C54A GT PUSH2 0x94 JUMPI DUP1 PUSH4 0xB14B28A3 GT PUSH2 0x63 JUMPI DUP1 PUSH4 0xB14B28A3 EQ PUSH2 0x309 JUMPI DUP1 PUSH4 0xB357A028 EQ PUSH2 0x333 JUMPI DUP1 PUSH4 0xB93E0E39 EQ PUSH2 0x35D JUMPI DUP1 PUSH4 0xC44D6F87 EQ PUSH2 0x387 JUMPI DUP1 PUSH4 0xDFBF53AE EQ PUSH2 0x3B1 JUMPI PUSH2 0x107 JUMP JUMPDEST DUP1 PUSH4 0xA285C54A EQ PUSH2 0x275 JUMPI DUP1 PUSH4 0xAD622811 EQ PUSH2 0x29F JUMPI DUP1 PUSH4 0xB040905B EQ PUSH2 0x2B5 JUMPI DUP1 PUSH4 0xB0D74A39 EQ PUSH2 0x2DF JUMPI PUSH2 0x107 JUMP JUMPDEST DUP1 PUSH4 0x3E9FEEA7 GT PUSH2 0xDB JUMPI DUP1 PUSH4 0x3E9FEEA7 EQ PUSH2 0x1B3 JUMPI DUP1 PUSH4 0x560B3986 EQ PUSH2 0x1DD JUMPI DUP1 PUSH4 0x7BA9F72E EQ PUSH2 0x207 JUMPI DUP1 PUSH4 0x7BC49A95 EQ PUSH2 0x231 JUMPI DUP1 PUSH4 0x9348CEF7 EQ PUSH2 0x24D JUMPI PUSH2 0x107 JUMP JUMPDEST DUP1 PUSH3 0x62388E EQ PUSH2 0x10B JUMPI DUP1 PUSH4 0x5CA5DDA EQ PUSH2 0x135 JUMPI DUP1 PUSH4 0x11BB1537 EQ PUSH2 0x15F JUMPI DUP1 PUSH4 0x3A4B66F1 EQ PUSH2 0x189 JUMPI JUMPDEST PUSH0 DUP1 REVERT JUMPDEST CALLVALUE DUP1 ISZERO PUSH2 0x116 JUMPI PUSH0 DUP1 REVERT JUMPDEST POP PUSH2 0x11F PUSH2 0x3DB JUMP JUMPDEST PUSH1 0x40 MLOAD PUSH2 0x12C SWAP2 SWAP1 PUSH2 0x142D JUMP JUMPDEST PUSH1 0x40 MLOAD DUP1 SWAP2 SUB SWAP1 RETURN JUMPDEST CALLVALUE DUP1 ISZERO PUSH2 0x140 JUMPI PUSH0 DUP1 REVERT JUMPDEST POP PUSH2 0x149 PUSH2 0x3E1 JUMP JUMPDEST PUSH1 0x40 MLOAD PUSH2 0x156 SWAP2 SWAP1 PUSH2 0x1460 JUMP JUMPDEST PUSH1 0x40 MLOAD DUP1 SWAP2 SUB SWAP1 RETURN JUMPDEST CALLVALUE DUP1 ISZERO PUSH2 0x16A JUMPI PUSH0 DUP1 REVERT JUMPDEST POP PUSH2 0x173 PUSH2 0x3F3 JUMP JUMPDEST PUSH1 0x40 MLOAD PUSH2 0x180 SWAP2 SWAP1 PUSH2 0x14B8 JUMP JUMPDEST PUSH1 0x40 MLOAD DUP1 SWAP2 SUB SWAP1 RETURN JUMPDEST CALLVALUE DUP1 ISZERO PUSH2 0x194 JUMPI PUSH0 DUP1 REVERT JUMPDEST POP PUSH2 0x19D PUSH2 0x419 JUMP JUMPDEST PUSH1 0x40 MLOAD PUSH2 0x1AA SWAP2 SWAP1 PUSH2 0x142D JUMP JUMPDEST PUSH1 0x40 MLOAD DUP1 SWAP2 SUB SWAP1 RETURN JUMPDEST CALLVALUE DUP1 ISZERO PUSH2 0x1BE JUMPI PUSH0 DUP1 REVERT JUMPDEST POP PUSH2 0x1C7 PUSH2 0x41F JUMP JUMPDEST PUSH1 0x40 MLOAD PUSH2 0x1D4 SWAP2 SWAP1 PUSH2 0x1460 JUMP JUMPDEST PUSH1 0x40 MLOAD DUP1 SWAP2 SUB SWAP1 RETURN JUMPDEST CALLVALUE DUP1 ISZERO PUSH2 0x1E8 JUMPI PUSH0 DUP1 REVERT JUMPDEST POP PUSH2 0x1F1 PUSH2 0x431 JUMP JUMPDEST PUSH1 0x40 MLOAD PUSH2 0x1FE SWAP2 SWAP1 PUSH2 0x14E9 JUMP JUMPDEST PUSH1 0x40 MLOAD DUP1 SWAP2 SUB SWAP1 RETURN JUMPDEST CALLVALUE DUP1 ISZERO PUSH2 0x212 JUMPI PUSH0 DUP1 REVERT JUMPDEST POP PUSH2 0x21B PUSH2 0x437 JUMP JUMPDEST PUSH1 0x40 MLOAD PUSH2 0x228 SWAP2 SWAP1 PUSH2 0x142D JUMP JUMPDEST PUSH1 0x40 MLOAD DUP1 SWAP2 SUB SWAP1 RETURN JUMPDEST PUSH2 0x24B PUSH1 0x4 DUP1 CALLDATASIZE SUB DUP2 ADD SWAP1 PUSH2 0x246 SWAP2 SWAP1 PUSH2 0x1530 JUMP JUMPDEST PUSH2 0x43D JUMP JUMPDEST STOP JUMPDEST CALLVALUE DUP1 ISZERO PUSH2 0x258 JUMPI PUSH0 DUP1 REVERT JUMPDEST POP PUSH2 0x273 PUSH1 0x4 DUP1 CALLDATASIZE SUB DUP2 ADD SWAP1 PUSH2 0x26E SWAP2 SWAP1 PUSH2 0x1530 JUMP JUMPDEST PUSH2 0x83E JUMP JUMPDEST STOP JUMPDEST CALLVALUE DUP1 ISZERO PUSH2 0x280 JUMPI PUSH0 DUP1 REVERT JUMPDEST POP PUSH2 0x289 PUSH2 0xCD1 JUMP JUMPDEST PUSH1 0x40 MLOAD PUSH2 0x296 SWAP2 SWAP1 PUSH2 0x14B8 JUMP JUMPDEST PUSH1 0x40 MLOAD DUP1 SWAP2 SUB SWAP1 RETURN JUMPDEST CALLVALUE DUP1 ISZERO PUSH2 0x2AA JUMPI PUSH0 DUP1 REVERT JUMPDEST POP PUSH2 0x2B3 PUSH2 0xCF4 JUMP JUMPDEST STOP JUMPDEST CALLVALUE DUP1 ISZERO PUSH2 0x2C0 JUMPI PUSH0 DUP1 REVERT JUMPDEST POP PUSH2 0x2C9 PUSH2 0xF11 JUMP JUMPDEST PUSH1 0x40 MLOAD PUSH2 0x2D6 SWAP2 SWAP1 PUSH2 0x14E9 JUMP JUMPDEST PUSH1 0x40 MLOAD DUP1 SWAP2 SUB SWAP1 RETURN JUMPDEST CALLVALUE DUP1 ISZERO PUSH2 0x2EA JUMPI PUSH0 DUP1 REVERT JUMPDEST POP PUSH2 0x2F3 PUSH2 0xF17 JUMP JUMPDEST PUSH1 0x40 MLOAD PUSH2 0x300 SWAP2 SWAP1 PUSH2 0x1460 JUMP JUMPDEST PUSH1 0x40 MLOAD DUP1 SWAP2 SUB SWAP1 RETURN JUMPDEST CALLVALUE DUP1 ISZERO PUSH2 0x314 JUMPI PUSH0 DUP1 REVERT JUMPDEST POP PUSH2 0x31D PUSH2 0xF2A JUMP JUMPDEST PUSH1 0x40 MLOAD PUSH2 0x32A SWAP2 SWAP1 PUSH2 0x142D JUMP JUMPDEST PUSH1 0x40 MLOAD DUP1 SWAP2 SUB SWAP1 RETURN JUMPDEST CALLVALUE DUP1 ISZERO PUSH2 0x33E JUMPI PUSH0 DUP1 REVERT JUMPDEST POP PUSH2 0x347 PUSH2 0xF30 JUMP JUMPDEST PUSH1 0x40 MLOAD PUSH2 0x354 SWAP2 SWAP1 PUSH2 0x142D JUMP JUMPDEST PUSH1 0x40 MLOAD DUP1 SWAP2 SUB SWAP1 RETURN JUMPDEST CALLVALUE DUP1 ISZERO PUSH2 0x368 JUMPI PUSH0 DUP1 REVERT JUMPDEST POP PUSH2 0x371 PUSH2 0xF35 JUMP JUMPDEST PUSH1 0x40 MLOAD PUSH2 0x37E SWAP2 SWAP1 PUSH2 0x142D JUMP JUMPDEST PUSH1 0x40 MLOAD DUP1 SWAP2 SUB SWAP1 RETURN JUMPDEST CALLVALUE DUP1 ISZERO PUSH2 0x392 JUMPI PUSH0 DUP1 REVERT JUMPDEST POP PUSH2 0x39B PUSH2 0xF3A JUMP JUMPDEST PUSH1 0x40 MLOAD PUSH2 0x3A8 SWAP2 SWAP1 PUSH2 0x142D JUMP JUMPDEST PUSH1 0x40 MLOAD DUP1 SWAP2 SUB SWAP1 RETURN JUMPDEST CALLVALUE DUP1 ISZERO PUSH2 0x3BC JUMPI PUSH0 DUP1 REVERT JUMPDEST POP PUSH2 0x3C5 PUSH2 0xF3F JUMP JUMPDEST PUSH1 0x40 MLOAD PUSH2 0x3D2 SWAP2 SWAP1 PUSH2 0x14B8 JUMP JUMPDEST PUSH1 0x40 MLOAD DUP1 SWAP2 SUB SWAP1 RETURN JUMPDEST PUSH1 0x2 SLOAD DUP2 JUMP JUMPDEST PUSH1 0x6 PUSH0 SWAP1 SLOAD SWAP1 PUSH2 0x100 EXP SWAP1 DIV PUSH1 0xFF AND DUP2 JUMP JUMPDEST PUSH1 0x3 PUSH1 0x1 SWAP1 SLOAD SWAP1 PUSH2 0x100 EXP SWAP1 DIV PUSH20 0xFFFFFFFFFFFFFFFFFFFFFFFFFFFFFFFFFFFFFFFF AND DUP2 JUMP JUMPDEST PUSH1 0x7 SLOAD DUP2 JUMP JUMPDEST PUSH1 0x3 PUSH0 SWAP1 SLOAD SWAP1 PUSH2 0x100 EXP SWAP1 DIV PUSH1 0xFF AND DUP2 JUMP JUMPDEST PUSH1 0x4 SLOAD DUP2 JUMP JUMPDEST PUSH1 0x5 SLOAD DUP2 JUMP JUMPDEST PUSH8 0xDE0B6B3A7640000 CALLVALUE LT ISZERO PUSH2 0x488 JUMPI PUSH1 0x40 MLOAD PUSH32 0x8C379A000000000000000000000000000000000000000000000000000000000 DUP2 MSTORE PUSH1 0x4 ADD PUSH2 0x47F SWAP1 PUSH2 0x15C8 JUMP JUMPDEST PUSH1 0x40 MLOAD DUP1 SWAP2 SUB SWAP1 REVERT JUMPDEST PUSH1 0x1 DUP3 EQ DUP1 PUSH2 0x497 JUMPI POP PUSH1 0x2 DUP3 EQ JUMPDEST DUP1 PUSH2 0x4A2 JUMPI POP PUSH1 0x3 DUP3 EQ JUMPDEST PUSH2 0x4E1 JUMPI PUSH1 0x40 MLOAD PUSH32 0x8C379A000000000000000000000000000000000000000000000000000000000 DUP2 MSTORE PUSH1 0x4 ADD PUSH2 0x4D8 SWAP1 PUSH2 0x1630 JUMP JUMPDEST PUSH1 0x40 MLOAD DUP1 SWAP2 SUB SWAP1 REVERT JUMPDEST PUSH0 PUSH20 0xFFFFFFFFFFFFFFFFFFFFFFFFFFFFFFFFFFFFFFFF AND PUSH0 DUP1 SLOAD SWAP1 PUSH2 0x100 EXP SWAP1 DIV PUSH20 0xFFFFFFFFFFFFFFFFFFFFFFFFFFFFFFFFFFFFFFFF AND PUSH20 0xFFFFFFFFFFFFFFFFFFFFFFFFFFFFFFFFFFFFFFFF AND SUB PUSH2 0x608 JUMPI CALLER PUSH0 DUP1 PUSH2 0x100 EXP DUP2 SLOAD DUP2 PUSH20 0xFFFFFFFFFFFFFFFFFFFFFFFFFFFFFFFFFFFFFFFF MUL NOT AND SWAP1 DUP4 PUSH20 0xFFFFFFFFFFFFFFFFFFFFFFFFFFFFFFFFFFFFFFFF AND MUL OR SWAP1 SSTORE POP PUSH0 PUSH1 0x2 DUP2 SWAP1 SSTORE POP DUP2 DUP2 PUSH1 0x40 MLOAD PUSH1 0x20 ADD PUSH2 0x58C SWAP3 SWAP2 SWAP1 PUSH2 0x166E JUMP JUMPDEST PUSH1 0x40 MLOAD PUSH1 0x20 DUP2 DUP4 SUB SUB DUP2 MSTORE SWAP1 PUSH1 0x40 MSTORE DUP1 MLOAD SWAP1 PUSH1 0x20 ADD KECCAK256 PUSH1 0x1 DUP2 SWAP1 SSTORE POP PUSH0 PUSH1 0x3 PUSH0 PUSH2 0x100 EXP DUP2 SLOAD DUP2 PUSH1 0xFF MUL NOT AND SWAP1 DUP4 ISZERO ISZERO MUL OR SWAP1 SSTORE POP CALLVALUE PUSH1 0x7 DUP2 SWAP1 SSTORE POP PUSH32 0xC75A7EB1B909ED9B3DFAE875BAF41024B531546FCD92CCD27947AF1B9212B4F2 CALLER PUSH1 0x1 SLOAD PUSH1 0x40 MLOAD PUSH2 0x5FB SWAP3 SWAP2 SWAP1 PUSH2 0x1699 JUMP JUMPDEST PUSH1 0x40 MLOAD DUP1 SWAP2 SUB SWAP1 LOG1 PUSH2 0x83A JUMP JUMPDEST PUSH0 PUSH20 0xFFFFFFFFFFFFFFFFFFFFFFFFFFFFFFFFFFFFFFFF AND PUSH1 0x3 PUSH1 0x1 SWAP1 SLOAD SWAP1 PUSH2 0x100 EXP SWAP1 DIV PUSH20 0xFFFFFFFFFFFFFFFFFFFFFFFFFFFFFFFFFFFFFFFF AND PUSH20 0xFFFFFFFFFFFFFFFFFFFFFFFFFFFFFFFFFFFFFFFF AND SUB PUSH2 0x7FE JUMPI PUSH0 DUP1 SLOAD SWAP1 PUSH2 0x100 EXP SWAP1 DIV PUSH20 0xFFFFFFFFFFFFFFFFFFFFFFFFFFFFFFFFFFFFFFFF AND PUSH20 0xFFFFFFFFFFFFFFFFFFFFFFFFFFFFFFFFFFFFFFFF AND CALLER PUSH20 0xFFFFFFFFFFFFFFFFFFFFFFFFFFFFFFFFFFFFFFFF AND SUB PUSH2 0x6EA JUMPI PUSH1 0x40 MLOAD PUSH32 0x8C379A000000000000000000000000000000000000000000000000000000000 DUP2 MSTORE PUSH1 0x4 ADD PUSH2 0x6E1 SWAP1 PUSH2 0x170A JUMP JUMPDEST PUSH1 0x40 MLOAD DUP1 SWAP2 SUB SWAP1 REVERT JUMPDEST PUSH1 0x7 SLOAD CALLVALUE EQ PUSH2 0x72E JUMPI PUSH1 0x40 MLOAD PUSH32 0x8C379A000000000000000000000000000000000000000000000000000000000 DUP2 MSTORE PUSH1 0x4 ADD PUSH2 0x725 SWAP1 PUSH2 0x1798 JUMP JUMPDEST PUSH1 0x40 MLOAD DUP1 SWAP2 SUB SWAP1 REVERT JUMPDEST CALLER PUSH1 0x3 PUSH1 0x1 PUSH2 0x100 EXP DUP2 SLOAD DUP2 PUSH20 0xFFFFFFFFFFFFFFFFFFFFFFFFFFFFFFFFFFFFFFFF MUL NOT AND SWAP1 DUP4 PUSH20 0xFFFFFFFFFFFFFFFFFFFFFFFFFFFFFFFFFFFFFFFF AND MUL OR SWAP1 SSTORE POP PUSH0 PUSH1 0x5 DUP2 SWAP1 SSTORE POP DUP2 DUP2 PUSH1 0x40 MLOAD PUSH1 0x20 ADD PUSH2 0x789 SWAP3 SWAP2 SWAP1 PUSH2 0x166E JUMP JUMPDEST PUSH1 0x40 MLOAD PUSH1 0x20 DUP2 DUP4 SUB SUB DUP2 MSTORE SWAP1 PUSH1 0x40 MSTORE DUP1 MLOAD SWAP1 PUSH1 0x20 ADD KECCAK256 PUSH1 0x4 DUP2 SWAP1 SSTORE POP PUSH0 PUSH1 0x6 PUSH0 PUSH2 0x100 EXP DUP2 SLOAD DUP2 PUSH1 0xFF MUL NOT AND SWAP1 DUP4 ISZERO ISZERO MUL OR SWAP1 SSTORE POP PUSH32 0xC75A7EB1B909ED9B3DFAE875BAF41024B531546FCD92CCD27947AF1B9212B4F2 CALLER PUSH1 0x4 SLOAD PUSH1 0x40 MLOAD PUSH2 0x7F1 SWAP3 SWAP2 SWAP1 PUSH2 0x1699 JUMP JUMPDEST PUSH1 0x40 MLOAD DUP1 SWAP2 SUB SWAP1 LOG1 PUSH2 0x839 JUMP JUMPDEST PUSH1 0x40 MLOAD PUSH32 0x8C379A000000000000000000000000000000000000000000000000000000000 DUP2 MSTORE PUSH1 0x4 ADD PUSH2 0x830 SWAP1 PUSH2 0x1800 JUMP JUMPDEST PUSH1 0x40 MLOAD DUP1 SWAP2 SUB SWAP1 REVERT JUMPDEST JUMPDEST POP POP JUMP JUMPDEST PUSH1 0x8 PUSH1 0x14 SWAP1 SLOAD SWAP1 PUSH2 0x100 EXP SWAP1 DIV PUSH1 0xFF AND ISZERO PUSH2 0x88E JUMPI PUSH1 0x40 MLOAD PUSH32 0x8C379A000000000000000000000000000000000000000000000000000000000 DUP2 MSTORE PUSH1 0x4 ADD PUSH2 0x885 SWAP1 PUSH2 0x1868 JUMP JUMPDEST PUSH1 0x40 MLOAD DUP1 SWAP2 SUB SWAP1 REVERT JUMPDEST PUSH0 DUP1 SHL PUSH1 0x1 SLOAD EQ ISZERO DUP1 PUSH2 0x8A5 JUMPI POP PUSH0 DUP1 SHL PUSH1 0x4 SLOAD EQ ISZERO JUMPDEST PUSH2 0x8E4 JUMPI PUSH1 0x40 MLOAD PUSH32 0x8C379A000000000000000000000000000000000000000000000000000000000 DUP2 MSTORE PUSH1 0x4 ADD PUSH2 0x8DB SWAP1 PUSH2 0x18D0 JUMP JUMPDEST PUSH1 0x40 MLOAD DUP1 SWAP2 SUB SWAP1 REVERT JUMPDEST PUSH0 DUP1 SLOAD SWAP1 PUSH2 0x100 EXP SWAP1 DIV PUSH20 0xFFFFFFFFFFFFFFFFFFFFFFFFFFFFFFFFFFFFFFFF AND PUSH20 0xFFFFFFFFFFFFFFFFFFFFFFFFFFFFFFFFFFFFFFFF AND CALLER PUSH20 0xFFFFFFFFFFFFFFFFFFFFFFFFFFFFFFFFFFFFFFFF AND SUB PUSH2 0xA5A JUMPI PUSH0 ISZERO ISZERO PUSH1 0x3 PUSH0 SWAP1 SLOAD SWAP1 PUSH2 0x100 EXP SWAP1 DIV PUSH1 0xFF AND ISZERO ISZERO EQ PUSH2 0x98A JUMPI PUSH1 0x40 MLOAD PUSH32 0x8C379A000000000000000000000000000000000000000000000000000000000 DUP2 MSTORE PUSH1 0x4 ADD PUSH2 0x981 SWAP1 PUSH2 0x1938 JUMP JUMPDEST PUSH1 0x40 MLOAD DUP1 SWAP2 SUB SWAP1 REVERT JUMPDEST PUSH0 DUP3 DUP3 PUSH1 0x40 MLOAD PUSH1 0x20 ADD PUSH2 0x99E SWAP3 SWAP2 SWAP1 PUSH2 0x166E JUMP JUMPDEST PUSH1 0x40 MLOAD PUSH1 0x20 DUP2 DUP4 SUB SUB DUP2 MSTORE SWAP1 PUSH1 0x40 MSTORE DUP1 MLOAD SWAP1 PUSH1 0x20 ADD KECCAK256 SWAP1 POP PUSH1 0x1 SLOAD DUP2 EQ PUSH2 0x9FA JUMPI PUSH1 0x40 MLOAD PUSH32 0x8C379A000000000000000000000000000000000000000000000000000000000 DUP2 MSTORE PUSH1 0x4 ADD PUSH2 0x9F1 SWAP1 PUSH2 0x19A0 JUMP JUMPDEST PUSH1 0x40 MLOAD DUP1 SWAP2 SUB SWAP1 REVERT JUMPDEST DUP3 PUSH1 0x2 DUP2 SWAP1 SSTORE POP PUSH1 0x1 PUSH1 0x3 PUSH0 PUSH2 0x100 EXP DUP2 SLOAD DUP2 PUSH1 0xFF MUL NOT AND SWAP1 DUP4 ISZERO ISZERO MUL OR SWAP1 SSTORE POP PUSH32 0xF171BD6DDF36696FE0E7C299DF1970EE9347E8229EF483465FE9F8862995C530 CALLER DUP5 PUSH1 0x40 MLOAD PUSH2 0xA4C SWAP3 SWAP2 SWAP1 PUSH2 0x19BE JUMP JUMPDEST PUSH1 0x40 MLOAD DUP1 SWAP2 SUB SWAP1 LOG1 POP PUSH2 0xC0C JUMP JUMPDEST PUSH0 DUP1 SLOAD SWAP1 PUSH2 0x100 EXP SWAP1 DIV PUSH20 0xFFFFFFFFFFFFFFFFFFFFFFFFFFFFFFFFFFFFFFFF AND PUSH20 0xFFFFFFFFFFFFFFFFFFFFFFFFFFFFFFFFFFFFFFFF AND CALLER PUSH20 0xFFFFFFFFFFFFFFFFFFFFFFFFFFFFFFFFFFFFFFFF AND SUB PUSH2 0xBD0 JUMPI PUSH0 ISZERO ISZERO PUSH1 0x6 PUSH0 SWAP1 SLOAD SWAP1 PUSH2 0x100 EXP SWAP1 DIV PUSH1 0xFF AND ISZERO ISZERO EQ PUSH2 0xB00 JUMPI PUSH1 0x40 MLOAD PUSH32 0x8C379A000000000000000000000000000000000000000000000000000000000 DUP2 MSTORE PUSH1 0x4 ADD PUSH2 0xAF7 SWAP1 PUSH2 0x1938 JUMP JUMPDEST PUSH1 0x40 MLOAD DUP1 SWAP2 SUB SWAP1 REVERT JUMPDEST PUSH0 DUP3 DUP3 PUSH1 0x40 MLOAD PUSH1 0x20 ADD PUSH2 0xB14 SWAP3 SWAP2 SWAP1 PUSH2 0x166E JUMP JUMPDEST PUSH1 0x40 MLOAD PUSH1 0x20 DUP2 DUP4 SUB SUB DUP2 MSTORE SWAP1 PUSH1 0x40 MSTORE DUP1 MLOAD SWAP1 PUSH1 0x20 ADD KECCAK256 SWAP1 POP PUSH1 0x4 SLOAD DUP2 EQ PUSH2 0xB70 JUMPI PUSH1 0x40 MLOAD PUSH32 0x8C379A000000000000000000000000000000000000000000000000000000000 DUP2 MSTORE PUSH1 0x4 ADD PUSH2 0xB67 SWAP1 PUSH2 0x19A0 JUMP JUMPDEST PUSH1 0x40 MLOAD DUP1 SWAP2 SUB SWAP1 REVERT JUMPDEST DUP3 PUSH1 0x5 DUP2 SWAP1 SSTORE POP PUSH1 0x1 PUSH1 0x6 PUSH0 PUSH2 0x100 EXP DUP2 SLOAD DUP2 PUSH1 0xFF MUL NOT AND SWAP1 DUP4 ISZERO ISZERO MUL OR SWAP1 SSTORE POP PUSH32 0xF171BD6DDF36696FE0E7C299DF1970EE9347E8229EF483465FE9F8862995C530 CALLER DUP5 PUSH1 0x40 MLOAD PUSH2 0xBC2 SWAP3 SWAP2 SWAP1 PUSH2 0x19BE JUMP JUMPDEST PUSH1 0x40 MLOAD DUP1 SWAP2 SUB SWAP1 LOG1 POP PUSH2 0xC0B JUMP JUMPDEST PUSH1 0x40 MLOAD PUSH32 0x8C379A000000000000000000000000000000000000000000000000000000000 DUP2 MSTORE PUSH1 0x4 ADD PUSH2 0xC02 SWAP1 PUSH2 0x1A2F JUMP JUMPDEST PUSH1 0x40 MLOAD DUP1 SWAP2 SUB SWAP1 REVERT JUMPDEST JUMPDEST PUSH0 PUSH1 0x9 SLOAD SUB PUSH2 0xC29 JUMPI PUSH1 0x3C TIMESTAMP PUSH2 0xC22 SWAP2 SWAP1 PUSH2 0x1A7A JUMP JUMPDEST PUSH1 0x9 DUP2 SWAP1 SSTORE POP JUMPDEST PUSH1 0x1 ISZERO ISZERO PUSH1 0x3 PUSH0 SWAP1 SLOAD SWAP1 PUSH2 0x100 EXP SWAP1 DIV PUSH1 0xFF AND ISZERO ISZERO EQ DUP1 ISZERO PUSH2 0xC5D JUMPI POP PUSH1 0x1 ISZERO ISZERO PUSH1 0x6 PUSH0 SWAP1 SLOAD SWAP1 PUSH2 0x100 EXP SWAP1 DIV PUSH1 0xFF AND ISZERO ISZERO EQ JUMPDEST ISZERO PUSH2 0xCCD JUMPI PUSH2 0xC6A PUSH2 0xF64 JUMP JUMPDEST PUSH1 0x8 PUSH0 PUSH2 0x100 EXP DUP2 SLOAD DUP2 PUSH20 0xFFFFFFFFFFFFFFFFFFFFFFFFFFFFFFFFFFFFFFFF MUL NOT AND SWAP1 DUP4 PUSH20 0xFFFFFFFFFFFFFFFFFFFFFFFFFFFFFFFFFFFFFFFF AND MUL OR SWAP1 SSTORE POP PUSH1 0x1 PUSH1 0x8 PUSH1 0x14 PUSH2 0x100 EXP DUP2 SLOAD DUP2 PUSH1 0xFF MUL NOT AND SWAP1 DUP4 ISZERO ISZERO MUL OR SWAP1 SSTORE POP PUSH2 0xCCC PUSH2 0x1016 JUMP JUMPDEST JUMPDEST POP POP JUMP JUMPDEST PUSH0 DUP1 SLOAD SWAP1 PUSH2 0x100 EXP SWAP1 DIV PUSH20 0xFFFFFFFFFFFFFFFFFFFFFFFFFFFFFFFFFFFFFFFF AND DUP2 JUMP JUMPDEST PUSH0 PUSH1 0x9 SLOAD GT PUSH2 0xD38 JUMPI PUSH1 0x40 MLOAD PUSH32 0x8C379A000000000000000000000000000000000000000000000000000000000 DUP2 MSTORE PUSH1 0x4 ADD PUSH2 0xD2F SWAP1 PUSH2 0x1AF7 JUMP JUMPDEST PUSH1 0x40 MLOAD DUP1 SWAP2 SUB SWAP1 REVERT JUMPDEST PUSH1 0x9 SLOAD TIMESTAMP GT PUSH2 0xD7C JUMPI PUSH1 0x40 MLOAD PUSH32 0x8C379A000000000000000000000000000000000000000000000000000000000 DUP2 MSTORE PUSH1 0x4 ADD PUSH2 0xD73 SWAP1 PUSH2 0x1B5F JUMP JUMPDEST PUSH1 0x40 MLOAD DUP1 SWAP2 SUB SWAP1 REVERT JUMPDEST PUSH1 0x8 PUSH1 0x14 SWAP1 SLOAD SWAP1 PUSH2 0x100 EXP SWAP1 DIV PUSH1 0xFF AND ISZERO PUSH2 0xDCC JUMPI PUSH1 0x40 MLOAD PUSH32 0x8C379A000000000000000000000000000000000000000000000000000000000 DUP2 MSTORE PUSH1 0x4 ADD PUSH2 0xDC3 SWAP1 PUSH2 0x1BC7 JUMP JUMPDEST PUSH1 0x40 MLOAD DUP1 SWAP2 SUB SWAP1 REVERT JUMPDEST PUSH1 0x3 PUSH0 SWAP1 SLOAD SWAP1 PUSH2 0x100 EXP SWAP1 DIV PUSH1 0xFF AND DUP1 ISZERO PUSH2 0xDF3 JUMPI POP PUSH1 0x6 PUSH0 SWAP1 SLOAD SWAP1 PUSH2 0x100 EXP SWAP1 DIV PUSH1 0xFF AND ISZERO JUMPDEST ISZERO PUSH2 0xE5C JUMPI PUSH0 DUP1 SLOAD SWAP1 PUSH2 0x100 EXP SWAP1 DIV PUSH20 0xFFFFFFFFFFFFFFFFFFFFFFFFFFFFFFFFFFFFFFFF AND PUSH1 0x8 PUSH0 PUSH2 0x100 EXP DUP2 SLOAD DUP2 PUSH20 0xFFFFFFFFFFFFFFFFFFFFFFFFFFFFFFFFFFFFFFFF MUL NOT AND SWAP1 DUP4 PUSH20 0xFFFFFFFFFFFFFFFFFFFFFFFFFFFFFFFFFFFFFFFF AND MUL OR SWAP1 SSTORE POP PUSH2 0xEEC JUMP JUMPDEST PUSH1 0x6 PUSH0 SWAP1 SLOAD SWAP1 PUSH2 0x100 EXP SWAP1 DIV PUSH1 0xFF AND DUP1 ISZERO PUSH2 0xE83 JUMPI POP PUSH1 0x3 PUSH0 SWAP1 SLOAD SWAP1 PUSH2 0x100 EXP SWAP1 DIV PUSH1 0xFF AND ISZERO JUMPDEST ISZERO PUSH2 0xEEB JUMPI PUSH1 0x3 PUSH1 0x1 SWAP1 SLOAD SWAP1 PUSH2 0x100 EXP SWAP1 DIV PUSH20 0xFFFFFFFFFFFFFFFFFFFFFFFFFFFFFFFFFFFFFFFF AND PUSH1 0x8 PUSH0 PUSH2 0x100 EXP DUP2 SLOAD DUP2 PUSH20 0xFFFFFFFFFFFFFFFFFFFFFFFFFFFFFFFFFFFFFFFF MUL NOT AND SWAP1 DUP4 PUSH20 0xFFFFFFFFFFFFFFFFFFFFFFFFFFFFFFFFFFFFFFFF AND MUL OR SWAP1 SSTORE POP JUMPDEST JUMPDEST PUSH1 0x1 PUSH1 0x8 PUSH1 0x14 PUSH2 0x100 EXP DUP2 SLOAD DUP2 PUSH1 0xFF MUL NOT AND SWAP1 DUP4 ISZERO ISZERO MUL OR SWAP1 SSTORE POP PUSH2 0xF0F PUSH2 0x1016 JUMP JUMPDEST JUMP JUMPDEST PUSH1 0x1 SLOAD DUP2 JUMP JUMPDEST PUSH1 0x8 PUSH1 0x14 SWAP1 SLOAD SWAP1 PUSH2 0x100 EXP SWAP1 DIV PUSH1 0xFF AND DUP2 JUMP JUMPDEST PUSH1 0x9 SLOAD DUP2 JUMP JUMPDEST PUSH1 0x3 DUP2 JUMP JUMPDEST PUSH1 0x1 DUP2 JUMP JUMPDEST PUSH1 0x2 DUP2 JUMP JUMPDEST PUSH1 0x8 PUSH0 SWAP1 SLOAD SWAP1 PUSH2 0x100 EXP SWAP1 DIV PUSH20 0xFFFFFFFFFFFFFFFFFFFFFFFFFFFFFFFFFFFFFFFF AND DUP2 JUMP JUMPDEST PUSH0 PUSH1 0x5 SLOAD PUSH1 0x2 SLOAD SUB PUSH2 0xF78 JUMPI PUSH0 SWAP1 POP PUSH2 0x1013 JUMP JUMPDEST PUSH1 0x1 PUSH1 0x2 SLOAD EQ DUP1 ISZERO PUSH2 0xF8C JUMPI POP PUSH1 0x3 PUSH1 0x5 SLOAD EQ JUMPDEST DUP1 PUSH2 0xFA6 JUMPI POP PUSH1 0x2 DUP1 SLOAD EQ DUP1 ISZERO PUSH2 0xFA5 JUMPI POP PUSH1 0x1 PUSH1 0x5 SLOAD EQ JUMPDEST JUMPDEST DUP1 PUSH2 0xFC1 JUMPI POP PUSH1 0x3 PUSH1 0x2 SLOAD EQ DUP1 ISZERO PUSH2 0xFC0 JUMPI POP PUSH1 0x2 PUSH1 0x5 SLOAD EQ JUMPDEST JUMPDEST ISZERO PUSH2 0xFED JUMPI PUSH0 DUP1 SLOAD SWAP1 PUSH2 0x100 EXP SWAP1 DIV PUSH20 0xFFFFFFFFFFFFFFFFFFFFFFFFFFFFFFFFFFFFFFFF AND SWAP1 POP PUSH2 0x1013 JUMP JUMPDEST PUSH1 0x3 PUSH1 0x1 SWAP1 SLOAD SWAP1 PUSH2 0x100 EXP SWAP1 DIV PUSH20 0xFFFFFFFFFFFFFFFFFFFFFFFFFFFFFFFFFFFFFFFF AND SWAP1 POP JUMPDEST SWAP1 JUMP JUMPDEST PUSH0 PUSH20 0xFFFFFFFFFFFFFFFFFFFFFFFFFFFFFFFFFFFFFFFF AND PUSH1 0x8 PUSH0 SWAP1 SLOAD SWAP1 PUSH2 0x100 EXP SWAP1 DIV PUSH20 0xFFFFFFFFFFFFFFFFFFFFFFFFFFFFFFFFFFFFFFFF AND PUSH20 0xFFFFFFFFFFFFFFFFFFFFFFFFFFFFFFFFFFFFFFFF AND SUB PUSH2 0x11F3 JUMPI PUSH0 DUP1 SLOAD SWAP1 PUSH2 0x100 EXP SWAP1 DIV PUSH20 0xFFFFFFFFFFFFFFFFFFFFFFFFFFFFFFFFFFFFFFFF AND PUSH20 0xFFFFFFFFFFFFFFFFFFFFFFFFFFFFFFFFFFFFFFFF AND PUSH2 0x8FC PUSH1 0x7 SLOAD SWAP1 DUP2 ISZERO MUL SWAP1 PUSH1 0x40 MLOAD PUSH0 PUSH1 0x40 MLOAD DUP1 DUP4 SUB DUP2 DUP6 DUP9 DUP9 CALL SWAP4 POP POP POP POP ISZERO DUP1 ISZERO PUSH2 0x10CE JUMPI RETURNDATASIZE PUSH0 DUP1 RETURNDATACOPY RETURNDATASIZE PUSH0 REVERT JUMPDEST POP PUSH1 0x3 PUSH1 0x1 SWAP1 SLOAD SWAP1 PUSH2 0x100 EXP SWAP1 DIV PUSH20 0xFFFFFFFFFFFFFFFFFFFFFFFFFFFFFFFFFFFFFFFF AND PUSH20 0xFFFFFFFFFFFFFFFFFFFFFFFFFFFFFFFFFFFFFFFF AND PUSH2 0x8FC PUSH1 0x7 SLOAD SWAP1 DUP2 ISZERO MUL SWAP1 PUSH1 0x40 MLOAD PUSH0 PUSH1 0x40 MLOAD DUP1 DUP4 SUB DUP2 DUP6 DUP9 DUP9 CALL SWAP4 POP POP POP POP ISZERO DUP1 ISZERO PUSH2 0x1136 JUMPI RETURNDATASIZE PUSH0 DUP1 RETURNDATACOPY RETURNDATASIZE PUSH0 REVERT JUMPDEST POP PUSH32 0x87D5F4772963D1F9B76047158B4AE97C420A1B3BFF2A746C828BEFFD9E7C3E26 PUSH0 DUP1 SLOAD SWAP1 PUSH2 0x100 EXP SWAP1 DIV PUSH20 0xFFFFFFFFFFFFFFFFFFFFFFFFFFFFFFFFFFFFFFFF AND PUSH1 0x7 SLOAD PUSH1 0x40 MLOAD PUSH2 0x1189 SWAP3 SWAP2 SWAP1 PUSH2 0x19BE JUMP JUMPDEST PUSH1 0x40 MLOAD DUP1 SWAP2 SUB SWAP1 LOG1 PUSH32 0x87D5F4772963D1F9B76047158B4AE97C420A1B3BFF2A746C828BEFFD9E7C3E26 PUSH1 0x3 PUSH1 0x1 SWAP1 SLOAD SWAP1 PUSH2 0x100 EXP SWAP1 DIV PUSH20 0xFFFFFFFFFFFFFFFFFFFFFFFFFFFFFFFFFFFFFFFF AND PUSH1 0x7 SLOAD PUSH1 0x40 MLOAD PUSH2 0x11E6 SWAP3 SWAP2 SWAP1 PUSH2 0x19BE JUMP JUMPDEST PUSH1 0x40 MLOAD DUP1 SWAP2 SUB SWAP1 LOG1 PUSH2 0x12CF JUMP JUMPDEST PUSH1 0x8 PUSH0 SWAP1 SLOAD SWAP1 PUSH2 0x100 EXP SWAP1 DIV PUSH20 0xFFFFFFFFFFFFFFFFFFFFFFFFFFFFFFFFFFFFFFFF AND PUSH20 0xFFFFFFFFFFFFFFFFFFFFFFFFFFFFFFFFFFFFFFFF AND PUSH2 0x8FC PUSH1 0x2 PUSH1 0x7 SLOAD PUSH2 0x123D SWAP2 SWAP1 PUSH2 0x1BE5 JUMP JUMPDEST SWAP1 DUP2 ISZERO MUL SWAP1 PUSH1 0x40 MLOAD PUSH0 PUSH1 0x40 MLOAD DUP1 DUP4 SUB DUP2 DUP6 DUP9 DUP9 CALL SWAP4 POP POP POP POP ISZERO DUP1 ISZERO PUSH2 0x1265 JUMPI RETURNDATASIZE PUSH0 DUP1 RETURNDATACOPY RETURNDATASIZE PUSH0 REVERT JUMPDEST POP PUSH32 0x87D5F4772963D1F9B76047158B4AE97C420A1B3BFF2A746C828BEFFD9E7C3E26 PUSH1 0x8 PUSH0 SWAP1 SLOAD SWAP1 PUSH2 0x100 EXP SWAP1 DIV PUSH20 0xFFFFFFFFFFFFFFFFFFFFFFFFFFFFFFFFFFFFFFFF AND PUSH1 0x2 PUSH1 0x7 SLOAD PUSH2 0x12B8 SWAP2 SWAP1 PUSH2 0x1BE5 JUMP JUMPDEST PUSH1 0x40 MLOAD PUSH2 0x12C6 SWAP3 SWAP2 SWAP1 PUSH2 0x19BE JUMP JUMPDEST PUSH1 0x40 MLOAD DUP1 SWAP2 SUB SWAP1 LOG1 JUMPDEST PUSH2 0x12D7 PUSH2 0x12D9 JUMP JUMPDEST JUMP JUMPDEST PUSH0 DUP1 PUSH0 PUSH2 0x100 EXP DUP2 SLOAD DUP2 PUSH20 0xFFFFFFFFFFFFFFFFFFFFFFFFFFFFFFFFFFFFFFFF MUL NOT AND SWAP1 DUP4 PUSH20 0xFFFFFFFFFFFFFFFFFFFFFFFFFFFFFFFFFFFFFFFF AND MUL OR SWAP1 SSTORE POP PUSH0 DUP1 SHL PUSH1 0x1 DUP2 SWAP1 SSTORE POP PUSH0 PUSH1 0x2 DUP2 SWAP1 SSTORE POP PUSH0 PUSH1 0x3 PUSH0 PUSH2 0x100 EXP DUP2 SLOAD DUP2 PUSH1 0xFF MUL NOT AND SWAP1 DUP4 ISZERO ISZERO MUL OR SWAP1 SSTORE POP PUSH0 PUSH1 0x3 PUSH1 0x1 PUSH2 0x100 EXP DUP2 SLOAD DUP2 PUSH20 0xFFFFFFFFFFFFFFFFFFFFFFFFFFFFFFFFFFFFFFFF MUL NOT AND SWAP1 DUP4 PUSH20 0xFFFFFFFFFFFFFFFFFFFFFFFFFFFFFFFFFFFFFFFF AND MUL OR SWAP1 SSTORE POP PUSH0 DUP1 SHL PUSH1 0x4 DUP2 SWAP1 SSTORE POP PUSH0 PUSH1 0x5 DUP2 SWAP1 SSTORE POP PUSH0 PUSH1 0x6 PUSH0 PUSH2 0x100 EXP DUP2 SLOAD DUP2 PUSH1 0xFF MUL NOT AND SWAP1 DUP4 ISZERO ISZERO MUL OR SWAP1 SSTORE POP PUSH0 PUSH1 0x7 DUP2 SWAP1 SSTORE POP PUSH0 PUSH1 0x8 PUSH0 PUSH2 0x100 EXP DUP2 SLOAD DUP2 PUSH20 0xFFFFFFFFFFFFFFFFFFFFFFFFFFFFFFFFFFFFFFFF MUL NOT AND SWAP1 DUP4 PUSH20 0xFFFFFFFFFFFFFFFFFFFFFFFFFFFFFFFFFFFFFFFF AND MUL OR SWAP1 SSTORE POP PUSH0 PUSH1 0x8 PUSH1 0x14 PUSH2 0x100 EXP DUP2 SLOAD DUP2 PUSH1 0xFF MUL NOT AND SWAP1 DUP4 ISZERO ISZERO MUL OR SWAP1 SSTORE POP PUSH0 PUSH1 0x9 DUP2 SWAP1 SSTORE POP JUMP JUMPDEST PUSH0 DUP2 SWAP1 POP SWAP2 SWAP1 POP JUMP JUMPDEST PUSH2 0x1427 DUP2 PUSH2 0x1415 JUMP JUMPDEST DUP3 MSTORE POP POP JUMP JUMPDEST PUSH0 PUSH1 0x20 DUP3 ADD SWAP1 POP PUSH2 0x1440 PUSH0 DUP4 ADD DUP5 PUSH2 0x141E JUMP JUMPDEST SWAP3 SWAP2 POP POP JUMP JUMPDEST PUSH0 DUP2 ISZERO ISZERO SWAP1 POP SWAP2 SWAP1 POP JUMP JUMPDEST PUSH2 0x145A DUP2 PUSH2 0x1446 JUMP JUMPDEST DUP3 MSTORE POP POP JUMP JUMPDEST PUSH0 PUSH1 0x20 DUP3 ADD SWAP1 POP PUSH2 0x1473 PUSH0 DUP4 ADD DUP5 PUSH2 0x1451 JUMP JUMPDEST SWAP3 SWAP2 POP POP JUMP JUMPDEST PUSH0 PUSH20 0xFFFFFFFFFFFFFFFFFFFFFFFFFFFFFFFFFFFFFFFF DUP3 AND SWAP1 POP SWAP2 SWAP1 POP JUMP JUMPDEST PUSH0 PUSH2 0x14A2 DUP3 PUSH2 0x1479 JUMP JUMPDEST SWAP1 POP SWAP2 SWAP1 POP JUMP JUMPDEST PUSH2 0x14B2 DUP2 PUSH2 0x1498 JUMP JUMPDEST DUP3 MSTORE POP POP JUMP JUMPDEST PUSH0 PUSH1 0x20 DUP3 ADD SWAP1 POP PUSH2 0x14CB PUSH0 DUP4 ADD DUP5 PUSH2 0x14A9 JUMP JUMPDEST SWAP3 SWAP2 POP POP JUMP JUMPDEST PUSH0 DUP2 SWAP1 POP SWAP2 SWAP1 POP JUMP JUMPDEST PUSH2 0x14E3 DUP2 PUSH2 0x14D1 JUMP JUMPDEST DUP3 MSTORE POP POP JUMP JUMPDEST PUSH0 PUSH1 0x20 DUP3 ADD SWAP1 POP PUSH2 0x14FC PUSH0 DUP4 ADD DUP5 PUSH2 0x14DA JUMP JUMPDEST SWAP3 SWAP2 POP POP JUMP JUMPDEST PUSH0 DUP1 REVERT JUMPDEST PUSH2 0x150F DUP2 PUSH2 0x1415 JUMP JUMPDEST DUP2 EQ PUSH2 0x1519 JUMPI PUSH0 DUP1 REVERT JUMPDEST POP JUMP JUMPDEST PUSH0 DUP2 CALLDATALOAD SWAP1 POP PUSH2 0x152A DUP2 PUSH2 0x1506 JUMP JUMPDEST SWAP3 SWAP2 POP POP JUMP JUMPDEST PUSH0 DUP1 PUSH1 0x40 DUP4 DUP6 SUB SLT ISZERO PUSH2 0x1546 JUMPI PUSH2 0x1545 PUSH2 0x1502 JUMP JUMPDEST JUMPDEST PUSH0 PUSH2 0x1553 DUP6 DUP3 DUP7 ADD PUSH2 0x151C JUMP JUMPDEST SWAP3 POP POP PUSH1 0x20 PUSH2 0x1564 DUP6 DUP3 DUP7 ADD PUSH2 0x151C JUMP JUMPDEST SWAP2 POP POP SWAP3 POP SWAP3 SWAP1 POP JUMP JUMPDEST PUSH0 DUP3 DUP3 MSTORE PUSH1 0x20 DUP3 ADD SWAP1 POP SWAP3 SWAP2 POP POP JUMP JUMPDEST PUSH32 0x426574206D757374206265206F76657220312065746865720000000000000000 PUSH0 DUP3 ADD MSTORE POP JUMP JUMPDEST PUSH0 PUSH2 0x15B2 PUSH1 0x18 DUP4 PUSH2 0x156E JUMP JUMPDEST SWAP2 POP PUSH2 0x15BD DUP3 PUSH2 0x157E JUMP JUMPDEST PUSH1 0x20 DUP3 ADD SWAP1 POP SWAP2 SWAP1 POP JUMP JUMPDEST PUSH0 PUSH1 0x20 DUP3 ADD SWAP1 POP DUP2 DUP2 SUB PUSH0 DUP4 ADD MSTORE PUSH2 0x15DF DUP2 PUSH2 0x15A6 JUMP JUMPDEST SWAP1 POP SWAP2 SWAP1 POP JUMP JUMPDEST PUSH32 0x496E76616C6964204D6F76650000000000000000000000000000000000000000 PUSH0 DUP3 ADD MSTORE POP JUMP JUMPDEST PUSH0 PUSH2 0x161A PUSH1 0xC DUP4 PUSH2 0x156E JUMP JUMPDEST SWAP2 POP PUSH2 0x1625 DUP3 PUSH2 0x15E6 JUMP JUMPDEST PUSH1 0x20 DUP3 ADD SWAP1 POP SWAP2 SWAP1 POP JUMP JUMPDEST PUSH0 PUSH1 0x20 DUP3 ADD SWAP1 POP DUP2 DUP2 SUB PUSH0 DUP4 ADD MSTORE PUSH2 0x1647 DUP2 PUSH2 0x160E JUMP JUMPDEST SWAP1 POP SWAP2 SWAP1 POP JUMP JUMPDEST PUSH0 DUP2 SWAP1 POP SWAP2 SWAP1 POP JUMP JUMPDEST PUSH2 0x1668 PUSH2 0x1663 DUP3 PUSH2 0x1415 JUMP JUMPDEST PUSH2 0x164E JUMP JUMPDEST DUP3 MSTORE POP POP JUMP JUMPDEST PUSH0 PUSH2 0x1679 DUP3 DUP6 PUSH2 0x1657 JUMP JUMPDEST PUSH1 0x20 DUP3 ADD SWAP2 POP PUSH2 0x1689 DUP3 DUP5 PUSH2 0x1657 JUMP JUMPDEST PUSH1 0x20 DUP3 ADD SWAP2 POP DUP2 SWAP1 POP SWAP4 SWAP3 POP POP POP JUMP JUMPDEST PUSH0 PUSH1 0x40 DUP3 ADD SWAP1 POP PUSH2 0x16AC PUSH0 DUP4 ADD DUP6 PUSH2 0x14A9 JUMP JUMPDEST PUSH2 0x16B9 PUSH1 0x20 DUP4 ADD DUP5 PUSH2 0x14DA JUMP JUMPDEST SWAP4 SWAP3 POP POP POP JUMP JUMPDEST PUSH32 0x53616D6520706C617965722063616E6E6F74206A6F696E207468652067616D65 PUSH0 DUP3 ADD MSTORE POP JUMP JUMPDEST PUSH0 PUSH2 0x16F4 PUSH1 0x20 DUP4 PUSH2 0x156E JUMP JUMPDEST SWAP2 POP PUSH2 0x16FF DUP3 PUSH2 0x16C0 JUMP JUMPDEST PUSH1 0x20 DUP3 ADD SWAP1 POP SWAP2 SWAP1 POP JUMP JUMPDEST PUSH0 PUSH1 0x20 DUP3 ADD SWAP1 POP DUP2 DUP2 SUB PUSH0 DUP4 ADD MSTORE PUSH2 0x1721 DUP2 PUSH2 0x16E8 JUMP JUMPDEST SWAP1 POP SWAP2 SWAP1 POP JUMP JUMPDEST PUSH32 0x4D757374206D6174636820746865207374616B65206F6620666972737420706C PUSH0 DUP3 ADD MSTORE PUSH32 0x6179657200000000000000000000000000000000000000000000000000000000 PUSH1 0x20 DUP3 ADD MSTORE POP JUMP JUMPDEST PUSH0 PUSH2 0x1782 PUSH1 0x24 DUP4 PUSH2 0x156E JUMP JUMPDEST SWAP2 POP PUSH2 0x178D DUP3 PUSH2 0x1728 JUMP JUMPDEST PUSH1 0x40 DUP3 ADD SWAP1 POP SWAP2 SWAP1 POP JUMP JUMPDEST PUSH0 PUSH1 0x20 DUP3 ADD SWAP1 POP DUP2 DUP2 SUB PUSH0 DUP4 ADD MSTORE PUSH2 0x17AF DUP2 PUSH2 0x1776 JUMP JUMPDEST SWAP1 POP SWAP2 SWAP1 POP JUMP JUMPDEST PUSH32 0x46756C6C2067616D650000000000000000000000000000000000000000000000 PUSH0 DUP3 ADD MSTORE POP JUMP JUMPDEST PUSH0 PUSH2 0x17EA PUSH1 0x9 DUP4 PUSH2 0x156E JUMP JUMPDEST SWAP2 POP PUSH2 0x17F5 DUP3 PUSH2 0x17B6 JUMP JUMPDEST PUSH1 0x20 DUP3 ADD SWAP1 POP SWAP2 SWAP1 POP JUMP JUMPDEST PUSH0 PUSH1 0x20 DUP3 ADD SWAP1 POP DUP2 DUP2 SUB PUSH0 DUP4 ADD MSTORE PUSH2 0x1817 DUP2 PUSH2 0x17DE JUMP JUMPDEST SWAP1 POP SWAP2 SWAP1 POP JUMP JUMPDEST PUSH32 0x67616D6520697320616C726561647920646F6E65000000000000000000000000 PUSH0 DUP3 ADD MSTORE POP JUMP JUMPDEST PUSH0 PUSH2 0x1852 PUSH1 0x14 DUP4 PUSH2 0x156E JUMP JUMPDEST SWAP2 POP PUSH2 0x185D DUP3 PUSH2 0x181E JUMP JUMPDEST PUSH1 0x20 DUP3 ADD SWAP1 POP SWAP2 SWAP1 POP JUMP JUMPDEST PUSH0 PUSH1 0x20 DUP3 ADD SWAP1 POP DUP2 DUP2 SUB PUSH0 DUP4 ADD MSTORE PUSH2 0x187F DUP2 PUSH2 0x1846 JUMP JUMPDEST SWAP1 POP SWAP2 SWAP1 POP JUMP JUMPDEST PUSH32 0x426F746820706C6179657273206E65656420746F20766F746520666972737400 PUSH0 DUP3 ADD MSTORE POP JUMP JUMPDEST PUSH0 PUSH2 0x18BA PUSH1 0x1F DUP4 PUSH2 0x156E JUMP JUMPDEST SWAP2 POP PUSH2 0x18C5 DUP3 PUSH2 0x1886 JUMP JUMPDEST PUSH1 0x20 DUP3 ADD SWAP1 POP SWAP2 SWAP1 POP JUMP JUMPDEST PUSH0 PUSH1 0x20 DUP3 ADD SWAP1 POP DUP2 DUP2 SUB PUSH0 DUP4 ADD MSTORE PUSH2 0x18E7 DUP2 PUSH2 0x18AE JUMP JUMPDEST SWAP1 POP SWAP2 SWAP1 POP JUMP JUMPDEST PUSH32 0x596F75206861766520616C72656164792072657665616C656400000000000000 PUSH0 DUP3 ADD MSTORE POP JUMP JUMPDEST PUSH0 PUSH2 0x1922 PUSH1 0x19 DUP4 PUSH2 0x156E JUMP JUMPDEST SWAP2 POP PUSH2 0x192D DUP3 PUSH2 0x18EE JUMP JUMPDEST PUSH1 0x20 DUP3 ADD SWAP1 POP SWAP2 SWAP1 POP JUMP JUMPDEST PUSH0 PUSH1 0x20 DUP3 ADD SWAP1 POP DUP2 DUP2 SUB PUSH0 DUP4 ADD MSTORE PUSH2 0x194F DUP2 PUSH2 0x1916 JUMP JUMPDEST SWAP1 POP SWAP2 SWAP1 POP JUMP JUMPDEST PUSH32 0x496E76616C69642072657665616C000000000000000000000000000000000000 PUSH0 DUP3 ADD MSTORE POP JUMP JUMPDEST PUSH0 PUSH2 0x198A PUSH1 0xE DUP4 PUSH2 0x156E JUMP JUMPDEST SWAP2 POP PUSH2 0x1995 DUP3 PUSH2 0x1956 JUMP JUMPDEST PUSH1 0x20 DUP3 ADD SWAP1 POP SWAP2 SWAP1 POP JUMP JUMPDEST PUSH0 PUSH1 0x20 DUP3 ADD SWAP1 POP DUP2 DUP2 SUB PUSH0 DUP4 ADD MSTORE PUSH2 0x19B7 DUP2 PUSH2 0x197E JUMP JUMPDEST SWAP1 POP SWAP2 SWAP1 POP JUMP JUMPDEST PUSH0 PUSH1 0x40 DUP3 ADD SWAP1 POP PUSH2 0x19D1 PUSH0 DUP4 ADD DUP6 PUSH2 0x14A9 JUMP JUMPDEST PUSH2 0x19DE PUSH1 0x20 DUP4 ADD DUP5 PUSH2 0x141E JUMP JUMPDEST SWAP4 SWAP3 POP POP POP JUMP JUMPDEST PUSH32 0x43616E206E6F742066696E6420706C6179657200000000000000000000000000 PUSH0 DUP3 ADD MSTORE POP JUMP JUMPDEST PUSH0 PUSH2 0x1A19 PUSH1 0x13 DUP4 PUSH2 0x156E JUMP JUMPDEST SWAP2 POP PUSH2 0x1A24 DUP3 PUSH2 0x19E5 JUMP JUMPDEST PUSH1 0x20 DUP3 ADD SWAP1 POP SWAP2 SWAP1 POP JUMP JUMPDEST PUSH0 PUSH1 0x20 DUP3 ADD SWAP1 POP DUP2 DUP2 SUB PUSH0 DUP4 ADD MSTORE PUSH2 0x1A46 DUP2 PUSH2 0x1A0D JUMP JUMPDEST SWAP1 POP SWAP2 SWAP1 POP JUMP JUMPDEST PUSH32 0x4E487B7100000000000000000000000000000000000000000000000000000000 PUSH0 MSTORE PUSH1 0x11 PUSH1 0x4 MSTORE PUSH1 0x24 PUSH0 REVERT JUMPDEST PUSH0 PUSH2 0x1A84 DUP3 PUSH2 0x1415 JUMP JUMPDEST SWAP2 POP PUSH2 0x1A8F DUP4 PUSH2 0x1415 JUMP JUMPDEST SWAP3 POP DUP3 DUP3 ADD SWAP1 POP DUP1 DUP3 GT ISZERO PUSH2 0x1AA7 JUMPI PUSH2 0x1AA6 PUSH2 0x1A4D JUMP JUMPDEST JUMPDEST SWAP3 SWAP2 POP POP JUMP JUMPDEST PUSH32 0x52657665616C20706861736520686173206E6F74207374617274656400000000 PUSH0 DUP3 ADD MSTORE POP JUMP JUMPDEST PUSH0 PUSH2 0x1AE1 PUSH1 0x1C DUP4 PUSH2 0x156E JUMP JUMPDEST SWAP2 POP PUSH2 0x1AEC DUP3 PUSH2 0x1AAD JUMP JUMPDEST PUSH1 0x20 DUP3 ADD SWAP1 POP SWAP2 SWAP1 POP JUMP JUMPDEST PUSH0 PUSH1 0x20 DUP3 ADD SWAP1 POP DUP2 DUP2 SUB PUSH0 DUP4 ADD MSTORE PUSH2 0x1B0E DUP2 PUSH2 0x1AD5 JUMP JUMPDEST SWAP1 POP SWAP2 SWAP1 POP JUMP JUMPDEST PUSH32 0x52657665616C2074696D6520686173206E6F7420657870697265640000000000 PUSH0 DUP3 ADD MSTORE POP JUMP JUMPDEST PUSH0 PUSH2 0x1B49 PUSH1 0x1B DUP4 PUSH2 0x156E JUMP JUMPDEST SWAP2 POP PUSH2 0x1B54 DUP3 PUSH2 0x1B15 JUMP JUMPDEST PUSH1 0x20 DUP3 ADD SWAP1 POP SWAP2 SWAP1 POP JUMP JUMPDEST PUSH0 PUSH1 0x20 DUP3 ADD SWAP1 POP DUP2 DUP2 SUB PUSH0 DUP4 ADD MSTORE PUSH2 0x1B76 DUP2 PUSH2 0x1B3D JUMP JUMPDEST SWAP1 POP SWAP2 SWAP1 POP JUMP JUMPDEST PUSH32 0x47616D6520697320616C726561647920646F6E65000000000000000000000000 PUSH0 DUP3 ADD MSTORE POP JUMP JUMPDEST PUSH0 PUSH2 0x1BB1 PUSH1 0x14 DUP4 PUSH2 0x156E JUMP JUMPDEST SWAP2 POP PUSH2 0x1BBC DUP3 PUSH2 0x1B7D JUMP JUMPDEST PUSH1 0x20 DUP3 ADD SWAP1 POP SWAP2 SWAP1 POP JUMP JUMPDEST PUSH0 PUSH1 0x20 DUP3 ADD SWAP1 POP DUP2 DUP2 SUB PUSH0 DUP4 ADD MSTORE PUSH2 0x1BDE DUP2 PUSH2 0x1BA5 JUMP JUMPDEST SWAP1 POP SWAP2 SWAP1 POP JUMP JUMPDEST PUSH0 PUSH2 0x1BEF DUP3 PUSH2 0x1415 JUMP JUMPDEST SWAP2 POP PUSH2 0x1BFA DUP4 PUSH2 0x1415 JUMP JUMPDEST SWAP3 POP DUP3 DUP3 MUL PUSH2 0x1C08 DUP2 PUSH2 0x1415 JUMP JUMPDEST SWAP2 POP DUP3 DUP3 DIV DUP5 EQ DUP4 ISZERO OR PUSH2 0x1C1F JUMPI PUSH2 0x1C1E PUSH2 0x1A4D JUMP JUMPDEST JUMPDEST POP SWAP3 SWAP2 POP POP JUMP INVALID LOG2 PUSH5 0x6970667358 0x22 SLT KECCAK256 0xBA LOG3 0x26 DUP6 PUSH5 0x7200723742 0xCC CALLDATACOPY 0xA5 MCOPY AND RETURNDATACOPY LOG4 0xA9 PUSH28 0xD560BC7BD3F51E0ED0D871D44264736F6C6343000819003300000000 "
				},
				"gasEstimates": {
					"creation": {
						"codeDepositCost": "1452000",
						"executionCost": "1511",
						"totalCost": "1453511"
					},
					"external": {
						"PAPER()": "413",
						"ROCK()": "391",
						"SCISSORS()": "369",
						"forceWin()": "infinite",
						"gameDone()": "2606",
						"play(uint256,uint256)": "infinite",
						"playerA()": "2528",
						"playerAEncVote()": "2492",
						"playerARevealed()": "2489",
						"playerAVote()": "2449",
						"playerB()": "2627",
						"playerBEncVote()": "2470",
						"playerBRevealed()": "2512",
						"playerBVote()": "2492",
						"reveal(uint256,uint256)": "infinite",
						"revealDeadline()": "2447",
						"stake()": "2515",
						"winner()": "2618"
					},
					"internal": {
						"findWinner()": "19207",
						"resetGame()": "175791",
						"withdraw()": "infinite"
					}
				},
				"methodIdentifiers": {
					"PAPER()": "c44d6f87",
					"ROCK()": "b93e0e39",
					"SCISSORS()": "b357a028",
					"forceWin()": "ad622811",
					"gameDone()": "b0d74a39",
					"play(uint256,uint256)": "7bc49a95",
					"playerA()": "a285c54a",
					"playerAEncVote()": "b040905b",
					"playerARevealed()": "3e9feea7",
					"playerAVote()": "0062388e",
					"playerB()": "11bb1537",
					"playerBEncVote()": "560b3986",
					"playerBRevealed()": "05ca5dda",
					"playerBVote()": "7ba9f72e",
					"reveal(uint256,uint256)": "9348cef7",
					"revealDeadline()": "b14b28a3",
					"stake()": "3a4b66f1",
					"winner()": "dfbf53ae"
				}
			},
			"storageLayout": {
				"storage": [
					{
						"astId": 12,
						"contract": "contracts/lab01_2.sol:RockPaperScissors",
						"label": "playerA",
						"offset": 0,
						"slot": "0",
						"type": "t_address"
					},
					{
						"astId": 14,
						"contract": "contracts/lab01_2.sol:RockPaperScissors",
						"label": "playerAEncVote",
						"offset": 0,
						"slot": "1",
						"type": "t_bytes32"
					},
					{
						"astId": 16,
						"contract": "contracts/lab01_2.sol:RockPaperScissors",
						"label": "playerAVote",
						"offset": 0,
						"slot": "2",
						"type": "t_uint256"
					},
					{
						"astId": 18,
						"contract": "contracts/lab01_2.sol:RockPaperScissors",
						"label": "playerARevealed",
						"offset": 0,
						"slot": "3",
						"type": "t_bool"
					},
					{
						"astId": 20,
						"contract": "contracts/lab01_2.sol:RockPaperScissors",
						"label": "playerB",
						"offset": 1,
						"slot": "3",
						"type": "t_address"
					},
					{
						"astId": 22,
						"contract": "contracts/lab01_2.sol:RockPaperScissors",
						"label": "playerBEncVote",
						"offset": 0,
						"slot": "4",
						"type": "t_bytes32"
					},
					{
						"astId": 24,
						"contract": "contracts/lab01_2.sol:RockPaperScissors",
						"label": "playerBVote",
						"offset": 0,
						"slot": "5",
						"type": "t_uint256"
					},
					{
						"astId": 26,
						"contract": "contracts/lab01_2.sol:RockPaperScissors",
						"label": "playerBRevealed",
						"offset": 0,
						"slot": "6",
						"type": "t_bool"
					},
					{
						"astId": 28,
						"contract": "contracts/lab01_2.sol:RockPaperScissors",
						"label": "stake",
						"offset": 0,
						"slot": "7",
						"type": "t_uint256"
					},
					{
						"astId": 30,
						"contract": "contracts/lab01_2.sol:RockPaperScissors",
						"label": "winner",
						"offset": 0,
						"slot": "8",
						"type": "t_address"
					},
					{
						"astId": 32,
						"contract": "contracts/lab01_2.sol:RockPaperScissors",
						"label": "gameDone",
						"offset": 20,
						"slot": "8",
						"type": "t_bool"
					},
					{
						"astId": 34,
						"contract": "contracts/lab01_2.sol:RockPaperScissors",
						"label": "revealDeadline",
						"offset": 0,
						"slot": "9",
						"type": "t_uint256"
					}
				],
				"types": {
					"t_address": {
						"encoding": "inplace",
						"label": "address",
						"numberOfBytes": "20"
					},
					"t_bool": {
						"encoding": "inplace",
						"label": "bool",
						"numberOfBytes": "1"
					},
					"t_bytes32": {
						"encoding": "inplace",
						"label": "bytes32",
						"numberOfBytes": "32"
					},
					"t_uint256": {
						"encoding": "inplace",
						"label": "uint256",
						"numberOfBytes": "32"
					}
				}
			},
			"userdoc": {
				"kind": "user",
				"methods": {},
				"version": 1
			}
		}
	}
}