{
	"contracts/lab01_2.sol": {
		"RockPaperScissors": {
			"abi": [
				{
					"inputs": [],
					"name": "PAPER",
					"outputs": [
						{
							"internalType": "uint256",
							"name": "",
							"type": "uint256"
						}
					],
					"stateMutability": "view",
					"type": "function"
				},
				{
					"inputs": [],
					"name": "ROCK",
					"outputs": [
						{
							"internalType": "uint256",
							"name": "",
							"type": "uint256"
						}
					],
					"stateMutability": "view",
					"type": "function"
				},
				{
					"inputs": [],
					"name": "SCISSORS",
					"outputs": [
						{
							"internalType": "uint256",
							"name": "",
							"type": "uint256"
						}
					],
					"stateMutability": "view",
					"type": "function"
				},
				{
					"inputs": [],
					"name": "gameDone",
					"outputs": [
						{
							"internalType": "bool",
							"name": "",
							"type": "bool"
						}
					],
					"stateMutability": "view",
					"type": "function"
				},
				{
					"inputs": [
						{
							"internalType": "uint256",
							"name": "_move",
							"type": "uint256"
						},
						{
							"internalType": "uint256",
							"name": "salt",
							"type": "uint256"
						}
					],
					"name": "play",
					"outputs": [],
					"stateMutability": "payable",
					"type": "function"
				},
				{
					"inputs": [],
					"name": "playerA",
					"outputs": [
						{
							"internalType": "address",
							"name": "",
							"type": "address"
						}
					],
					"stateMutability": "view",
					"type": "function"
				},
				{
					"inputs": [],
					"name": "playerAEncVote",
					"outputs": [
						{
							"internalType": "bytes32",
							"name": "",
							"type": "bytes32"
						}
					],
					"stateMutability": "view",
					"type": "function"
				},
				{
					"inputs": [],
					"name": "playerARevealed",
					"outputs": [
						{
							"internalType": "bool",
							"name": "",
							"type": "bool"
						}
					],
					"stateMutability": "view",
					"type": "function"
				},
				{
					"inputs": [],
					"name": "playerAVote",
					"outputs": [
						{
							"internalType": "uint256",
							"name": "",
							"type": "uint256"
						}
					],
					"stateMutability": "view",
					"type": "function"
				},
				{
					"inputs": [],
					"name": "playerB",
					"outputs": [
						{
							"internalType": "address",
							"name": "",
							"type": "address"
						}
					],
					"stateMutability": "view",
					"type": "function"
				},
				{
					"inputs": [],
					"name": "playerBEncVote",
					"outputs": [
						{
							"internalType": "bytes32",
							"name": "",
							"type": "bytes32"
						}
					],
					"stateMutability": "view",
					"type": "function"
				},
				{
					"inputs": [],
					"name": "playerBRevealed",
					"outputs": [
						{
							"internalType": "bool",
							"name": "",
							"type": "bool"
						}
					],
					"stateMutability": "view",
					"type": "function"
				},
				{
					"inputs": [],
					"name": "playerBVote",
					"outputs": [
						{
							"internalType": "uint256",
							"name": "",
							"type": "uint256"
						}
					],
					"stateMutability": "view",
					"type": "function"
				},
				{
					"inputs": [
						{
							"internalType": "uint256",
							"name": "_move",
							"type": "uint256"
						},
						{
							"internalType": "uint256",
							"name": "salt",
							"type": "uint256"
						}
					],
					"name": "reveal",
					"outputs": [],
					"stateMutability": "nonpayable",
					"type": "function"
				},
				{
					"inputs": [],
					"name": "stake",
					"outputs": [
						{
							"internalType": "uint256",
							"name": "",
							"type": "uint256"
						}
					],
					"stateMutability": "view",
					"type": "function"
				},
				{
					"inputs": [],
					"name": "winner",
					"outputs": [
						{
							"internalType": "address",
							"name": "",
							"type": "address"
						}
					],
					"stateMutability": "view",
					"type": "function"
				}
			],
			"devdoc": {
				"kind": "dev",
				"methods": {},
				"version": 1
			},
			"evm": {
				"assembly": "    /* \"contracts/lab01_2.sol\":72:4005  contract RockPaperScissors {... */\n  mstore(0x40, 0x80)\n  callvalue\n  dup1\n  iszero\n  tag_1\n  jumpi\n  0x00\n  dup1\n  revert\ntag_1:\n  pop\n  dataSize(sub_0)\n  dup1\n  dataOffset(sub_0)\n  0x00\n  codecopy\n  0x00\n  return\nstop\n\nsub_0: assembly {\n        /* \"contracts/lab01_2.sol\":72:4005  contract RockPaperScissors {... */\n      mstore(0x40, 0x80)\n      jumpi(tag_1, lt(calldatasize, 0x04))\n      shr(0xe0, calldataload(0x00))\n      dup1\n      0x9348cef7\n      gt\n      tag_18\n      jumpi\n      dup1\n      0xb357a028\n      gt\n      tag_19\n      jumpi\n      dup1\n      0xb357a028\n      eq\n      tag_14\n      jumpi\n      dup1\n      0xb93e0e39\n      eq\n      tag_15\n      jumpi\n      dup1\n      0xc44d6f87\n      eq\n      tag_16\n      jumpi\n      dup1\n      0xdfbf53ae\n      eq\n      tag_17\n      jumpi\n      jump(tag_1)\n    tag_19:\n      dup1\n      0x9348cef7\n      eq\n      tag_10\n      jumpi\n      dup1\n      0xa285c54a\n      eq\n      tag_11\n      jumpi\n      dup1\n      0xb040905b\n      eq\n      tag_12\n      jumpi\n      dup1\n      0xb0d74a39\n      eq\n      tag_13\n      jumpi\n      jump(tag_1)\n    tag_18:\n      dup1\n      0x3e9feea7\n      gt\n      tag_20\n      jumpi\n      dup1\n      0x3e9feea7\n      eq\n      tag_6\n      jumpi\n      dup1\n      0x560b3986\n      eq\n      tag_7\n      jumpi\n      dup1\n      0x7ba9f72e\n      eq\n      tag_8\n      jumpi\n      dup1\n      0x7bc49a95\n      eq\n      tag_9\n      jumpi\n      jump(tag_1)\n    tag_20:\n      dup1\n      0x62388e\n      eq\n      tag_2\n      jumpi\n      dup1\n      0x05ca5dda\n      eq\n      tag_3\n      jumpi\n      dup1\n      0x11bb1537\n      eq\n      tag_4\n      jumpi\n      dup1\n      0x3a4b66f1\n      eq\n      tag_5\n      jumpi\n    tag_1:\n      0x00\n      dup1\n      revert\n        /* \"contracts/lab01_2.sol\":337:363  uint256 public playerAVote */\n    tag_2:\n      callvalue\n      dup1\n      iszero\n      tag_21\n      jumpi\n      0x00\n      dup1\n      revert\n    tag_21:\n      pop\n      tag_22\n      tag_23\n      jump\t// in\n    tag_22:\n      mload(0x40)\n      tag_24\n      swap2\n      swap1\n      tag_25\n      jump\t// in\n    tag_24:\n      mload(0x40)\n      dup1\n      swap2\n      sub\n      swap1\n      return\n        /* \"contracts/lab01_2.sol\":532:559  bool public playerBRevealed */\n    tag_3:\n      callvalue\n      dup1\n      iszero\n      tag_26\n      jumpi\n      0x00\n      dup1\n      revert\n    tag_26:\n      pop\n      tag_27\n      tag_28\n      jump\t// in\n    tag_27:\n      mload(0x40)\n      tag_29\n      swap2\n      swap1\n      tag_30\n      jump\t// in\n    tag_29:\n      mload(0x40)\n      dup1\n      swap2\n      sub\n      swap1\n      return\n        /* \"contracts/lab01_2.sol\":434:456  address public playerB */\n    tag_4:\n      callvalue\n      dup1\n      iszero\n      tag_31\n      jumpi\n      0x00\n      dup1\n      revert\n    tag_31:\n      pop\n      tag_32\n      tag_33\n      jump\t// in\n    tag_32:\n      mload(0x40)\n      tag_34\n      swap2\n      swap1\n      tag_35\n      jump\t// in\n    tag_34:\n      mload(0x40)\n      dup1\n      swap2\n      sub\n      swap1\n      return\n        /* \"contracts/lab01_2.sol\":595:615  uint256 public stake */\n    tag_5:\n      callvalue\n      dup1\n      iszero\n      tag_36\n      jumpi\n      0x00\n      dup1\n      revert\n    tag_36:\n      pop\n      tag_37\n      tag_38\n      jump\t// in\n    tag_37:\n      mload(0x40)\n      tag_39\n      swap2\n      swap1\n      tag_25\n      jump\t// in\n    tag_39:\n      mload(0x40)\n      dup1\n      swap2\n      sub\n      swap1\n      return\n        /* \"contracts/lab01_2.sol\":370:397  bool public playerARevealed */\n    tag_6:\n      callvalue\n      dup1\n      iszero\n      tag_40\n      jumpi\n      0x00\n      dup1\n      revert\n    tag_40:\n      pop\n      tag_41\n      tag_42\n      jump\t// in\n    tag_41:\n      mload(0x40)\n      tag_43\n      swap2\n      swap1\n      tag_30\n      jump\t// in\n    tag_43:\n      mload(0x40)\n      dup1\n      swap2\n      sub\n      swap1\n      return\n        /* \"contracts/lab01_2.sol\":463:492  bytes32 public playerBEncVote */\n    tag_7:\n      callvalue\n      dup1\n      iszero\n      tag_44\n      jumpi\n      0x00\n      dup1\n      revert\n    tag_44:\n      pop\n      tag_45\n      tag_46\n      jump\t// in\n    tag_45:\n      mload(0x40)\n      tag_47\n      swap2\n      swap1\n      tag_48\n      jump\t// in\n    tag_47:\n      mload(0x40)\n      dup1\n      swap2\n      sub\n      swap1\n      return\n        /* \"contracts/lab01_2.sol\":499:525  uint256 public playerBVote */\n    tag_8:\n      callvalue\n      dup1\n      iszero\n      tag_49\n      jumpi\n      0x00\n      dup1\n      revert\n    tag_49:\n      pop\n      tag_50\n      tag_51\n      jump\t// in\n    tag_50:\n      mload(0x40)\n      tag_52\n      swap2\n      swap1\n      tag_25\n      jump\t// in\n    tag_52:\n      mload(0x40)\n      dup1\n      swap2\n      sub\n      swap1\n      return\n        /* \"contracts/lab01_2.sol\":681:1596  function play(uint256 _move, uint256 salt) public payable {... */\n    tag_9:\n      tag_53\n      0x04\n      dup1\n      calldatasize\n      sub\n      dup2\n      add\n      swap1\n      tag_54\n      swap2\n      swap1\n      tag_55\n      jump\t// in\n    tag_54:\n      tag_56\n      jump\t// in\n    tag_53:\n      stop\n        /* \"contracts/lab01_2.sol\":1604:2814  function reveal(uint256 _move, uint256 salt) public {... */\n    tag_10:\n      callvalue\n      dup1\n      iszero\n      tag_57\n      jumpi\n      0x00\n      dup1\n      revert\n    tag_57:\n      pop\n      tag_58\n      0x04\n      dup1\n      calldatasize\n      sub\n      dup2\n      add\n      swap1\n      tag_59\n      swap2\n      swap1\n      tag_55\n      jump\t// in\n    tag_59:\n      tag_60\n      jump\t// in\n    tag_58:\n      stop\n        /* \"contracts/lab01_2.sol\":272:294  address public playerA */\n    tag_11:\n      callvalue\n      dup1\n      iszero\n      tag_61\n      jumpi\n      0x00\n      dup1\n      revert\n    tag_61:\n      pop\n      tag_62\n      tag_63\n      jump\t// in\n    tag_62:\n      mload(0x40)\n      tag_64\n      swap2\n      swap1\n      tag_35\n      jump\t// in\n    tag_64:\n      mload(0x40)\n      dup1\n      swap2\n      sub\n      swap1\n      return\n        /* \"contracts/lab01_2.sol\":301:330  bytes32 public playerAEncVote */\n    tag_12:\n      callvalue\n      dup1\n      iszero\n      tag_65\n      jumpi\n      0x00\n      dup1\n      revert\n    tag_65:\n      pop\n      tag_66\n      tag_67\n      jump\t// in\n    tag_66:\n      mload(0x40)\n      tag_68\n      swap2\n      swap1\n      tag_48\n      jump\t// in\n    tag_68:\n      mload(0x40)\n      dup1\n      swap2\n      sub\n      swap1\n      return\n        /* \"contracts/lab01_2.sol\":650:670  bool public gameDone */\n    tag_13:\n      callvalue\n      dup1\n      iszero\n      tag_69\n      jumpi\n      0x00\n      dup1\n      revert\n    tag_69:\n      pop\n      tag_70\n      tag_71\n      jump\t// in\n    tag_70:\n      mload(0x40)\n      tag_72\n      swap2\n      swap1\n      tag_30\n      jump\t// in\n    tag_72:\n      mload(0x40)\n      dup1\n      swap2\n      sub\n      swap1\n      return\n        /* \"contracts/lab01_2.sol\":199:235  uint256 public constant SCISSORS = 3 */\n    tag_14:\n      callvalue\n      dup1\n      iszero\n      tag_73\n      jumpi\n      0x00\n      dup1\n      revert\n    tag_73:\n      pop\n      tag_74\n      tag_75\n      jump\t// in\n    tag_74:\n      mload(0x40)\n      tag_76\n      swap2\n      swap1\n      tag_25\n      jump\t// in\n    tag_76:\n      mload(0x40)\n      dup1\n      swap2\n      sub\n      swap1\n      return\n        /* \"contracts/lab01_2.sol\":120:152  uint256 public constant ROCK = 1 */\n    tag_15:\n      callvalue\n      dup1\n      iszero\n      tag_77\n      jumpi\n      0x00\n      dup1\n      revert\n    tag_77:\n      pop\n      tag_78\n      tag_79\n      jump\t// in\n    tag_78:\n      mload(0x40)\n      tag_80\n      swap2\n      swap1\n      tag_25\n      jump\t// in\n    tag_80:\n      mload(0x40)\n      dup1\n      swap2\n      sub\n      swap1\n      return\n        /* \"contracts/lab01_2.sol\":159:192  uint256 public constant PAPER = 2 */\n    tag_16:\n      callvalue\n      dup1\n      iszero\n      tag_81\n      jumpi\n      0x00\n      dup1\n      revert\n    tag_81:\n      pop\n      tag_82\n      tag_83\n      jump\t// in\n    tag_82:\n      mload(0x40)\n      tag_84\n      swap2\n      swap1\n      tag_25\n      jump\t// in\n    tag_84:\n      mload(0x40)\n      dup1\n      swap2\n      sub\n      swap1\n      return\n        /* \"contracts/lab01_2.sol\":622:643  address public winner */\n    tag_17:\n      callvalue\n      dup1\n      iszero\n      tag_85\n      jumpi\n      0x00\n      dup1\n      revert\n    tag_85:\n      pop\n      tag_86\n      tag_87\n      jump\t// in\n    tag_86:\n      mload(0x40)\n      tag_88\n      swap2\n      swap1\n      tag_35\n      jump\t// in\n    tag_88:\n      mload(0x40)\n      dup1\n      swap2\n      sub\n      swap1\n      return\n        /* \"contracts/lab01_2.sol\":337:363  uint256 public playerAVote */\n    tag_23:\n      sload(0x02)\n      dup2\n      jump\t// out\n        /* \"contracts/lab01_2.sol\":532:559  bool public playerBRevealed */\n    tag_28:\n      0x06\n      0x00\n      swap1\n      sload\n      swap1\n      0x0100\n      exp\n      swap1\n      div\n      0xff\n      and\n      dup2\n      jump\t// out\n        /* \"contracts/lab01_2.sol\":434:456  address public playerB */\n    tag_33:\n      0x03\n      0x01\n      swap1\n      sload\n      swap1\n      0x0100\n      exp\n      swap1\n      div\n      0xffffffffffffffffffffffffffffffffffffffff\n      and\n      dup2\n      jump\t// out\n        /* \"contracts/lab01_2.sol\":595:615  uint256 public stake */\n    tag_38:\n      sload(0x07)\n      dup2\n      jump\t// out\n        /* \"contracts/lab01_2.sol\":370:397  bool public playerARevealed */\n    tag_42:\n      0x03\n      0x00\n      swap1\n      sload\n      swap1\n      0x0100\n      exp\n      swap1\n      div\n      0xff\n      and\n      dup2\n      jump\t// out\n        /* \"contracts/lab01_2.sol\":463:492  bytes32 public playerBEncVote */\n    tag_46:\n      sload(0x04)\n      dup2\n      jump\t// out\n        /* \"contracts/lab01_2.sol\":499:525  uint256 public playerBVote */\n    tag_51:\n      sload(0x05)\n      dup2\n      jump\t// out\n        /* \"contracts/lab01_2.sol\":681:1596  function play(uint256 _move, uint256 salt) public payable {... */\n    tag_56:\n        /* \"contracts/lab01_2.sol\":771:778  1 ether */\n      0x0de0b6b3a7640000\n        /* \"contracts/lab01_2.sol\":758:767  msg.value */\n      callvalue\n        /* \"contracts/lab01_2.sol\":758:778  msg.value >= 1 ether */\n      lt\n      iszero\n        /* \"contracts/lab01_2.sol\":750:807  require(msg.value >= 1 ether, \"Bet must be over 1 ether\") */\n      tag_90\n      jumpi\n      mload(0x40)\n      0x08c379a000000000000000000000000000000000000000000000000000000000\n      dup2\n      mstore\n      0x04\n      add\n      tag_91\n      swap1\n      tag_92\n      jump\t// in\n    tag_91:\n      mload(0x40)\n      dup1\n      swap2\n      sub\n      swap1\n      revert\n    tag_90:\n        /* \"contracts/lab01_2.sol\":835:836  1 */\n      0x01\n        /* \"contracts/lab01_2.sol\":826:831  _move */\n      dup3\n        /* \"contracts/lab01_2.sol\":826:836  _move == 1 */\n      eq\n        /* \"contracts/lab01_2.sol\":826:850  _move == 1 || _move == 2 */\n      dup1\n      tag_93\n      jumpi\n      pop\n        /* \"contracts/lab01_2.sol\":849:850  2 */\n      0x02\n        /* \"contracts/lab01_2.sol\":840:845  _move */\n      dup3\n        /* \"contracts/lab01_2.sol\":840:850  _move == 2 */\n      eq\n        /* \"contracts/lab01_2.sol\":826:850  _move == 1 || _move == 2 */\n    tag_93:\n        /* \"contracts/lab01_2.sol\":826:864  _move == 1 || _move == 2 || _move == 3 */\n      dup1\n      tag_94\n      jumpi\n      pop\n        /* \"contracts/lab01_2.sol\":863:864  3 */\n      0x03\n        /* \"contracts/lab01_2.sol\":854:859  _move */\n      dup3\n        /* \"contracts/lab01_2.sol\":854:864  _move == 3 */\n      eq\n        /* \"contracts/lab01_2.sol\":826:864  _move == 1 || _move == 2 || _move == 3 */\n    tag_94:\n        /* \"contracts/lab01_2.sol\":818:881  require(_move == 1 || _move == 2 || _move == 3, \"Invalid Move\") */\n      tag_95\n      jumpi\n      mload(0x40)\n      0x08c379a000000000000000000000000000000000000000000000000000000000\n      dup2\n      mstore\n      0x04\n      add\n      tag_96\n      swap1\n      tag_97\n      jump\t// in\n    tag_96:\n      mload(0x40)\n      dup1\n      swap2\n      sub\n      swap1\n      revert\n    tag_95:\n        /* \"contracts/lab01_2.sol\":916:917  0 */\n      0x00\n        /* \"contracts/lab01_2.sol\":897:918  playerA == address(0) */\n      0xffffffffffffffffffffffffffffffffffffffff\n      and\n        /* \"contracts/lab01_2.sol\":897:904  playerA */\n      0x00\n      dup1\n      sload\n      swap1\n      0x0100\n      exp\n      swap1\n      div\n      0xffffffffffffffffffffffffffffffffffffffff\n      and\n        /* \"contracts/lab01_2.sol\":897:918  playerA == address(0) */\n      0xffffffffffffffffffffffffffffffffffffffff\n      and\n      sub\n        /* \"contracts/lab01_2.sol\":894:1589  if(playerA == address(0)){... */\n      tag_98\n      jumpi\n        /* \"contracts/lab01_2.sol\":944:954  msg.sender */\n      caller\n        /* \"contracts/lab01_2.sol\":934:941  playerA */\n      0x00\n      dup1\n        /* \"contracts/lab01_2.sol\":934:954  playerA = msg.sender */\n      0x0100\n      exp\n      dup2\n      sload\n      dup2\n      0xffffffffffffffffffffffffffffffffffffffff\n      mul\n      not\n      and\n      swap1\n      dup4\n      0xffffffffffffffffffffffffffffffffffffffff\n      and\n      mul\n      or\n      swap1\n      sstore\n      pop\n        /* \"contracts/lab01_2.sol\":983:984  0 */\n      0x00\n        /* \"contracts/lab01_2.sol\":969:980  playerAVote */\n      0x02\n        /* \"contracts/lab01_2.sol\":969:984  playerAVote = 0 */\n      dup2\n      swap1\n      sstore\n      pop\n        /* \"contracts/lab01_2.sol\":1043:1048  _move */\n      dup2\n        /* \"contracts/lab01_2.sol\":1050:1054  salt */\n      dup2\n        /* \"contracts/lab01_2.sol\":1026:1055  abi.encodePacked(_move, salt) */\n      add(0x20, mload(0x40))\n      tag_99\n      swap3\n      swap2\n      swap1\n      tag_100\n      jump\t// in\n    tag_99:\n      mload(0x40)\n      0x20\n      dup2\n      dup4\n      sub\n      sub\n      dup2\n      mstore\n      swap1\n      0x40\n      mstore\n        /* \"contracts/lab01_2.sol\":1016:1056  keccak256(abi.encodePacked(_move, salt)) */\n      dup1\n      mload\n      swap1\n      0x20\n      add\n      keccak256\n        /* \"contracts/lab01_2.sol\":999:1013  playerAEncVote */\n      0x01\n        /* \"contracts/lab01_2.sol\":999:1056  playerAEncVote = keccak256(abi.encodePacked(_move, salt)) */\n      dup2\n      swap1\n      sstore\n      pop\n        /* \"contracts/lab01_2.sol\":1089:1094  false */\n      0x00\n        /* \"contracts/lab01_2.sol\":1071:1086  playerARevealed */\n      0x03\n      0x00\n        /* \"contracts/lab01_2.sol\":1071:1094  playerARevealed = false */\n      0x0100\n      exp\n      dup2\n      sload\n      dup2\n      0xff\n      mul\n      not\n      and\n      swap1\n      dup4\n      iszero\n      iszero\n      mul\n      or\n      swap1\n      sstore\n      pop\n        /* \"contracts/lab01_2.sol\":1117:1126  msg.value */\n      callvalue\n        /* \"contracts/lab01_2.sol\":1109:1114  stake */\n      0x07\n        /* \"contracts/lab01_2.sol\":1109:1126  stake = msg.value */\n      dup2\n      swap1\n      sstore\n      pop\n        /* \"contracts/lab01_2.sol\":894:1589  if(playerA == address(0)){... */\n      jump(tag_101)\n    tag_98:\n        /* \"contracts/lab01_2.sol\":1175:1176  0 */\n      0x00\n        /* \"contracts/lab01_2.sol\":1156:1177  playerB == address(0) */\n      0xffffffffffffffffffffffffffffffffffffffff\n      and\n        /* \"contracts/lab01_2.sol\":1156:1163  playerB */\n      0x03\n      0x01\n      swap1\n      sload\n      swap1\n      0x0100\n      exp\n      swap1\n      div\n      0xffffffffffffffffffffffffffffffffffffffff\n      and\n        /* \"contracts/lab01_2.sol\":1156:1177  playerB == address(0) */\n      0xffffffffffffffffffffffffffffffffffffffff\n      and\n      sub\n        /* \"contracts/lab01_2.sol\":1153:1589  if(playerB == address(0)){... */\n      tag_102\n      jumpi\n        /* \"contracts/lab01_2.sol\":1215:1222  playerA */\n      0x00\n      dup1\n      sload\n      swap1\n      0x0100\n      exp\n      swap1\n      div\n      0xffffffffffffffffffffffffffffffffffffffff\n      and\n        /* \"contracts/lab01_2.sol\":1201:1222  msg.sender != playerA */\n      0xffffffffffffffffffffffffffffffffffffffff\n      and\n        /* \"contracts/lab01_2.sol\":1201:1211  msg.sender */\n      caller\n        /* \"contracts/lab01_2.sol\":1201:1222  msg.sender != playerA */\n      0xffffffffffffffffffffffffffffffffffffffff\n      and\n      sub\n        /* \"contracts/lab01_2.sol\":1193:1259  require(msg.sender != playerA, \"Same player cannot join the game\") */\n      tag_103\n      jumpi\n      mload(0x40)\n      0x08c379a000000000000000000000000000000000000000000000000000000000\n      dup2\n      mstore\n      0x04\n      add\n      tag_104\n      swap1\n      tag_105\n      jump\t// in\n    tag_104:\n      mload(0x40)\n      dup1\n      swap2\n      sub\n      swap1\n      revert\n    tag_103:\n        /* \"contracts/lab01_2.sol\":1295:1300  stake */\n      sload(0x07)\n        /* \"contracts/lab01_2.sol\":1282:1291  msg.value */\n      callvalue\n        /* \"contracts/lab01_2.sol\":1282:1300  msg.value == stake */\n      eq\n        /* \"contracts/lab01_2.sol\":1274:1341  require(msg.value == stake, \"Must match the stake of first player\") */\n      tag_106\n      jumpi\n      mload(0x40)\n      0x08c379a000000000000000000000000000000000000000000000000000000000\n      dup2\n      mstore\n      0x04\n      add\n      tag_107\n      swap1\n      tag_108\n      jump\t// in\n    tag_107:\n      mload(0x40)\n      dup1\n      swap2\n      sub\n      swap1\n      revert\n    tag_106:\n        /* \"contracts/lab01_2.sol\":1366:1376  msg.sender */\n      caller\n        /* \"contracts/lab01_2.sol\":1356:1363  playerB */\n      0x03\n      0x01\n        /* \"contracts/lab01_2.sol\":1356:1376  playerB = msg.sender */\n      0x0100\n      exp\n      dup2\n      sload\n      dup2\n      0xffffffffffffffffffffffffffffffffffffffff\n      mul\n      not\n      and\n      swap1\n      dup4\n      0xffffffffffffffffffffffffffffffffffffffff\n      and\n      mul\n      or\n      swap1\n      sstore\n      pop\n        /* \"contracts/lab01_2.sol\":1405:1406  0 */\n      0x00\n        /* \"contracts/lab01_2.sol\":1391:1402  playerBVote */\n      0x05\n        /* \"contracts/lab01_2.sol\":1391:1406  playerBVote = 0 */\n      dup2\n      swap1\n      sstore\n      pop\n        /* \"contracts/lab01_2.sol\":1465:1470  _move */\n      dup2\n        /* \"contracts/lab01_2.sol\":1472:1476  salt */\n      dup2\n        /* \"contracts/lab01_2.sol\":1448:1477  abi.encodePacked(_move, salt) */\n      add(0x20, mload(0x40))\n      tag_109\n      swap3\n      swap2\n      swap1\n      tag_100\n      jump\t// in\n    tag_109:\n      mload(0x40)\n      0x20\n      dup2\n      dup4\n      sub\n      sub\n      dup2\n      mstore\n      swap1\n      0x40\n      mstore\n        /* \"contracts/lab01_2.sol\":1438:1478  keccak256(abi.encodePacked(_move, salt)) */\n      dup1\n      mload\n      swap1\n      0x20\n      add\n      keccak256\n        /* \"contracts/lab01_2.sol\":1421:1435  playerBEncVote */\n      0x04\n        /* \"contracts/lab01_2.sol\":1421:1478  playerBEncVote = keccak256(abi.encodePacked(_move, salt)) */\n      dup2\n      swap1\n      sstore\n      pop\n        /* \"contracts/lab01_2.sol\":1511:1516  false */\n      0x00\n        /* \"contracts/lab01_2.sol\":1493:1508  playerBRevealed */\n      0x06\n      0x00\n        /* \"contracts/lab01_2.sol\":1493:1516  playerBRevealed = false */\n      0x0100\n      exp\n      dup2\n      sload\n      dup2\n      0xff\n      mul\n      not\n      and\n      swap1\n      dup4\n      iszero\n      iszero\n      mul\n      or\n      swap1\n      sstore\n      pop\n        /* \"contracts/lab01_2.sol\":1153:1589  if(playerB == address(0)){... */\n      jump(tag_110)\n    tag_102:\n        /* \"contracts/lab01_2.sol\":1558:1577  revert(\"Full game\") */\n      mload(0x40)\n      0x08c379a000000000000000000000000000000000000000000000000000000000\n      dup2\n      mstore\n      0x04\n      add\n      tag_111\n      swap1\n      tag_112\n      jump\t// in\n    tag_111:\n      mload(0x40)\n      dup1\n      swap2\n      sub\n      swap1\n      revert\n        /* \"contracts/lab01_2.sol\":1153:1589  if(playerB == address(0)){... */\n    tag_110:\n        /* \"contracts/lab01_2.sol\":894:1589  if(playerA == address(0)){... */\n    tag_101:\n        /* \"contracts/lab01_2.sol\":681:1596  function play(uint256 _move, uint256 salt) public payable {... */\n      pop\n      pop\n      jump\t// out\n        /* \"contracts/lab01_2.sol\":1604:2814  function reveal(uint256 _move, uint256 salt) public {... */\n    tag_60:\n        /* \"contracts/lab01_2.sol\":1676:1684  gameDone */\n      0x08\n      0x14\n      swap1\n      sload\n      swap1\n      0x0100\n      exp\n      swap1\n      div\n      0xff\n      and\n        /* \"contracts/lab01_2.sol\":1675:1684  !gameDone */\n      iszero\n        /* \"contracts/lab01_2.sol\":1667:1709  require(!gameDone, \"game is already done\") */\n      tag_114\n      jumpi\n      mload(0x40)\n      0x08c379a000000000000000000000000000000000000000000000000000000000\n      dup2\n      mstore\n      0x04\n      add\n      tag_115\n      swap1\n      tag_116\n      jump\t// in\n    tag_115:\n      mload(0x40)\n      dup1\n      swap2\n      sub\n      swap1\n      revert\n    tag_114:\n        /* \"contracts/lab01_2.sol\":1754:1755  0 */\n      0x00\n        /* \"contracts/lab01_2.sol\":1746:1756  bytes32(0) */\n      dup1\n      shl\n        /* \"contracts/lab01_2.sol\":1728:1742  playerAEncVote */\n      sload(0x01)\n        /* \"contracts/lab01_2.sol\":1728:1756  playerAEncVote == bytes32(0) */\n      eq\n        /* \"contracts/lab01_2.sol\":1728:1788  playerAEncVote == bytes32(0) || playerBEncVote == bytes32(0) */\n      dup1\n      tag_117\n      jumpi\n      pop\n        /* \"contracts/lab01_2.sol\":1786:1787  0 */\n      0x00\n        /* \"contracts/lab01_2.sol\":1778:1788  bytes32(0) */\n      dup1\n      shl\n        /* \"contracts/lab01_2.sol\":1760:1774  playerBEncVote */\n      sload(0x04)\n        /* \"contracts/lab01_2.sol\":1760:1788  playerBEncVote == bytes32(0) */\n      eq\n        /* \"contracts/lab01_2.sol\":1728:1788  playerAEncVote == bytes32(0) || playerBEncVote == bytes32(0) */\n    tag_117:\n        /* \"contracts/lab01_2.sol\":1720:1824  require(playerAEncVote == bytes32(0) || playerBEncVote == bytes32(0), \"Both players need to vote first\") */\n      tag_118\n      jumpi\n      mload(0x40)\n      0x08c379a000000000000000000000000000000000000000000000000000000000\n      dup2\n      mstore\n      0x04\n      add\n      tag_119\n      swap1\n      tag_120\n      jump\t// in\n    tag_119:\n      mload(0x40)\n      dup1\n      swap2\n      sub\n      swap1\n      revert\n    tag_118:\n        /* \"contracts/lab01_2.sol\":1852:1859  playerA */\n      0x00\n      dup1\n      sload\n      swap1\n      0x0100\n      exp\n      swap1\n      div\n      0xffffffffffffffffffffffffffffffffffffffff\n      and\n        /* \"contracts/lab01_2.sol\":1838:1859  msg.sender == playerA */\n      0xffffffffffffffffffffffffffffffffffffffff\n      and\n        /* \"contracts/lab01_2.sol\":1838:1848  msg.sender */\n      caller\n        /* \"contracts/lab01_2.sol\":1838:1859  msg.sender == playerA */\n      0xffffffffffffffffffffffffffffffffffffffff\n      and\n      sub\n        /* \"contracts/lab01_2.sol\":1835:2639  if(msg.sender == playerA){... */\n      tag_121\n      jumpi\n        /* \"contracts/lab01_2.sol\":1902:1907  false */\n      0x00\n        /* \"contracts/lab01_2.sol\":1883:1907  playerARevealed == false */\n      iszero\n      iszero\n        /* \"contracts/lab01_2.sol\":1883:1898  playerARevealed */\n      0x03\n      0x00\n      swap1\n      sload\n      swap1\n      0x0100\n      exp\n      swap1\n      div\n      0xff\n      and\n        /* \"contracts/lab01_2.sol\":1883:1907  playerARevealed == false */\n      iszero\n      iszero\n      eq\n        /* \"contracts/lab01_2.sol\":1875:1937  require(playerARevealed == false, \"You have already revealed\") */\n      tag_122\n      jumpi\n      mload(0x40)\n      0x08c379a000000000000000000000000000000000000000000000000000000000\n      dup2\n      mstore\n      0x04\n      add\n      tag_123\n      swap1\n      tag_124\n      jump\t// in\n    tag_123:\n      mload(0x40)\n      dup1\n      swap2\n      sub\n      swap1\n      revert\n    tag_122:\n        /* \"contracts/lab01_2.sol\":1952:1969  bytes32 checkVote */\n      0x00\n        /* \"contracts/lab01_2.sol\":1999:2004  _move */\n      dup3\n        /* \"contracts/lab01_2.sol\":2006:2010  salt */\n      dup3\n        /* \"contracts/lab01_2.sol\":1982:2011  abi.encodePacked(_move, salt) */\n      add(0x20, mload(0x40))\n      tag_125\n      swap3\n      swap2\n      swap1\n      tag_100\n      jump\t// in\n    tag_125:\n      mload(0x40)\n      0x20\n      dup2\n      dup4\n      sub\n      sub\n      dup2\n      mstore\n      swap1\n      0x40\n      mstore\n        /* \"contracts/lab01_2.sol\":1972:2012  keccak256(abi.encodePacked(_move, salt)) */\n      dup1\n      mload\n      swap1\n      0x20\n      add\n      keccak256\n        /* \"contracts/lab01_2.sol\":1952:2012  bytes32 checkVote = keccak256(abi.encodePacked(_move, salt)) */\n      swap1\n      pop\n        /* \"contracts/lab01_2.sol\":2048:2062  playerAEncVote */\n      sload(0x01)\n        /* \"contracts/lab01_2.sol\":2035:2044  checkVote */\n      dup2\n        /* \"contracts/lab01_2.sol\":2035:2062  checkVote == playerAEncVote */\n      eq\n        /* \"contracts/lab01_2.sol\":2027:2081  require(checkVote == playerAEncVote, \"Invalid reveal\") */\n      tag_126\n      jumpi\n      mload(0x40)\n      0x08c379a000000000000000000000000000000000000000000000000000000000\n      dup2\n      mstore\n      0x04\n      add\n      tag_127\n      swap1\n      tag_128\n      jump\t// in\n    tag_127:\n      mload(0x40)\n      dup1\n      swap2\n      sub\n      swap1\n      revert\n    tag_126:\n        /* \"contracts/lab01_2.sol\":2169:2174  _move */\n      dup3\n        /* \"contracts/lab01_2.sol\":2155:2166  playerAVote */\n      0x02\n        /* \"contracts/lab01_2.sol\":2155:2174  playerAVote = _move */\n      dup2\n      swap1\n      sstore\n      pop\n        /* \"contracts/lab01_2.sol\":2207:2211  true */\n      0x01\n        /* \"contracts/lab01_2.sol\":2189:2204  playerARevealed */\n      0x03\n      0x00\n        /* \"contracts/lab01_2.sol\":2189:2211  playerARevealed = true */\n      0x0100\n      exp\n      dup2\n      sload\n      dup2\n      0xff\n      mul\n      not\n      and\n      swap1\n      dup4\n      iszero\n      iszero\n      mul\n      or\n      swap1\n      sstore\n      pop\n        /* \"contracts/lab01_2.sol\":1860:2223  {... */\n      pop\n        /* \"contracts/lab01_2.sol\":1835:2639  if(msg.sender == playerA){... */\n      jump(tag_129)\n    tag_121:\n        /* \"contracts/lab01_2.sol\":2255:2262  playerA */\n      0x00\n      dup1\n      sload\n      swap1\n      0x0100\n      exp\n      swap1\n      div\n      0xffffffffffffffffffffffffffffffffffffffff\n      and\n        /* \"contracts/lab01_2.sol\":2241:2262  msg.sender == playerA */\n      0xffffffffffffffffffffffffffffffffffffffff\n      and\n        /* \"contracts/lab01_2.sol\":2241:2251  msg.sender */\n      caller\n        /* \"contracts/lab01_2.sol\":2241:2262  msg.sender == playerA */\n      0xffffffffffffffffffffffffffffffffffffffff\n      and\n      sub\n        /* \"contracts/lab01_2.sol\":2238:2639  if(msg.sender == playerA){... */\n      tag_130\n      jumpi\n        /* \"contracts/lab01_2.sol\":2305:2310  false */\n      0x00\n        /* \"contracts/lab01_2.sol\":2286:2310  playerBRevealed == false */\n      iszero\n      iszero\n        /* \"contracts/lab01_2.sol\":2286:2301  playerBRevealed */\n      0x06\n      0x00\n      swap1\n      sload\n      swap1\n      0x0100\n      exp\n      swap1\n      div\n      0xff\n      and\n        /* \"contracts/lab01_2.sol\":2286:2310  playerBRevealed == false */\n      iszero\n      iszero\n      eq\n        /* \"contracts/lab01_2.sol\":2278:2340  require(playerBRevealed == false, \"You have already revealed\") */\n      tag_131\n      jumpi\n      mload(0x40)\n      0x08c379a000000000000000000000000000000000000000000000000000000000\n      dup2\n      mstore\n      0x04\n      add\n      tag_132\n      swap1\n      tag_124\n      jump\t// in\n    tag_132:\n      mload(0x40)\n      dup1\n      swap2\n      sub\n      swap1\n      revert\n    tag_131:\n        /* \"contracts/lab01_2.sol\":2355:2372  bytes32 checkVote */\n      0x00\n        /* \"contracts/lab01_2.sol\":2402:2407  _move */\n      dup3\n        /* \"contracts/lab01_2.sol\":2409:2413  salt */\n      dup3\n        /* \"contracts/lab01_2.sol\":2385:2414  abi.encodePacked(_move, salt) */\n      add(0x20, mload(0x40))\n      tag_133\n      swap3\n      swap2\n      swap1\n      tag_100\n      jump\t// in\n    tag_133:\n      mload(0x40)\n      0x20\n      dup2\n      dup4\n      sub\n      sub\n      dup2\n      mstore\n      swap1\n      0x40\n      mstore\n        /* \"contracts/lab01_2.sol\":2375:2415  keccak256(abi.encodePacked(_move, salt)) */\n      dup1\n      mload\n      swap1\n      0x20\n      add\n      keccak256\n        /* \"contracts/lab01_2.sol\":2355:2415  bytes32 checkVote = keccak256(abi.encodePacked(_move, salt)) */\n      swap1\n      pop\n        /* \"contracts/lab01_2.sol\":2451:2465  playerBEncVote */\n      sload(0x04)\n        /* \"contracts/lab01_2.sol\":2438:2447  checkVote */\n      dup2\n        /* \"contracts/lab01_2.sol\":2438:2465  checkVote == playerBEncVote */\n      eq\n        /* \"contracts/lab01_2.sol\":2430:2484  require(checkVote == playerBEncVote, \"Invalid reveal\") */\n      tag_134\n      jumpi\n      mload(0x40)\n      0x08c379a000000000000000000000000000000000000000000000000000000000\n      dup2\n      mstore\n      0x04\n      add\n      tag_135\n      swap1\n      tag_128\n      jump\t// in\n    tag_135:\n      mload(0x40)\n      dup1\n      swap2\n      sub\n      swap1\n      revert\n    tag_134:\n        /* \"contracts/lab01_2.sol\":2514:2519  _move */\n      dup3\n        /* \"contracts/lab01_2.sol\":2500:2511  playerBVote */\n      0x05\n        /* \"contracts/lab01_2.sol\":2500:2519  playerBVote = _move */\n      dup2\n      swap1\n      sstore\n      pop\n        /* \"contracts/lab01_2.sol\":2552:2556  true */\n      0x01\n        /* \"contracts/lab01_2.sol\":2534:2549  playerBRevealed */\n      0x06\n      0x00\n        /* \"contracts/lab01_2.sol\":2534:2556  playerBRevealed = true */\n      0x0100\n      exp\n      dup2\n      sload\n      dup2\n      0xff\n      mul\n      not\n      and\n      swap1\n      dup4\n      iszero\n      iszero\n      mul\n      or\n      swap1\n      sstore\n      pop\n        /* \"contracts/lab01_2.sol\":2263:2568  {... */\n      pop\n        /* \"contracts/lab01_2.sol\":2238:2639  if(msg.sender == playerA){... */\n      jump(tag_136)\n    tag_130:\n        /* \"contracts/lab01_2.sol\":2598:2627  revert(\"Can not find player\") */\n      mload(0x40)\n      0x08c379a000000000000000000000000000000000000000000000000000000000\n      dup2\n      mstore\n      0x04\n      add\n      tag_137\n      swap1\n      tag_138\n      jump\t// in\n    tag_137:\n      mload(0x40)\n      dup1\n      swap2\n      sub\n      swap1\n      revert\n        /* \"contracts/lab01_2.sol\":2238:2639  if(msg.sender == playerA){... */\n    tag_136:\n        /* \"contracts/lab01_2.sol\":1835:2639  if(msg.sender == playerA){... */\n    tag_129:\n        /* \"contracts/lab01_2.sol\":2671:2675  true */\n      0x01\n        /* \"contracts/lab01_2.sol\":2652:2675  playerARevealed == true */\n      iszero\n      iszero\n        /* \"contracts/lab01_2.sol\":2652:2667  playerARevealed */\n      0x03\n      0x00\n      swap1\n      sload\n      swap1\n      0x0100\n      exp\n      swap1\n      div\n      0xff\n      and\n        /* \"contracts/lab01_2.sol\":2652:2675  playerARevealed == true */\n      iszero\n      iszero\n      eq\n        /* \"contracts/lab01_2.sol\":2652:2702  playerARevealed == true && playerBRevealed == true */\n      dup1\n      iszero\n      tag_139\n      jumpi\n      pop\n        /* \"contracts/lab01_2.sol\":2698:2702  true */\n      0x01\n        /* \"contracts/lab01_2.sol\":2679:2702  playerBRevealed == true */\n      iszero\n      iszero\n        /* \"contracts/lab01_2.sol\":2679:2694  playerBRevealed */\n      0x06\n      0x00\n      swap1\n      sload\n      swap1\n      0x0100\n      exp\n      swap1\n      div\n      0xff\n      and\n        /* \"contracts/lab01_2.sol\":2679:2702  playerBRevealed == true */\n      iszero\n      iszero\n      eq\n        /* \"contracts/lab01_2.sol\":2652:2702  playerARevealed == true && playerBRevealed == true */\n    tag_139:\n        /* \"contracts/lab01_2.sol\":2649:2807  if(playerARevealed == true && playerBRevealed == true) {... */\n      iszero\n      tag_140\n      jumpi\n        /* \"contracts/lab01_2.sol\":2728:2740  findWinner() */\n      tag_141\n        /* \"contracts/lab01_2.sol\":2728:2738  findWinner */\n      tag_142\n        /* \"contracts/lab01_2.sol\":2728:2740  findWinner() */\n      jump\t// in\n    tag_141:\n        /* \"contracts/lab01_2.sol\":2719:2725  winner */\n      0x08\n      0x00\n        /* \"contracts/lab01_2.sol\":2719:2740  winner = findWinner() */\n      0x0100\n      exp\n      dup2\n      sload\n      dup2\n      0xffffffffffffffffffffffffffffffffffffffff\n      mul\n      not\n      and\n      swap1\n      dup4\n      0xffffffffffffffffffffffffffffffffffffffff\n      and\n      mul\n      or\n      swap1\n      sstore\n      pop\n        /* \"contracts/lab01_2.sol\":2766:2770  true */\n      0x01\n        /* \"contracts/lab01_2.sol\":2755:2763  gameDone */\n      0x08\n      0x14\n        /* \"contracts/lab01_2.sol\":2755:2770  gameDone = true */\n      0x0100\n      exp\n      dup2\n      sload\n      dup2\n      0xff\n      mul\n      not\n      and\n      swap1\n      dup4\n      iszero\n      iszero\n      mul\n      or\n      swap1\n      sstore\n      pop\n        /* \"contracts/lab01_2.sol\":2785:2795  withdraw() */\n      tag_143\n        /* \"contracts/lab01_2.sol\":2785:2793  withdraw */\n      tag_144\n        /* \"contracts/lab01_2.sol\":2785:2795  withdraw() */\n      jump\t// in\n    tag_143:\n        /* \"contracts/lab01_2.sol\":2649:2807  if(playerARevealed == true && playerBRevealed == true) {... */\n    tag_140:\n        /* \"contracts/lab01_2.sol\":1604:2814  function reveal(uint256 _move, uint256 salt) public {... */\n      pop\n      pop\n      jump\t// out\n        /* \"contracts/lab01_2.sol\":272:294  address public playerA */\n    tag_63:\n      0x00\n      dup1\n      sload\n      swap1\n      0x0100\n      exp\n      swap1\n      div\n      0xffffffffffffffffffffffffffffffffffffffff\n      and\n      dup2\n      jump\t// out\n        /* \"contracts/lab01_2.sol\":301:330  bytes32 public playerAEncVote */\n    tag_67:\n      sload(0x01)\n      dup2\n      jump\t// out\n        /* \"contracts/lab01_2.sol\":650:670  bool public gameDone */\n    tag_71:\n      0x08\n      0x14\n      swap1\n      sload\n      swap1\n      0x0100\n      exp\n      swap1\n      div\n      0xff\n      and\n      dup2\n      jump\t// out\n        /* \"contracts/lab01_2.sol\":199:235  uint256 public constant SCISSORS = 3 */\n    tag_75:\n        /* \"contracts/lab01_2.sol\":234:235  3 */\n      0x03\n        /* \"contracts/lab01_2.sol\":199:235  uint256 public constant SCISSORS = 3 */\n      dup2\n      jump\t// out\n        /* \"contracts/lab01_2.sol\":120:152  uint256 public constant ROCK = 1 */\n    tag_79:\n        /* \"contracts/lab01_2.sol\":151:152  1 */\n      0x01\n        /* \"contracts/lab01_2.sol\":120:152  uint256 public constant ROCK = 1 */\n      dup2\n      jump\t// out\n        /* \"contracts/lab01_2.sol\":159:192  uint256 public constant PAPER = 2 */\n    tag_83:\n        /* \"contracts/lab01_2.sol\":191:192  2 */\n      0x02\n        /* \"contracts/lab01_2.sol\":159:192  uint256 public constant PAPER = 2 */\n      dup2\n      jump\t// out\n        /* \"contracts/lab01_2.sol\":622:643  address public winner */\n    tag_87:\n      0x08\n      0x00\n      swap1\n      sload\n      swap1\n      0x0100\n      exp\n      swap1\n      div\n      0xffffffffffffffffffffffffffffffffffffffff\n      and\n      dup2\n      jump\t// out\n        /* \"contracts/lab01_2.sol\":2822:3339  function findWinner() private view returns (address) {... */\n    tag_142:\n        /* \"contracts/lab01_2.sol\":2866:2873  address */\n      0x00\n        /* \"contracts/lab01_2.sol\":2904:2915  playerBVote */\n      sload(0x05)\n        /* \"contracts/lab01_2.sol\":2889:2900  playerAVote */\n      sload(0x02)\n        /* \"contracts/lab01_2.sol\":2889:2915  playerAVote == playerBVote */\n      sub\n        /* \"contracts/lab01_2.sol\":2886:3332  if(playerAVote == playerBVote){... */\n      tag_146\n      jumpi\n        /* \"contracts/lab01_2.sol\":2946:2947  0 */\n      0x00\n        /* \"contracts/lab01_2.sol\":2931:2948  return address(0) */\n      swap1\n      pop\n      jump(tag_145)\n        /* \"contracts/lab01_2.sol\":2886:3332  if(playerAVote == playerBVote){... */\n    tag_146:\n        /* \"contracts/lab01_2.sol\":3016:3017  1 */\n      0x01\n        /* \"contracts/lab01_2.sol\":3001:3012  playerAVote */\n      sload(0x02)\n        /* \"contracts/lab01_2.sol\":3001:3017  playerAVote == 1 */\n      eq\n        /* \"contracts/lab01_2.sol\":3001:3037  playerAVote == 1 && playerBVote == 3 */\n      dup1\n      iszero\n      tag_148\n      jumpi\n      pop\n        /* \"contracts/lab01_2.sol\":3036:3037  3 */\n      0x03\n        /* \"contracts/lab01_2.sol\":3021:3032  playerBVote */\n      sload(0x05)\n        /* \"contracts/lab01_2.sol\":3021:3037  playerBVote == 3 */\n      eq\n        /* \"contracts/lab01_2.sol\":3001:3037  playerAVote == 1 && playerBVote == 3 */\n    tag_148:\n        /* \"contracts/lab01_2.sol\":3000:3116  (playerAVote == 1 && playerBVote == 3) || // Rock beats Scissors... */\n      dup1\n      tag_149\n      jumpi\n      pop\n        /* \"contracts/lab01_2.sol\":3094:3095  2 */\n      0x02\n        /* \"contracts/lab01_2.sol\":3079:3090  playerAVote */\n      dup1\n      sload\n        /* \"contracts/lab01_2.sol\":3079:3095  playerAVote == 2 */\n      eq\n        /* \"contracts/lab01_2.sol\":3079:3115  playerAVote == 2 && playerBVote == 1 */\n      dup1\n      iszero\n      tag_150\n      jumpi\n      pop\n        /* \"contracts/lab01_2.sol\":3114:3115  1 */\n      0x01\n        /* \"contracts/lab01_2.sol\":3099:3110  playerBVote */\n      sload(0x05)\n        /* \"contracts/lab01_2.sol\":3099:3115  playerBVote == 1 */\n      eq\n        /* \"contracts/lab01_2.sol\":3079:3115  playerAVote == 2 && playerBVote == 1 */\n    tag_150:\n        /* \"contracts/lab01_2.sol\":3000:3116  (playerAVote == 1 && playerBVote == 3) || // Rock beats Scissors... */\n    tag_149:\n        /* \"contracts/lab01_2.sol\":3000:3191  (playerAVote == 1 && playerBVote == 3) || // Rock beats Scissors... */\n      dup1\n      tag_151\n      jumpi\n      pop\n        /* \"contracts/lab01_2.sol\":3169:3170  3 */\n      0x03\n        /* \"contracts/lab01_2.sol\":3154:3165  playerAVote */\n      sload(0x02)\n        /* \"contracts/lab01_2.sol\":3154:3170  playerAVote == 3 */\n      eq\n        /* \"contracts/lab01_2.sol\":3154:3190  playerAVote == 3 && playerBVote == 2 */\n      dup1\n      iszero\n      tag_152\n      jumpi\n      pop\n        /* \"contracts/lab01_2.sol\":3189:3190  2 */\n      0x02\n        /* \"contracts/lab01_2.sol\":3174:3185  playerBVote */\n      sload(0x05)\n        /* \"contracts/lab01_2.sol\":3174:3190  playerBVote == 2 */\n      eq\n        /* \"contracts/lab01_2.sol\":3154:3190  playerAVote == 3 && playerBVote == 2 */\n    tag_152:\n        /* \"contracts/lab01_2.sol\":3000:3191  (playerAVote == 1 && playerBVote == 3) || // Rock beats Scissors... */\n    tag_151:\n        /* \"contracts/lab01_2.sol\":2983:3332  if(... */\n      iszero\n      tag_153\n      jumpi\n        /* \"contracts/lab01_2.sol\":3261:3268  playerA */\n      0x00\n      dup1\n      sload\n      swap1\n      0x0100\n      exp\n      swap1\n      div\n      0xffffffffffffffffffffffffffffffffffffffff\n      and\n        /* \"contracts/lab01_2.sol\":3254:3268  return playerA */\n      swap1\n      pop\n      jump(tag_145)\n        /* \"contracts/lab01_2.sol\":2983:3332  if(... */\n    tag_153:\n        /* \"contracts/lab01_2.sol\":3313:3320  playerB */\n      0x03\n      0x01\n      swap1\n      sload\n      swap1\n      0x0100\n      exp\n      swap1\n      div\n      0xffffffffffffffffffffffffffffffffffffffff\n      and\n        /* \"contracts/lab01_2.sol\":3306:3320  return playerB */\n      swap1\n      pop\n        /* \"contracts/lab01_2.sol\":2822:3339  function findWinner() private view returns (address) {... */\n    tag_145:\n      swap1\n      jump\t// out\n        /* \"contracts/lab01_2.sol\":3347:3619  function withdraw() private {... */\n    tag_144:\n        /* \"contracts/lab01_2.sol\":3407:3408  0 */\n      0x00\n        /* \"contracts/lab01_2.sol\":3389:3409  winner == address(0) */\n      0xffffffffffffffffffffffffffffffffffffffff\n      and\n        /* \"contracts/lab01_2.sol\":3389:3395  winner */\n      0x08\n      0x00\n      swap1\n      sload\n      swap1\n      0x0100\n      exp\n      swap1\n      div\n      0xffffffffffffffffffffffffffffffffffffffff\n      and\n        /* \"contracts/lab01_2.sol\":3389:3409  winner == address(0) */\n      0xffffffffffffffffffffffffffffffffffffffff\n      and\n      sub\n        /* \"contracts/lab01_2.sol\":3386:3590  if(winner == address(0)){... */\n      tag_156\n      jumpi\n        /* \"contracts/lab01_2.sol\":3433:3440  playerA */\n      0x00\n      dup1\n      sload\n      swap1\n      0x0100\n      exp\n      swap1\n      div\n      0xffffffffffffffffffffffffffffffffffffffff\n      and\n        /* \"contracts/lab01_2.sol\":3425:3450  payable(playerA).transfer */\n      0xffffffffffffffffffffffffffffffffffffffff\n      and\n        /* \"contracts/lab01_2.sol\":3425:3457  payable(playerA).transfer(stake) */\n      0x08fc\n        /* \"contracts/lab01_2.sol\":3451:3456  stake */\n      sload(0x07)\n        /* \"contracts/lab01_2.sol\":3425:3457  payable(playerA).transfer(stake) */\n      swap1\n      dup2\n      iszero\n      mul\n      swap1\n      mload(0x40)\n      0x00\n      mload(0x40)\n      dup1\n      dup4\n      sub\n      dup2\n      dup6\n      dup9\n      dup9\n      call\n      swap4\n      pop\n      pop\n      pop\n      pop\n      iszero\n      dup1\n      iszero\n      tag_158\n      jumpi\n      returndatasize\n      0x00\n      dup1\n      returndatacopy\n      revert(0x00, returndatasize)\n    tag_158:\n      pop\n        /* \"contracts/lab01_2.sol\":3480:3487  playerB */\n      0x03\n      0x01\n      swap1\n      sload\n      swap1\n      0x0100\n      exp\n      swap1\n      div\n      0xffffffffffffffffffffffffffffffffffffffff\n      and\n        /* \"contracts/lab01_2.sol\":3472:3497  payable(playerB).transfer */\n      0xffffffffffffffffffffffffffffffffffffffff\n      and\n        /* \"contracts/lab01_2.sol\":3472:3504  payable(playerB).transfer(stake) */\n      0x08fc\n        /* \"contracts/lab01_2.sol\":3498:3503  stake */\n      sload(0x07)\n        /* \"contracts/lab01_2.sol\":3472:3504  payable(playerB).transfer(stake) */\n      swap1\n      dup2\n      iszero\n      mul\n      swap1\n      mload(0x40)\n      0x00\n      mload(0x40)\n      dup1\n      dup4\n      sub\n      dup2\n      dup6\n      dup9\n      dup9\n      call\n      swap4\n      pop\n      pop\n      pop\n      pop\n      iszero\n      dup1\n      iszero\n      tag_160\n      jumpi\n      returndatasize\n      0x00\n      dup1\n      returndatacopy\n      revert(0x00, returndatasize)\n    tag_160:\n      pop\n        /* \"contracts/lab01_2.sol\":3386:3590  if(winner == address(0)){... */\n      jump(tag_161)\n    tag_156:\n        /* \"contracts/lab01_2.sol\":3553:3559  winner */\n      0x08\n      0x00\n      swap1\n      sload\n      swap1\n      0x0100\n      exp\n      swap1\n      div\n      0xffffffffffffffffffffffffffffffffffffffff\n      and\n        /* \"contracts/lab01_2.sol\":3545:3569  payable(winner).transfer */\n      0xffffffffffffffffffffffffffffffffffffffff\n      and\n        /* \"contracts/lab01_2.sol\":3545:3578  payable(winner).transfer(stake*2) */\n      0x08fc\n        /* \"contracts/lab01_2.sol\":3576:3577  2 */\n      0x02\n        /* \"contracts/lab01_2.sol\":3570:3575  stake */\n      sload(0x07)\n        /* \"contracts/lab01_2.sol\":3570:3577  stake*2 */\n      tag_162\n      swap2\n      swap1\n      tag_163\n      jump\t// in\n    tag_162:\n        /* \"contracts/lab01_2.sol\":3545:3578  payable(winner).transfer(stake*2) */\n      swap1\n      dup2\n      iszero\n      mul\n      swap1\n      mload(0x40)\n      0x00\n      mload(0x40)\n      dup1\n      dup4\n      sub\n      dup2\n      dup6\n      dup9\n      dup9\n      call\n      swap4\n      pop\n      pop\n      pop\n      pop\n      iszero\n      dup1\n      iszero\n      tag_165\n      jumpi\n      returndatasize\n      0x00\n      dup1\n      returndatacopy\n      revert(0x00, returndatasize)\n    tag_165:\n      pop\n        /* \"contracts/lab01_2.sol\":3386:3590  if(winner == address(0)){... */\n    tag_161:\n        /* \"contracts/lab01_2.sol\":3600:3611  resetGame() */\n      tag_166\n        /* \"contracts/lab01_2.sol\":3600:3609  resetGame */\n      tag_167\n        /* \"contracts/lab01_2.sol\":3600:3611  resetGame() */\n      jump\t// in\n    tag_166:\n        /* \"contracts/lab01_2.sol\":3347:3619  function withdraw() private {... */\n      jump\t// out\n        /* \"contracts/lab01_2.sol\":3627:4002  function resetGame() private{... */\n    tag_167:\n        /* \"contracts/lab01_2.sol\":3684:3685  0 */\n      0x00\n        /* \"contracts/lab01_2.sol\":3666:3673  playerA */\n      dup1\n      0x00\n        /* \"contracts/lab01_2.sol\":3666:3686  playerA = address(0) */\n      0x0100\n      exp\n      dup2\n      sload\n      dup2\n      0xffffffffffffffffffffffffffffffffffffffff\n      mul\n      not\n      and\n      swap1\n      dup4\n      0xffffffffffffffffffffffffffffffffffffffff\n      and\n      mul\n      or\n      swap1\n      sstore\n      pop\n        /* \"contracts/lab01_2.sol\":3722:3723  0 */\n      0x00\n        /* \"contracts/lab01_2.sol\":3714:3724  bytes32(0) */\n      dup1\n      shl\n        /* \"contracts/lab01_2.sol\":3697:3711  playerAEncVote */\n      0x01\n        /* \"contracts/lab01_2.sol\":3697:3724  playerAEncVote = bytes32(0) */\n      dup2\n      swap1\n      sstore\n      pop\n        /* \"contracts/lab01_2.sol\":3749:3750  0 */\n      0x00\n        /* \"contracts/lab01_2.sol\":3735:3746  playerAVote */\n      0x02\n        /* \"contracts/lab01_2.sol\":3735:3750  playerAVote = 0 */\n      dup2\n      swap1\n      sstore\n      pop\n        /* \"contracts/lab01_2.sol\":3779:3784  false */\n      0x00\n        /* \"contracts/lab01_2.sol\":3761:3776  playerARevealed */\n      0x03\n      0x00\n        /* \"contracts/lab01_2.sol\":3761:3784  playerARevealed = false */\n      0x0100\n      exp\n      dup2\n      sload\n      dup2\n      0xff\n      mul\n      not\n      and\n      swap1\n      dup4\n      iszero\n      iszero\n      mul\n      or\n      swap1\n      sstore\n      pop\n        /* \"contracts/lab01_2.sol\":3815:3816  0 */\n      0x00\n        /* \"contracts/lab01_2.sol\":3797:3804  playerB */\n      0x03\n      0x01\n        /* \"contracts/lab01_2.sol\":3797:3817  playerB = address(0) */\n      0x0100\n      exp\n      dup2\n      sload\n      dup2\n      0xffffffffffffffffffffffffffffffffffffffff\n      mul\n      not\n      and\n      swap1\n      dup4\n      0xffffffffffffffffffffffffffffffffffffffff\n      and\n      mul\n      or\n      swap1\n      sstore\n      pop\n        /* \"contracts/lab01_2.sol\":3853:3854  0 */\n      0x00\n        /* \"contracts/lab01_2.sol\":3845:3855  bytes32(0) */\n      dup1\n      shl\n        /* \"contracts/lab01_2.sol\":3828:3842  playerBEncVote */\n      0x04\n        /* \"contracts/lab01_2.sol\":3828:3855  playerBEncVote = bytes32(0) */\n      dup2\n      swap1\n      sstore\n      pop\n        /* \"contracts/lab01_2.sol\":3880:3881  0 */\n      0x00\n        /* \"contracts/lab01_2.sol\":3866:3877  playerBVote */\n      0x05\n        /* \"contracts/lab01_2.sol\":3866:3881  playerBVote = 0 */\n      dup2\n      swap1\n      sstore\n      pop\n        /* \"contracts/lab01_2.sol\":3910:3915  false */\n      0x00\n        /* \"contracts/lab01_2.sol\":3892:3907  playerBRevealed */\n      0x06\n      0x00\n        /* \"contracts/lab01_2.sol\":3892:3915  playerBRevealed = false */\n      0x0100\n      exp\n      dup2\n      sload\n      dup2\n      0xff\n      mul\n      not\n      and\n      swap1\n      dup4\n      iszero\n      iszero\n      mul\n      or\n      swap1\n      sstore\n      pop\n        /* \"contracts/lab01_2.sol\":3936:3937  0 */\n      0x00\n        /* \"contracts/lab01_2.sol\":3928:3933  stake */\n      0x07\n        /* \"contracts/lab01_2.sol\":3928:3937  stake = 0 */\n      dup2\n      swap1\n      sstore\n      pop\n        /* \"contracts/lab01_2.sol\":3965:3966  0 */\n      0x00\n        /* \"contracts/lab01_2.sol\":3948:3954  winner */\n      0x08\n      0x00\n        /* \"contracts/lab01_2.sol\":3948:3967  winner = address(0) */\n      0x0100\n      exp\n      dup2\n      sload\n      dup2\n      0xffffffffffffffffffffffffffffffffffffffff\n      mul\n      not\n      and\n      swap1\n      dup4\n      0xffffffffffffffffffffffffffffffffffffffff\n      and\n      mul\n      or\n      swap1\n      sstore\n      pop\n        /* \"contracts/lab01_2.sol\":3989:3994  false */\n      0x00\n        /* \"contracts/lab01_2.sol\":3978:3986  gameDone */\n      0x08\n      0x14\n        /* \"contracts/lab01_2.sol\":3978:3994  gameDone = false */\n      0x0100\n      exp\n      dup2\n      sload\n      dup2\n      0xff\n      mul\n      not\n      and\n      swap1\n      dup4\n      iszero\n      iszero\n      mul\n      or\n      swap1\n      sstore\n      pop\n        /* \"contracts/lab01_2.sol\":3627:4002  function resetGame() private{... */\n      jump\t// out\n        /* \"#utility.yul\":7:84   */\n    tag_169:\n        /* \"#utility.yul\":44:51   */\n      0x00\n        /* \"#utility.yul\":73:78   */\n      dup2\n        /* \"#utility.yul\":62:78   */\n      swap1\n      pop\n        /* \"#utility.yul\":7:84   */\n      swap2\n      swap1\n      pop\n      jump\t// out\n        /* \"#utility.yul\":90:208   */\n    tag_170:\n        /* \"#utility.yul\":177:201   */\n      tag_210\n        /* \"#utility.yul\":195:200   */\n      dup2\n        /* \"#utility.yul\":177:201   */\n      tag_169\n      jump\t// in\n    tag_210:\n        /* \"#utility.yul\":172:175   */\n      dup3\n        /* \"#utility.yul\":165:202   */\n      mstore\n        /* \"#utility.yul\":90:208   */\n      pop\n      pop\n      jump\t// out\n        /* \"#utility.yul\":214:436   */\n    tag_25:\n        /* \"#utility.yul\":307:311   */\n      0x00\n        /* \"#utility.yul\":345:347   */\n      0x20\n        /* \"#utility.yul\":334:343   */\n      dup3\n        /* \"#utility.yul\":330:348   */\n      add\n        /* \"#utility.yul\":322:348   */\n      swap1\n      pop\n        /* \"#utility.yul\":358:429   */\n      tag_212\n        /* \"#utility.yul\":426:427   */\n      0x00\n        /* \"#utility.yul\":415:424   */\n      dup4\n        /* \"#utility.yul\":411:428   */\n      add\n        /* \"#utility.yul\":402:408   */\n      dup5\n        /* \"#utility.yul\":358:429   */\n      tag_170\n      jump\t// in\n    tag_212:\n        /* \"#utility.yul\":214:436   */\n      swap3\n      swap2\n      pop\n      pop\n      jump\t// out\n        /* \"#utility.yul\":442:532   */\n    tag_171:\n        /* \"#utility.yul\":476:483   */\n      0x00\n        /* \"#utility.yul\":519:524   */\n      dup2\n        /* \"#utility.yul\":512:525   */\n      iszero\n        /* \"#utility.yul\":505:526   */\n      iszero\n        /* \"#utility.yul\":494:526   */\n      swap1\n      pop\n        /* \"#utility.yul\":442:532   */\n      swap2\n      swap1\n      pop\n      jump\t// out\n        /* \"#utility.yul\":538:647   */\n    tag_172:\n        /* \"#utility.yul\":619:640   */\n      tag_215\n        /* \"#utility.yul\":634:639   */\n      dup2\n        /* \"#utility.yul\":619:640   */\n      tag_171\n      jump\t// in\n    tag_215:\n        /* \"#utility.yul\":614:617   */\n      dup3\n        /* \"#utility.yul\":607:641   */\n      mstore\n        /* \"#utility.yul\":538:647   */\n      pop\n      pop\n      jump\t// out\n        /* \"#utility.yul\":653:863   */\n    tag_30:\n        /* \"#utility.yul\":740:744   */\n      0x00\n        /* \"#utility.yul\":778:780   */\n      0x20\n        /* \"#utility.yul\":767:776   */\n      dup3\n        /* \"#utility.yul\":763:781   */\n      add\n        /* \"#utility.yul\":755:781   */\n      swap1\n      pop\n        /* \"#utility.yul\":791:856   */\n      tag_217\n        /* \"#utility.yul\":853:854   */\n      0x00\n        /* \"#utility.yul\":842:851   */\n      dup4\n        /* \"#utility.yul\":838:855   */\n      add\n        /* \"#utility.yul\":829:835   */\n      dup5\n        /* \"#utility.yul\":791:856   */\n      tag_172\n      jump\t// in\n    tag_217:\n        /* \"#utility.yul\":653:863   */\n      swap3\n      swap2\n      pop\n      pop\n      jump\t// out\n        /* \"#utility.yul\":869:995   */\n    tag_173:\n        /* \"#utility.yul\":906:913   */\n      0x00\n        /* \"#utility.yul\":946:988   */\n      0xffffffffffffffffffffffffffffffffffffffff\n        /* \"#utility.yul\":939:944   */\n      dup3\n        /* \"#utility.yul\":935:989   */\n      and\n        /* \"#utility.yul\":924:989   */\n      swap1\n      pop\n        /* \"#utility.yul\":869:995   */\n      swap2\n      swap1\n      pop\n      jump\t// out\n        /* \"#utility.yul\":1001:1097   */\n    tag_174:\n        /* \"#utility.yul\":1038:1045   */\n      0x00\n        /* \"#utility.yul\":1067:1091   */\n      tag_220\n        /* \"#utility.yul\":1085:1090   */\n      dup3\n        /* \"#utility.yul\":1067:1091   */\n      tag_173\n      jump\t// in\n    tag_220:\n        /* \"#utility.yul\":1056:1091   */\n      swap1\n      pop\n        /* \"#utility.yul\":1001:1097   */\n      swap2\n      swap1\n      pop\n      jump\t// out\n        /* \"#utility.yul\":1103:1221   */\n    tag_175:\n        /* \"#utility.yul\":1190:1214   */\n      tag_222\n        /* \"#utility.yul\":1208:1213   */\n      dup2\n        /* \"#utility.yul\":1190:1214   */\n      tag_174\n      jump\t// in\n    tag_222:\n        /* \"#utility.yul\":1185:1188   */\n      dup3\n        /* \"#utility.yul\":1178:1215   */\n      mstore\n        /* \"#utility.yul\":1103:1221   */\n      pop\n      pop\n      jump\t// out\n        /* \"#utility.yul\":1227:1449   */\n    tag_35:\n        /* \"#utility.yul\":1320:1324   */\n      0x00\n        /* \"#utility.yul\":1358:1360   */\n      0x20\n        /* \"#utility.yul\":1347:1356   */\n      dup3\n        /* \"#utility.yul\":1343:1361   */\n      add\n        /* \"#utility.yul\":1335:1361   */\n      swap1\n      pop\n        /* \"#utility.yul\":1371:1442   */\n      tag_224\n        /* \"#utility.yul\":1439:1440   */\n      0x00\n        /* \"#utility.yul\":1428:1437   */\n      dup4\n        /* \"#utility.yul\":1424:1441   */\n      add\n        /* \"#utility.yul\":1415:1421   */\n      dup5\n        /* \"#utility.yul\":1371:1442   */\n      tag_175\n      jump\t// in\n    tag_224:\n        /* \"#utility.yul\":1227:1449   */\n      swap3\n      swap2\n      pop\n      pop\n      jump\t// out\n        /* \"#utility.yul\":1455:1532   */\n    tag_176:\n        /* \"#utility.yul\":1492:1499   */\n      0x00\n        /* \"#utility.yul\":1521:1526   */\n      dup2\n        /* \"#utility.yul\":1510:1526   */\n      swap1\n      pop\n        /* \"#utility.yul\":1455:1532   */\n      swap2\n      swap1\n      pop\n      jump\t// out\n        /* \"#utility.yul\":1538:1656   */\n    tag_177:\n        /* \"#utility.yul\":1625:1649   */\n      tag_227\n        /* \"#utility.yul\":1643:1648   */\n      dup2\n        /* \"#utility.yul\":1625:1649   */\n      tag_176\n      jump\t// in\n    tag_227:\n        /* \"#utility.yul\":1620:1623   */\n      dup3\n        /* \"#utility.yul\":1613:1650   */\n      mstore\n        /* \"#utility.yul\":1538:1656   */\n      pop\n      pop\n      jump\t// out\n        /* \"#utility.yul\":1662:1884   */\n    tag_48:\n        /* \"#utility.yul\":1755:1759   */\n      0x00\n        /* \"#utility.yul\":1793:1795   */\n      0x20\n        /* \"#utility.yul\":1782:1791   */\n      dup3\n        /* \"#utility.yul\":1778:1796   */\n      add\n        /* \"#utility.yul\":1770:1796   */\n      swap1\n      pop\n        /* \"#utility.yul\":1806:1877   */\n      tag_229\n        /* \"#utility.yul\":1874:1875   */\n      0x00\n        /* \"#utility.yul\":1863:1872   */\n      dup4\n        /* \"#utility.yul\":1859:1876   */\n      add\n        /* \"#utility.yul\":1850:1856   */\n      dup5\n        /* \"#utility.yul\":1806:1877   */\n      tag_177\n      jump\t// in\n    tag_229:\n        /* \"#utility.yul\":1662:1884   */\n      swap3\n      swap2\n      pop\n      pop\n      jump\t// out\n        /* \"#utility.yul\":1971:2088   */\n    tag_179:\n        /* \"#utility.yul\":2080:2081   */\n      0x00\n        /* \"#utility.yul\":2077:2078   */\n      dup1\n        /* \"#utility.yul\":2070:2082   */\n      revert\n        /* \"#utility.yul\":2217:2339   */\n    tag_181:\n        /* \"#utility.yul\":2290:2314   */\n      tag_234\n        /* \"#utility.yul\":2308:2313   */\n      dup2\n        /* \"#utility.yul\":2290:2314   */\n      tag_169\n      jump\t// in\n    tag_234:\n        /* \"#utility.yul\":2283:2288   */\n      dup2\n        /* \"#utility.yul\":2280:2315   */\n      eq\n        /* \"#utility.yul\":2270:2333   */\n      tag_235\n      jumpi\n        /* \"#utility.yul\":2329:2330   */\n      0x00\n        /* \"#utility.yul\":2326:2327   */\n      dup1\n        /* \"#utility.yul\":2319:2331   */\n      revert\n        /* \"#utility.yul\":2270:2333   */\n    tag_235:\n        /* \"#utility.yul\":2217:2339   */\n      pop\n      jump\t// out\n        /* \"#utility.yul\":2345:2484   */\n    tag_182:\n        /* \"#utility.yul\":2391:2396   */\n      0x00\n        /* \"#utility.yul\":2429:2435   */\n      dup2\n        /* \"#utility.yul\":2416:2436   */\n      calldataload\n        /* \"#utility.yul\":2407:2436   */\n      swap1\n      pop\n        /* \"#utility.yul\":2445:2478   */\n      tag_237\n        /* \"#utility.yul\":2472:2477   */\n      dup2\n        /* \"#utility.yul\":2445:2478   */\n      tag_181\n      jump\t// in\n    tag_237:\n        /* \"#utility.yul\":2345:2484   */\n      swap3\n      swap2\n      pop\n      pop\n      jump\t// out\n        /* \"#utility.yul\":2490:2964   */\n    tag_55:\n        /* \"#utility.yul\":2558:2564   */\n      0x00\n        /* \"#utility.yul\":2566:2572   */\n      dup1\n        /* \"#utility.yul\":2615:2617   */\n      0x40\n        /* \"#utility.yul\":2603:2612   */\n      dup4\n        /* \"#utility.yul\":2594:2601   */\n      dup6\n        /* \"#utility.yul\":2590:2613   */\n      sub\n        /* \"#utility.yul\":2586:2618   */\n      slt\n        /* \"#utility.yul\":2583:2702   */\n      iszero\n      tag_239\n      jumpi\n        /* \"#utility.yul\":2621:2700   */\n      tag_240\n      tag_179\n      jump\t// in\n    tag_240:\n        /* \"#utility.yul\":2583:2702   */\n    tag_239:\n        /* \"#utility.yul\":2741:2742   */\n      0x00\n        /* \"#utility.yul\":2766:2819   */\n      tag_241\n        /* \"#utility.yul\":2811:2818   */\n      dup6\n        /* \"#utility.yul\":2802:2808   */\n      dup3\n        /* \"#utility.yul\":2791:2800   */\n      dup7\n        /* \"#utility.yul\":2787:2809   */\n      add\n        /* \"#utility.yul\":2766:2819   */\n      tag_182\n      jump\t// in\n    tag_241:\n        /* \"#utility.yul\":2756:2819   */\n      swap3\n      pop\n        /* \"#utility.yul\":2712:2829   */\n      pop\n        /* \"#utility.yul\":2868:2870   */\n      0x20\n        /* \"#utility.yul\":2894:2947   */\n      tag_242\n        /* \"#utility.yul\":2939:2946   */\n      dup6\n        /* \"#utility.yul\":2930:2936   */\n      dup3\n        /* \"#utility.yul\":2919:2928   */\n      dup7\n        /* \"#utility.yul\":2915:2937   */\n      add\n        /* \"#utility.yul\":2894:2947   */\n      tag_182\n      jump\t// in\n    tag_242:\n        /* \"#utility.yul\":2884:2947   */\n      swap2\n      pop\n        /* \"#utility.yul\":2839:2957   */\n      pop\n        /* \"#utility.yul\":2490:2964   */\n      swap3\n      pop\n      swap3\n      swap1\n      pop\n      jump\t// out\n        /* \"#utility.yul\":2970:3139   */\n    tag_183:\n        /* \"#utility.yul\":3054:3065   */\n      0x00\n        /* \"#utility.yul\":3088:3094   */\n      dup3\n        /* \"#utility.yul\":3083:3086   */\n      dup3\n        /* \"#utility.yul\":3076:3095   */\n      mstore\n        /* \"#utility.yul\":3128:3132   */\n      0x20\n        /* \"#utility.yul\":3123:3126   */\n      dup3\n        /* \"#utility.yul\":3119:3133   */\n      add\n        /* \"#utility.yul\":3104:3133   */\n      swap1\n      pop\n        /* \"#utility.yul\":2970:3139   */\n      swap3\n      swap2\n      pop\n      pop\n      jump\t// out\n        /* \"#utility.yul\":3145:3319   */\n    tag_184:\n        /* \"#utility.yul\":3285:3311   */\n      0x426574206d757374206265206f76657220312065746865720000000000000000\n        /* \"#utility.yul\":3281:3282   */\n      0x00\n        /* \"#utility.yul\":3273:3279   */\n      dup3\n        /* \"#utility.yul\":3269:3283   */\n      add\n        /* \"#utility.yul\":3262:3312   */\n      mstore\n        /* \"#utility.yul\":3145:3319   */\n      pop\n      jump\t// out\n        /* \"#utility.yul\":3325:3691   */\n    tag_185:\n        /* \"#utility.yul\":3467:3470   */\n      0x00\n        /* \"#utility.yul\":3488:3555   */\n      tag_246\n        /* \"#utility.yul\":3552:3554   */\n      0x18\n        /* \"#utility.yul\":3547:3550   */\n      dup4\n        /* \"#utility.yul\":3488:3555   */\n      tag_183\n      jump\t// in\n    tag_246:\n        /* \"#utility.yul\":3481:3555   */\n      swap2\n      pop\n        /* \"#utility.yul\":3564:3657   */\n      tag_247\n        /* \"#utility.yul\":3653:3656   */\n      dup3\n        /* \"#utility.yul\":3564:3657   */\n      tag_184\n      jump\t// in\n    tag_247:\n        /* \"#utility.yul\":3682:3684   */\n      0x20\n        /* \"#utility.yul\":3677:3680   */\n      dup3\n        /* \"#utility.yul\":3673:3685   */\n      add\n        /* \"#utility.yul\":3666:3685   */\n      swap1\n      pop\n        /* \"#utility.yul\":3325:3691   */\n      swap2\n      swap1\n      pop\n      jump\t// out\n        /* \"#utility.yul\":3697:4116   */\n    tag_92:\n        /* \"#utility.yul\":3863:3867   */\n      0x00\n        /* \"#utility.yul\":3901:3903   */\n      0x20\n        /* \"#utility.yul\":3890:3899   */\n      dup3\n        /* \"#utility.yul\":3886:3904   */\n      add\n        /* \"#utility.yul\":3878:3904   */\n      swap1\n      pop\n        /* \"#utility.yul\":3950:3959   */\n      dup2\n        /* \"#utility.yul\":3944:3948   */\n      dup2\n        /* \"#utility.yul\":3940:3960   */\n      sub\n        /* \"#utility.yul\":3936:3937   */\n      0x00\n        /* \"#utility.yul\":3925:3934   */\n      dup4\n        /* \"#utility.yul\":3921:3938   */\n      add\n        /* \"#utility.yul\":3914:3961   */\n      mstore\n        /* \"#utility.yul\":3978:4109   */\n      tag_249\n        /* \"#utility.yul\":4104:4108   */\n      dup2\n        /* \"#utility.yul\":3978:4109   */\n      tag_185\n      jump\t// in\n    tag_249:\n        /* \"#utility.yul\":3970:4109   */\n      swap1\n      pop\n        /* \"#utility.yul\":3697:4116   */\n      swap2\n      swap1\n      pop\n      jump\t// out\n        /* \"#utility.yul\":4122:4284   */\n    tag_186:\n        /* \"#utility.yul\":4262:4276   */\n      0x496e76616c6964204d6f76650000000000000000000000000000000000000000\n        /* \"#utility.yul\":4258:4259   */\n      0x00\n        /* \"#utility.yul\":4250:4256   */\n      dup3\n        /* \"#utility.yul\":4246:4260   */\n      add\n        /* \"#utility.yul\":4239:4277   */\n      mstore\n        /* \"#utility.yul\":4122:4284   */\n      pop\n      jump\t// out\n        /* \"#utility.yul\":4290:4656   */\n    tag_187:\n        /* \"#utility.yul\":4432:4435   */\n      0x00\n        /* \"#utility.yul\":4453:4520   */\n      tag_252\n        /* \"#utility.yul\":4517:4519   */\n      0x0c\n        /* \"#utility.yul\":4512:4515   */\n      dup4\n        /* \"#utility.yul\":4453:4520   */\n      tag_183\n      jump\t// in\n    tag_252:\n        /* \"#utility.yul\":4446:4520   */\n      swap2\n      pop\n        /* \"#utility.yul\":4529:4622   */\n      tag_253\n        /* \"#utility.yul\":4618:4621   */\n      dup3\n        /* \"#utility.yul\":4529:4622   */\n      tag_186\n      jump\t// in\n    tag_253:\n        /* \"#utility.yul\":4647:4649   */\n      0x20\n        /* \"#utility.yul\":4642:4645   */\n      dup3\n        /* \"#utility.yul\":4638:4650   */\n      add\n        /* \"#utility.yul\":4631:4650   */\n      swap1\n      pop\n        /* \"#utility.yul\":4290:4656   */\n      swap2\n      swap1\n      pop\n      jump\t// out\n        /* \"#utility.yul\":4662:5081   */\n    tag_97:\n        /* \"#utility.yul\":4828:4832   */\n      0x00\n        /* \"#utility.yul\":4866:4868   */\n      0x20\n        /* \"#utility.yul\":4855:4864   */\n      dup3\n        /* \"#utility.yul\":4851:4869   */\n      add\n        /* \"#utility.yul\":4843:4869   */\n      swap1\n      pop\n        /* \"#utility.yul\":4915:4924   */\n      dup2\n        /* \"#utility.yul\":4909:4913   */\n      dup2\n        /* \"#utility.yul\":4905:4925   */\n      sub\n        /* \"#utility.yul\":4901:4902   */\n      0x00\n        /* \"#utility.yul\":4890:4899   */\n      dup4\n        /* \"#utility.yul\":4886:4903   */\n      add\n        /* \"#utility.yul\":4879:4926   */\n      mstore\n        /* \"#utility.yul\":4943:5074   */\n      tag_255\n        /* \"#utility.yul\":5069:5073   */\n      dup2\n        /* \"#utility.yul\":4943:5074   */\n      tag_187\n      jump\t// in\n    tag_255:\n        /* \"#utility.yul\":4935:5074   */\n      swap1\n      pop\n        /* \"#utility.yul\":4662:5081   */\n      swap2\n      swap1\n      pop\n      jump\t// out\n        /* \"#utility.yul\":5087:5166   */\n    tag_188:\n        /* \"#utility.yul\":5126:5133   */\n      0x00\n        /* \"#utility.yul\":5155:5160   */\n      dup2\n        /* \"#utility.yul\":5144:5160   */\n      swap1\n      pop\n        /* \"#utility.yul\":5087:5166   */\n      swap2\n      swap1\n      pop\n      jump\t// out\n        /* \"#utility.yul\":5172:5329   */\n    tag_189:\n        /* \"#utility.yul\":5277:5322   */\n      tag_258\n        /* \"#utility.yul\":5297:5321   */\n      tag_259\n        /* \"#utility.yul\":5315:5320   */\n      dup3\n        /* \"#utility.yul\":5297:5321   */\n      tag_169\n      jump\t// in\n    tag_259:\n        /* \"#utility.yul\":5277:5322   */\n      tag_188\n      jump\t// in\n    tag_258:\n        /* \"#utility.yul\":5272:5275   */\n      dup3\n        /* \"#utility.yul\":5265:5323   */\n      mstore\n        /* \"#utility.yul\":5172:5329   */\n      pop\n      pop\n      jump\t// out\n        /* \"#utility.yul\":5335:5732   */\n    tag_100:\n        /* \"#utility.yul\":5475:5478   */\n      0x00\n        /* \"#utility.yul\":5490:5565   */\n      tag_261\n        /* \"#utility.yul\":5561:5564   */\n      dup3\n        /* \"#utility.yul\":5552:5558   */\n      dup6\n        /* \"#utility.yul\":5490:5565   */\n      tag_189\n      jump\t// in\n    tag_261:\n        /* \"#utility.yul\":5590:5592   */\n      0x20\n        /* \"#utility.yul\":5585:5588   */\n      dup3\n        /* \"#utility.yul\":5581:5593   */\n      add\n        /* \"#utility.yul\":5574:5593   */\n      swap2\n      pop\n        /* \"#utility.yul\":5603:5678   */\n      tag_262\n        /* \"#utility.yul\":5674:5677   */\n      dup3\n        /* \"#utility.yul\":5665:5671   */\n      dup5\n        /* \"#utility.yul\":5603:5678   */\n      tag_189\n      jump\t// in\n    tag_262:\n        /* \"#utility.yul\":5703:5705   */\n      0x20\n        /* \"#utility.yul\":5698:5701   */\n      dup3\n        /* \"#utility.yul\":5694:5706   */\n      add\n        /* \"#utility.yul\":5687:5706   */\n      swap2\n      pop\n        /* \"#utility.yul\":5723:5726   */\n      dup2\n        /* \"#utility.yul\":5716:5726   */\n      swap1\n      pop\n        /* \"#utility.yul\":5335:5732   */\n      swap4\n      swap3\n      pop\n      pop\n      pop\n      jump\t// out\n        /* \"#utility.yul\":5738:5920   */\n    tag_190:\n        /* \"#utility.yul\":5878:5912   */\n      0x53616d6520706c617965722063616e6e6f74206a6f696e207468652067616d65\n        /* \"#utility.yul\":5874:5875   */\n      0x00\n        /* \"#utility.yul\":5866:5872   */\n      dup3\n        /* \"#utility.yul\":5862:5876   */\n      add\n        /* \"#utility.yul\":5855:5913   */\n      mstore\n        /* \"#utility.yul\":5738:5920   */\n      pop\n      jump\t// out\n        /* \"#utility.yul\":5926:6292   */\n    tag_191:\n        /* \"#utility.yul\":6068:6071   */\n      0x00\n        /* \"#utility.yul\":6089:6156   */\n      tag_265\n        /* \"#utility.yul\":6153:6155   */\n      0x20\n        /* \"#utility.yul\":6148:6151   */\n      dup4\n        /* \"#utility.yul\":6089:6156   */\n      tag_183\n      jump\t// in\n    tag_265:\n        /* \"#utility.yul\":6082:6156   */\n      swap2\n      pop\n        /* \"#utility.yul\":6165:6258   */\n      tag_266\n        /* \"#utility.yul\":6254:6257   */\n      dup3\n        /* \"#utility.yul\":6165:6258   */\n      tag_190\n      jump\t// in\n    tag_266:\n        /* \"#utility.yul\":6283:6285   */\n      0x20\n        /* \"#utility.yul\":6278:6281   */\n      dup3\n        /* \"#utility.yul\":6274:6286   */\n      add\n        /* \"#utility.yul\":6267:6286   */\n      swap1\n      pop\n        /* \"#utility.yul\":5926:6292   */\n      swap2\n      swap1\n      pop\n      jump\t// out\n        /* \"#utility.yul\":6298:6717   */\n    tag_105:\n        /* \"#utility.yul\":6464:6468   */\n      0x00\n        /* \"#utility.yul\":6502:6504   */\n      0x20\n        /* \"#utility.yul\":6491:6500   */\n      dup3\n        /* \"#utility.yul\":6487:6505   */\n      add\n        /* \"#utility.yul\":6479:6505   */\n      swap1\n      pop\n        /* \"#utility.yul\":6551:6560   */\n      dup2\n        /* \"#utility.yul\":6545:6549   */\n      dup2\n        /* \"#utility.yul\":6541:6561   */\n      sub\n        /* \"#utility.yul\":6537:6538   */\n      0x00\n        /* \"#utility.yul\":6526:6535   */\n      dup4\n        /* \"#utility.yul\":6522:6539   */\n      add\n        /* \"#utility.yul\":6515:6562   */\n      mstore\n        /* \"#utility.yul\":6579:6710   */\n      tag_268\n        /* \"#utility.yul\":6705:6709   */\n      dup2\n        /* \"#utility.yul\":6579:6710   */\n      tag_191\n      jump\t// in\n    tag_268:\n        /* \"#utility.yul\":6571:6710   */\n      swap1\n      pop\n        /* \"#utility.yul\":6298:6717   */\n      swap2\n      swap1\n      pop\n      jump\t// out\n        /* \"#utility.yul\":6723:6946   */\n    tag_192:\n        /* \"#utility.yul\":6863:6897   */\n      0x4d757374206d6174636820746865207374616b65206f6620666972737420706c\n        /* \"#utility.yul\":6859:6860   */\n      0x00\n        /* \"#utility.yul\":6851:6857   */\n      dup3\n        /* \"#utility.yul\":6847:6861   */\n      add\n        /* \"#utility.yul\":6840:6898   */\n      mstore\n        /* \"#utility.yul\":6932:6938   */\n      0x6179657200000000000000000000000000000000000000000000000000000000\n        /* \"#utility.yul\":6927:6929   */\n      0x20\n        /* \"#utility.yul\":6919:6925   */\n      dup3\n        /* \"#utility.yul\":6915:6930   */\n      add\n        /* \"#utility.yul\":6908:6939   */\n      mstore\n        /* \"#utility.yul\":6723:6946   */\n      pop\n      jump\t// out\n        /* \"#utility.yul\":6952:7318   */\n    tag_193:\n        /* \"#utility.yul\":7094:7097   */\n      0x00\n        /* \"#utility.yul\":7115:7182   */\n      tag_271\n        /* \"#utility.yul\":7179:7181   */\n      0x24\n        /* \"#utility.yul\":7174:7177   */\n      dup4\n        /* \"#utility.yul\":7115:7182   */\n      tag_183\n      jump\t// in\n    tag_271:\n        /* \"#utility.yul\":7108:7182   */\n      swap2\n      pop\n        /* \"#utility.yul\":7191:7284   */\n      tag_272\n        /* \"#utility.yul\":7280:7283   */\n      dup3\n        /* \"#utility.yul\":7191:7284   */\n      tag_192\n      jump\t// in\n    tag_272:\n        /* \"#utility.yul\":7309:7311   */\n      0x40\n        /* \"#utility.yul\":7304:7307   */\n      dup3\n        /* \"#utility.yul\":7300:7312   */\n      add\n        /* \"#utility.yul\":7293:7312   */\n      swap1\n      pop\n        /* \"#utility.yul\":6952:7318   */\n      swap2\n      swap1\n      pop\n      jump\t// out\n        /* \"#utility.yul\":7324:7743   */\n    tag_108:\n        /* \"#utility.yul\":7490:7494   */\n      0x00\n        /* \"#utility.yul\":7528:7530   */\n      0x20\n        /* \"#utility.yul\":7517:7526   */\n      dup3\n        /* \"#utility.yul\":7513:7531   */\n      add\n        /* \"#utility.yul\":7505:7531   */\n      swap1\n      pop\n        /* \"#utility.yul\":7577:7586   */\n      dup2\n        /* \"#utility.yul\":7571:7575   */\n      dup2\n        /* \"#utility.yul\":7567:7587   */\n      sub\n        /* \"#utility.yul\":7563:7564   */\n      0x00\n        /* \"#utility.yul\":7552:7561   */\n      dup4\n        /* \"#utility.yul\":7548:7565   */\n      add\n        /* \"#utility.yul\":7541:7588   */\n      mstore\n        /* \"#utility.yul\":7605:7736   */\n      tag_274\n        /* \"#utility.yul\":7731:7735   */\n      dup2\n        /* \"#utility.yul\":7605:7736   */\n      tag_193\n      jump\t// in\n    tag_274:\n        /* \"#utility.yul\":7597:7736   */\n      swap1\n      pop\n        /* \"#utility.yul\":7324:7743   */\n      swap2\n      swap1\n      pop\n      jump\t// out\n        /* \"#utility.yul\":7749:7908   */\n    tag_194:\n        /* \"#utility.yul\":7889:7900   */\n      0x46756c6c2067616d650000000000000000000000000000000000000000000000\n        /* \"#utility.yul\":7885:7886   */\n      0x00\n        /* \"#utility.yul\":7877:7883   */\n      dup3\n        /* \"#utility.yul\":7873:7887   */\n      add\n        /* \"#utility.yul\":7866:7901   */\n      mstore\n        /* \"#utility.yul\":7749:7908   */\n      pop\n      jump\t// out\n        /* \"#utility.yul\":7914:8279   */\n    tag_195:\n        /* \"#utility.yul\":8056:8059   */\n      0x00\n        /* \"#utility.yul\":8077:8143   */\n      tag_277\n        /* \"#utility.yul\":8141:8142   */\n      0x09\n        /* \"#utility.yul\":8136:8139   */\n      dup4\n        /* \"#utility.yul\":8077:8143   */\n      tag_183\n      jump\t// in\n    tag_277:\n        /* \"#utility.yul\":8070:8143   */\n      swap2\n      pop\n        /* \"#utility.yul\":8152:8245   */\n      tag_278\n        /* \"#utility.yul\":8241:8244   */\n      dup3\n        /* \"#utility.yul\":8152:8245   */\n      tag_194\n      jump\t// in\n    tag_278:\n        /* \"#utility.yul\":8270:8272   */\n      0x20\n        /* \"#utility.yul\":8265:8268   */\n      dup3\n        /* \"#utility.yul\":8261:8273   */\n      add\n        /* \"#utility.yul\":8254:8273   */\n      swap1\n      pop\n        /* \"#utility.yul\":7914:8279   */\n      swap2\n      swap1\n      pop\n      jump\t// out\n        /* \"#utility.yul\":8285:8704   */\n    tag_112:\n        /* \"#utility.yul\":8451:8455   */\n      0x00\n        /* \"#utility.yul\":8489:8491   */\n      0x20\n        /* \"#utility.yul\":8478:8487   */\n      dup3\n        /* \"#utility.yul\":8474:8492   */\n      add\n        /* \"#utility.yul\":8466:8492   */\n      swap1\n      pop\n        /* \"#utility.yul\":8538:8547   */\n      dup2\n        /* \"#utility.yul\":8532:8536   */\n      dup2\n        /* \"#utility.yul\":8528:8548   */\n      sub\n        /* \"#utility.yul\":8524:8525   */\n      0x00\n        /* \"#utility.yul\":8513:8522   */\n      dup4\n        /* \"#utility.yul\":8509:8526   */\n      add\n        /* \"#utility.yul\":8502:8549   */\n      mstore\n        /* \"#utility.yul\":8566:8697   */\n      tag_280\n        /* \"#utility.yul\":8692:8696   */\n      dup2\n        /* \"#utility.yul\":8566:8697   */\n      tag_195\n      jump\t// in\n    tag_280:\n        /* \"#utility.yul\":8558:8697   */\n      swap1\n      pop\n        /* \"#utility.yul\":8285:8704   */\n      swap2\n      swap1\n      pop\n      jump\t// out\n        /* \"#utility.yul\":8710:8880   */\n    tag_196:\n        /* \"#utility.yul\":8850:8872   */\n      0x67616d6520697320616c726561647920646f6e65000000000000000000000000\n        /* \"#utility.yul\":8846:8847   */\n      0x00\n        /* \"#utility.yul\":8838:8844   */\n      dup3\n        /* \"#utility.yul\":8834:8848   */\n      add\n        /* \"#utility.yul\":8827:8873   */\n      mstore\n        /* \"#utility.yul\":8710:8880   */\n      pop\n      jump\t// out\n        /* \"#utility.yul\":8886:9252   */\n    tag_197:\n        /* \"#utility.yul\":9028:9031   */\n      0x00\n        /* \"#utility.yul\":9049:9116   */\n      tag_283\n        /* \"#utility.yul\":9113:9115   */\n      0x14\n        /* \"#utility.yul\":9108:9111   */\n      dup4\n        /* \"#utility.yul\":9049:9116   */\n      tag_183\n      jump\t// in\n    tag_283:\n        /* \"#utility.yul\":9042:9116   */\n      swap2\n      pop\n        /* \"#utility.yul\":9125:9218   */\n      tag_284\n        /* \"#utility.yul\":9214:9217   */\n      dup3\n        /* \"#utility.yul\":9125:9218   */\n      tag_196\n      jump\t// in\n    tag_284:\n        /* \"#utility.yul\":9243:9245   */\n      0x20\n        /* \"#utility.yul\":9238:9241   */\n      dup3\n        /* \"#utility.yul\":9234:9246   */\n      add\n        /* \"#utility.yul\":9227:9246   */\n      swap1\n      pop\n        /* \"#utility.yul\":8886:9252   */\n      swap2\n      swap1\n      pop\n      jump\t// out\n        /* \"#utility.yul\":9258:9677   */\n    tag_116:\n        /* \"#utility.yul\":9424:9428   */\n      0x00\n        /* \"#utility.yul\":9462:9464   */\n      0x20\n        /* \"#utility.yul\":9451:9460   */\n      dup3\n        /* \"#utility.yul\":9447:9465   */\n      add\n        /* \"#utility.yul\":9439:9465   */\n      swap1\n      pop\n        /* \"#utility.yul\":9511:9520   */\n      dup2\n        /* \"#utility.yul\":9505:9509   */\n      dup2\n        /* \"#utility.yul\":9501:9521   */\n      sub\n        /* \"#utility.yul\":9497:9498   */\n      0x00\n        /* \"#utility.yul\":9486:9495   */\n      dup4\n        /* \"#utility.yul\":9482:9499   */\n      add\n        /* \"#utility.yul\":9475:9522   */\n      mstore\n        /* \"#utility.yul\":9539:9670   */\n      tag_286\n        /* \"#utility.yul\":9665:9669   */\n      dup2\n        /* \"#utility.yul\":9539:9670   */\n      tag_197\n      jump\t// in\n    tag_286:\n        /* \"#utility.yul\":9531:9670   */\n      swap1\n      pop\n        /* \"#utility.yul\":9258:9677   */\n      swap2\n      swap1\n      pop\n      jump\t// out\n        /* \"#utility.yul\":9683:9864   */\n    tag_198:\n        /* \"#utility.yul\":9823:9856   */\n      0x426f746820706c6179657273206e65656420746f20766f746520666972737400\n        /* \"#utility.yul\":9819:9820   */\n      0x00\n        /* \"#utility.yul\":9811:9817   */\n      dup3\n        /* \"#utility.yul\":9807:9821   */\n      add\n        /* \"#utility.yul\":9800:9857   */\n      mstore\n        /* \"#utility.yul\":9683:9864   */\n      pop\n      jump\t// out\n        /* \"#utility.yul\":9870:10236   */\n    tag_199:\n        /* \"#utility.yul\":10012:10015   */\n      0x00\n        /* \"#utility.yul\":10033:10100   */\n      tag_289\n        /* \"#utility.yul\":10097:10099   */\n      0x1f\n        /* \"#utility.yul\":10092:10095   */\n      dup4\n        /* \"#utility.yul\":10033:10100   */\n      tag_183\n      jump\t// in\n    tag_289:\n        /* \"#utility.yul\":10026:10100   */\n      swap2\n      pop\n        /* \"#utility.yul\":10109:10202   */\n      tag_290\n        /* \"#utility.yul\":10198:10201   */\n      dup3\n        /* \"#utility.yul\":10109:10202   */\n      tag_198\n      jump\t// in\n    tag_290:\n        /* \"#utility.yul\":10227:10229   */\n      0x20\n        /* \"#utility.yul\":10222:10225   */\n      dup3\n        /* \"#utility.yul\":10218:10230   */\n      add\n        /* \"#utility.yul\":10211:10230   */\n      swap1\n      pop\n        /* \"#utility.yul\":9870:10236   */\n      swap2\n      swap1\n      pop\n      jump\t// out\n        /* \"#utility.yul\":10242:10661   */\n    tag_120:\n        /* \"#utility.yul\":10408:10412   */\n      0x00\n        /* \"#utility.yul\":10446:10448   */\n      0x20\n        /* \"#utility.yul\":10435:10444   */\n      dup3\n        /* \"#utility.yul\":10431:10449   */\n      add\n        /* \"#utility.yul\":10423:10449   */\n      swap1\n      pop\n        /* \"#utility.yul\":10495:10504   */\n      dup2\n        /* \"#utility.yul\":10489:10493   */\n      dup2\n        /* \"#utility.yul\":10485:10505   */\n      sub\n        /* \"#utility.yul\":10481:10482   */\n      0x00\n        /* \"#utility.yul\":10470:10479   */\n      dup4\n        /* \"#utility.yul\":10466:10483   */\n      add\n        /* \"#utility.yul\":10459:10506   */\n      mstore\n        /* \"#utility.yul\":10523:10654   */\n      tag_292\n        /* \"#utility.yul\":10649:10653   */\n      dup2\n        /* \"#utility.yul\":10523:10654   */\n      tag_199\n      jump\t// in\n    tag_292:\n        /* \"#utility.yul\":10515:10654   */\n      swap1\n      pop\n        /* \"#utility.yul\":10242:10661   */\n      swap2\n      swap1\n      pop\n      jump\t// out\n        /* \"#utility.yul\":10667:10842   */\n    tag_200:\n        /* \"#utility.yul\":10807:10834   */\n      0x596f75206861766520616c72656164792072657665616c656400000000000000\n        /* \"#utility.yul\":10803:10804   */\n      0x00\n        /* \"#utility.yul\":10795:10801   */\n      dup3\n        /* \"#utility.yul\":10791:10805   */\n      add\n        /* \"#utility.yul\":10784:10835   */\n      mstore\n        /* \"#utility.yul\":10667:10842   */\n      pop\n      jump\t// out\n        /* \"#utility.yul\":10848:11214   */\n    tag_201:\n        /* \"#utility.yul\":10990:10993   */\n      0x00\n        /* \"#utility.yul\":11011:11078   */\n      tag_295\n        /* \"#utility.yul\":11075:11077   */\n      0x19\n        /* \"#utility.yul\":11070:11073   */\n      dup4\n        /* \"#utility.yul\":11011:11078   */\n      tag_183\n      jump\t// in\n    tag_295:\n        /* \"#utility.yul\":11004:11078   */\n      swap2\n      pop\n        /* \"#utility.yul\":11087:11180   */\n      tag_296\n        /* \"#utility.yul\":11176:11179   */\n      dup3\n        /* \"#utility.yul\":11087:11180   */\n      tag_200\n      jump\t// in\n    tag_296:\n        /* \"#utility.yul\":11205:11207   */\n      0x20\n        /* \"#utility.yul\":11200:11203   */\n      dup3\n        /* \"#utility.yul\":11196:11208   */\n      add\n        /* \"#utility.yul\":11189:11208   */\n      swap1\n      pop\n        /* \"#utility.yul\":10848:11214   */\n      swap2\n      swap1\n      pop\n      jump\t// out\n        /* \"#utility.yul\":11220:11639   */\n    tag_124:\n        /* \"#utility.yul\":11386:11390   */\n      0x00\n        /* \"#utility.yul\":11424:11426   */\n      0x20\n        /* \"#utility.yul\":11413:11422   */\n      dup3\n        /* \"#utility.yul\":11409:11427   */\n      add\n        /* \"#utility.yul\":11401:11427   */\n      swap1\n      pop\n        /* \"#utility.yul\":11473:11482   */\n      dup2\n        /* \"#utility.yul\":11467:11471   */\n      dup2\n        /* \"#utility.yul\":11463:11483   */\n      sub\n        /* \"#utility.yul\":11459:11460   */\n      0x00\n        /* \"#utility.yul\":11448:11457   */\n      dup4\n        /* \"#utility.yul\":11444:11461   */\n      add\n        /* \"#utility.yul\":11437:11484   */\n      mstore\n        /* \"#utility.yul\":11501:11632   */\n      tag_298\n        /* \"#utility.yul\":11627:11631   */\n      dup2\n        /* \"#utility.yul\":11501:11632   */\n      tag_201\n      jump\t// in\n    tag_298:\n        /* \"#utility.yul\":11493:11632   */\n      swap1\n      pop\n        /* \"#utility.yul\":11220:11639   */\n      swap2\n      swap1\n      pop\n      jump\t// out\n        /* \"#utility.yul\":11645:11809   */\n    tag_202:\n        /* \"#utility.yul\":11785:11801   */\n      0x496e76616c69642072657665616c000000000000000000000000000000000000\n        /* \"#utility.yul\":11781:11782   */\n      0x00\n        /* \"#utility.yul\":11773:11779   */\n      dup3\n        /* \"#utility.yul\":11769:11783   */\n      add\n        /* \"#utility.yul\":11762:11802   */\n      mstore\n        /* \"#utility.yul\":11645:11809   */\n      pop\n      jump\t// out\n        /* \"#utility.yul\":11815:12181   */\n    tag_203:\n        /* \"#utility.yul\":11957:11960   */\n      0x00\n        /* \"#utility.yul\":11978:12045   */\n      tag_301\n        /* \"#utility.yul\":12042:12044   */\n      0x0e\n        /* \"#utility.yul\":12037:12040   */\n      dup4\n        /* \"#utility.yul\":11978:12045   */\n      tag_183\n      jump\t// in\n    tag_301:\n        /* \"#utility.yul\":11971:12045   */\n      swap2\n      pop\n        /* \"#utility.yul\":12054:12147   */\n      tag_302\n        /* \"#utility.yul\":12143:12146   */\n      dup3\n        /* \"#utility.yul\":12054:12147   */\n      tag_202\n      jump\t// in\n    tag_302:\n        /* \"#utility.yul\":12172:12174   */\n      0x20\n        /* \"#utility.yul\":12167:12170   */\n      dup3\n        /* \"#utility.yul\":12163:12175   */\n      add\n        /* \"#utility.yul\":12156:12175   */\n      swap1\n      pop\n        /* \"#utility.yul\":11815:12181   */\n      swap2\n      swap1\n      pop\n      jump\t// out\n        /* \"#utility.yul\":12187:12606   */\n    tag_128:\n        /* \"#utility.yul\":12353:12357   */\n      0x00\n        /* \"#utility.yul\":12391:12393   */\n      0x20\n        /* \"#utility.yul\":12380:12389   */\n      dup3\n        /* \"#utility.yul\":12376:12394   */\n      add\n        /* \"#utility.yul\":12368:12394   */\n      swap1\n      pop\n        /* \"#utility.yul\":12440:12449   */\n      dup2\n        /* \"#utility.yul\":12434:12438   */\n      dup2\n        /* \"#utility.yul\":12430:12450   */\n      sub\n        /* \"#utility.yul\":12426:12427   */\n      0x00\n        /* \"#utility.yul\":12415:12424   */\n      dup4\n        /* \"#utility.yul\":12411:12428   */\n      add\n        /* \"#utility.yul\":12404:12451   */\n      mstore\n        /* \"#utility.yul\":12468:12599   */\n      tag_304\n        /* \"#utility.yul\":12594:12598   */\n      dup2\n        /* \"#utility.yul\":12468:12599   */\n      tag_203\n      jump\t// in\n    tag_304:\n        /* \"#utility.yul\":12460:12599   */\n      swap1\n      pop\n        /* \"#utility.yul\":12187:12606   */\n      swap2\n      swap1\n      pop\n      jump\t// out\n        /* \"#utility.yul\":12612:12781   */\n    tag_204:\n        /* \"#utility.yul\":12752:12773   */\n      0x43616e206e6f742066696e6420706c6179657200000000000000000000000000\n        /* \"#utility.yul\":12748:12749   */\n      0x00\n        /* \"#utility.yul\":12740:12746   */\n      dup3\n        /* \"#utility.yul\":12736:12750   */\n      add\n        /* \"#utility.yul\":12729:12774   */\n      mstore\n        /* \"#utility.yul\":12612:12781   */\n      pop\n      jump\t// out\n        /* \"#utility.yul\":12787:13153   */\n    tag_205:\n        /* \"#utility.yul\":12929:12932   */\n      0x00\n        /* \"#utility.yul\":12950:13017   */\n      tag_307\n        /* \"#utility.yul\":13014:13016   */\n      0x13\n        /* \"#utility.yul\":13009:13012   */\n      dup4\n        /* \"#utility.yul\":12950:13017   */\n      tag_183\n      jump\t// in\n    tag_307:\n        /* \"#utility.yul\":12943:13017   */\n      swap2\n      pop\n        /* \"#utility.yul\":13026:13119   */\n      tag_308\n        /* \"#utility.yul\":13115:13118   */\n      dup3\n        /* \"#utility.yul\":13026:13119   */\n      tag_204\n      jump\t// in\n    tag_308:\n        /* \"#utility.yul\":13144:13146   */\n      0x20\n        /* \"#utility.yul\":13139:13142   */\n      dup3\n        /* \"#utility.yul\":13135:13147   */\n      add\n        /* \"#utility.yul\":13128:13147   */\n      swap1\n      pop\n        /* \"#utility.yul\":12787:13153   */\n      swap2\n      swap1\n      pop\n      jump\t// out\n        /* \"#utility.yul\":13159:13578   */\n    tag_138:\n        /* \"#utility.yul\":13325:13329   */\n      0x00\n        /* \"#utility.yul\":13363:13365   */\n      0x20\n        /* \"#utility.yul\":13352:13361   */\n      dup3\n        /* \"#utility.yul\":13348:13366   */\n      add\n        /* \"#utility.yul\":13340:13366   */\n      swap1\n      pop\n        /* \"#utility.yul\":13412:13421   */\n      dup2\n        /* \"#utility.yul\":13406:13410   */\n      dup2\n        /* \"#utility.yul\":13402:13422   */\n      sub\n        /* \"#utility.yul\":13398:13399   */\n      0x00\n        /* \"#utility.yul\":13387:13396   */\n      dup4\n        /* \"#utility.yul\":13383:13400   */\n      add\n        /* \"#utility.yul\":13376:13423   */\n      mstore\n        /* \"#utility.yul\":13440:13571   */\n      tag_310\n        /* \"#utility.yul\":13566:13570   */\n      dup2\n        /* \"#utility.yul\":13440:13571   */\n      tag_205\n      jump\t// in\n    tag_310:\n        /* \"#utility.yul\":13432:13571   */\n      swap1\n      pop\n        /* \"#utility.yul\":13159:13578   */\n      swap2\n      swap1\n      pop\n      jump\t// out\n        /* \"#utility.yul\":13584:13764   */\n    tag_206:\n        /* \"#utility.yul\":13632:13709   */\n      0x4e487b7100000000000000000000000000000000000000000000000000000000\n        /* \"#utility.yul\":13629:13630   */\n      0x00\n        /* \"#utility.yul\":13622:13710   */\n      mstore\n        /* \"#utility.yul\":13729:13733   */\n      0x11\n        /* \"#utility.yul\":13726:13727   */\n      0x04\n        /* \"#utility.yul\":13719:13734   */\n      mstore\n        /* \"#utility.yul\":13753:13757   */\n      0x24\n        /* \"#utility.yul\":13750:13751   */\n      0x00\n        /* \"#utility.yul\":13743:13758   */\n      revert\n        /* \"#utility.yul\":13770:14180   */\n    tag_163:\n        /* \"#utility.yul\":13810:13817   */\n      0x00\n        /* \"#utility.yul\":13833:13853   */\n      tag_313\n        /* \"#utility.yul\":13851:13852   */\n      dup3\n        /* \"#utility.yul\":13833:13853   */\n      tag_169\n      jump\t// in\n    tag_313:\n        /* \"#utility.yul\":13828:13853   */\n      swap2\n      pop\n        /* \"#utility.yul\":13867:13887   */\n      tag_314\n        /* \"#utility.yul\":13885:13886   */\n      dup4\n        /* \"#utility.yul\":13867:13887   */\n      tag_169\n      jump\t// in\n    tag_314:\n        /* \"#utility.yul\":13862:13887   */\n      swap3\n      pop\n        /* \"#utility.yul\":13922:13923   */\n      dup3\n        /* \"#utility.yul\":13919:13920   */\n      dup3\n        /* \"#utility.yul\":13915:13924   */\n      mul\n        /* \"#utility.yul\":13944:13974   */\n      tag_315\n        /* \"#utility.yul\":13962:13973   */\n      dup2\n        /* \"#utility.yul\":13944:13974   */\n      tag_169\n      jump\t// in\n    tag_315:\n        /* \"#utility.yul\":13933:13974   */\n      swap2\n      pop\n        /* \"#utility.yul\":14123:14124   */\n      dup3\n        /* \"#utility.yul\":14114:14121   */\n      dup3\n        /* \"#utility.yul\":14110:14125   */\n      div\n        /* \"#utility.yul\":14107:14108   */\n      dup5\n        /* \"#utility.yul\":14104:14126   */\n      eq\n        /* \"#utility.yul\":14084:14085   */\n      dup4\n        /* \"#utility.yul\":14077:14086   */\n      iszero\n        /* \"#utility.yul\":14057:14140   */\n      or\n        /* \"#utility.yul\":14034:14173   */\n      tag_316\n      jumpi\n        /* \"#utility.yul\":14153:14171   */\n      tag_317\n      tag_206\n      jump\t// in\n    tag_317:\n        /* \"#utility.yul\":14034:14173   */\n    tag_316:\n        /* \"#utility.yul\":13818:14180   */\n      pop\n        /* \"#utility.yul\":13770:14180   */\n      swap3\n      swap2\n      pop\n      pop\n      jump\t// out\n\n    auxdata: 0xa2646970667358221220ec784c808b80db275647571374ff1c98575cfab83bbe4bab8020f0ac4726fc8864736f6c63430008190033\n}\n",
				"bytecode": {
					"linkReferences": {},
					"object": "6080604052348015600e575f80fd5b506115fd8061001c5f395ff3fe6080604052600436106100f1575f3560e01c80639348cef711610089578063b357a02811610058578063b357a028146102dd578063b93e0e3914610307578063c44d6f8714610331578063dfbf53ae1461035b576100f1565b80639348cef714610237578063a285c54a1461025f578063b040905b14610289578063b0d74a39146102b3576100f1565b80633e9feea7116100c55780633e9feea71461019d578063560b3986146101c75780637ba9f72e146101f15780637bc49a951461021b576100f1565b806262388e146100f557806305ca5dda1461011f57806311bb1537146101495780633a4b66f114610173575b5f80fd5b348015610100575f80fd5b50610109610385565b6040516101169190610f87565b60405180910390f35b34801561012a575f80fd5b5061013361038b565b6040516101409190610fba565b60405180910390f35b348015610154575f80fd5b5061015d61039d565b60405161016a9190611012565b60405180910390f35b34801561017e575f80fd5b506101876103c3565b6040516101949190610f87565b60405180910390f35b3480156101a8575f80fd5b506101b16103c9565b6040516101be9190610fba565b60405180910390f35b3480156101d2575f80fd5b506101db6103db565b6040516101e89190611043565b60405180910390f35b3480156101fc575f80fd5b506102056103e1565b6040516102129190610f87565b60405180910390f35b6102356004803603810190610230919061108a565b6103e7565b005b348015610242575f80fd5b5061025d6004803603810190610258919061108a565b610772565b005b34801561026a575f80fd5b50610273610b74565b6040516102809190611012565b60405180910390f35b348015610294575f80fd5b5061029d610b97565b6040516102aa9190611043565b60405180910390f35b3480156102be575f80fd5b506102c7610b9d565b6040516102d49190610fba565b60405180910390f35b3480156102e8575f80fd5b506102f1610bb0565b6040516102fe9190610f87565b60405180910390f35b348015610312575f80fd5b5061031b610bb5565b6040516103289190610f87565b60405180910390f35b34801561033c575f80fd5b50610345610bba565b6040516103529190610f87565b60405180910390f35b348015610366575f80fd5b5061036f610bbf565b60405161037c9190611012565b60405180910390f35b60025481565b60065f9054906101000a900460ff1681565b600360019054906101000a900473ffffffffffffffffffffffffffffffffffffffff1681565b60075481565b60035f9054906101000a900460ff1681565b60045481565b60055481565b670de0b6b3a7640000341015610432576040517f08c379a000000000000000000000000000000000000000000000000000000000815260040161042990611122565b60405180910390fd5b60018214806104415750600282145b8061044c5750600382145b61048b576040517f08c379a00000000000000000000000000000000000000000000000000000000081526004016104829061118a565b60405180910390fd5b5f73ffffffffffffffffffffffffffffffffffffffff165f8054906101000a900473ffffffffffffffffffffffffffffffffffffffff1673ffffffffffffffffffffffffffffffffffffffff160361057757335f806101000a81548173ffffffffffffffffffffffffffffffffffffffff021916908373ffffffffffffffffffffffffffffffffffffffff1602179055505f60028190555081816040516020016105369291906111c8565b604051602081830303815290604052805190602001206001819055505f60035f6101000a81548160ff0219169083151502179055503460078190555061076e565b5f73ffffffffffffffffffffffffffffffffffffffff16600360019054906101000a900473ffffffffffffffffffffffffffffffffffffffff1673ffffffffffffffffffffffffffffffffffffffff1603610732575f8054906101000a900473ffffffffffffffffffffffffffffffffffffffff1673ffffffffffffffffffffffffffffffffffffffff163373ffffffffffffffffffffffffffffffffffffffff1603610659576040517f08c379a00000000000000000000000000000000000000000000000000000000081526004016106509061123d565b60405180910390fd5b600754341461069d576040517f08c379a0000000000000000000000000000000000000000000000000000000008152600401610694906112cb565b60405180910390fd5b33600360016101000a81548173ffffffffffffffffffffffffffffffffffffffff021916908373ffffffffffffffffffffffffffffffffffffffff1602179055505f60058190555081816040516020016106f89291906111c8565b604051602081830303815290604052805190602001206004819055505f60065f6101000a81548160ff02191690831515021790555061076d565b6040517f08c379a000000000000000000000000000000000000000000000000000000000815260040161076490611333565b60405180910390fd5b5b5050565b600860149054906101000a900460ff16156107c2576040517f08c379a00000000000000000000000000000000000000000000000000000000081526004016107b99061139b565b60405180910390fd5b5f801b60015414806107d757505f801b600454145b610816576040517f08c379a000000000000000000000000000000000000000000000000000000000815260040161080d90611403565b60405180910390fd5b5f8054906101000a900473ffffffffffffffffffffffffffffffffffffffff1673ffffffffffffffffffffffffffffffffffffffff163373ffffffffffffffffffffffffffffffffffffffff1603610953575f151560035f9054906101000a900460ff161515146108bc576040517f08c379a00000000000000000000000000000000000000000000000000000000081526004016108b39061146b565b60405180910390fd5b5f82826040516020016108d09291906111c8565b604051602081830303815290604052805190602001209050600154811461092c576040517f08c379a0000000000000000000000000000000000000000000000000000000008152600401610923906114d3565b60405180910390fd5b82600281905550600160035f6101000a81548160ff02191690831515021790555050610acc565b5f8054906101000a900473ffffffffffffffffffffffffffffffffffffffff1673ffffffffffffffffffffffffffffffffffffffff163373ffffffffffffffffffffffffffffffffffffffff1603610a90575f151560065f9054906101000a900460ff161515146109f9576040517f08c379a00000000000000000000000000000000000000000000000000000000081526004016109f09061146b565b60405180910390fd5b5f8282604051602001610a0d9291906111c8565b6040516020818303038152906040528051906020012090506004548114610a69576040517f08c379a0000000000000000000000000000000000000000000000000000000008152600401610a60906114d3565b60405180910390fd5b82600581905550600160065f6101000a81548160ff02191690831515021790555050610acb565b6040517f08c379a0000000000000000000000000000000000000000000000000000000008152600401610ac29061153b565b60405180910390fd5b5b6001151560035f9054906101000a900460ff161515148015610b0057506001151560065f9054906101000a900460ff161515145b15610b7057610b0d610be4565b60085f6101000a81548173ffffffffffffffffffffffffffffffffffffffff021916908373ffffffffffffffffffffffffffffffffffffffff1602179055506001600860146101000a81548160ff021916908315150217905550610b6f610c96565b5b5050565b5f8054906101000a900473ffffffffffffffffffffffffffffffffffffffff1681565b60015481565b600860149054906101000a900460ff1681565b600381565b600181565b600281565b60085f9054906101000a900473ffffffffffffffffffffffffffffffffffffffff1681565b5f60055460025403610bf8575f9050610c93565b6001600254148015610c0c57506003600554145b80610c26575060028054148015610c2557506001600554145b5b80610c4157506003600254148015610c4057506002600554145b5b15610c6d575f8054906101000a900473ffffffffffffffffffffffffffffffffffffffff169050610c93565b600360019054906101000a900473ffffffffffffffffffffffffffffffffffffffff1690505b90565b5f73ffffffffffffffffffffffffffffffffffffffff1660085f9054906101000a900473ffffffffffffffffffffffffffffffffffffffff1673ffffffffffffffffffffffffffffffffffffffff1603610dbc575f8054906101000a900473ffffffffffffffffffffffffffffffffffffffff1673ffffffffffffffffffffffffffffffffffffffff166108fc60075490811502906040515f60405180830381858888f19350505050158015610d4e573d5f803e3d5ffd5b50600360019054906101000a900473ffffffffffffffffffffffffffffffffffffffff1673ffffffffffffffffffffffffffffffffffffffff166108fc60075490811502906040515f60405180830381858888f19350505050158015610db6573d5f803e3d5ffd5b50610e30565b60085f9054906101000a900473ffffffffffffffffffffffffffffffffffffffff1673ffffffffffffffffffffffffffffffffffffffff166108fc6002600754610e069190611586565b90811502906040515f60405180830381858888f19350505050158015610e2e573d5f803e3d5ffd5b505b610e38610e3a565b565b5f805f6101000a81548173ffffffffffffffffffffffffffffffffffffffff021916908373ffffffffffffffffffffffffffffffffffffffff1602179055505f801b6001819055505f6002819055505f60035f6101000a81548160ff0219169083151502179055505f600360016101000a81548173ffffffffffffffffffffffffffffffffffffffff021916908373ffffffffffffffffffffffffffffffffffffffff1602179055505f801b6004819055505f6005819055505f60065f6101000a81548160ff0219169083151502179055505f6007819055505f60085f6101000a81548173ffffffffffffffffffffffffffffffffffffffff021916908373ffffffffffffffffffffffffffffffffffffffff1602179055505f600860146101000a81548160ff021916908315150217905550565b5f819050919050565b610f8181610f6f565b82525050565b5f602082019050610f9a5f830184610f78565b92915050565b5f8115159050919050565b610fb481610fa0565b82525050565b5f602082019050610fcd5f830184610fab565b92915050565b5f73ffffffffffffffffffffffffffffffffffffffff82169050919050565b5f610ffc82610fd3565b9050919050565b61100c81610ff2565b82525050565b5f6020820190506110255f830184611003565b92915050565b5f819050919050565b61103d8161102b565b82525050565b5f6020820190506110565f830184611034565b92915050565b5f80fd5b61106981610f6f565b8114611073575f80fd5b50565b5f8135905061108481611060565b92915050565b5f80604083850312156110a05761109f61105c565b5b5f6110ad85828601611076565b92505060206110be85828601611076565b9150509250929050565b5f82825260208201905092915050565b7f426574206d757374206265206f766572203120657468657200000000000000005f82015250565b5f61110c6018836110c8565b9150611117826110d8565b602082019050919050565b5f6020820190508181035f83015261113981611100565b9050919050565b7f496e76616c6964204d6f766500000000000000000000000000000000000000005f82015250565b5f611174600c836110c8565b915061117f82611140565b602082019050919050565b5f6020820190508181035f8301526111a181611168565b9050919050565b5f819050919050565b6111c26111bd82610f6f565b6111a8565b82525050565b5f6111d382856111b1565b6020820191506111e382846111b1565b6020820191508190509392505050565b7f53616d6520706c617965722063616e6e6f74206a6f696e207468652067616d655f82015250565b5f6112276020836110c8565b9150611232826111f3565b602082019050919050565b5f6020820190508181035f8301526112548161121b565b9050919050565b7f4d757374206d6174636820746865207374616b65206f6620666972737420706c5f8201527f6179657200000000000000000000000000000000000000000000000000000000602082015250565b5f6112b56024836110c8565b91506112c08261125b565b604082019050919050565b5f6020820190508181035f8301526112e2816112a9565b9050919050565b7f46756c6c2067616d6500000000000000000000000000000000000000000000005f82015250565b5f61131d6009836110c8565b9150611328826112e9565b602082019050919050565b5f6020820190508181035f83015261134a81611311565b9050919050565b7f67616d6520697320616c726561647920646f6e650000000000000000000000005f82015250565b5f6113856014836110c8565b915061139082611351565b602082019050919050565b5f6020820190508181035f8301526113b281611379565b9050919050565b7f426f746820706c6179657273206e65656420746f20766f7465206669727374005f82015250565b5f6113ed601f836110c8565b91506113f8826113b9565b602082019050919050565b5f6020820190508181035f83015261141a816113e1565b9050919050565b7f596f75206861766520616c72656164792072657665616c6564000000000000005f82015250565b5f6114556019836110c8565b915061146082611421565b602082019050919050565b5f6020820190508181035f83015261148281611449565b9050919050565b7f496e76616c69642072657665616c0000000000000000000000000000000000005f82015250565b5f6114bd600e836110c8565b91506114c882611489565b602082019050919050565b5f6020820190508181035f8301526114ea816114b1565b9050919050565b7f43616e206e6f742066696e6420706c61796572000000000000000000000000005f82015250565b5f6115256013836110c8565b9150611530826114f1565b602082019050919050565b5f6020820190508181035f83015261155281611519565b9050919050565b7f4e487b71000000000000000000000000000000000000000000000000000000005f52601160045260245ffd5b5f61159082610f6f565b915061159b83610f6f565b92508282026115a981610f6f565b915082820484148315176115c0576115bf611559565b5b509291505056fea2646970667358221220ec784c808b80db275647571374ff1c98575cfab83bbe4bab8020f0ac4726fc8864736f6c63430008190033",
					"opcodes": "PUSH1 0x80 PUSH1 0x40 MSTORE CALLVALUE DUP1 ISZERO PUSH1 0xE JUMPI PUSH0 DUP1 REVERT JUMPDEST POP PUSH2 0x15FD DUP1 PUSH2 0x1C PUSH0 CODECOPY PUSH0 RETURN INVALID PUSH1 0x80 PUSH1 0x40 MSTORE PUSH1 0x4 CALLDATASIZE LT PUSH2 0xF1 JUMPI PUSH0 CALLDATALOAD PUSH1 0xE0 SHR DUP1 PUSH4 0x9348CEF7 GT PUSH2 0x89 JUMPI DUP1 PUSH4 0xB357A028 GT PUSH2 0x58 JUMPI DUP1 PUSH4 0xB357A028 EQ PUSH2 0x2DD JUMPI DUP1 PUSH4 0xB93E0E39 EQ PUSH2 0x307 JUMPI DUP1 PUSH4 0xC44D6F87 EQ PUSH2 0x331 JUMPI DUP1 PUSH4 0xDFBF53AE EQ PUSH2 0x35B JUMPI PUSH2 0xF1 JUMP JUMPDEST DUP1 PUSH4 0x9348CEF7 EQ PUSH2 0x237 JUMPI DUP1 PUSH4 0xA285C54A EQ PUSH2 0x25F JUMPI DUP1 PUSH4 0xB040905B EQ PUSH2 0x289 JUMPI DUP1 PUSH4 0xB0D74A39 EQ PUSH2 0x2B3 JUMPI PUSH2 0xF1 JUMP JUMPDEST DUP1 PUSH4 0x3E9FEEA7 GT PUSH2 0xC5 JUMPI DUP1 PUSH4 0x3E9FEEA7 EQ PUSH2 0x19D JUMPI DUP1 PUSH4 0x560B3986 EQ PUSH2 0x1C7 JUMPI DUP1 PUSH4 0x7BA9F72E EQ PUSH2 0x1F1 JUMPI DUP1 PUSH4 0x7BC49A95 EQ PUSH2 0x21B JUMPI PUSH2 0xF1 JUMP JUMPDEST DUP1 PUSH3 0x62388E EQ PUSH2 0xF5 JUMPI DUP1 PUSH4 0x5CA5DDA EQ PUSH2 0x11F JUMPI DUP1 PUSH4 0x11BB1537 EQ PUSH2 0x149 JUMPI DUP1 PUSH4 0x3A4B66F1 EQ PUSH2 0x173 JUMPI JUMPDEST PUSH0 DUP1 REVERT JUMPDEST CALLVALUE DUP1 ISZERO PUSH2 0x100 JUMPI PUSH0 DUP1 REVERT JUMPDEST POP PUSH2 0x109 PUSH2 0x385 JUMP JUMPDEST PUSH1 0x40 MLOAD PUSH2 0x116 SWAP2 SWAP1 PUSH2 0xF87 JUMP JUMPDEST PUSH1 0x40 MLOAD DUP1 SWAP2 SUB SWAP1 RETURN JUMPDEST CALLVALUE DUP1 ISZERO PUSH2 0x12A JUMPI PUSH0 DUP1 REVERT JUMPDEST POP PUSH2 0x133 PUSH2 0x38B JUMP JUMPDEST PUSH1 0x40 MLOAD PUSH2 0x140 SWAP2 SWAP1 PUSH2 0xFBA JUMP JUMPDEST PUSH1 0x40 MLOAD DUP1 SWAP2 SUB SWAP1 RETURN JUMPDEST CALLVALUE DUP1 ISZERO PUSH2 0x154 JUMPI PUSH0 DUP1 REVERT JUMPDEST POP PUSH2 0x15D PUSH2 0x39D JUMP JUMPDEST PUSH1 0x40 MLOAD PUSH2 0x16A SWAP2 SWAP1 PUSH2 0x1012 JUMP JUMPDEST PUSH1 0x40 MLOAD DUP1 SWAP2 SUB SWAP1 RETURN JUMPDEST CALLVALUE DUP1 ISZERO PUSH2 0x17E JUMPI PUSH0 DUP1 REVERT JUMPDEST POP PUSH2 0x187 PUSH2 0x3C3 JUMP JUMPDEST PUSH1 0x40 MLOAD PUSH2 0x194 SWAP2 SWAP1 PUSH2 0xF87 JUMP JUMPDEST PUSH1 0x40 MLOAD DUP1 SWAP2 SUB SWAP1 RETURN JUMPDEST CALLVALUE DUP1 ISZERO PUSH2 0x1A8 JUMPI PUSH0 DUP1 REVERT JUMPDEST POP PUSH2 0x1B1 PUSH2 0x3C9 JUMP JUMPDEST PUSH1 0x40 MLOAD PUSH2 0x1BE SWAP2 SWAP1 PUSH2 0xFBA JUMP JUMPDEST PUSH1 0x40 MLOAD DUP1 SWAP2 SUB SWAP1 RETURN JUMPDEST CALLVALUE DUP1 ISZERO PUSH2 0x1D2 JUMPI PUSH0 DUP1 REVERT JUMPDEST POP PUSH2 0x1DB PUSH2 0x3DB JUMP JUMPDEST PUSH1 0x40 MLOAD PUSH2 0x1E8 SWAP2 SWAP1 PUSH2 0x1043 JUMP JUMPDEST PUSH1 0x40 MLOAD DUP1 SWAP2 SUB SWAP1 RETURN JUMPDEST CALLVALUE DUP1 ISZERO PUSH2 0x1FC JUMPI PUSH0 DUP1 REVERT JUMPDEST POP PUSH2 0x205 PUSH2 0x3E1 JUMP JUMPDEST PUSH1 0x40 MLOAD PUSH2 0x212 SWAP2 SWAP1 PUSH2 0xF87 JUMP JUMPDEST PUSH1 0x40 MLOAD DUP1 SWAP2 SUB SWAP1 RETURN JUMPDEST PUSH2 0x235 PUSH1 0x4 DUP1 CALLDATASIZE SUB DUP2 ADD SWAP1 PUSH2 0x230 SWAP2 SWAP1 PUSH2 0x108A JUMP JUMPDEST PUSH2 0x3E7 JUMP JUMPDEST STOP JUMPDEST CALLVALUE DUP1 ISZERO PUSH2 0x242 JUMPI PUSH0 DUP1 REVERT JUMPDEST POP PUSH2 0x25D PUSH1 0x4 DUP1 CALLDATASIZE SUB DUP2 ADD SWAP1 PUSH2 0x258 SWAP2 SWAP1 PUSH2 0x108A JUMP JUMPDEST PUSH2 0x772 JUMP JUMPDEST STOP JUMPDEST CALLVALUE DUP1 ISZERO PUSH2 0x26A JUMPI PUSH0 DUP1 REVERT JUMPDEST POP PUSH2 0x273 PUSH2 0xB74 JUMP JUMPDEST PUSH1 0x40 MLOAD PUSH2 0x280 SWAP2 SWAP1 PUSH2 0x1012 JUMP JUMPDEST PUSH1 0x40 MLOAD DUP1 SWAP2 SUB SWAP1 RETURN JUMPDEST CALLVALUE DUP1 ISZERO PUSH2 0x294 JUMPI PUSH0 DUP1 REVERT JUMPDEST POP PUSH2 0x29D PUSH2 0xB97 JUMP JUMPDEST PUSH1 0x40 MLOAD PUSH2 0x2AA SWAP2 SWAP1 PUSH2 0x1043 JUMP JUMPDEST PUSH1 0x40 MLOAD DUP1 SWAP2 SUB SWAP1 RETURN JUMPDEST CALLVALUE DUP1 ISZERO PUSH2 0x2BE JUMPI PUSH0 DUP1 REVERT JUMPDEST POP PUSH2 0x2C7 PUSH2 0xB9D JUMP JUMPDEST PUSH1 0x40 MLOAD PUSH2 0x2D4 SWAP2 SWAP1 PUSH2 0xFBA JUMP JUMPDEST PUSH1 0x40 MLOAD DUP1 SWAP2 SUB SWAP1 RETURN JUMPDEST CALLVALUE DUP1 ISZERO PUSH2 0x2E8 JUMPI PUSH0 DUP1 REVERT JUMPDEST POP PUSH2 0x2F1 PUSH2 0xBB0 JUMP JUMPDEST PUSH1 0x40 MLOAD PUSH2 0x2FE SWAP2 SWAP1 PUSH2 0xF87 JUMP JUMPDEST PUSH1 0x40 MLOAD DUP1 SWAP2 SUB SWAP1 RETURN JUMPDEST CALLVALUE DUP1 ISZERO PUSH2 0x312 JUMPI PUSH0 DUP1 REVERT JUMPDEST POP PUSH2 0x31B PUSH2 0xBB5 JUMP JUMPDEST PUSH1 0x40 MLOAD PUSH2 0x328 SWAP2 SWAP1 PUSH2 0xF87 JUMP JUMPDEST PUSH1 0x40 MLOAD DUP1 SWAP2 SUB SWAP1 RETURN JUMPDEST CALLVALUE DUP1 ISZERO PUSH2 0x33C JUMPI PUSH0 DUP1 REVERT JUMPDEST POP PUSH2 0x345 PUSH2 0xBBA JUMP JUMPDEST PUSH1 0x40 MLOAD PUSH2 0x352 SWAP2 SWAP1 PUSH2 0xF87 JUMP JUMPDEST PUSH1 0x40 MLOAD DUP1 SWAP2 SUB SWAP1 RETURN JUMPDEST CALLVALUE DUP1 ISZERO PUSH2 0x366 JUMPI PUSH0 DUP1 REVERT JUMPDEST POP PUSH2 0x36F PUSH2 0xBBF JUMP JUMPDEST PUSH1 0x40 MLOAD PUSH2 0x37C SWAP2 SWAP1 PUSH2 0x1012 JUMP JUMPDEST PUSH1 0x40 MLOAD DUP1 SWAP2 SUB SWAP1 RETURN JUMPDEST PUSH1 0x2 SLOAD DUP2 JUMP JUMPDEST PUSH1 0x6 PUSH0 SWAP1 SLOAD SWAP1 PUSH2 0x100 EXP SWAP1 DIV PUSH1 0xFF AND DUP2 JUMP JUMPDEST PUSH1 0x3 PUSH1 0x1 SWAP1 SLOAD SWAP1 PUSH2 0x100 EXP SWAP1 DIV PUSH20 0xFFFFFFFFFFFFFFFFFFFFFFFFFFFFFFFFFFFFFFFF AND DUP2 JUMP JUMPDEST PUSH1 0x7 SLOAD DUP2 JUMP JUMPDEST PUSH1 0x3 PUSH0 SWAP1 SLOAD SWAP1 PUSH2 0x100 EXP SWAP1 DIV PUSH1 0xFF AND DUP2 JUMP JUMPDEST PUSH1 0x4 SLOAD DUP2 JUMP JUMPDEST PUSH1 0x5 SLOAD DUP2 JUMP JUMPDEST PUSH8 0xDE0B6B3A7640000 CALLVALUE LT ISZERO PUSH2 0x432 JUMPI PUSH1 0x40 MLOAD PUSH32 0x8C379A000000000000000000000000000000000000000000000000000000000 DUP2 MSTORE PUSH1 0x4 ADD PUSH2 0x429 SWAP1 PUSH2 0x1122 JUMP JUMPDEST PUSH1 0x40 MLOAD DUP1 SWAP2 SUB SWAP1 REVERT JUMPDEST PUSH1 0x1 DUP3 EQ DUP1 PUSH2 0x441 JUMPI POP PUSH1 0x2 DUP3 EQ JUMPDEST DUP1 PUSH2 0x44C JUMPI POP PUSH1 0x3 DUP3 EQ JUMPDEST PUSH2 0x48B JUMPI PUSH1 0x40 MLOAD PUSH32 0x8C379A000000000000000000000000000000000000000000000000000000000 DUP2 MSTORE PUSH1 0x4 ADD PUSH2 0x482 SWAP1 PUSH2 0x118A JUMP JUMPDEST PUSH1 0x40 MLOAD DUP1 SWAP2 SUB SWAP1 REVERT JUMPDEST PUSH0 PUSH20 0xFFFFFFFFFFFFFFFFFFFFFFFFFFFFFFFFFFFFFFFF AND PUSH0 DUP1 SLOAD SWAP1 PUSH2 0x100 EXP SWAP1 DIV PUSH20 0xFFFFFFFFFFFFFFFFFFFFFFFFFFFFFFFFFFFFFFFF AND PUSH20 0xFFFFFFFFFFFFFFFFFFFFFFFFFFFFFFFFFFFFFFFF AND SUB PUSH2 0x577 JUMPI CALLER PUSH0 DUP1 PUSH2 0x100 EXP DUP2 SLOAD DUP2 PUSH20 0xFFFFFFFFFFFFFFFFFFFFFFFFFFFFFFFFFFFFFFFF MUL NOT AND SWAP1 DUP4 PUSH20 0xFFFFFFFFFFFFFFFFFFFFFFFFFFFFFFFFFFFFFFFF AND MUL OR SWAP1 SSTORE POP PUSH0 PUSH1 0x2 DUP2 SWAP1 SSTORE POP DUP2 DUP2 PUSH1 0x40 MLOAD PUSH1 0x20 ADD PUSH2 0x536 SWAP3 SWAP2 SWAP1 PUSH2 0x11C8 JUMP JUMPDEST PUSH1 0x40 MLOAD PUSH1 0x20 DUP2 DUP4 SUB SUB DUP2 MSTORE SWAP1 PUSH1 0x40 MSTORE DUP1 MLOAD SWAP1 PUSH1 0x20 ADD KECCAK256 PUSH1 0x1 DUP2 SWAP1 SSTORE POP PUSH0 PUSH1 0x3 PUSH0 PUSH2 0x100 EXP DUP2 SLOAD DUP2 PUSH1 0xFF MUL NOT AND SWAP1 DUP4 ISZERO ISZERO MUL OR SWAP1 SSTORE POP CALLVALUE PUSH1 0x7 DUP2 SWAP1 SSTORE POP PUSH2 0x76E JUMP JUMPDEST PUSH0 PUSH20 0xFFFFFFFFFFFFFFFFFFFFFFFFFFFFFFFFFFFFFFFF AND PUSH1 0x3 PUSH1 0x1 SWAP1 SLOAD SWAP1 PUSH2 0x100 EXP SWAP1 DIV PUSH20 0xFFFFFFFFFFFFFFFFFFFFFFFFFFFFFFFFFFFFFFFF AND PUSH20 0xFFFFFFFFFFFFFFFFFFFFFFFFFFFFFFFFFFFFFFFF AND SUB PUSH2 0x732 JUMPI PUSH0 DUP1 SLOAD SWAP1 PUSH2 0x100 EXP SWAP1 DIV PUSH20 0xFFFFFFFFFFFFFFFFFFFFFFFFFFFFFFFFFFFFFFFF AND PUSH20 0xFFFFFFFFFFFFFFFFFFFFFFFFFFFFFFFFFFFFFFFF AND CALLER PUSH20 0xFFFFFFFFFFFFFFFFFFFFFFFFFFFFFFFFFFFFFFFF AND SUB PUSH2 0x659 JUMPI PUSH1 0x40 MLOAD PUSH32 0x8C379A000000000000000000000000000000000000000000000000000000000 DUP2 MSTORE PUSH1 0x4 ADD PUSH2 0x650 SWAP1 PUSH2 0x123D JUMP JUMPDEST PUSH1 0x40 MLOAD DUP1 SWAP2 SUB SWAP1 REVERT JUMPDEST PUSH1 0x7 SLOAD CALLVALUE EQ PUSH2 0x69D JUMPI PUSH1 0x40 MLOAD PUSH32 0x8C379A000000000000000000000000000000000000000000000000000000000 DUP2 MSTORE PUSH1 0x4 ADD PUSH2 0x694 SWAP1 PUSH2 0x12CB JUMP JUMPDEST PUSH1 0x40 MLOAD DUP1 SWAP2 SUB SWAP1 REVERT JUMPDEST CALLER PUSH1 0x3 PUSH1 0x1 PUSH2 0x100 EXP DUP2 SLOAD DUP2 PUSH20 0xFFFFFFFFFFFFFFFFFFFFFFFFFFFFFFFFFFFFFFFF MUL NOT AND SWAP1 DUP4 PUSH20 0xFFFFFFFFFFFFFFFFFFFFFFFFFFFFFFFFFFFFFFFF AND MUL OR SWAP1 SSTORE POP PUSH0 PUSH1 0x5 DUP2 SWAP1 SSTORE POP DUP2 DUP2 PUSH1 0x40 MLOAD PUSH1 0x20 ADD PUSH2 0x6F8 SWAP3 SWAP2 SWAP1 PUSH2 0x11C8 JUMP JUMPDEST PUSH1 0x40 MLOAD PUSH1 0x20 DUP2 DUP4 SUB SUB DUP2 MSTORE SWAP1 PUSH1 0x40 MSTORE DUP1 MLOAD SWAP1 PUSH1 0x20 ADD KECCAK256 PUSH1 0x4 DUP2 SWAP1 SSTORE POP PUSH0 PUSH1 0x6 PUSH0 PUSH2 0x100 EXP DUP2 SLOAD DUP2 PUSH1 0xFF MUL NOT AND SWAP1 DUP4 ISZERO ISZERO MUL OR SWAP1 SSTORE POP PUSH2 0x76D JUMP JUMPDEST PUSH1 0x40 MLOAD PUSH32 0x8C379A000000000000000000000000000000000000000000000000000000000 DUP2 MSTORE PUSH1 0x4 ADD PUSH2 0x764 SWAP1 PUSH2 0x1333 JUMP JUMPDEST PUSH1 0x40 MLOAD DUP1 SWAP2 SUB SWAP1 REVERT JUMPDEST JUMPDEST POP POP JUMP JUMPDEST PUSH1 0x8 PUSH1 0x14 SWAP1 SLOAD SWAP1 PUSH2 0x100 EXP SWAP1 DIV PUSH1 0xFF AND ISZERO PUSH2 0x7C2 JUMPI PUSH1 0x40 MLOAD PUSH32 0x8C379A000000000000000000000000000000000000000000000000000000000 DUP2 MSTORE PUSH1 0x4 ADD PUSH2 0x7B9 SWAP1 PUSH2 0x139B JUMP JUMPDEST PUSH1 0x40 MLOAD DUP1 SWAP2 SUB SWAP1 REVERT JUMPDEST PUSH0 DUP1 SHL PUSH1 0x1 SLOAD EQ DUP1 PUSH2 0x7D7 JUMPI POP PUSH0 DUP1 SHL PUSH1 0x4 SLOAD EQ JUMPDEST PUSH2 0x816 JUMPI PUSH1 0x40 MLOAD PUSH32 0x8C379A000000000000000000000000000000000000000000000000000000000 DUP2 MSTORE PUSH1 0x4 ADD PUSH2 0x80D SWAP1 PUSH2 0x1403 JUMP JUMPDEST PUSH1 0x40 MLOAD DUP1 SWAP2 SUB SWAP1 REVERT JUMPDEST PUSH0 DUP1 SLOAD SWAP1 PUSH2 0x100 EXP SWAP1 DIV PUSH20 0xFFFFFFFFFFFFFFFFFFFFFFFFFFFFFFFFFFFFFFFF AND PUSH20 0xFFFFFFFFFFFFFFFFFFFFFFFFFFFFFFFFFFFFFFFF AND CALLER PUSH20 0xFFFFFFFFFFFFFFFFFFFFFFFFFFFFFFFFFFFFFFFF AND SUB PUSH2 0x953 JUMPI PUSH0 ISZERO ISZERO PUSH1 0x3 PUSH0 SWAP1 SLOAD SWAP1 PUSH2 0x100 EXP SWAP1 DIV PUSH1 0xFF AND ISZERO ISZERO EQ PUSH2 0x8BC JUMPI PUSH1 0x40 MLOAD PUSH32 0x8C379A000000000000000000000000000000000000000000000000000000000 DUP2 MSTORE PUSH1 0x4 ADD PUSH2 0x8B3 SWAP1 PUSH2 0x146B JUMP JUMPDEST PUSH1 0x40 MLOAD DUP1 SWAP2 SUB SWAP1 REVERT JUMPDEST PUSH0 DUP3 DUP3 PUSH1 0x40 MLOAD PUSH1 0x20 ADD PUSH2 0x8D0 SWAP3 SWAP2 SWAP1 PUSH2 0x11C8 JUMP JUMPDEST PUSH1 0x40 MLOAD PUSH1 0x20 DUP2 DUP4 SUB SUB DUP2 MSTORE SWAP1 PUSH1 0x40 MSTORE DUP1 MLOAD SWAP1 PUSH1 0x20 ADD KECCAK256 SWAP1 POP PUSH1 0x1 SLOAD DUP2 EQ PUSH2 0x92C JUMPI PUSH1 0x40 MLOAD PUSH32 0x8C379A000000000000000000000000000000000000000000000000000000000 DUP2 MSTORE PUSH1 0x4 ADD PUSH2 0x923 SWAP1 PUSH2 0x14D3 JUMP JUMPDEST PUSH1 0x40 MLOAD DUP1 SWAP2 SUB SWAP1 REVERT JUMPDEST DUP3 PUSH1 0x2 DUP2 SWAP1 SSTORE POP PUSH1 0x1 PUSH1 0x3 PUSH0 PUSH2 0x100 EXP DUP2 SLOAD DUP2 PUSH1 0xFF MUL NOT AND SWAP1 DUP4 ISZERO ISZERO MUL OR SWAP1 SSTORE POP POP PUSH2 0xACC JUMP JUMPDEST PUSH0 DUP1 SLOAD SWAP1 PUSH2 0x100 EXP SWAP1 DIV PUSH20 0xFFFFFFFFFFFFFFFFFFFFFFFFFFFFFFFFFFFFFFFF AND PUSH20 0xFFFFFFFFFFFFFFFFFFFFFFFFFFFFFFFFFFFFFFFF AND CALLER PUSH20 0xFFFFFFFFFFFFFFFFFFFFFFFFFFFFFFFFFFFFFFFF AND SUB PUSH2 0xA90 JUMPI PUSH0 ISZERO ISZERO PUSH1 0x6 PUSH0 SWAP1 SLOAD SWAP1 PUSH2 0x100 EXP SWAP1 DIV PUSH1 0xFF AND ISZERO ISZERO EQ PUSH2 0x9F9 JUMPI PUSH1 0x40 MLOAD PUSH32 0x8C379A000000000000000000000000000000000000000000000000000000000 DUP2 MSTORE PUSH1 0x4 ADD PUSH2 0x9F0 SWAP1 PUSH2 0x146B JUMP JUMPDEST PUSH1 0x40 MLOAD DUP1 SWAP2 SUB SWAP1 REVERT JUMPDEST PUSH0 DUP3 DUP3 PUSH1 0x40 MLOAD PUSH1 0x20 ADD PUSH2 0xA0D SWAP3 SWAP2 SWAP1 PUSH2 0x11C8 JUMP JUMPDEST PUSH1 0x40 MLOAD PUSH1 0x20 DUP2 DUP4 SUB SUB DUP2 MSTORE SWAP1 PUSH1 0x40 MSTORE DUP1 MLOAD SWAP1 PUSH1 0x20 ADD KECCAK256 SWAP1 POP PUSH1 0x4 SLOAD DUP2 EQ PUSH2 0xA69 JUMPI PUSH1 0x40 MLOAD PUSH32 0x8C379A000000000000000000000000000000000000000000000000000000000 DUP2 MSTORE PUSH1 0x4 ADD PUSH2 0xA60 SWAP1 PUSH2 0x14D3 JUMP JUMPDEST PUSH1 0x40 MLOAD DUP1 SWAP2 SUB SWAP1 REVERT JUMPDEST DUP3 PUSH1 0x5 DUP2 SWAP1 SSTORE POP PUSH1 0x1 PUSH1 0x6 PUSH0 PUSH2 0x100 EXP DUP2 SLOAD DUP2 PUSH1 0xFF MUL NOT AND SWAP1 DUP4 ISZERO ISZERO MUL OR SWAP1 SSTORE POP POP PUSH2 0xACB JUMP JUMPDEST PUSH1 0x40 MLOAD PUSH32 0x8C379A000000000000000000000000000000000000000000000000000000000 DUP2 MSTORE PUSH1 0x4 ADD PUSH2 0xAC2 SWAP1 PUSH2 0x153B JUMP JUMPDEST PUSH1 0x40 MLOAD DUP1 SWAP2 SUB SWAP1 REVERT JUMPDEST JUMPDEST PUSH1 0x1 ISZERO ISZERO PUSH1 0x3 PUSH0 SWAP1 SLOAD SWAP1 PUSH2 0x100 EXP SWAP1 DIV PUSH1 0xFF AND ISZERO ISZERO EQ DUP1 ISZERO PUSH2 0xB00 JUMPI POP PUSH1 0x1 ISZERO ISZERO PUSH1 0x6 PUSH0 SWAP1 SLOAD SWAP1 PUSH2 0x100 EXP SWAP1 DIV PUSH1 0xFF AND ISZERO ISZERO EQ JUMPDEST ISZERO PUSH2 0xB70 JUMPI PUSH2 0xB0D PUSH2 0xBE4 JUMP JUMPDEST PUSH1 0x8 PUSH0 PUSH2 0x100 EXP DUP2 SLOAD DUP2 PUSH20 0xFFFFFFFFFFFFFFFFFFFFFFFFFFFFFFFFFFFFFFFF MUL NOT AND SWAP1 DUP4 PUSH20 0xFFFFFFFFFFFFFFFFFFFFFFFFFFFFFFFFFFFFFFFF AND MUL OR SWAP1 SSTORE POP PUSH1 0x1 PUSH1 0x8 PUSH1 0x14 PUSH2 0x100 EXP DUP2 SLOAD DUP2 PUSH1 0xFF MUL NOT AND SWAP1 DUP4 ISZERO ISZERO MUL OR SWAP1 SSTORE POP PUSH2 0xB6F PUSH2 0xC96 JUMP JUMPDEST JUMPDEST POP POP JUMP JUMPDEST PUSH0 DUP1 SLOAD SWAP1 PUSH2 0x100 EXP SWAP1 DIV PUSH20 0xFFFFFFFFFFFFFFFFFFFFFFFFFFFFFFFFFFFFFFFF AND DUP2 JUMP JUMPDEST PUSH1 0x1 SLOAD DUP2 JUMP JUMPDEST PUSH1 0x8 PUSH1 0x14 SWAP1 SLOAD SWAP1 PUSH2 0x100 EXP SWAP1 DIV PUSH1 0xFF AND DUP2 JUMP JUMPDEST PUSH1 0x3 DUP2 JUMP JUMPDEST PUSH1 0x1 DUP2 JUMP JUMPDEST PUSH1 0x2 DUP2 JUMP JUMPDEST PUSH1 0x8 PUSH0 SWAP1 SLOAD SWAP1 PUSH2 0x100 EXP SWAP1 DIV PUSH20 0xFFFFFFFFFFFFFFFFFFFFFFFFFFFFFFFFFFFFFFFF AND DUP2 JUMP JUMPDEST PUSH0 PUSH1 0x5 SLOAD PUSH1 0x2 SLOAD SUB PUSH2 0xBF8 JUMPI PUSH0 SWAP1 POP PUSH2 0xC93 JUMP JUMPDEST PUSH1 0x1 PUSH1 0x2 SLOAD EQ DUP1 ISZERO PUSH2 0xC0C JUMPI POP PUSH1 0x3 PUSH1 0x5 SLOAD EQ JUMPDEST DUP1 PUSH2 0xC26 JUMPI POP PUSH1 0x2 DUP1 SLOAD EQ DUP1 ISZERO PUSH2 0xC25 JUMPI POP PUSH1 0x1 PUSH1 0x5 SLOAD EQ JUMPDEST JUMPDEST DUP1 PUSH2 0xC41 JUMPI POP PUSH1 0x3 PUSH1 0x2 SLOAD EQ DUP1 ISZERO PUSH2 0xC40 JUMPI POP PUSH1 0x2 PUSH1 0x5 SLOAD EQ JUMPDEST JUMPDEST ISZERO PUSH2 0xC6D JUMPI PUSH0 DUP1 SLOAD SWAP1 PUSH2 0x100 EXP SWAP1 DIV PUSH20 0xFFFFFFFFFFFFFFFFFFFFFFFFFFFFFFFFFFFFFFFF AND SWAP1 POP PUSH2 0xC93 JUMP JUMPDEST PUSH1 0x3 PUSH1 0x1 SWAP1 SLOAD SWAP1 PUSH2 0x100 EXP SWAP1 DIV PUSH20 0xFFFFFFFFFFFFFFFFFFFFFFFFFFFFFFFFFFFFFFFF AND SWAP1 POP JUMPDEST SWAP1 JUMP JUMPDEST PUSH0 PUSH20 0xFFFFFFFFFFFFFFFFFFFFFFFFFFFFFFFFFFFFFFFF AND PUSH1 0x8 PUSH0 SWAP1 SLOAD SWAP1 PUSH2 0x100 EXP SWAP1 DIV PUSH20 0xFFFFFFFFFFFFFFFFFFFFFFFFFFFFFFFFFFFFFFFF AND PUSH20 0xFFFFFFFFFFFFFFFFFFFFFFFFFFFFFFFFFFFFFFFF AND SUB PUSH2 0xDBC JUMPI PUSH0 DUP1 SLOAD SWAP1 PUSH2 0x100 EXP SWAP1 DIV PUSH20 0xFFFFFFFFFFFFFFFFFFFFFFFFFFFFFFFFFFFFFFFF AND PUSH20 0xFFFFFFFFFFFFFFFFFFFFFFFFFFFFFFFFFFFFFFFF AND PUSH2 0x8FC PUSH1 0x7 SLOAD SWAP1 DUP2 ISZERO MUL SWAP1 PUSH1 0x40 MLOAD PUSH0 PUSH1 0x40 MLOAD DUP1 DUP4 SUB DUP2 DUP6 DUP9 DUP9 CALL SWAP4 POP POP POP POP ISZERO DUP1 ISZERO PUSH2 0xD4E JUMPI RETURNDATASIZE PUSH0 DUP1 RETURNDATACOPY RETURNDATASIZE PUSH0 REVERT JUMPDEST POP PUSH1 0x3 PUSH1 0x1 SWAP1 SLOAD SWAP1 PUSH2 0x100 EXP SWAP1 DIV PUSH20 0xFFFFFFFFFFFFFFFFFFFFFFFFFFFFFFFFFFFFFFFF AND PUSH20 0xFFFFFFFFFFFFFFFFFFFFFFFFFFFFFFFFFFFFFFFF AND PUSH2 0x8FC PUSH1 0x7 SLOAD SWAP1 DUP2 ISZERO MUL SWAP1 PUSH1 0x40 MLOAD PUSH0 PUSH1 0x40 MLOAD DUP1 DUP4 SUB DUP2 DUP6 DUP9 DUP9 CALL SWAP4 POP POP POP POP ISZERO DUP1 ISZERO PUSH2 0xDB6 JUMPI RETURNDATASIZE PUSH0 DUP1 RETURNDATACOPY RETURNDATASIZE PUSH0 REVERT JUMPDEST POP PUSH2 0xE30 JUMP JUMPDEST PUSH1 0x8 PUSH0 SWAP1 SLOAD SWAP1 PUSH2 0x100 EXP SWAP1 DIV PUSH20 0xFFFFFFFFFFFFFFFFFFFFFFFFFFFFFFFFFFFFFFFF AND PUSH20 0xFFFFFFFFFFFFFFFFFFFFFFFFFFFFFFFFFFFFFFFF AND PUSH2 0x8FC PUSH1 0x2 PUSH1 0x7 SLOAD PUSH2 0xE06 SWAP2 SWAP1 PUSH2 0x1586 JUMP JUMPDEST SWAP1 DUP2 ISZERO MUL SWAP1 PUSH1 0x40 MLOAD PUSH0 PUSH1 0x40 MLOAD DUP1 DUP4 SUB DUP2 DUP6 DUP9 DUP9 CALL SWAP4 POP POP POP POP ISZERO DUP1 ISZERO PUSH2 0xE2E JUMPI RETURNDATASIZE PUSH0 DUP1 RETURNDATACOPY RETURNDATASIZE PUSH0 REVERT JUMPDEST POP JUMPDEST PUSH2 0xE38 PUSH2 0xE3A JUMP JUMPDEST JUMP JUMPDEST PUSH0 DUP1 PUSH0 PUSH2 0x100 EXP DUP2 SLOAD DUP2 PUSH20 0xFFFFFFFFFFFFFFFFFFFFFFFFFFFFFFFFFFFFFFFF MUL NOT AND SWAP1 DUP4 PUSH20 0xFFFFFFFFFFFFFFFFFFFFFFFFFFFFFFFFFFFFFFFF AND MUL OR SWAP1 SSTORE POP PUSH0 DUP1 SHL PUSH1 0x1 DUP2 SWAP1 SSTORE POP PUSH0 PUSH1 0x2 DUP2 SWAP1 SSTORE POP PUSH0 PUSH1 0x3 PUSH0 PUSH2 0x100 EXP DUP2 SLOAD DUP2 PUSH1 0xFF MUL NOT AND SWAP1 DUP4 ISZERO ISZERO MUL OR SWAP1 SSTORE POP PUSH0 PUSH1 0x3 PUSH1 0x1 PUSH2 0x100 EXP DUP2 SLOAD DUP2 PUSH20 0xFFFFFFFFFFFFFFFFFFFFFFFFFFFFFFFFFFFFFFFF MUL NOT AND SWAP1 DUP4 PUSH20 0xFFFFFFFFFFFFFFFFFFFFFFFFFFFFFFFFFFFFFFFF AND MUL OR SWAP1 SSTORE POP PUSH0 DUP1 SHL PUSH1 0x4 DUP2 SWAP1 SSTORE POP PUSH0 PUSH1 0x5 DUP2 SWAP1 SSTORE POP PUSH0 PUSH1 0x6 PUSH0 PUSH2 0x100 EXP DUP2 SLOAD DUP2 PUSH1 0xFF MUL NOT AND SWAP1 DUP4 ISZERO ISZERO MUL OR SWAP1 SSTORE POP PUSH0 PUSH1 0x7 DUP2 SWAP1 SSTORE POP PUSH0 PUSH1 0x8 PUSH0 PUSH2 0x100 EXP DUP2 SLOAD DUP2 PUSH20 0xFFFFFFFFFFFFFFFFFFFFFFFFFFFFFFFFFFFFFFFF MUL NOT AND SWAP1 DUP4 PUSH20 0xFFFFFFFFFFFFFFFFFFFFFFFFFFFFFFFFFFFFFFFF AND MUL OR SWAP1 SSTORE POP PUSH0 PUSH1 0x8 PUSH1 0x14 PUSH2 0x100 EXP DUP2 SLOAD DUP2 PUSH1 0xFF MUL NOT AND SWAP1 DUP4 ISZERO ISZERO MUL OR SWAP1 SSTORE POP JUMP JUMPDEST PUSH0 DUP2 SWAP1 POP SWAP2 SWAP1 POP JUMP JUMPDEST PUSH2 0xF81 DUP2 PUSH2 0xF6F JUMP JUMPDEST DUP3 MSTORE POP POP JUMP JUMPDEST PUSH0 PUSH1 0x20 DUP3 ADD SWAP1 POP PUSH2 0xF9A PUSH0 DUP4 ADD DUP5 PUSH2 0xF78 JUMP JUMPDEST SWAP3 SWAP2 POP POP JUMP JUMPDEST PUSH0 DUP2 ISZERO ISZERO SWAP1 POP SWAP2 SWAP1 POP JUMP JUMPDEST PUSH2 0xFB4 DUP2 PUSH2 0xFA0 JUMP JUMPDEST DUP3 MSTORE POP POP JUMP JUMPDEST PUSH0 PUSH1 0x20 DUP3 ADD SWAP1 POP PUSH2 0xFCD PUSH0 DUP4 ADD DUP5 PUSH2 0xFAB JUMP JUMPDEST SWAP3 SWAP2 POP POP JUMP JUMPDEST PUSH0 PUSH20 0xFFFFFFFFFFFFFFFFFFFFFFFFFFFFFFFFFFFFFFFF DUP3 AND SWAP1 POP SWAP2 SWAP1 POP JUMP JUMPDEST PUSH0 PUSH2 0xFFC DUP3 PUSH2 0xFD3 JUMP JUMPDEST SWAP1 POP SWAP2 SWAP1 POP JUMP JUMPDEST PUSH2 0x100C DUP2 PUSH2 0xFF2 JUMP JUMPDEST DUP3 MSTORE POP POP JUMP JUMPDEST PUSH0 PUSH1 0x20 DUP3 ADD SWAP1 POP PUSH2 0x1025 PUSH0 DUP4 ADD DUP5 PUSH2 0x1003 JUMP JUMPDEST SWAP3 SWAP2 POP POP JUMP JUMPDEST PUSH0 DUP2 SWAP1 POP SWAP2 SWAP1 POP JUMP JUMPDEST PUSH2 0x103D DUP2 PUSH2 0x102B JUMP JUMPDEST DUP3 MSTORE POP POP JUMP JUMPDEST PUSH0 PUSH1 0x20 DUP3 ADD SWAP1 POP PUSH2 0x1056 PUSH0 DUP4 ADD DUP5 PUSH2 0x1034 JUMP JUMPDEST SWAP3 SWAP2 POP POP JUMP JUMPDEST PUSH0 DUP1 REVERT JUMPDEST PUSH2 0x1069 DUP2 PUSH2 0xF6F JUMP JUMPDEST DUP2 EQ PUSH2 0x1073 JUMPI PUSH0 DUP1 REVERT JUMPDEST POP JUMP JUMPDEST PUSH0 DUP2 CALLDATALOAD SWAP1 POP PUSH2 0x1084 DUP2 PUSH2 0x1060 JUMP JUMPDEST SWAP3 SWAP2 POP POP JUMP JUMPDEST PUSH0 DUP1 PUSH1 0x40 DUP4 DUP6 SUB SLT ISZERO PUSH2 0x10A0 JUMPI PUSH2 0x109F PUSH2 0x105C JUMP JUMPDEST JUMPDEST PUSH0 PUSH2 0x10AD DUP6 DUP3 DUP7 ADD PUSH2 0x1076 JUMP JUMPDEST SWAP3 POP POP PUSH1 0x20 PUSH2 0x10BE DUP6 DUP3 DUP7 ADD PUSH2 0x1076 JUMP JUMPDEST SWAP2 POP POP SWAP3 POP SWAP3 SWAP1 POP JUMP JUMPDEST PUSH0 DUP3 DUP3 MSTORE PUSH1 0x20 DUP3 ADD SWAP1 POP SWAP3 SWAP2 POP POP JUMP JUMPDEST PUSH32 0x426574206D757374206265206F76657220312065746865720000000000000000 PUSH0 DUP3 ADD MSTORE POP JUMP JUMPDEST PUSH0 PUSH2 0x110C PUSH1 0x18 DUP4 PUSH2 0x10C8 JUMP JUMPDEST SWAP2 POP PUSH2 0x1117 DUP3 PUSH2 0x10D8 JUMP JUMPDEST PUSH1 0x20 DUP3 ADD SWAP1 POP SWAP2 SWAP1 POP JUMP JUMPDEST PUSH0 PUSH1 0x20 DUP3 ADD SWAP1 POP DUP2 DUP2 SUB PUSH0 DUP4 ADD MSTORE PUSH2 0x1139 DUP2 PUSH2 0x1100 JUMP JUMPDEST SWAP1 POP SWAP2 SWAP1 POP JUMP JUMPDEST PUSH32 0x496E76616C6964204D6F76650000000000000000000000000000000000000000 PUSH0 DUP3 ADD MSTORE POP JUMP JUMPDEST PUSH0 PUSH2 0x1174 PUSH1 0xC DUP4 PUSH2 0x10C8 JUMP JUMPDEST SWAP2 POP PUSH2 0x117F DUP3 PUSH2 0x1140 JUMP JUMPDEST PUSH1 0x20 DUP3 ADD SWAP1 POP SWAP2 SWAP1 POP JUMP JUMPDEST PUSH0 PUSH1 0x20 DUP3 ADD SWAP1 POP DUP2 DUP2 SUB PUSH0 DUP4 ADD MSTORE PUSH2 0x11A1 DUP2 PUSH2 0x1168 JUMP JUMPDEST SWAP1 POP SWAP2 SWAP1 POP JUMP JUMPDEST PUSH0 DUP2 SWAP1 POP SWAP2 SWAP1 POP JUMP JUMPDEST PUSH2 0x11C2 PUSH2 0x11BD DUP3 PUSH2 0xF6F JUMP JUMPDEST PUSH2 0x11A8 JUMP JUMPDEST DUP3 MSTORE POP POP JUMP JUMPDEST PUSH0 PUSH2 0x11D3 DUP3 DUP6 PUSH2 0x11B1 JUMP JUMPDEST PUSH1 0x20 DUP3 ADD SWAP2 POP PUSH2 0x11E3 DUP3 DUP5 PUSH2 0x11B1 JUMP JUMPDEST PUSH1 0x20 DUP3 ADD SWAP2 POP DUP2 SWAP1 POP SWAP4 SWAP3 POP POP POP JUMP JUMPDEST PUSH32 0x53616D6520706C617965722063616E6E6F74206A6F696E207468652067616D65 PUSH0 DUP3 ADD MSTORE POP JUMP JUMPDEST PUSH0 PUSH2 0x1227 PUSH1 0x20 DUP4 PUSH2 0x10C8 JUMP JUMPDEST SWAP2 POP PUSH2 0x1232 DUP3 PUSH2 0x11F3 JUMP JUMPDEST PUSH1 0x20 DUP3 ADD SWAP1 POP SWAP2 SWAP1 POP JUMP JUMPDEST PUSH0 PUSH1 0x20 DUP3 ADD SWAP1 POP DUP2 DUP2 SUB PUSH0 DUP4 ADD MSTORE PUSH2 0x1254 DUP2 PUSH2 0x121B JUMP JUMPDEST SWAP1 POP SWAP2 SWAP1 POP JUMP JUMPDEST PUSH32 0x4D757374206D6174636820746865207374616B65206F6620666972737420706C PUSH0 DUP3 ADD MSTORE PUSH32 0x6179657200000000000000000000000000000000000000000000000000000000 PUSH1 0x20 DUP3 ADD MSTORE POP JUMP JUMPDEST PUSH0 PUSH2 0x12B5 PUSH1 0x24 DUP4 PUSH2 0x10C8 JUMP JUMPDEST SWAP2 POP PUSH2 0x12C0 DUP3 PUSH2 0x125B JUMP JUMPDEST PUSH1 0x40 DUP3 ADD SWAP1 POP SWAP2 SWAP1 POP JUMP JUMPDEST PUSH0 PUSH1 0x20 DUP3 ADD SWAP1 POP DUP2 DUP2 SUB PUSH0 DUP4 ADD MSTORE PUSH2 0x12E2 DUP2 PUSH2 0x12A9 JUMP JUMPDEST SWAP1 POP SWAP2 SWAP1 POP JUMP JUMPDEST PUSH32 0x46756C6C2067616D650000000000000000000000000000000000000000000000 PUSH0 DUP3 ADD MSTORE POP JUMP JUMPDEST PUSH0 PUSH2 0x131D PUSH1 0x9 DUP4 PUSH2 0x10C8 JUMP JUMPDEST SWAP2 POP PUSH2 0x1328 DUP3 PUSH2 0x12E9 JUMP JUMPDEST PUSH1 0x20 DUP3 ADD SWAP1 POP SWAP2 SWAP1 POP JUMP JUMPDEST PUSH0 PUSH1 0x20 DUP3 ADD SWAP1 POP DUP2 DUP2 SUB PUSH0 DUP4 ADD MSTORE PUSH2 0x134A DUP2 PUSH2 0x1311 JUMP JUMPDEST SWAP1 POP SWAP2 SWAP1 POP JUMP JUMPDEST PUSH32 0x67616D6520697320616C726561647920646F6E65000000000000000000000000 PUSH0 DUP3 ADD MSTORE POP JUMP JUMPDEST PUSH0 PUSH2 0x1385 PUSH1 0x14 DUP4 PUSH2 0x10C8 JUMP JUMPDEST SWAP2 POP PUSH2 0x1390 DUP3 PUSH2 0x1351 JUMP JUMPDEST PUSH1 0x20 DUP3 ADD SWAP1 POP SWAP2 SWAP1 POP JUMP JUMPDEST PUSH0 PUSH1 0x20 DUP3 ADD SWAP1 POP DUP2 DUP2 SUB PUSH0 DUP4 ADD MSTORE PUSH2 0x13B2 DUP2 PUSH2 0x1379 JUMP JUMPDEST SWAP1 POP SWAP2 SWAP1 POP JUMP JUMPDEST PUSH32 0x426F746820706C6179657273206E65656420746F20766F746520666972737400 PUSH0 DUP3 ADD MSTORE POP JUMP JUMPDEST PUSH0 PUSH2 0x13ED PUSH1 0x1F DUP4 PUSH2 0x10C8 JUMP JUMPDEST SWAP2 POP PUSH2 0x13F8 DUP3 PUSH2 0x13B9 JUMP JUMPDEST PUSH1 0x20 DUP3 ADD SWAP1 POP SWAP2 SWAP1 POP JUMP JUMPDEST PUSH0 PUSH1 0x20 DUP3 ADD SWAP1 POP DUP2 DUP2 SUB PUSH0 DUP4 ADD MSTORE PUSH2 0x141A DUP2 PUSH2 0x13E1 JUMP JUMPDEST SWAP1 POP SWAP2 SWAP1 POP JUMP JUMPDEST PUSH32 0x596F75206861766520616C72656164792072657665616C656400000000000000 PUSH0 DUP3 ADD MSTORE POP JUMP JUMPDEST PUSH0 PUSH2 0x1455 PUSH1 0x19 DUP4 PUSH2 0x10C8 JUMP JUMPDEST SWAP2 POP PUSH2 0x1460 DUP3 PUSH2 0x1421 JUMP JUMPDEST PUSH1 0x20 DUP3 ADD SWAP1 POP SWAP2 SWAP1 POP JUMP JUMPDEST PUSH0 PUSH1 0x20 DUP3 ADD SWAP1 POP DUP2 DUP2 SUB PUSH0 DUP4 ADD MSTORE PUSH2 0x1482 DUP2 PUSH2 0x1449 JUMP JUMPDEST SWAP1 POP SWAP2 SWAP1 POP JUMP JUMPDEST PUSH32 0x496E76616C69642072657665616C000000000000000000000000000000000000 PUSH0 DUP3 ADD MSTORE POP JUMP JUMPDEST PUSH0 PUSH2 0x14BD PUSH1 0xE DUP4 PUSH2 0x10C8 JUMP JUMPDEST SWAP2 POP PUSH2 0x14C8 DUP3 PUSH2 0x1489 JUMP JUMPDEST PUSH1 0x20 DUP3 ADD SWAP1 POP SWAP2 SWAP1 POP JUMP JUMPDEST PUSH0 PUSH1 0x20 DUP3 ADD SWAP1 POP DUP2 DUP2 SUB PUSH0 DUP4 ADD MSTORE PUSH2 0x14EA DUP2 PUSH2 0x14B1 JUMP JUMPDEST SWAP1 POP SWAP2 SWAP1 POP JUMP JUMPDEST PUSH32 0x43616E206E6F742066696E6420706C6179657200000000000000000000000000 PUSH0 DUP3 ADD MSTORE POP JUMP JUMPDEST PUSH0 PUSH2 0x1525 PUSH1 0x13 DUP4 PUSH2 0x10C8 JUMP JUMPDEST SWAP2 POP PUSH2 0x1530 DUP3 PUSH2 0x14F1 JUMP JUMPDEST PUSH1 0x20 DUP3 ADD SWAP1 POP SWAP2 SWAP1 POP JUMP JUMPDEST PUSH0 PUSH1 0x20 DUP3 ADD SWAP1 POP DUP2 DUP2 SUB PUSH0 DUP4 ADD MSTORE PUSH2 0x1552 DUP2 PUSH2 0x1519 JUMP JUMPDEST SWAP1 POP SWAP2 SWAP1 POP JUMP JUMPDEST PUSH32 0x4E487B7100000000000000000000000000000000000000000000000000000000 PUSH0 MSTORE PUSH1 0x11 PUSH1 0x4 MSTORE PUSH1 0x24 PUSH0 REVERT JUMPDEST PUSH0 PUSH2 0x1590 DUP3 PUSH2 0xF6F JUMP JUMPDEST SWAP2 POP PUSH2 0x159B DUP4 PUSH2 0xF6F JUMP JUMPDEST SWAP3 POP DUP3 DUP3 MUL PUSH2 0x15A9 DUP2 PUSH2 0xF6F JUMP JUMPDEST SWAP2 POP DUP3 DUP3 DIV DUP5 EQ DUP4 ISZERO OR PUSH2 0x15C0 JUMPI PUSH2 0x15BF PUSH2 0x1559 JUMP JUMPDEST JUMPDEST POP SWAP3 SWAP2 POP POP JUMP INVALID LOG2 PUSH5 0x6970667358 0x22 SLT KECCAK256 0xEC PUSH25 0x4C808B80DB275647571374FF1C98575CFAB83BBE4BAB8020F0 0xAC SELFBALANCE 0x26 0xFC DUP9 PUSH5 0x736F6C6343 STOP ADDMOD NOT STOP CALLER "
				},
				"gasEstimates": {
					"creation": {
						"codeDepositCost": "1125800",
						"executionCost": "1165",
						"totalCost": "1126965"
					},
					"external": {
						"PAPER()": "391",
						"ROCK()": "369",
						"SCISSORS()": "347",
						"gameDone()": "2606",
						"play(uint256,uint256)": "infinite",
						"playerA()": "2550",
						"playerAEncVote()": "2492",
						"playerARevealed()": "2489",
						"playerAVote()": "2449",
						"playerB()": "2627",
						"playerBEncVote()": "2470",
						"playerBRevealed()": "2512",
						"playerBVote()": "2492",
						"reveal(uint256,uint256)": "infinite",
						"stake()": "2515",
						"winner()": "2596"
					},
					"internal": {
						"findWinner()": "19207",
						"resetGame()": "170778",
						"withdraw()": "infinite"
					}
				},
				"methodIdentifiers": {
					"PAPER()": "c44d6f87",
					"ROCK()": "b93e0e39",
					"SCISSORS()": "b357a028",
					"gameDone()": "b0d74a39",
					"play(uint256,uint256)": "7bc49a95",
					"playerA()": "a285c54a",
					"playerAEncVote()": "b040905b",
					"playerARevealed()": "3e9feea7",
					"playerAVote()": "0062388e",
					"playerB()": "11bb1537",
					"playerBEncVote()": "560b3986",
					"playerBRevealed()": "05ca5dda",
					"playerBVote()": "7ba9f72e",
					"reveal(uint256,uint256)": "9348cef7",
					"stake()": "3a4b66f1",
					"winner()": "dfbf53ae"
				}
			},
			"storageLayout": {
				"storage": [
					{
						"astId": 12,
						"contract": "contracts/lab01_2.sol:RockPaperScissors",
						"label": "playerA",
						"offset": 0,
						"slot": "0",
						"type": "t_address"
					},
					{
						"astId": 14,
						"contract": "contracts/lab01_2.sol:RockPaperScissors",
						"label": "playerAEncVote",
						"offset": 0,
						"slot": "1",
						"type": "t_bytes32"
					},
					{
						"astId": 16,
						"contract": "contracts/lab01_2.sol:RockPaperScissors",
						"label": "playerAVote",
						"offset": 0,
						"slot": "2",
						"type": "t_uint256"
					},
					{
						"astId": 18,
						"contract": "contracts/lab01_2.sol:RockPaperScissors",
						"label": "playerARevealed",
						"offset": 0,
						"slot": "3",
						"type": "t_bool"
					},
					{
						"astId": 20,
						"contract": "contracts/lab01_2.sol:RockPaperScissors",
						"label": "playerB",
						"offset": 1,
						"slot": "3",
						"type": "t_address"
					},
					{
						"astId": 22,
						"contract": "contracts/lab01_2.sol:RockPaperScissors",
						"label": "playerBEncVote",
						"offset": 0,
						"slot": "4",
						"type": "t_bytes32"
					},
					{
						"astId": 24,
						"contract": "contracts/lab01_2.sol:RockPaperScissors",
						"label": "playerBVote",
						"offset": 0,
						"slot": "5",
						"type": "t_uint256"
					},
					{
						"astId": 26,
						"contract": "contracts/lab01_2.sol:RockPaperScissors",
						"label": "playerBRevealed",
						"offset": 0,
						"slot": "6",
						"type": "t_bool"
					},
					{
						"astId": 28,
						"contract": "contracts/lab01_2.sol:RockPaperScissors",
						"label": "stake",
						"offset": 0,
						"slot": "7",
						"type": "t_uint256"
					},
					{
						"astId": 30,
						"contract": "contracts/lab01_2.sol:RockPaperScissors",
						"label": "winner",
						"offset": 0,
						"slot": "8",
						"type": "t_address"
					},
					{
						"astId": 32,
						"contract": "contracts/lab01_2.sol:RockPaperScissors",
						"label": "gameDone",
						"offset": 20,
						"slot": "8",
						"type": "t_bool"
					}
				],
				"types": {
					"t_address": {
						"encoding": "inplace",
						"label": "address",
						"numberOfBytes": "20"
					},
					"t_bool": {
						"encoding": "inplace",
						"label": "bool",
						"numberOfBytes": "1"
					},
					"t_bytes32": {
						"encoding": "inplace",
						"label": "bytes32",
						"numberOfBytes": "32"
					},
					"t_uint256": {
						"encoding": "inplace",
						"label": "uint256",
						"numberOfBytes": "32"
					}
				}
			},
			"userdoc": {
				"kind": "user",
				"methods": {},
				"version": 1
			}
		}
	}
}