{
	"contracts/lab01_2.sol": {
		"RockPaperScissors": {
			"abi": [
				{
					"anonymous": false,
					"inputs": [
						{
							"indexed": false,
							"internalType": "address",
							"name": "addr",
							"type": "address"
						},
						{
							"indexed": false,
							"internalType": "bytes32",
							"name": "encVote",
							"type": "bytes32"
						}
					],
					"name": "playEvent",
					"type": "event"
				},
				{
					"anonymous": false,
					"inputs": [
						{
							"indexed": false,
							"internalType": "address",
							"name": "addr",
							"type": "address"
						},
						{
							"indexed": false,
							"internalType": "uint256",
							"name": "Vote",
							"type": "uint256"
						}
					],
					"name": "revealEvent",
					"type": "event"
				},
				{
					"anonymous": false,
					"inputs": [
						{
							"indexed": false,
							"internalType": "address",
							"name": "addr",
							"type": "address"
						},
						{
							"indexed": false,
							"internalType": "uint256",
							"name": "amount",
							"type": "uint256"
						}
					],
					"name": "withdrawEvent",
					"type": "event"
				},
				{
					"inputs": [],
					"name": "PAPER",
					"outputs": [
						{
							"internalType": "uint256",
							"name": "",
							"type": "uint256"
						}
					],
					"stateMutability": "view",
					"type": "function"
				},
				{
					"inputs": [],
					"name": "ROCK",
					"outputs": [
						{
							"internalType": "uint256",
							"name": "",
							"type": "uint256"
						}
					],
					"stateMutability": "view",
					"type": "function"
				},
				{
					"inputs": [],
					"name": "SCISSORS",
					"outputs": [
						{
							"internalType": "uint256",
							"name": "",
							"type": "uint256"
						}
					],
					"stateMutability": "view",
					"type": "function"
				},
				{
					"inputs": [],
					"name": "forceWin",
					"outputs": [],
					"stateMutability": "nonpayable",
					"type": "function"
				},
				{
					"inputs": [],
					"name": "gameDone",
					"outputs": [
						{
							"internalType": "bool",
							"name": "",
							"type": "bool"
						}
					],
					"stateMutability": "view",
					"type": "function"
				},
				{
					"inputs": [
						{
							"internalType": "bytes32",
							"name": "_hashedVote",
							"type": "bytes32"
						}
					],
					"name": "play",
					"outputs": [],
					"stateMutability": "payable",
					"type": "function"
				},
				{
					"inputs": [],
					"name": "playerA",
					"outputs": [
						{
							"internalType": "address",
							"name": "",
							"type": "address"
						}
					],
					"stateMutability": "view",
					"type": "function"
				},
				{
					"inputs": [],
					"name": "playerAEncVote",
					"outputs": [
						{
							"internalType": "bytes32",
							"name": "",
							"type": "bytes32"
						}
					],
					"stateMutability": "view",
					"type": "function"
				},
				{
					"inputs": [],
					"name": "playerARevealed",
					"outputs": [
						{
							"internalType": "bool",
							"name": "",
							"type": "bool"
						}
					],
					"stateMutability": "view",
					"type": "function"
				},
				{
					"inputs": [],
					"name": "playerAVote",
					"outputs": [
						{
							"internalType": "uint256",
							"name": "",
							"type": "uint256"
						}
					],
					"stateMutability": "view",
					"type": "function"
				},
				{
					"inputs": [],
					"name": "playerB",
					"outputs": [
						{
							"internalType": "address",
							"name": "",
							"type": "address"
						}
					],
					"stateMutability": "view",
					"type": "function"
				},
				{
					"inputs": [],
					"name": "playerBEncVote",
					"outputs": [
						{
							"internalType": "bytes32",
							"name": "",
							"type": "bytes32"
						}
					],
					"stateMutability": "view",
					"type": "function"
				},
				{
					"inputs": [],
					"name": "playerBRevealed",
					"outputs": [
						{
							"internalType": "bool",
							"name": "",
							"type": "bool"
						}
					],
					"stateMutability": "view",
					"type": "function"
				},
				{
					"inputs": [],
					"name": "playerBVote",
					"outputs": [
						{
							"internalType": "uint256",
							"name": "",
							"type": "uint256"
						}
					],
					"stateMutability": "view",
					"type": "function"
				},
				{
					"inputs": [],
					"name": "resetGame",
					"outputs": [],
					"stateMutability": "nonpayable",
					"type": "function"
				},
				{
					"inputs": [
						{
							"internalType": "uint256",
							"name": "_move",
							"type": "uint256"
						},
						{
							"internalType": "uint256",
							"name": "salt",
							"type": "uint256"
						}
					],
					"name": "reveal",
					"outputs": [],
					"stateMutability": "nonpayable",
					"type": "function"
				},
				{
					"inputs": [],
					"name": "revealDeadline",
					"outputs": [
						{
							"internalType": "uint256",
							"name": "",
							"type": "uint256"
						}
					],
					"stateMutability": "view",
					"type": "function"
				},
				{
					"inputs": [],
					"name": "stake",
					"outputs": [
						{
							"internalType": "uint256",
							"name": "",
							"type": "uint256"
						}
					],
					"stateMutability": "view",
					"type": "function"
				},
				{
					"inputs": [],
					"name": "winner",
					"outputs": [
						{
							"internalType": "address",
							"name": "",
							"type": "address"
						}
					],
					"stateMutability": "view",
					"type": "function"
				},
				{
					"inputs": [],
					"name": "withdraw",
					"outputs": [],
					"stateMutability": "nonpayable",
					"type": "function"
				}
			],
			"devdoc": {
				"kind": "dev",
				"methods": {},
				"version": 1
			},
			"evm": {
				"assembly": "    /* \"contracts/lab01_2.sol\":72:5370  contract RockPaperScissors {... */\n  mstore(0x40, 0x80)\n    /* \"contracts/lab01_2.sol\":709:710  0 */\n  0x00\n    /* \"contracts/lab01_2.sol\":677:710  uint256 public revealDeadline = 0 */\n  0x09\n  sstore\n    /* \"contracts/lab01_2.sol\":72:5370  contract RockPaperScissors {... */\n  callvalue\n  dup1\n  iszero\n  tag_1\n  jumpi\n  0x00\n  dup1\n  revert\ntag_1:\n  pop\n  dataSize(sub_0)\n  dup1\n  dataOffset(sub_0)\n  0x00\n  codecopy\n  0x00\n  return\nstop\n\nsub_0: assembly {\n        /* \"contracts/lab01_2.sol\":72:5370  contract RockPaperScissors {... */\n      mstore(0x40, 0x80)\n      jumpi(tag_1, lt(calldatasize, 0x04))\n      shr(0xe0, calldataload(0x00))\n      dup1\n      0xad622811\n      gt\n      tag_22\n      jumpi\n      dup1\n      0xb93e0e39\n      gt\n      tag_23\n      jumpi\n      dup1\n      0xb93e0e39\n      eq\n      tag_17\n      jumpi\n      dup1\n      0xbb472219\n      eq\n      tag_18\n      jumpi\n      dup1\n      0xc44d6f87\n      eq\n      tag_19\n      jumpi\n      dup1\n      0xc7a1865b\n      eq\n      tag_20\n      jumpi\n      dup1\n      0xdfbf53ae\n      eq\n      tag_21\n      jumpi\n      jump(tag_1)\n    tag_23:\n      dup1\n      0xad622811\n      eq\n      tag_12\n      jumpi\n      dup1\n      0xb040905b\n      eq\n      tag_13\n      jumpi\n      dup1\n      0xb0d74a39\n      eq\n      tag_14\n      jumpi\n      dup1\n      0xb14b28a3\n      eq\n      tag_15\n      jumpi\n      dup1\n      0xb357a028\n      eq\n      tag_16\n      jumpi\n      jump(tag_1)\n    tag_22:\n      dup1\n      0x3e9feea7\n      gt\n      tag_24\n      jumpi\n      dup1\n      0x3e9feea7\n      eq\n      tag_7\n      jumpi\n      dup1\n      0x560b3986\n      eq\n      tag_8\n      jumpi\n      dup1\n      0x7ba9f72e\n      eq\n      tag_9\n      jumpi\n      dup1\n      0x9348cef7\n      eq\n      tag_10\n      jumpi\n      dup1\n      0xa285c54a\n      eq\n      tag_11\n      jumpi\n      jump(tag_1)\n    tag_24:\n      dup1\n      0x62388e\n      eq\n      tag_2\n      jumpi\n      dup1\n      0x05ca5dda\n      eq\n      tag_3\n      jumpi\n      dup1\n      0x11bb1537\n      eq\n      tag_4\n      jumpi\n      dup1\n      0x3a4b66f1\n      eq\n      tag_5\n      jumpi\n      dup1\n      0x3ccfd60b\n      eq\n      tag_6\n      jumpi\n    tag_1:\n      0x00\n      dup1\n      revert\n        /* \"contracts/lab01_2.sol\":337:363  uint256 public playerAVote */\n    tag_2:\n      callvalue\n      dup1\n      iszero\n      tag_25\n      jumpi\n      0x00\n      dup1\n      revert\n    tag_25:\n      pop\n      tag_26\n      tag_27\n      jump\t// in\n    tag_26:\n      mload(0x40)\n      tag_28\n      swap2\n      swap1\n      tag_29\n      jump\t// in\n    tag_28:\n      mload(0x40)\n      dup1\n      swap2\n      sub\n      swap1\n      return\n        /* \"contracts/lab01_2.sol\":532:559  bool public playerBRevealed */\n    tag_3:\n      callvalue\n      dup1\n      iszero\n      tag_30\n      jumpi\n      0x00\n      dup1\n      revert\n    tag_30:\n      pop\n      tag_31\n      tag_32\n      jump\t// in\n    tag_31:\n      mload(0x40)\n      tag_33\n      swap2\n      swap1\n      tag_34\n      jump\t// in\n    tag_33:\n      mload(0x40)\n      dup1\n      swap2\n      sub\n      swap1\n      return\n        /* \"contracts/lab01_2.sol\":434:456  address public playerB */\n    tag_4:\n      callvalue\n      dup1\n      iszero\n      tag_35\n      jumpi\n      0x00\n      dup1\n      revert\n    tag_35:\n      pop\n      tag_36\n      tag_37\n      jump\t// in\n    tag_36:\n      mload(0x40)\n      tag_38\n      swap2\n      swap1\n      tag_39\n      jump\t// in\n    tag_38:\n      mload(0x40)\n      dup1\n      swap2\n      sub\n      swap1\n      return\n        /* \"contracts/lab01_2.sol\":595:615  uint256 public stake */\n    tag_5:\n      callvalue\n      dup1\n      iszero\n      tag_40\n      jumpi\n      0x00\n      dup1\n      revert\n    tag_40:\n      pop\n      tag_41\n      tag_42\n      jump\t// in\n    tag_41:\n      mload(0x40)\n      tag_43\n      swap2\n      swap1\n      tag_29\n      jump\t// in\n    tag_43:\n      mload(0x40)\n      dup1\n      swap2\n      sub\n      swap1\n      return\n        /* \"contracts/lab01_2.sol\":4392:4920  function withdraw() public {... */\n    tag_6:\n      callvalue\n      dup1\n      iszero\n      tag_44\n      jumpi\n      0x00\n      dup1\n      revert\n    tag_44:\n      pop\n      tag_45\n      tag_46\n      jump\t// in\n    tag_45:\n      stop\n        /* \"contracts/lab01_2.sol\":370:397  bool public playerARevealed */\n    tag_7:\n      callvalue\n      dup1\n      iszero\n      tag_47\n      jumpi\n      0x00\n      dup1\n      revert\n    tag_47:\n      pop\n      tag_48\n      tag_49\n      jump\t// in\n    tag_48:\n      mload(0x40)\n      tag_50\n      swap2\n      swap1\n      tag_34\n      jump\t// in\n    tag_50:\n      mload(0x40)\n      dup1\n      swap2\n      sub\n      swap1\n      return\n        /* \"contracts/lab01_2.sol\":463:492  bytes32 public playerBEncVote */\n    tag_8:\n      callvalue\n      dup1\n      iszero\n      tag_51\n      jumpi\n      0x00\n      dup1\n      revert\n    tag_51:\n      pop\n      tag_52\n      tag_53\n      jump\t// in\n    tag_52:\n      mload(0x40)\n      tag_54\n      swap2\n      swap1\n      tag_55\n      jump\t// in\n    tag_54:\n      mload(0x40)\n      dup1\n      swap2\n      sub\n      swap1\n      return\n        /* \"contracts/lab01_2.sol\":499:525  uint256 public playerBVote */\n    tag_9:\n      callvalue\n      dup1\n      iszero\n      tag_56\n      jumpi\n      0x00\n      dup1\n      revert\n    tag_56:\n      pop\n      tag_57\n      tag_58\n      jump\t// in\n    tag_57:\n      mload(0x40)\n      tag_59\n      swap2\n      swap1\n      tag_29\n      jump\t// in\n    tag_59:\n      mload(0x40)\n      dup1\n      swap2\n      sub\n      swap1\n      return\n        /* \"contracts/lab01_2.sol\":1831:3270  function reveal(uint256 _move, uint256 salt) public {... */\n    tag_10:\n      callvalue\n      dup1\n      iszero\n      tag_60\n      jumpi\n      0x00\n      dup1\n      revert\n    tag_60:\n      pop\n      tag_61\n      0x04\n      dup1\n      calldatasize\n      sub\n      dup2\n      add\n      swap1\n      tag_62\n      swap2\n      swap1\n      tag_63\n      jump\t// in\n    tag_62:\n      tag_64\n      jump\t// in\n    tag_61:\n      stop\n        /* \"contracts/lab01_2.sol\":272:294  address public playerA */\n    tag_11:\n      callvalue\n      dup1\n      iszero\n      tag_65\n      jumpi\n      0x00\n      dup1\n      revert\n    tag_65:\n      pop\n      tag_66\n      tag_67\n      jump\t// in\n    tag_66:\n      mload(0x40)\n      tag_68\n      swap2\n      swap1\n      tag_39\n      jump\t// in\n    tag_68:\n      mload(0x40)\n      dup1\n      swap2\n      sub\n      swap1\n      return\n        /* \"contracts/lab01_2.sol\":3801:4384  function forceWin() public {... */\n    tag_12:\n      callvalue\n      dup1\n      iszero\n      tag_69\n      jumpi\n      0x00\n      dup1\n      revert\n    tag_69:\n      pop\n      tag_70\n      tag_71\n      jump\t// in\n    tag_70:\n      stop\n        /* \"contracts/lab01_2.sol\":301:330  bytes32 public playerAEncVote */\n    tag_13:\n      callvalue\n      dup1\n      iszero\n      tag_72\n      jumpi\n      0x00\n      dup1\n      revert\n    tag_72:\n      pop\n      tag_73\n      tag_74\n      jump\t// in\n    tag_73:\n      mload(0x40)\n      tag_75\n      swap2\n      swap1\n      tag_55\n      jump\t// in\n    tag_75:\n      mload(0x40)\n      dup1\n      swap2\n      sub\n      swap1\n      return\n        /* \"contracts/lab01_2.sol\":650:670  bool public gameDone */\n    tag_14:\n      callvalue\n      dup1\n      iszero\n      tag_76\n      jumpi\n      0x00\n      dup1\n      revert\n    tag_76:\n      pop\n      tag_77\n      tag_78\n      jump\t// in\n    tag_77:\n      mload(0x40)\n      tag_79\n      swap2\n      swap1\n      tag_34\n      jump\t// in\n    tag_79:\n      mload(0x40)\n      dup1\n      swap2\n      sub\n      swap1\n      return\n        /* \"contracts/lab01_2.sol\":677:710  uint256 public revealDeadline = 0 */\n    tag_15:\n      callvalue\n      dup1\n      iszero\n      tag_80\n      jumpi\n      0x00\n      dup1\n      revert\n    tag_80:\n      pop\n      tag_81\n      tag_82\n      jump\t// in\n    tag_81:\n      mload(0x40)\n      tag_83\n      swap2\n      swap1\n      tag_29\n      jump\t// in\n    tag_83:\n      mload(0x40)\n      dup1\n      swap2\n      sub\n      swap1\n      return\n        /* \"contracts/lab01_2.sol\":199:235  uint256 public constant SCISSORS = 3 */\n    tag_16:\n      callvalue\n      dup1\n      iszero\n      tag_84\n      jumpi\n      0x00\n      dup1\n      revert\n    tag_84:\n      pop\n      tag_85\n      tag_86\n      jump\t// in\n    tag_85:\n      mload(0x40)\n      tag_87\n      swap2\n      swap1\n      tag_29\n      jump\t// in\n    tag_87:\n      mload(0x40)\n      dup1\n      swap2\n      sub\n      swap1\n      return\n        /* \"contracts/lab01_2.sol\":120:152  uint256 public constant ROCK = 1 */\n    tag_17:\n      callvalue\n      dup1\n      iszero\n      tag_88\n      jumpi\n      0x00\n      dup1\n      revert\n    tag_88:\n      pop\n      tag_89\n      tag_90\n      jump\t// in\n    tag_89:\n      mload(0x40)\n      tag_91\n      swap2\n      swap1\n      tag_29\n      jump\t// in\n    tag_91:\n      mload(0x40)\n      dup1\n      swap2\n      sub\n      swap1\n      return\n        /* \"contracts/lab01_2.sol\":4928:5367  function resetGame() public{... */\n    tag_18:\n      callvalue\n      dup1\n      iszero\n      tag_92\n      jumpi\n      0x00\n      dup1\n      revert\n    tag_92:\n      pop\n      tag_93\n      tag_94\n      jump\t// in\n    tag_93:\n      stop\n        /* \"contracts/lab01_2.sol\":159:192  uint256 public constant PAPER = 2 */\n    tag_19:\n      callvalue\n      dup1\n      iszero\n      tag_95\n      jumpi\n      0x00\n      dup1\n      revert\n    tag_95:\n      pop\n      tag_96\n      tag_97\n      jump\t// in\n    tag_96:\n      mload(0x40)\n      tag_98\n      swap2\n      swap1\n      tag_29\n      jump\t// in\n    tag_98:\n      mload(0x40)\n      dup1\n      swap2\n      sub\n      swap1\n      return\n        /* \"contracts/lab01_2.sol\":936:1823  function play(bytes32 _hashedVote) public payable {... */\n    tag_20:\n      tag_99\n      0x04\n      dup1\n      calldatasize\n      sub\n      dup2\n      add\n      swap1\n      tag_100\n      swap2\n      swap1\n      tag_101\n      jump\t// in\n    tag_100:\n      tag_102\n      jump\t// in\n    tag_99:\n      stop\n        /* \"contracts/lab01_2.sol\":622:643  address public winner */\n    tag_21:\n      callvalue\n      dup1\n      iszero\n      tag_103\n      jumpi\n      0x00\n      dup1\n      revert\n    tag_103:\n      pop\n      tag_104\n      tag_105\n      jump\t// in\n    tag_104:\n      mload(0x40)\n      tag_106\n      swap2\n      swap1\n      tag_39\n      jump\t// in\n    tag_106:\n      mload(0x40)\n      dup1\n      swap2\n      sub\n      swap1\n      return\n        /* \"contracts/lab01_2.sol\":337:363  uint256 public playerAVote */\n    tag_27:\n      sload(0x02)\n      dup2\n      jump\t// out\n        /* \"contracts/lab01_2.sol\":532:559  bool public playerBRevealed */\n    tag_32:\n      0x06\n      0x00\n      swap1\n      sload\n      swap1\n      0x0100\n      exp\n      swap1\n      div\n      0xff\n      and\n      dup2\n      jump\t// out\n        /* \"contracts/lab01_2.sol\":434:456  address public playerB */\n    tag_37:\n      0x03\n      0x01\n      swap1\n      sload\n      swap1\n      0x0100\n      exp\n      swap1\n      div\n      0xffffffffffffffffffffffffffffffffffffffff\n      and\n      dup2\n      jump\t// out\n        /* \"contracts/lab01_2.sol\":595:615  uint256 public stake */\n    tag_42:\n      sload(0x07)\n      dup2\n      jump\t// out\n        /* \"contracts/lab01_2.sol\":4392:4920  function withdraw() public {... */\n    tag_46:\n        /* \"contracts/lab01_2.sol\":4450:4454  true */\n      0x01\n        /* \"contracts/lab01_2.sol\":4438:4454  gameDone == true */\n      iszero\n      iszero\n        /* \"contracts/lab01_2.sol\":4438:4446  gameDone */\n      0x08\n      0x14\n      swap1\n      sload\n      swap1\n      0x0100\n      exp\n      swap1\n      div\n      0xff\n      and\n        /* \"contracts/lab01_2.sol\":4438:4454  gameDone == true */\n      iszero\n      iszero\n      eq\n        /* \"contracts/lab01_2.sol\":4430:4455  require(gameDone == true) */\n      tag_108\n      jumpi\n      0x00\n      dup1\n      revert\n    tag_108:\n        /* \"contracts/lab01_2.sol\":4488:4495  playerA */\n      0x00\n      dup1\n      sload\n      swap1\n      0x0100\n      exp\n      swap1\n      div\n      0xffffffffffffffffffffffffffffffffffffffff\n      and\n        /* \"contracts/lab01_2.sol\":4474:4495  msg.sender == playerA */\n      0xffffffffffffffffffffffffffffffffffffffff\n      and\n        /* \"contracts/lab01_2.sol\":4474:4484  msg.sender */\n      caller\n        /* \"contracts/lab01_2.sol\":4474:4495  msg.sender == playerA */\n      0xffffffffffffffffffffffffffffffffffffffff\n      and\n      eq\n        /* \"contracts/lab01_2.sol\":4474:4520  msg.sender == playerA || msg.sender == playerB */\n      dup1\n      tag_109\n      jumpi\n      pop\n        /* \"contracts/lab01_2.sol\":4513:4520  playerB */\n      0x03\n      0x01\n      swap1\n      sload\n      swap1\n      0x0100\n      exp\n      swap1\n      div\n      0xffffffffffffffffffffffffffffffffffffffff\n      and\n        /* \"contracts/lab01_2.sol\":4499:4520  msg.sender == playerB */\n      0xffffffffffffffffffffffffffffffffffffffff\n      and\n        /* \"contracts/lab01_2.sol\":4499:4509  msg.sender */\n      caller\n        /* \"contracts/lab01_2.sol\":4499:4520  msg.sender == playerB */\n      0xffffffffffffffffffffffffffffffffffffffff\n      and\n      eq\n        /* \"contracts/lab01_2.sol\":4474:4520  msg.sender == playerA || msg.sender == playerB */\n    tag_109:\n        /* \"contracts/lab01_2.sol\":4466:4550  require(msg.sender == playerA || msg.sender == playerB, \"Not a player in this game\") */\n      tag_110\n      jumpi\n      mload(0x40)\n      0x08c379a000000000000000000000000000000000000000000000000000000000\n      dup2\n      mstore\n      0x04\n      add\n      tag_111\n      swap1\n      tag_112\n      jump\t// in\n    tag_111:\n      mload(0x40)\n      dup1\n      swap2\n      sub\n      swap1\n      revert\n    tag_110:\n        /* \"contracts/lab01_2.sol\":4582:4583  0 */\n      0x00\n        /* \"contracts/lab01_2.sol\":4564:4584  winner == address(0) */\n      0xffffffffffffffffffffffffffffffffffffffff\n      and\n        /* \"contracts/lab01_2.sol\":4564:4570  winner */\n      0x08\n      0x00\n      swap1\n      sload\n      swap1\n      0x0100\n      exp\n      swap1\n      div\n      0xffffffffffffffffffffffffffffffffffffffff\n      and\n        /* \"contracts/lab01_2.sol\":4564:4584  winner == address(0) */\n      0xffffffffffffffffffffffffffffffffffffffff\n      and\n      sub\n        /* \"contracts/lab01_2.sol\":4561:4913  if(winner == address(0)){... */\n      tag_113\n      jumpi\n        /* \"contracts/lab01_2.sol\":4608:4615  playerA */\n      0x00\n      dup1\n      sload\n      swap1\n      0x0100\n      exp\n      swap1\n      div\n      0xffffffffffffffffffffffffffffffffffffffff\n      and\n        /* \"contracts/lab01_2.sol\":4600:4625  payable(playerA).transfer */\n      0xffffffffffffffffffffffffffffffffffffffff\n      and\n        /* \"contracts/lab01_2.sol\":4600:4632  payable(playerA).transfer(stake) */\n      0x08fc\n        /* \"contracts/lab01_2.sol\":4626:4631  stake */\n      sload(0x07)\n        /* \"contracts/lab01_2.sol\":4600:4632  payable(playerA).transfer(stake) */\n      swap1\n      dup2\n      iszero\n      mul\n      swap1\n      mload(0x40)\n      0x00\n      mload(0x40)\n      dup1\n      dup4\n      sub\n      dup2\n      dup6\n      dup9\n      dup9\n      call\n      swap4\n      pop\n      pop\n      pop\n      pop\n      iszero\n      dup1\n      iszero\n      tag_115\n      jumpi\n      returndatasize\n      0x00\n      dup1\n      returndatacopy\n      revert(0x00, returndatasize)\n    tag_115:\n      pop\n        /* \"contracts/lab01_2.sol\":4655:4662  playerB */\n      0x03\n      0x01\n      swap1\n      sload\n      swap1\n      0x0100\n      exp\n      swap1\n      div\n      0xffffffffffffffffffffffffffffffffffffffff\n      and\n        /* \"contracts/lab01_2.sol\":4647:4672  payable(playerB).transfer */\n      0xffffffffffffffffffffffffffffffffffffffff\n      and\n        /* \"contracts/lab01_2.sol\":4647:4679  payable(playerB).transfer(stake) */\n      0x08fc\n        /* \"contracts/lab01_2.sol\":4673:4678  stake */\n      sload(0x07)\n        /* \"contracts/lab01_2.sol\":4647:4679  payable(playerB).transfer(stake) */\n      swap1\n      dup2\n      iszero\n      mul\n      swap1\n      mload(0x40)\n      0x00\n      mload(0x40)\n      dup1\n      dup4\n      sub\n      dup2\n      dup6\n      dup9\n      dup9\n      call\n      swap4\n      pop\n      pop\n      pop\n      pop\n      iszero\n      dup1\n      iszero\n      tag_117\n      jumpi\n      returndatasize\n      0x00\n      dup1\n      returndatacopy\n      revert(0x00, returndatasize)\n    tag_117:\n      pop\n        /* \"contracts/lab01_2.sol\":4699:4728  withdrawEvent(playerA, stake) */\n      0x87d5f4772963d1f9b76047158b4ae97c420a1b3bff2a746c828beffd9e7c3e26\n        /* \"contracts/lab01_2.sol\":4713:4720  playerA */\n      0x00\n      dup1\n      sload\n      swap1\n      0x0100\n      exp\n      swap1\n      div\n      0xffffffffffffffffffffffffffffffffffffffff\n      and\n        /* \"contracts/lab01_2.sol\":4722:4727  stake */\n      sload(0x07)\n        /* \"contracts/lab01_2.sol\":4699:4728  withdrawEvent(playerA, stake) */\n      mload(0x40)\n      tag_118\n      swap3\n      swap2\n      swap1\n      tag_119\n      jump\t// in\n    tag_118:\n      mload(0x40)\n      dup1\n      swap2\n      sub\n      swap1\n      log1\n        /* \"contracts/lab01_2.sol\":4748:4777  withdrawEvent(playerB, stake) */\n      0x87d5f4772963d1f9b76047158b4ae97c420a1b3bff2a746c828beffd9e7c3e26\n        /* \"contracts/lab01_2.sol\":4762:4769  playerB */\n      0x03\n      0x01\n      swap1\n      sload\n      swap1\n      0x0100\n      exp\n      swap1\n      div\n      0xffffffffffffffffffffffffffffffffffffffff\n      and\n        /* \"contracts/lab01_2.sol\":4771:4776  stake */\n      sload(0x07)\n        /* \"contracts/lab01_2.sol\":4748:4777  withdrawEvent(playerB, stake) */\n      mload(0x40)\n      tag_120\n      swap3\n      swap2\n      swap1\n      tag_119\n      jump\t// in\n    tag_120:\n      mload(0x40)\n      dup1\n      swap2\n      sub\n      swap1\n      log1\n        /* \"contracts/lab01_2.sol\":4561:4913  if(winner == address(0)){... */\n      jump(tag_121)\n    tag_113:\n        /* \"contracts/lab01_2.sol\":4826:4832  winner */\n      0x08\n      0x00\n      swap1\n      sload\n      swap1\n      0x0100\n      exp\n      swap1\n      div\n      0xffffffffffffffffffffffffffffffffffffffff\n      and\n        /* \"contracts/lab01_2.sol\":4818:4842  payable(winner).transfer */\n      0xffffffffffffffffffffffffffffffffffffffff\n      and\n        /* \"contracts/lab01_2.sol\":4818:4851  payable(winner).transfer(stake*2) */\n      0x08fc\n        /* \"contracts/lab01_2.sol\":4849:4850  2 */\n      0x02\n        /* \"contracts/lab01_2.sol\":4843:4848  stake */\n      sload(0x07)\n        /* \"contracts/lab01_2.sol\":4843:4850  stake*2 */\n      tag_122\n      swap2\n      swap1\n      tag_123\n      jump\t// in\n    tag_122:\n        /* \"contracts/lab01_2.sol\":4818:4851  payable(winner).transfer(stake*2) */\n      swap1\n      dup2\n      iszero\n      mul\n      swap1\n      mload(0x40)\n      0x00\n      mload(0x40)\n      dup1\n      dup4\n      sub\n      dup2\n      dup6\n      dup9\n      dup9\n      call\n      swap4\n      pop\n      pop\n      pop\n      pop\n      iszero\n      dup1\n      iszero\n      tag_125\n      jumpi\n      returndatasize\n      0x00\n      dup1\n      returndatacopy\n      revert(0x00, returndatasize)\n    tag_125:\n      pop\n        /* \"contracts/lab01_2.sol\":4871:4901  withdrawEvent(winner, stake*2) */\n      0x87d5f4772963d1f9b76047158b4ae97c420a1b3bff2a746c828beffd9e7c3e26\n        /* \"contracts/lab01_2.sol\":4885:4891  winner */\n      0x08\n      0x00\n      swap1\n      sload\n      swap1\n      0x0100\n      exp\n      swap1\n      div\n      0xffffffffffffffffffffffffffffffffffffffff\n      and\n        /* \"contracts/lab01_2.sol\":4899:4900  2 */\n      0x02\n        /* \"contracts/lab01_2.sol\":4893:4898  stake */\n      sload(0x07)\n        /* \"contracts/lab01_2.sol\":4893:4900  stake*2 */\n      tag_126\n      swap2\n      swap1\n      tag_123\n      jump\t// in\n    tag_126:\n        /* \"contracts/lab01_2.sol\":4871:4901  withdrawEvent(winner, stake*2) */\n      mload(0x40)\n      tag_127\n      swap3\n      swap2\n      swap1\n      tag_119\n      jump\t// in\n    tag_127:\n      mload(0x40)\n      dup1\n      swap2\n      sub\n      swap1\n      log1\n        /* \"contracts/lab01_2.sol\":4561:4913  if(winner == address(0)){... */\n    tag_121:\n        /* \"contracts/lab01_2.sol\":4392:4920  function withdraw() public {... */\n      jump\t// out\n        /* \"contracts/lab01_2.sol\":370:397  bool public playerARevealed */\n    tag_49:\n      0x03\n      0x00\n      swap1\n      sload\n      swap1\n      0x0100\n      exp\n      swap1\n      div\n      0xff\n      and\n      dup2\n      jump\t// out\n        /* \"contracts/lab01_2.sol\":463:492  bytes32 public playerBEncVote */\n    tag_53:\n      sload(0x04)\n      dup2\n      jump\t// out\n        /* \"contracts/lab01_2.sol\":499:525  uint256 public playerBVote */\n    tag_58:\n      sload(0x05)\n      dup2\n      jump\t// out\n        /* \"contracts/lab01_2.sol\":1831:3270  function reveal(uint256 _move, uint256 salt) public {... */\n    tag_64:\n        /* \"contracts/lab01_2.sol\":1903:1911  gameDone */\n      0x08\n      0x14\n      swap1\n      sload\n      swap1\n      0x0100\n      exp\n      swap1\n      div\n      0xff\n      and\n        /* \"contracts/lab01_2.sol\":1902:1911  !gameDone */\n      iszero\n        /* \"contracts/lab01_2.sol\":1894:1936  require(!gameDone, \"game is already done\") */\n      tag_129\n      jumpi\n      mload(0x40)\n      0x08c379a000000000000000000000000000000000000000000000000000000000\n      dup2\n      mstore\n      0x04\n      add\n      tag_130\n      swap1\n      tag_131\n      jump\t// in\n    tag_130:\n      mload(0x40)\n      dup1\n      swap2\n      sub\n      swap1\n      revert\n    tag_129:\n        /* \"contracts/lab01_2.sol\":1981:1982  0 */\n      0x00\n        /* \"contracts/lab01_2.sol\":1973:1983  bytes32(0) */\n      dup1\n      shl\n        /* \"contracts/lab01_2.sol\":1955:1969  playerAEncVote */\n      sload(0x01)\n        /* \"contracts/lab01_2.sol\":1955:1983  playerAEncVote != bytes32(0) */\n      eq\n      iszero\n        /* \"contracts/lab01_2.sol\":1955:2015  playerAEncVote != bytes32(0) && playerBEncVote != bytes32(0) */\n      dup1\n      iszero\n      tag_132\n      jumpi\n      pop\n        /* \"contracts/lab01_2.sol\":2013:2014  0 */\n      0x00\n        /* \"contracts/lab01_2.sol\":2005:2015  bytes32(0) */\n      dup1\n      shl\n        /* \"contracts/lab01_2.sol\":1987:2001  playerBEncVote */\n      sload(0x04)\n        /* \"contracts/lab01_2.sol\":1987:2015  playerBEncVote != bytes32(0) */\n      eq\n      iszero\n        /* \"contracts/lab01_2.sol\":1955:2015  playerAEncVote != bytes32(0) && playerBEncVote != bytes32(0) */\n    tag_132:\n        /* \"contracts/lab01_2.sol\":1947:2051  require(playerAEncVote != bytes32(0) && playerBEncVote != bytes32(0), \"Both players need to vote first\") */\n      tag_133\n      jumpi\n      mload(0x40)\n      0x08c379a000000000000000000000000000000000000000000000000000000000\n      dup2\n      mstore\n      0x04\n      add\n      tag_134\n      swap1\n      tag_135\n      jump\t// in\n    tag_134:\n      mload(0x40)\n      dup1\n      swap2\n      sub\n      swap1\n      revert\n    tag_133:\n        /* \"contracts/lab01_2.sol\":2079:2086  playerA */\n      0x00\n      dup1\n      sload\n      swap1\n      0x0100\n      exp\n      swap1\n      div\n      0xffffffffffffffffffffffffffffffffffffffff\n      and\n        /* \"contracts/lab01_2.sol\":2065:2086  msg.sender == playerA */\n      0xffffffffffffffffffffffffffffffffffffffff\n      and\n        /* \"contracts/lab01_2.sol\":2065:2075  msg.sender */\n      caller\n        /* \"contracts/lab01_2.sol\":2065:2086  msg.sender == playerA */\n      0xffffffffffffffffffffffffffffffffffffffff\n      and\n      sub\n        /* \"contracts/lab01_2.sol\":2062:2966  if(msg.sender == playerA){... */\n      tag_136\n      jumpi\n        /* \"contracts/lab01_2.sol\":2129:2134  false */\n      0x00\n        /* \"contracts/lab01_2.sol\":2110:2134  playerARevealed == false */\n      iszero\n      iszero\n        /* \"contracts/lab01_2.sol\":2110:2125  playerARevealed */\n      0x03\n      0x00\n      swap1\n      sload\n      swap1\n      0x0100\n      exp\n      swap1\n      div\n      0xff\n      and\n        /* \"contracts/lab01_2.sol\":2110:2134  playerARevealed == false */\n      iszero\n      iszero\n      eq\n        /* \"contracts/lab01_2.sol\":2102:2164  require(playerARevealed == false, \"You have already revealed\") */\n      tag_137\n      jumpi\n      mload(0x40)\n      0x08c379a000000000000000000000000000000000000000000000000000000000\n      dup2\n      mstore\n      0x04\n      add\n      tag_138\n      swap1\n      tag_139\n      jump\t// in\n    tag_138:\n      mload(0x40)\n      dup1\n      swap2\n      sub\n      swap1\n      revert\n    tag_137:\n        /* \"contracts/lab01_2.sol\":2179:2196  bytes32 checkVote */\n      0x00\n        /* \"contracts/lab01_2.sol\":2226:2231  _move */\n      dup3\n        /* \"contracts/lab01_2.sol\":2233:2237  salt */\n      dup3\n        /* \"contracts/lab01_2.sol\":2209:2238  abi.encodePacked(_move, salt) */\n      add(0x20, mload(0x40))\n      tag_140\n      swap3\n      swap2\n      swap1\n      tag_141\n      jump\t// in\n    tag_140:\n      mload(0x40)\n      0x20\n      dup2\n      dup4\n      sub\n      sub\n      dup2\n      mstore\n      swap1\n      0x40\n      mstore\n        /* \"contracts/lab01_2.sol\":2199:2239  keccak256(abi.encodePacked(_move, salt)) */\n      dup1\n      mload\n      swap1\n      0x20\n      add\n      keccak256\n        /* \"contracts/lab01_2.sol\":2179:2239  bytes32 checkVote = keccak256(abi.encodePacked(_move, salt)) */\n      swap1\n      pop\n        /* \"contracts/lab01_2.sol\":2275:2289  playerAEncVote */\n      sload(0x01)\n        /* \"contracts/lab01_2.sol\":2262:2271  checkVote */\n      dup2\n        /* \"contracts/lab01_2.sol\":2262:2289  checkVote == playerAEncVote */\n      eq\n        /* \"contracts/lab01_2.sol\":2254:2308  require(checkVote == playerAEncVote, \"Invalid reveal\") */\n      tag_142\n      jumpi\n      mload(0x40)\n      0x08c379a000000000000000000000000000000000000000000000000000000000\n      dup2\n      mstore\n      0x04\n      add\n      tag_143\n      swap1\n      tag_144\n      jump\t// in\n    tag_143:\n      mload(0x40)\n      dup1\n      swap2\n      sub\n      swap1\n      revert\n    tag_142:\n        /* \"contracts/lab01_2.sol\":2396:2401  _move */\n      dup3\n        /* \"contracts/lab01_2.sol\":2382:2393  playerAVote */\n      0x02\n        /* \"contracts/lab01_2.sol\":2382:2401  playerAVote = _move */\n      dup2\n      swap1\n      sstore\n      pop\n        /* \"contracts/lab01_2.sol\":2434:2438  true */\n      0x01\n        /* \"contracts/lab01_2.sol\":2416:2431  playerARevealed */\n      0x03\n      0x00\n        /* \"contracts/lab01_2.sol\":2416:2438  playerARevealed = true */\n      0x0100\n      exp\n      dup2\n      sload\n      dup2\n      0xff\n      mul\n      not\n      and\n      swap1\n      dup4\n      iszero\n      iszero\n      mul\n      or\n      swap1\n      sstore\n      pop\n        /* \"contracts/lab01_2.sol\":2458:2488  revealEvent(msg.sender, _move) */\n      0xf171bd6ddf36696fe0e7c299df1970ee9347e8229ef483465fe9f8862995c530\n        /* \"contracts/lab01_2.sol\":2470:2480  msg.sender */\n      caller\n        /* \"contracts/lab01_2.sol\":2482:2487  _move */\n      dup5\n        /* \"contracts/lab01_2.sol\":2458:2488  revealEvent(msg.sender, _move) */\n      mload(0x40)\n      tag_145\n      swap3\n      swap2\n      swap1\n      tag_119\n      jump\t// in\n    tag_145:\n      mload(0x40)\n      dup1\n      swap2\n      sub\n      swap1\n      log1\n        /* \"contracts/lab01_2.sol\":2087:2500  {... */\n      pop\n        /* \"contracts/lab01_2.sol\":2062:2966  if(msg.sender == playerA){... */\n      jump(tag_146)\n    tag_136:\n        /* \"contracts/lab01_2.sol\":2532:2539  playerB */\n      0x03\n      0x01\n      swap1\n      sload\n      swap1\n      0x0100\n      exp\n      swap1\n      div\n      0xffffffffffffffffffffffffffffffffffffffff\n      and\n        /* \"contracts/lab01_2.sol\":2518:2539  msg.sender == playerB */\n      0xffffffffffffffffffffffffffffffffffffffff\n      and\n        /* \"contracts/lab01_2.sol\":2518:2528  msg.sender */\n      caller\n        /* \"contracts/lab01_2.sol\":2518:2539  msg.sender == playerB */\n      0xffffffffffffffffffffffffffffffffffffffff\n      and\n      sub\n        /* \"contracts/lab01_2.sol\":2515:2966  if(msg.sender == playerB){... */\n      tag_147\n      jumpi\n        /* \"contracts/lab01_2.sol\":2582:2587  false */\n      0x00\n        /* \"contracts/lab01_2.sol\":2563:2587  playerBRevealed == false */\n      iszero\n      iszero\n        /* \"contracts/lab01_2.sol\":2563:2578  playerBRevealed */\n      0x06\n      0x00\n      swap1\n      sload\n      swap1\n      0x0100\n      exp\n      swap1\n      div\n      0xff\n      and\n        /* \"contracts/lab01_2.sol\":2563:2587  playerBRevealed == false */\n      iszero\n      iszero\n      eq\n        /* \"contracts/lab01_2.sol\":2555:2617  require(playerBRevealed == false, \"You have already revealed\") */\n      tag_148\n      jumpi\n      mload(0x40)\n      0x08c379a000000000000000000000000000000000000000000000000000000000\n      dup2\n      mstore\n      0x04\n      add\n      tag_149\n      swap1\n      tag_139\n      jump\t// in\n    tag_149:\n      mload(0x40)\n      dup1\n      swap2\n      sub\n      swap1\n      revert\n    tag_148:\n        /* \"contracts/lab01_2.sol\":2632:2649  bytes32 checkVote */\n      0x00\n        /* \"contracts/lab01_2.sol\":2679:2684  _move */\n      dup3\n        /* \"contracts/lab01_2.sol\":2686:2690  salt */\n      dup3\n        /* \"contracts/lab01_2.sol\":2662:2691  abi.encodePacked(_move, salt) */\n      add(0x20, mload(0x40))\n      tag_150\n      swap3\n      swap2\n      swap1\n      tag_141\n      jump\t// in\n    tag_150:\n      mload(0x40)\n      0x20\n      dup2\n      dup4\n      sub\n      sub\n      dup2\n      mstore\n      swap1\n      0x40\n      mstore\n        /* \"contracts/lab01_2.sol\":2652:2692  keccak256(abi.encodePacked(_move, salt)) */\n      dup1\n      mload\n      swap1\n      0x20\n      add\n      keccak256\n        /* \"contracts/lab01_2.sol\":2632:2692  bytes32 checkVote = keccak256(abi.encodePacked(_move, salt)) */\n      swap1\n      pop\n        /* \"contracts/lab01_2.sol\":2728:2742  playerBEncVote */\n      sload(0x04)\n        /* \"contracts/lab01_2.sol\":2715:2724  checkVote */\n      dup2\n        /* \"contracts/lab01_2.sol\":2715:2742  checkVote == playerBEncVote */\n      eq\n        /* \"contracts/lab01_2.sol\":2707:2761  require(checkVote == playerBEncVote, \"Invalid reveal\") */\n      tag_151\n      jumpi\n      mload(0x40)\n      0x08c379a000000000000000000000000000000000000000000000000000000000\n      dup2\n      mstore\n      0x04\n      add\n      tag_152\n      swap1\n      tag_144\n      jump\t// in\n    tag_152:\n      mload(0x40)\n      dup1\n      swap2\n      sub\n      swap1\n      revert\n    tag_151:\n        /* \"contracts/lab01_2.sol\":2791:2796  _move */\n      dup3\n        /* \"contracts/lab01_2.sol\":2777:2788  playerBVote */\n      0x05\n        /* \"contracts/lab01_2.sol\":2777:2796  playerBVote = _move */\n      dup2\n      swap1\n      sstore\n      pop\n        /* \"contracts/lab01_2.sol\":2829:2833  true */\n      0x01\n        /* \"contracts/lab01_2.sol\":2811:2826  playerBRevealed */\n      0x06\n      0x00\n        /* \"contracts/lab01_2.sol\":2811:2833  playerBRevealed = true */\n      0x0100\n      exp\n      dup2\n      sload\n      dup2\n      0xff\n      mul\n      not\n      and\n      swap1\n      dup4\n      iszero\n      iszero\n      mul\n      or\n      swap1\n      sstore\n      pop\n        /* \"contracts/lab01_2.sol\":2853:2883  revealEvent(msg.sender, _move) */\n      0xf171bd6ddf36696fe0e7c299df1970ee9347e8229ef483465fe9f8862995c530\n        /* \"contracts/lab01_2.sol\":2865:2875  msg.sender */\n      caller\n        /* \"contracts/lab01_2.sol\":2877:2882  _move */\n      dup5\n        /* \"contracts/lab01_2.sol\":2853:2883  revealEvent(msg.sender, _move) */\n      mload(0x40)\n      tag_153\n      swap3\n      swap2\n      swap1\n      tag_119\n      jump\t// in\n    tag_153:\n      mload(0x40)\n      dup1\n      swap2\n      sub\n      swap1\n      log1\n        /* \"contracts/lab01_2.sol\":2540:2895  {... */\n      pop\n        /* \"contracts/lab01_2.sol\":2515:2966  if(msg.sender == playerB){... */\n      jump(tag_154)\n    tag_147:\n        /* \"contracts/lab01_2.sol\":2925:2954  revert(\"Can not find player\") */\n      mload(0x40)\n      0x08c379a000000000000000000000000000000000000000000000000000000000\n      dup2\n      mstore\n      0x04\n      add\n      tag_155\n      swap1\n      tag_156\n      jump\t// in\n    tag_155:\n      mload(0x40)\n      dup1\n      swap2\n      sub\n      swap1\n      revert\n        /* \"contracts/lab01_2.sol\":2515:2966  if(msg.sender == playerB){... */\n    tag_154:\n        /* \"contracts/lab01_2.sol\":2062:2966  if(msg.sender == playerA){... */\n    tag_146:\n        /* \"contracts/lab01_2.sol\":2998:2999  0 */\n      0x00\n        /* \"contracts/lab01_2.sol\":2980:2994  revealDeadline */\n      sload(0x09)\n        /* \"contracts/lab01_2.sol\":2980:2999  revealDeadline == 0 */\n      sub\n        /* \"contracts/lab01_2.sol\":2976:3095  if (revealDeadline == 0) {... */\n      tag_157\n      jumpi\n        /* \"contracts/lab01_2.sol\":3051:3060  3 minutes */\n      0xb4\n        /* \"contracts/lab01_2.sol\":3033:3048  block.timestamp */\n      timestamp\n        /* \"contracts/lab01_2.sol\":3033:3060  block.timestamp + 3 minutes */\n      tag_158\n      swap2\n      swap1\n      tag_159\n      jump\t// in\n    tag_158:\n        /* \"contracts/lab01_2.sol\":3016:3030  revealDeadline */\n      0x09\n        /* \"contracts/lab01_2.sol\":3016:3060  revealDeadline = block.timestamp + 3 minutes */\n      dup2\n      swap1\n      sstore\n      pop\n        /* \"contracts/lab01_2.sol\":2976:3095  if (revealDeadline == 0) {... */\n    tag_157:\n        /* \"contracts/lab01_2.sol\":3127:3131  true */\n      0x01\n        /* \"contracts/lab01_2.sol\":3108:3131  playerARevealed == true */\n      iszero\n      iszero\n        /* \"contracts/lab01_2.sol\":3108:3123  playerARevealed */\n      0x03\n      0x00\n      swap1\n      sload\n      swap1\n      0x0100\n      exp\n      swap1\n      div\n      0xff\n      and\n        /* \"contracts/lab01_2.sol\":3108:3131  playerARevealed == true */\n      iszero\n      iszero\n      eq\n        /* \"contracts/lab01_2.sol\":3108:3158  playerARevealed == true && playerBRevealed == true */\n      dup1\n      iszero\n      tag_160\n      jumpi\n      pop\n        /* \"contracts/lab01_2.sol\":3154:3158  true */\n      0x01\n        /* \"contracts/lab01_2.sol\":3135:3158  playerBRevealed == true */\n      iszero\n      iszero\n        /* \"contracts/lab01_2.sol\":3135:3150  playerBRevealed */\n      0x06\n      0x00\n      swap1\n      sload\n      swap1\n      0x0100\n      exp\n      swap1\n      div\n      0xff\n      and\n        /* \"contracts/lab01_2.sol\":3135:3158  playerBRevealed == true */\n      iszero\n      iszero\n      eq\n        /* \"contracts/lab01_2.sol\":3108:3158  playerARevealed == true && playerBRevealed == true */\n    tag_160:\n        /* \"contracts/lab01_2.sol\":3105:3263  if(playerARevealed == true && playerBRevealed == true) {... */\n      iszero\n      tag_161\n      jumpi\n        /* \"contracts/lab01_2.sol\":3184:3196  findWinner() */\n      tag_162\n        /* \"contracts/lab01_2.sol\":3184:3194  findWinner */\n      tag_163\n        /* \"contracts/lab01_2.sol\":3184:3196  findWinner() */\n      jump\t// in\n    tag_162:\n        /* \"contracts/lab01_2.sol\":3175:3181  winner */\n      0x08\n      0x00\n        /* \"contracts/lab01_2.sol\":3175:3196  winner = findWinner() */\n      0x0100\n      exp\n      dup2\n      sload\n      dup2\n      0xffffffffffffffffffffffffffffffffffffffff\n      mul\n      not\n      and\n      swap1\n      dup4\n      0xffffffffffffffffffffffffffffffffffffffff\n      and\n      mul\n      or\n      swap1\n      sstore\n      pop\n        /* \"contracts/lab01_2.sol\":3222:3226  true */\n      0x01\n        /* \"contracts/lab01_2.sol\":3211:3219  gameDone */\n      0x08\n      0x14\n        /* \"contracts/lab01_2.sol\":3211:3226  gameDone = true */\n      0x0100\n      exp\n      dup2\n      sload\n      dup2\n      0xff\n      mul\n      not\n      and\n      swap1\n      dup4\n      iszero\n      iszero\n      mul\n      or\n      swap1\n      sstore\n      pop\n        /* \"contracts/lab01_2.sol\":3241:3251  withdraw() */\n      tag_164\n        /* \"contracts/lab01_2.sol\":3241:3249  withdraw */\n      tag_46\n        /* \"contracts/lab01_2.sol\":3241:3251  withdraw() */\n      jump\t// in\n    tag_164:\n        /* \"contracts/lab01_2.sol\":3105:3263  if(playerARevealed == true && playerBRevealed == true) {... */\n    tag_161:\n        /* \"contracts/lab01_2.sol\":1831:3270  function reveal(uint256 _move, uint256 salt) public {... */\n      pop\n      pop\n      jump\t// out\n        /* \"contracts/lab01_2.sol\":272:294  address public playerA */\n    tag_67:\n      0x00\n      dup1\n      sload\n      swap1\n      0x0100\n      exp\n      swap1\n      div\n      0xffffffffffffffffffffffffffffffffffffffff\n      and\n      dup2\n      jump\t// out\n        /* \"contracts/lab01_2.sol\":3801:4384  function forceWin() public {... */\n    tag_71:\n        /* \"contracts/lab01_2.sol\":3864:3865  0 */\n      0x00\n        /* \"contracts/lab01_2.sol\":3847:3861  revealDeadline */\n      sload(0x09)\n        /* \"contracts/lab01_2.sol\":3847:3865  revealDeadline > 0 */\n      gt\n        /* \"contracts/lab01_2.sol\":3839:3898  require(revealDeadline > 0, \"Reveal phase has not started\") */\n      tag_166\n      jumpi\n      mload(0x40)\n      0x08c379a000000000000000000000000000000000000000000000000000000000\n      dup2\n      mstore\n      0x04\n      add\n      tag_167\n      swap1\n      tag_168\n      jump\t// in\n    tag_167:\n      mload(0x40)\n      dup1\n      swap2\n      sub\n      swap1\n      revert\n    tag_166:\n        /* \"contracts/lab01_2.sol\":3935:3949  revealDeadline */\n      sload(0x09)\n        /* \"contracts/lab01_2.sol\":3917:3932  block.timestamp */\n      timestamp\n        /* \"contracts/lab01_2.sol\":3917:3949  block.timestamp > revealDeadline */\n      gt\n        /* \"contracts/lab01_2.sol\":3909:3981  require(block.timestamp > revealDeadline, \"Reveal time has not expired\") */\n      tag_169\n      jumpi\n      mload(0x40)\n      0x08c379a000000000000000000000000000000000000000000000000000000000\n      dup2\n      mstore\n      0x04\n      add\n      tag_170\n      swap1\n      tag_171\n      jump\t// in\n    tag_170:\n      mload(0x40)\n      dup1\n      swap2\n      sub\n      swap1\n      revert\n    tag_169:\n        /* \"contracts/lab01_2.sol\":4001:4009  gameDone */\n      0x08\n      0x14\n      swap1\n      sload\n      swap1\n      0x0100\n      exp\n      swap1\n      div\n      0xff\n      and\n        /* \"contracts/lab01_2.sol\":4000:4009  !gameDone */\n      iszero\n        /* \"contracts/lab01_2.sol\":3992:4034  require(!gameDone, \"Game is already done\") */\n      tag_172\n      jumpi\n      mload(0x40)\n      0x08c379a000000000000000000000000000000000000000000000000000000000\n      dup2\n      mstore\n      0x04\n      add\n      tag_173\n      swap1\n      tag_174\n      jump\t// in\n    tag_173:\n      mload(0x40)\n      dup1\n      swap2\n      sub\n      swap1\n      revert\n    tag_172:\n        /* \"contracts/lab01_2.sol\":4099:4114  playerARevealed */\n      0x03\n      0x00\n      swap1\n      sload\n      swap1\n      0x0100\n      exp\n      swap1\n      div\n      0xff\n      and\n        /* \"contracts/lab01_2.sol\":4099:4134  playerARevealed && !playerBRevealed */\n      dup1\n      iszero\n      tag_175\n      jumpi\n      pop\n        /* \"contracts/lab01_2.sol\":4119:4134  playerBRevealed */\n      0x06\n      0x00\n      swap1\n      sload\n      swap1\n      0x0100\n      exp\n      swap1\n      div\n      0xff\n      and\n        /* \"contracts/lab01_2.sol\":4118:4134  !playerBRevealed */\n      iszero\n        /* \"contracts/lab01_2.sol\":4099:4134  playerARevealed && !playerBRevealed */\n    tag_175:\n        /* \"contracts/lab01_2.sol\":4095:4327  if (playerARevealed && !playerBRevealed) {... */\n      iszero\n      tag_176\n      jumpi\n        /* \"contracts/lab01_2.sol\":4160:4167  playerA */\n      0x00\n      dup1\n      sload\n      swap1\n      0x0100\n      exp\n      swap1\n      div\n      0xffffffffffffffffffffffffffffffffffffffff\n      and\n        /* \"contracts/lab01_2.sol\":4151:4157  winner */\n      0x08\n      0x00\n        /* \"contracts/lab01_2.sol\":4151:4167  winner = playerA */\n      0x0100\n      exp\n      dup2\n      sload\n      dup2\n      0xffffffffffffffffffffffffffffffffffffffff\n      mul\n      not\n      and\n      swap1\n      dup4\n      0xffffffffffffffffffffffffffffffffffffffff\n      and\n      mul\n      or\n      swap1\n      sstore\n      pop\n        /* \"contracts/lab01_2.sol\":4095:4327  if (playerARevealed && !playerBRevealed) {... */\n      jump(tag_177)\n    tag_176:\n        /* \"contracts/lab01_2.sol\":4247:4262  playerBRevealed */\n      0x06\n      0x00\n      swap1\n      sload\n      swap1\n      0x0100\n      exp\n      swap1\n      div\n      0xff\n      and\n        /* \"contracts/lab01_2.sol\":4247:4282  playerBRevealed && !playerARevealed */\n      dup1\n      iszero\n      tag_178\n      jumpi\n      pop\n        /* \"contracts/lab01_2.sol\":4267:4282  playerARevealed */\n      0x03\n      0x00\n      swap1\n      sload\n      swap1\n      0x0100\n      exp\n      swap1\n      div\n      0xff\n      and\n        /* \"contracts/lab01_2.sol\":4266:4282  !playerARevealed */\n      iszero\n        /* \"contracts/lab01_2.sol\":4247:4282  playerBRevealed && !playerARevealed */\n    tag_178:\n        /* \"contracts/lab01_2.sol\":4243:4327  if (playerBRevealed && !playerARevealed) {... */\n      iszero\n      tag_179\n      jumpi\n        /* \"contracts/lab01_2.sol\":4308:4315  playerB */\n      0x03\n      0x01\n      swap1\n      sload\n      swap1\n      0x0100\n      exp\n      swap1\n      div\n      0xffffffffffffffffffffffffffffffffffffffff\n      and\n        /* \"contracts/lab01_2.sol\":4299:4305  winner */\n      0x08\n      0x00\n        /* \"contracts/lab01_2.sol\":4299:4315  winner = playerB */\n      0x0100\n      exp\n      dup2\n      sload\n      dup2\n      0xffffffffffffffffffffffffffffffffffffffff\n      mul\n      not\n      and\n      swap1\n      dup4\n      0xffffffffffffffffffffffffffffffffffffffff\n      and\n      mul\n      or\n      swap1\n      sstore\n      pop\n        /* \"contracts/lab01_2.sol\":4243:4327  if (playerBRevealed && !playerARevealed) {... */\n    tag_179:\n        /* \"contracts/lab01_2.sol\":4095:4327  if (playerARevealed && !playerBRevealed) {... */\n    tag_177:\n        /* \"contracts/lab01_2.sol\":4351:4355  true */\n      0x01\n        /* \"contracts/lab01_2.sol\":4340:4348  gameDone */\n      0x08\n      0x14\n        /* \"contracts/lab01_2.sol\":4340:4355  gameDone = true */\n      0x0100\n      exp\n      dup2\n      sload\n      dup2\n      0xff\n      mul\n      not\n      and\n      swap1\n      dup4\n      iszero\n      iszero\n      mul\n      or\n      swap1\n      sstore\n      pop\n        /* \"contracts/lab01_2.sol\":4366:4376  withdraw() */\n      tag_180\n        /* \"contracts/lab01_2.sol\":4366:4374  withdraw */\n      tag_46\n        /* \"contracts/lab01_2.sol\":4366:4376  withdraw() */\n      jump\t// in\n    tag_180:\n        /* \"contracts/lab01_2.sol\":3801:4384  function forceWin() public {... */\n      jump\t// out\n        /* \"contracts/lab01_2.sol\":301:330  bytes32 public playerAEncVote */\n    tag_74:\n      sload(0x01)\n      dup2\n      jump\t// out\n        /* \"contracts/lab01_2.sol\":650:670  bool public gameDone */\n    tag_78:\n      0x08\n      0x14\n      swap1\n      sload\n      swap1\n      0x0100\n      exp\n      swap1\n      div\n      0xff\n      and\n      dup2\n      jump\t// out\n        /* \"contracts/lab01_2.sol\":677:710  uint256 public revealDeadline = 0 */\n    tag_82:\n      sload(0x09)\n      dup2\n      jump\t// out\n        /* \"contracts/lab01_2.sol\":199:235  uint256 public constant SCISSORS = 3 */\n    tag_86:\n        /* \"contracts/lab01_2.sol\":234:235  3 */\n      0x03\n        /* \"contracts/lab01_2.sol\":199:235  uint256 public constant SCISSORS = 3 */\n      dup2\n      jump\t// out\n        /* \"contracts/lab01_2.sol\":120:152  uint256 public constant ROCK = 1 */\n    tag_90:\n        /* \"contracts/lab01_2.sol\":151:152  1 */\n      0x01\n        /* \"contracts/lab01_2.sol\":120:152  uint256 public constant ROCK = 1 */\n      dup2\n      jump\t// out\n        /* \"contracts/lab01_2.sol\":4928:5367  function resetGame() public{... */\n    tag_94:\n        /* \"contracts/lab01_2.sol\":4986:4990  true */\n      0x01\n        /* \"contracts/lab01_2.sol\":4974:4990  gameDone == true */\n      iszero\n      iszero\n        /* \"contracts/lab01_2.sol\":4974:4982  gameDone */\n      0x08\n      0x14\n      swap1\n      sload\n      swap1\n      0x0100\n      exp\n      swap1\n      div\n      0xff\n      and\n        /* \"contracts/lab01_2.sol\":4974:4990  gameDone == true */\n      iszero\n      iszero\n      eq\n        /* \"contracts/lab01_2.sol\":4966:4991  require(gameDone == true) */\n      tag_182\n      jumpi\n      0x00\n      dup1\n      revert\n    tag_182:\n        /* \"contracts/lab01_2.sol\":5020:5021  0 */\n      0x00\n        /* \"contracts/lab01_2.sol\":5002:5009  playerA */\n      dup1\n      0x00\n        /* \"contracts/lab01_2.sol\":5002:5022  playerA = address(0) */\n      0x0100\n      exp\n      dup2\n      sload\n      dup2\n      0xffffffffffffffffffffffffffffffffffffffff\n      mul\n      not\n      and\n      swap1\n      dup4\n      0xffffffffffffffffffffffffffffffffffffffff\n      and\n      mul\n      or\n      swap1\n      sstore\n      pop\n        /* \"contracts/lab01_2.sol\":5058:5059  0 */\n      0x00\n        /* \"contracts/lab01_2.sol\":5050:5060  bytes32(0) */\n      dup1\n      shl\n        /* \"contracts/lab01_2.sol\":5033:5047  playerAEncVote */\n      0x01\n        /* \"contracts/lab01_2.sol\":5033:5060  playerAEncVote = bytes32(0) */\n      dup2\n      swap1\n      sstore\n      pop\n        /* \"contracts/lab01_2.sol\":5085:5086  0 */\n      0x00\n        /* \"contracts/lab01_2.sol\":5071:5082  playerAVote */\n      0x02\n        /* \"contracts/lab01_2.sol\":5071:5086  playerAVote = 0 */\n      dup2\n      swap1\n      sstore\n      pop\n        /* \"contracts/lab01_2.sol\":5115:5120  false */\n      0x00\n        /* \"contracts/lab01_2.sol\":5097:5112  playerARevealed */\n      0x03\n      0x00\n        /* \"contracts/lab01_2.sol\":5097:5120  playerARevealed = false */\n      0x0100\n      exp\n      dup2\n      sload\n      dup2\n      0xff\n      mul\n      not\n      and\n      swap1\n      dup4\n      iszero\n      iszero\n      mul\n      or\n      swap1\n      sstore\n      pop\n        /* \"contracts/lab01_2.sol\":5151:5152  0 */\n      0x00\n        /* \"contracts/lab01_2.sol\":5133:5140  playerB */\n      0x03\n      0x01\n        /* \"contracts/lab01_2.sol\":5133:5153  playerB = address(0) */\n      0x0100\n      exp\n      dup2\n      sload\n      dup2\n      0xffffffffffffffffffffffffffffffffffffffff\n      mul\n      not\n      and\n      swap1\n      dup4\n      0xffffffffffffffffffffffffffffffffffffffff\n      and\n      mul\n      or\n      swap1\n      sstore\n      pop\n        /* \"contracts/lab01_2.sol\":5189:5190  0 */\n      0x00\n        /* \"contracts/lab01_2.sol\":5181:5191  bytes32(0) */\n      dup1\n      shl\n        /* \"contracts/lab01_2.sol\":5164:5178  playerBEncVote */\n      0x04\n        /* \"contracts/lab01_2.sol\":5164:5191  playerBEncVote = bytes32(0) */\n      dup2\n      swap1\n      sstore\n      pop\n        /* \"contracts/lab01_2.sol\":5216:5217  0 */\n      0x00\n        /* \"contracts/lab01_2.sol\":5202:5213  playerBVote */\n      0x05\n        /* \"contracts/lab01_2.sol\":5202:5217  playerBVote = 0 */\n      dup2\n      swap1\n      sstore\n      pop\n        /* \"contracts/lab01_2.sol\":5246:5251  false */\n      0x00\n        /* \"contracts/lab01_2.sol\":5228:5243  playerBRevealed */\n      0x06\n      0x00\n        /* \"contracts/lab01_2.sol\":5228:5251  playerBRevealed = false */\n      0x0100\n      exp\n      dup2\n      sload\n      dup2\n      0xff\n      mul\n      not\n      and\n      swap1\n      dup4\n      iszero\n      iszero\n      mul\n      or\n      swap1\n      sstore\n      pop\n        /* \"contracts/lab01_2.sol\":5272:5273  0 */\n      0x00\n        /* \"contracts/lab01_2.sol\":5264:5269  stake */\n      0x07\n        /* \"contracts/lab01_2.sol\":5264:5273  stake = 0 */\n      dup2\n      swap1\n      sstore\n      pop\n        /* \"contracts/lab01_2.sol\":5301:5302  0 */\n      0x00\n        /* \"contracts/lab01_2.sol\":5284:5290  winner */\n      0x08\n      0x00\n        /* \"contracts/lab01_2.sol\":5284:5303  winner = address(0) */\n      0x0100\n      exp\n      dup2\n      sload\n      dup2\n      0xffffffffffffffffffffffffffffffffffffffff\n      mul\n      not\n      and\n      swap1\n      dup4\n      0xffffffffffffffffffffffffffffffffffffffff\n      and\n      mul\n      or\n      swap1\n      sstore\n      pop\n        /* \"contracts/lab01_2.sol\":5325:5330  false */\n      0x00\n        /* \"contracts/lab01_2.sol\":5314:5322  gameDone */\n      0x08\n      0x14\n        /* \"contracts/lab01_2.sol\":5314:5330  gameDone = false */\n      0x0100\n      exp\n      dup2\n      sload\n      dup2\n      0xff\n      mul\n      not\n      and\n      swap1\n      dup4\n      iszero\n      iszero\n      mul\n      or\n      swap1\n      sstore\n      pop\n        /* \"contracts/lab01_2.sol\":5358:5359  0 */\n      0x00\n        /* \"contracts/lab01_2.sol\":5341:5355  revealDeadline */\n      0x09\n        /* \"contracts/lab01_2.sol\":5341:5359  revealDeadline = 0 */\n      dup2\n      swap1\n      sstore\n      pop\n        /* \"contracts/lab01_2.sol\":4928:5367  function resetGame() public{... */\n      jump\t// out\n        /* \"contracts/lab01_2.sol\":159:192  uint256 public constant PAPER = 2 */\n    tag_97:\n        /* \"contracts/lab01_2.sol\":191:192  2 */\n      0x02\n        /* \"contracts/lab01_2.sol\":159:192  uint256 public constant PAPER = 2 */\n      dup2\n      jump\t// out\n        /* \"contracts/lab01_2.sol\":936:1823  function play(bytes32 _hashedVote) public payable {... */\n    tag_102:\n        /* \"contracts/lab01_2.sol\":1018:1025  1 ether */\n      0x0de0b6b3a7640000\n        /* \"contracts/lab01_2.sol\":1005:1014  msg.value */\n      callvalue\n        /* \"contracts/lab01_2.sol\":1005:1025  msg.value >= 1 ether */\n      lt\n      iszero\n        /* \"contracts/lab01_2.sol\":997:1054  require(msg.value >= 1 ether, \"Bet must be over 1 ether\") */\n      tag_184\n      jumpi\n      mload(0x40)\n      0x08c379a000000000000000000000000000000000000000000000000000000000\n      dup2\n      mstore\n      0x04\n      add\n      tag_185\n      swap1\n      tag_186\n      jump\t// in\n    tag_185:\n      mload(0x40)\n      dup1\n      swap2\n      sub\n      swap1\n      revert\n    tag_184:\n        /* \"contracts/lab01_2.sol\":1087:1088  0 */\n      0x00\n        /* \"contracts/lab01_2.sol\":1068:1089  playerA == address(0) */\n      0xffffffffffffffffffffffffffffffffffffffff\n      and\n        /* \"contracts/lab01_2.sol\":1068:1075  playerA */\n      0x00\n      dup1\n      sload\n      swap1\n      0x0100\n      exp\n      swap1\n      div\n      0xffffffffffffffffffffffffffffffffffffffff\n      and\n        /* \"contracts/lab01_2.sol\":1068:1089  playerA == address(0) */\n      0xffffffffffffffffffffffffffffffffffffffff\n      and\n      sub\n        /* \"contracts/lab01_2.sol\":1065:1816  if(playerA == address(0)){... */\n      tag_187\n      jumpi\n        /* \"contracts/lab01_2.sol\":1115:1125  msg.sender */\n      caller\n        /* \"contracts/lab01_2.sol\":1105:1112  playerA */\n      0x00\n      dup1\n        /* \"contracts/lab01_2.sol\":1105:1125  playerA = msg.sender */\n      0x0100\n      exp\n      dup2\n      sload\n      dup2\n      0xffffffffffffffffffffffffffffffffffffffff\n      mul\n      not\n      and\n      swap1\n      dup4\n      0xffffffffffffffffffffffffffffffffffffffff\n      and\n      mul\n      or\n      swap1\n      sstore\n      pop\n        /* \"contracts/lab01_2.sol\":1154:1155  0 */\n      0x00\n        /* \"contracts/lab01_2.sol\":1140:1151  playerAVote */\n      0x02\n        /* \"contracts/lab01_2.sol\":1140:1155  playerAVote = 0 */\n      dup2\n      swap1\n      sstore\n      pop\n        /* \"contracts/lab01_2.sol\":1187:1198  _hashedVote */\n      dup1\n        /* \"contracts/lab01_2.sol\":1170:1184  playerAEncVote */\n      0x01\n        /* \"contracts/lab01_2.sol\":1170:1198  playerAEncVote = _hashedVote */\n      dup2\n      swap1\n      sstore\n      pop\n        /* \"contracts/lab01_2.sol\":1231:1236  false */\n      0x00\n        /* \"contracts/lab01_2.sol\":1213:1228  playerARevealed */\n      0x03\n      0x00\n        /* \"contracts/lab01_2.sol\":1213:1236  playerARevealed = false */\n      0x0100\n      exp\n      dup2\n      sload\n      dup2\n      0xff\n      mul\n      not\n      and\n      swap1\n      dup4\n      iszero\n      iszero\n      mul\n      or\n      swap1\n      sstore\n      pop\n        /* \"contracts/lab01_2.sol\":1259:1268  msg.value */\n      callvalue\n        /* \"contracts/lab01_2.sol\":1251:1256  stake */\n      0x07\n        /* \"contracts/lab01_2.sol\":1251:1268  stake = msg.value */\n      dup2\n      swap1\n      sstore\n      pop\n        /* \"contracts/lab01_2.sol\":1288:1325  playEvent(msg.sender, playerAEncVote) */\n      0xc75a7eb1b909ed9b3dfae875baf41024b531546fcd92ccd27947af1b9212b4f2\n        /* \"contracts/lab01_2.sol\":1298:1308  msg.sender */\n      caller\n        /* \"contracts/lab01_2.sol\":1310:1324  playerAEncVote */\n      sload(0x01)\n        /* \"contracts/lab01_2.sol\":1288:1325  playEvent(msg.sender, playerAEncVote) */\n      mload(0x40)\n      tag_188\n      swap3\n      swap2\n      swap1\n      tag_189\n      jump\t// in\n    tag_188:\n      mload(0x40)\n      dup1\n      swap2\n      sub\n      swap1\n      log1\n        /* \"contracts/lab01_2.sol\":1065:1816  if(playerA == address(0)){... */\n      jump(tag_190)\n    tag_187:\n        /* \"contracts/lab01_2.sol\":1374:1375  0 */\n      0x00\n        /* \"contracts/lab01_2.sol\":1355:1376  playerB == address(0) */\n      0xffffffffffffffffffffffffffffffffffffffff\n      and\n        /* \"contracts/lab01_2.sol\":1355:1362  playerB */\n      0x03\n      0x01\n      swap1\n      sload\n      swap1\n      0x0100\n      exp\n      swap1\n      div\n      0xffffffffffffffffffffffffffffffffffffffff\n      and\n        /* \"contracts/lab01_2.sol\":1355:1376  playerB == address(0) */\n      0xffffffffffffffffffffffffffffffffffffffff\n      and\n      sub\n        /* \"contracts/lab01_2.sol\":1352:1816  if(playerB == address(0)){... */\n      tag_191\n      jumpi\n        /* \"contracts/lab01_2.sol\":1414:1421  playerA */\n      0x00\n      dup1\n      sload\n      swap1\n      0x0100\n      exp\n      swap1\n      div\n      0xffffffffffffffffffffffffffffffffffffffff\n      and\n        /* \"contracts/lab01_2.sol\":1400:1421  msg.sender != playerA */\n      0xffffffffffffffffffffffffffffffffffffffff\n      and\n        /* \"contracts/lab01_2.sol\":1400:1410  msg.sender */\n      caller\n        /* \"contracts/lab01_2.sol\":1400:1421  msg.sender != playerA */\n      0xffffffffffffffffffffffffffffffffffffffff\n      and\n      sub\n        /* \"contracts/lab01_2.sol\":1392:1458  require(msg.sender != playerA, \"Same player cannot join the game\") */\n      tag_192\n      jumpi\n      mload(0x40)\n      0x08c379a000000000000000000000000000000000000000000000000000000000\n      dup2\n      mstore\n      0x04\n      add\n      tag_193\n      swap1\n      tag_194\n      jump\t// in\n    tag_193:\n      mload(0x40)\n      dup1\n      swap2\n      sub\n      swap1\n      revert\n    tag_192:\n        /* \"contracts/lab01_2.sol\":1494:1499  stake */\n      sload(0x07)\n        /* \"contracts/lab01_2.sol\":1481:1490  msg.value */\n      callvalue\n        /* \"contracts/lab01_2.sol\":1481:1499  msg.value == stake */\n      eq\n        /* \"contracts/lab01_2.sol\":1473:1540  require(msg.value == stake, \"Must match the stake of first player\") */\n      tag_195\n      jumpi\n      mload(0x40)\n      0x08c379a000000000000000000000000000000000000000000000000000000000\n      dup2\n      mstore\n      0x04\n      add\n      tag_196\n      swap1\n      tag_197\n      jump\t// in\n    tag_196:\n      mload(0x40)\n      dup1\n      swap2\n      sub\n      swap1\n      revert\n    tag_195:\n        /* \"contracts/lab01_2.sol\":1565:1575  msg.sender */\n      caller\n        /* \"contracts/lab01_2.sol\":1555:1562  playerB */\n      0x03\n      0x01\n        /* \"contracts/lab01_2.sol\":1555:1575  playerB = msg.sender */\n      0x0100\n      exp\n      dup2\n      sload\n      dup2\n      0xffffffffffffffffffffffffffffffffffffffff\n      mul\n      not\n      and\n      swap1\n      dup4\n      0xffffffffffffffffffffffffffffffffffffffff\n      and\n      mul\n      or\n      swap1\n      sstore\n      pop\n        /* \"contracts/lab01_2.sol\":1604:1605  0 */\n      0x00\n        /* \"contracts/lab01_2.sol\":1590:1601  playerBVote */\n      0x05\n        /* \"contracts/lab01_2.sol\":1590:1605  playerBVote = 0 */\n      dup2\n      swap1\n      sstore\n      pop\n        /* \"contracts/lab01_2.sol\":1637:1648  _hashedVote */\n      dup1\n        /* \"contracts/lab01_2.sol\":1620:1634  playerBEncVote */\n      0x04\n        /* \"contracts/lab01_2.sol\":1620:1648  playerBEncVote = _hashedVote */\n      dup2\n      swap1\n      sstore\n      pop\n        /* \"contracts/lab01_2.sol\":1681:1686  false */\n      0x00\n        /* \"contracts/lab01_2.sol\":1663:1678  playerBRevealed */\n      0x06\n      0x00\n        /* \"contracts/lab01_2.sol\":1663:1686  playerBRevealed = false */\n      0x0100\n      exp\n      dup2\n      sload\n      dup2\n      0xff\n      mul\n      not\n      and\n      swap1\n      dup4\n      iszero\n      iszero\n      mul\n      or\n      swap1\n      sstore\n      pop\n        /* \"contracts/lab01_2.sol\":1706:1743  playEvent(msg.sender, playerBEncVote) */\n      0xc75a7eb1b909ed9b3dfae875baf41024b531546fcd92ccd27947af1b9212b4f2\n        /* \"contracts/lab01_2.sol\":1716:1726  msg.sender */\n      caller\n        /* \"contracts/lab01_2.sol\":1728:1742  playerBEncVote */\n      sload(0x04)\n        /* \"contracts/lab01_2.sol\":1706:1743  playEvent(msg.sender, playerBEncVote) */\n      mload(0x40)\n      tag_198\n      swap3\n      swap2\n      swap1\n      tag_189\n      jump\t// in\n    tag_198:\n      mload(0x40)\n      dup1\n      swap2\n      sub\n      swap1\n      log1\n        /* \"contracts/lab01_2.sol\":1352:1816  if(playerB == address(0)){... */\n      jump(tag_199)\n    tag_191:\n        /* \"contracts/lab01_2.sol\":1785:1804  revert(\"Full game\") */\n      mload(0x40)\n      0x08c379a000000000000000000000000000000000000000000000000000000000\n      dup2\n      mstore\n      0x04\n      add\n      tag_200\n      swap1\n      tag_201\n      jump\t// in\n    tag_200:\n      mload(0x40)\n      dup1\n      swap2\n      sub\n      swap1\n      revert\n        /* \"contracts/lab01_2.sol\":1352:1816  if(playerB == address(0)){... */\n    tag_199:\n        /* \"contracts/lab01_2.sol\":1065:1816  if(playerA == address(0)){... */\n    tag_190:\n        /* \"contracts/lab01_2.sol\":936:1823  function play(bytes32 _hashedVote) public payable {... */\n      pop\n      jump\t// out\n        /* \"contracts/lab01_2.sol\":622:643  address public winner */\n    tag_105:\n      0x08\n      0x00\n      swap1\n      sload\n      swap1\n      0x0100\n      exp\n      swap1\n      div\n      0xffffffffffffffffffffffffffffffffffffffff\n      and\n      dup2\n      jump\t// out\n        /* \"contracts/lab01_2.sol\":3278:3795  function findWinner() private view returns (address) {... */\n    tag_163:\n        /* \"contracts/lab01_2.sol\":3322:3329  address */\n      0x00\n        /* \"contracts/lab01_2.sol\":3360:3371  playerBVote */\n      sload(0x05)\n        /* \"contracts/lab01_2.sol\":3345:3356  playerAVote */\n      sload(0x02)\n        /* \"contracts/lab01_2.sol\":3345:3371  playerAVote == playerBVote */\n      sub\n        /* \"contracts/lab01_2.sol\":3342:3788  if(playerAVote == playerBVote){... */\n      tag_203\n      jumpi\n        /* \"contracts/lab01_2.sol\":3402:3403  0 */\n      0x00\n        /* \"contracts/lab01_2.sol\":3387:3404  return address(0) */\n      swap1\n      pop\n      jump(tag_202)\n        /* \"contracts/lab01_2.sol\":3342:3788  if(playerAVote == playerBVote){... */\n    tag_203:\n        /* \"contracts/lab01_2.sol\":3472:3473  1 */\n      0x01\n        /* \"contracts/lab01_2.sol\":3457:3468  playerAVote */\n      sload(0x02)\n        /* \"contracts/lab01_2.sol\":3457:3473  playerAVote == 1 */\n      eq\n        /* \"contracts/lab01_2.sol\":3457:3493  playerAVote == 1 && playerBVote == 3 */\n      dup1\n      iszero\n      tag_205\n      jumpi\n      pop\n        /* \"contracts/lab01_2.sol\":3492:3493  3 */\n      0x03\n        /* \"contracts/lab01_2.sol\":3477:3488  playerBVote */\n      sload(0x05)\n        /* \"contracts/lab01_2.sol\":3477:3493  playerBVote == 3 */\n      eq\n        /* \"contracts/lab01_2.sol\":3457:3493  playerAVote == 1 && playerBVote == 3 */\n    tag_205:\n        /* \"contracts/lab01_2.sol\":3456:3572  (playerAVote == 1 && playerBVote == 3) || // Rock beats Scissors... */\n      dup1\n      tag_206\n      jumpi\n      pop\n        /* \"contracts/lab01_2.sol\":3550:3551  2 */\n      0x02\n        /* \"contracts/lab01_2.sol\":3535:3546  playerAVote */\n      dup1\n      sload\n        /* \"contracts/lab01_2.sol\":3535:3551  playerAVote == 2 */\n      eq\n        /* \"contracts/lab01_2.sol\":3535:3571  playerAVote == 2 && playerBVote == 1 */\n      dup1\n      iszero\n      tag_207\n      jumpi\n      pop\n        /* \"contracts/lab01_2.sol\":3570:3571  1 */\n      0x01\n        /* \"contracts/lab01_2.sol\":3555:3566  playerBVote */\n      sload(0x05)\n        /* \"contracts/lab01_2.sol\":3555:3571  playerBVote == 1 */\n      eq\n        /* \"contracts/lab01_2.sol\":3535:3571  playerAVote == 2 && playerBVote == 1 */\n    tag_207:\n        /* \"contracts/lab01_2.sol\":3456:3572  (playerAVote == 1 && playerBVote == 3) || // Rock beats Scissors... */\n    tag_206:\n        /* \"contracts/lab01_2.sol\":3456:3647  (playerAVote == 1 && playerBVote == 3) || // Rock beats Scissors... */\n      dup1\n      tag_208\n      jumpi\n      pop\n        /* \"contracts/lab01_2.sol\":3625:3626  3 */\n      0x03\n        /* \"contracts/lab01_2.sol\":3610:3621  playerAVote */\n      sload(0x02)\n        /* \"contracts/lab01_2.sol\":3610:3626  playerAVote == 3 */\n      eq\n        /* \"contracts/lab01_2.sol\":3610:3646  playerAVote == 3 && playerBVote == 2 */\n      dup1\n      iszero\n      tag_209\n      jumpi\n      pop\n        /* \"contracts/lab01_2.sol\":3645:3646  2 */\n      0x02\n        /* \"contracts/lab01_2.sol\":3630:3641  playerBVote */\n      sload(0x05)\n        /* \"contracts/lab01_2.sol\":3630:3646  playerBVote == 2 */\n      eq\n        /* \"contracts/lab01_2.sol\":3610:3646  playerAVote == 3 && playerBVote == 2 */\n    tag_209:\n        /* \"contracts/lab01_2.sol\":3456:3647  (playerAVote == 1 && playerBVote == 3) || // Rock beats Scissors... */\n    tag_208:\n        /* \"contracts/lab01_2.sol\":3439:3788  if(... */\n      iszero\n      tag_210\n      jumpi\n        /* \"contracts/lab01_2.sol\":3717:3724  playerA */\n      0x00\n      dup1\n      sload\n      swap1\n      0x0100\n      exp\n      swap1\n      div\n      0xffffffffffffffffffffffffffffffffffffffff\n      and\n        /* \"contracts/lab01_2.sol\":3710:3724  return playerA */\n      swap1\n      pop\n      jump(tag_202)\n        /* \"contracts/lab01_2.sol\":3439:3788  if(... */\n    tag_210:\n        /* \"contracts/lab01_2.sol\":3769:3776  playerB */\n      0x03\n      0x01\n      swap1\n      sload\n      swap1\n      0x0100\n      exp\n      swap1\n      div\n      0xffffffffffffffffffffffffffffffffffffffff\n      and\n        /* \"contracts/lab01_2.sol\":3762:3776  return playerB */\n      swap1\n      pop\n        /* \"contracts/lab01_2.sol\":3278:3795  function findWinner() private view returns (address) {... */\n    tag_202:\n      swap1\n      jump\t// out\n        /* \"#utility.yul\":7:84   */\n    tag_212:\n        /* \"#utility.yul\":44:51   */\n      0x00\n        /* \"#utility.yul\":73:78   */\n      dup2\n        /* \"#utility.yul\":62:78   */\n      swap1\n      pop\n        /* \"#utility.yul\":7:84   */\n      swap2\n      swap1\n      pop\n      jump\t// out\n        /* \"#utility.yul\":90:208   */\n    tag_213:\n        /* \"#utility.yul\":177:201   */\n      tag_261\n        /* \"#utility.yul\":195:200   */\n      dup2\n        /* \"#utility.yul\":177:201   */\n      tag_212\n      jump\t// in\n    tag_261:\n        /* \"#utility.yul\":172:175   */\n      dup3\n        /* \"#utility.yul\":165:202   */\n      mstore\n        /* \"#utility.yul\":90:208   */\n      pop\n      pop\n      jump\t// out\n        /* \"#utility.yul\":214:436   */\n    tag_29:\n        /* \"#utility.yul\":307:311   */\n      0x00\n        /* \"#utility.yul\":345:347   */\n      0x20\n        /* \"#utility.yul\":334:343   */\n      dup3\n        /* \"#utility.yul\":330:348   */\n      add\n        /* \"#utility.yul\":322:348   */\n      swap1\n      pop\n        /* \"#utility.yul\":358:429   */\n      tag_263\n        /* \"#utility.yul\":426:427   */\n      0x00\n        /* \"#utility.yul\":415:424   */\n      dup4\n        /* \"#utility.yul\":411:428   */\n      add\n        /* \"#utility.yul\":402:408   */\n      dup5\n        /* \"#utility.yul\":358:429   */\n      tag_213\n      jump\t// in\n    tag_263:\n        /* \"#utility.yul\":214:436   */\n      swap3\n      swap2\n      pop\n      pop\n      jump\t// out\n        /* \"#utility.yul\":442:532   */\n    tag_214:\n        /* \"#utility.yul\":476:483   */\n      0x00\n        /* \"#utility.yul\":519:524   */\n      dup2\n        /* \"#utility.yul\":512:525   */\n      iszero\n        /* \"#utility.yul\":505:526   */\n      iszero\n        /* \"#utility.yul\":494:526   */\n      swap1\n      pop\n        /* \"#utility.yul\":442:532   */\n      swap2\n      swap1\n      pop\n      jump\t// out\n        /* \"#utility.yul\":538:647   */\n    tag_215:\n        /* \"#utility.yul\":619:640   */\n      tag_266\n        /* \"#utility.yul\":634:639   */\n      dup2\n        /* \"#utility.yul\":619:640   */\n      tag_214\n      jump\t// in\n    tag_266:\n        /* \"#utility.yul\":614:617   */\n      dup3\n        /* \"#utility.yul\":607:641   */\n      mstore\n        /* \"#utility.yul\":538:647   */\n      pop\n      pop\n      jump\t// out\n        /* \"#utility.yul\":653:863   */\n    tag_34:\n        /* \"#utility.yul\":740:744   */\n      0x00\n        /* \"#utility.yul\":778:780   */\n      0x20\n        /* \"#utility.yul\":767:776   */\n      dup3\n        /* \"#utility.yul\":763:781   */\n      add\n        /* \"#utility.yul\":755:781   */\n      swap1\n      pop\n        /* \"#utility.yul\":791:856   */\n      tag_268\n        /* \"#utility.yul\":853:854   */\n      0x00\n        /* \"#utility.yul\":842:851   */\n      dup4\n        /* \"#utility.yul\":838:855   */\n      add\n        /* \"#utility.yul\":829:835   */\n      dup5\n        /* \"#utility.yul\":791:856   */\n      tag_215\n      jump\t// in\n    tag_268:\n        /* \"#utility.yul\":653:863   */\n      swap3\n      swap2\n      pop\n      pop\n      jump\t// out\n        /* \"#utility.yul\":869:995   */\n    tag_216:\n        /* \"#utility.yul\":906:913   */\n      0x00\n        /* \"#utility.yul\":946:988   */\n      0xffffffffffffffffffffffffffffffffffffffff\n        /* \"#utility.yul\":939:944   */\n      dup3\n        /* \"#utility.yul\":935:989   */\n      and\n        /* \"#utility.yul\":924:989   */\n      swap1\n      pop\n        /* \"#utility.yul\":869:995   */\n      swap2\n      swap1\n      pop\n      jump\t// out\n        /* \"#utility.yul\":1001:1097   */\n    tag_217:\n        /* \"#utility.yul\":1038:1045   */\n      0x00\n        /* \"#utility.yul\":1067:1091   */\n      tag_271\n        /* \"#utility.yul\":1085:1090   */\n      dup3\n        /* \"#utility.yul\":1067:1091   */\n      tag_216\n      jump\t// in\n    tag_271:\n        /* \"#utility.yul\":1056:1091   */\n      swap1\n      pop\n        /* \"#utility.yul\":1001:1097   */\n      swap2\n      swap1\n      pop\n      jump\t// out\n        /* \"#utility.yul\":1103:1221   */\n    tag_218:\n        /* \"#utility.yul\":1190:1214   */\n      tag_273\n        /* \"#utility.yul\":1208:1213   */\n      dup2\n        /* \"#utility.yul\":1190:1214   */\n      tag_217\n      jump\t// in\n    tag_273:\n        /* \"#utility.yul\":1185:1188   */\n      dup3\n        /* \"#utility.yul\":1178:1215   */\n      mstore\n        /* \"#utility.yul\":1103:1221   */\n      pop\n      pop\n      jump\t// out\n        /* \"#utility.yul\":1227:1449   */\n    tag_39:\n        /* \"#utility.yul\":1320:1324   */\n      0x00\n        /* \"#utility.yul\":1358:1360   */\n      0x20\n        /* \"#utility.yul\":1347:1356   */\n      dup3\n        /* \"#utility.yul\":1343:1361   */\n      add\n        /* \"#utility.yul\":1335:1361   */\n      swap1\n      pop\n        /* \"#utility.yul\":1371:1442   */\n      tag_275\n        /* \"#utility.yul\":1439:1440   */\n      0x00\n        /* \"#utility.yul\":1428:1437   */\n      dup4\n        /* \"#utility.yul\":1424:1441   */\n      add\n        /* \"#utility.yul\":1415:1421   */\n      dup5\n        /* \"#utility.yul\":1371:1442   */\n      tag_218\n      jump\t// in\n    tag_275:\n        /* \"#utility.yul\":1227:1449   */\n      swap3\n      swap2\n      pop\n      pop\n      jump\t// out\n        /* \"#utility.yul\":1455:1532   */\n    tag_219:\n        /* \"#utility.yul\":1492:1499   */\n      0x00\n        /* \"#utility.yul\":1521:1526   */\n      dup2\n        /* \"#utility.yul\":1510:1526   */\n      swap1\n      pop\n        /* \"#utility.yul\":1455:1532   */\n      swap2\n      swap1\n      pop\n      jump\t// out\n        /* \"#utility.yul\":1538:1656   */\n    tag_220:\n        /* \"#utility.yul\":1625:1649   */\n      tag_278\n        /* \"#utility.yul\":1643:1648   */\n      dup2\n        /* \"#utility.yul\":1625:1649   */\n      tag_219\n      jump\t// in\n    tag_278:\n        /* \"#utility.yul\":1620:1623   */\n      dup3\n        /* \"#utility.yul\":1613:1650   */\n      mstore\n        /* \"#utility.yul\":1538:1656   */\n      pop\n      pop\n      jump\t// out\n        /* \"#utility.yul\":1662:1884   */\n    tag_55:\n        /* \"#utility.yul\":1755:1759   */\n      0x00\n        /* \"#utility.yul\":1793:1795   */\n      0x20\n        /* \"#utility.yul\":1782:1791   */\n      dup3\n        /* \"#utility.yul\":1778:1796   */\n      add\n        /* \"#utility.yul\":1770:1796   */\n      swap1\n      pop\n        /* \"#utility.yul\":1806:1877   */\n      tag_280\n        /* \"#utility.yul\":1874:1875   */\n      0x00\n        /* \"#utility.yul\":1863:1872   */\n      dup4\n        /* \"#utility.yul\":1859:1876   */\n      add\n        /* \"#utility.yul\":1850:1856   */\n      dup5\n        /* \"#utility.yul\":1806:1877   */\n      tag_220\n      jump\t// in\n    tag_280:\n        /* \"#utility.yul\":1662:1884   */\n      swap3\n      swap2\n      pop\n      pop\n      jump\t// out\n        /* \"#utility.yul\":1971:2088   */\n    tag_222:\n        /* \"#utility.yul\":2080:2081   */\n      0x00\n        /* \"#utility.yul\":2077:2078   */\n      dup1\n        /* \"#utility.yul\":2070:2082   */\n      revert\n        /* \"#utility.yul\":2217:2339   */\n    tag_224:\n        /* \"#utility.yul\":2290:2314   */\n      tag_285\n        /* \"#utility.yul\":2308:2313   */\n      dup2\n        /* \"#utility.yul\":2290:2314   */\n      tag_212\n      jump\t// in\n    tag_285:\n        /* \"#utility.yul\":2283:2288   */\n      dup2\n        /* \"#utility.yul\":2280:2315   */\n      eq\n        /* \"#utility.yul\":2270:2333   */\n      tag_286\n      jumpi\n        /* \"#utility.yul\":2329:2330   */\n      0x00\n        /* \"#utility.yul\":2326:2327   */\n      dup1\n        /* \"#utility.yul\":2319:2331   */\n      revert\n        /* \"#utility.yul\":2270:2333   */\n    tag_286:\n        /* \"#utility.yul\":2217:2339   */\n      pop\n      jump\t// out\n        /* \"#utility.yul\":2345:2484   */\n    tag_225:\n        /* \"#utility.yul\":2391:2396   */\n      0x00\n        /* \"#utility.yul\":2429:2435   */\n      dup2\n        /* \"#utility.yul\":2416:2436   */\n      calldataload\n        /* \"#utility.yul\":2407:2436   */\n      swap1\n      pop\n        /* \"#utility.yul\":2445:2478   */\n      tag_288\n        /* \"#utility.yul\":2472:2477   */\n      dup2\n        /* \"#utility.yul\":2445:2478   */\n      tag_224\n      jump\t// in\n    tag_288:\n        /* \"#utility.yul\":2345:2484   */\n      swap3\n      swap2\n      pop\n      pop\n      jump\t// out\n        /* \"#utility.yul\":2490:2964   */\n    tag_63:\n        /* \"#utility.yul\":2558:2564   */\n      0x00\n        /* \"#utility.yul\":2566:2572   */\n      dup1\n        /* \"#utility.yul\":2615:2617   */\n      0x40\n        /* \"#utility.yul\":2603:2612   */\n      dup4\n        /* \"#utility.yul\":2594:2601   */\n      dup6\n        /* \"#utility.yul\":2590:2613   */\n      sub\n        /* \"#utility.yul\":2586:2618   */\n      slt\n        /* \"#utility.yul\":2583:2702   */\n      iszero\n      tag_290\n      jumpi\n        /* \"#utility.yul\":2621:2700   */\n      tag_291\n      tag_222\n      jump\t// in\n    tag_291:\n        /* \"#utility.yul\":2583:2702   */\n    tag_290:\n        /* \"#utility.yul\":2741:2742   */\n      0x00\n        /* \"#utility.yul\":2766:2819   */\n      tag_292\n        /* \"#utility.yul\":2811:2818   */\n      dup6\n        /* \"#utility.yul\":2802:2808   */\n      dup3\n        /* \"#utility.yul\":2791:2800   */\n      dup7\n        /* \"#utility.yul\":2787:2809   */\n      add\n        /* \"#utility.yul\":2766:2819   */\n      tag_225\n      jump\t// in\n    tag_292:\n        /* \"#utility.yul\":2756:2819   */\n      swap3\n      pop\n        /* \"#utility.yul\":2712:2829   */\n      pop\n        /* \"#utility.yul\":2868:2870   */\n      0x20\n        /* \"#utility.yul\":2894:2947   */\n      tag_293\n        /* \"#utility.yul\":2939:2946   */\n      dup6\n        /* \"#utility.yul\":2930:2936   */\n      dup3\n        /* \"#utility.yul\":2919:2928   */\n      dup7\n        /* \"#utility.yul\":2915:2937   */\n      add\n        /* \"#utility.yul\":2894:2947   */\n      tag_225\n      jump\t// in\n    tag_293:\n        /* \"#utility.yul\":2884:2947   */\n      swap2\n      pop\n        /* \"#utility.yul\":2839:2957   */\n      pop\n        /* \"#utility.yul\":2490:2964   */\n      swap3\n      pop\n      swap3\n      swap1\n      pop\n      jump\t// out\n        /* \"#utility.yul\":2970:3092   */\n    tag_226:\n        /* \"#utility.yul\":3043:3067   */\n      tag_295\n        /* \"#utility.yul\":3061:3066   */\n      dup2\n        /* \"#utility.yul\":3043:3067   */\n      tag_219\n      jump\t// in\n    tag_295:\n        /* \"#utility.yul\":3036:3041   */\n      dup2\n        /* \"#utility.yul\":3033:3068   */\n      eq\n        /* \"#utility.yul\":3023:3086   */\n      tag_296\n      jumpi\n        /* \"#utility.yul\":3082:3083   */\n      0x00\n        /* \"#utility.yul\":3079:3080   */\n      dup1\n        /* \"#utility.yul\":3072:3084   */\n      revert\n        /* \"#utility.yul\":3023:3086   */\n    tag_296:\n        /* \"#utility.yul\":2970:3092   */\n      pop\n      jump\t// out\n        /* \"#utility.yul\":3098:3237   */\n    tag_227:\n        /* \"#utility.yul\":3144:3149   */\n      0x00\n        /* \"#utility.yul\":3182:3188   */\n      dup2\n        /* \"#utility.yul\":3169:3189   */\n      calldataload\n        /* \"#utility.yul\":3160:3189   */\n      swap1\n      pop\n        /* \"#utility.yul\":3198:3231   */\n      tag_298\n        /* \"#utility.yul\":3225:3230   */\n      dup2\n        /* \"#utility.yul\":3198:3231   */\n      tag_226\n      jump\t// in\n    tag_298:\n        /* \"#utility.yul\":3098:3237   */\n      swap3\n      swap2\n      pop\n      pop\n      jump\t// out\n        /* \"#utility.yul\":3243:3572   */\n    tag_101:\n        /* \"#utility.yul\":3302:3308   */\n      0x00\n        /* \"#utility.yul\":3351:3353   */\n      0x20\n        /* \"#utility.yul\":3339:3348   */\n      dup3\n        /* \"#utility.yul\":3330:3337   */\n      dup5\n        /* \"#utility.yul\":3326:3349   */\n      sub\n        /* \"#utility.yul\":3322:3354   */\n      slt\n        /* \"#utility.yul\":3319:3438   */\n      iszero\n      tag_300\n      jumpi\n        /* \"#utility.yul\":3357:3436   */\n      tag_301\n      tag_222\n      jump\t// in\n    tag_301:\n        /* \"#utility.yul\":3319:3438   */\n    tag_300:\n        /* \"#utility.yul\":3477:3478   */\n      0x00\n        /* \"#utility.yul\":3502:3555   */\n      tag_302\n        /* \"#utility.yul\":3547:3554   */\n      dup5\n        /* \"#utility.yul\":3538:3544   */\n      dup3\n        /* \"#utility.yul\":3527:3536   */\n      dup6\n        /* \"#utility.yul\":3523:3545   */\n      add\n        /* \"#utility.yul\":3502:3555   */\n      tag_227\n      jump\t// in\n    tag_302:\n        /* \"#utility.yul\":3492:3555   */\n      swap2\n      pop\n        /* \"#utility.yul\":3448:3565   */\n      pop\n        /* \"#utility.yul\":3243:3572   */\n      swap3\n      swap2\n      pop\n      pop\n      jump\t// out\n        /* \"#utility.yul\":3578:3747   */\n    tag_228:\n        /* \"#utility.yul\":3662:3673   */\n      0x00\n        /* \"#utility.yul\":3696:3702   */\n      dup3\n        /* \"#utility.yul\":3691:3694   */\n      dup3\n        /* \"#utility.yul\":3684:3703   */\n      mstore\n        /* \"#utility.yul\":3736:3740   */\n      0x20\n        /* \"#utility.yul\":3731:3734   */\n      dup3\n        /* \"#utility.yul\":3727:3741   */\n      add\n        /* \"#utility.yul\":3712:3741   */\n      swap1\n      pop\n        /* \"#utility.yul\":3578:3747   */\n      swap3\n      swap2\n      pop\n      pop\n      jump\t// out\n        /* \"#utility.yul\":3753:3928   */\n    tag_229:\n        /* \"#utility.yul\":3893:3920   */\n      0x4e6f74206120706c6179657220696e20746869732067616d6500000000000000\n        /* \"#utility.yul\":3889:3890   */\n      0x00\n        /* \"#utility.yul\":3881:3887   */\n      dup3\n        /* \"#utility.yul\":3877:3891   */\n      add\n        /* \"#utility.yul\":3870:3921   */\n      mstore\n        /* \"#utility.yul\":3753:3928   */\n      pop\n      jump\t// out\n        /* \"#utility.yul\":3934:4300   */\n    tag_230:\n        /* \"#utility.yul\":4076:4079   */\n      0x00\n        /* \"#utility.yul\":4097:4164   */\n      tag_306\n        /* \"#utility.yul\":4161:4163   */\n      0x19\n        /* \"#utility.yul\":4156:4159   */\n      dup4\n        /* \"#utility.yul\":4097:4164   */\n      tag_228\n      jump\t// in\n    tag_306:\n        /* \"#utility.yul\":4090:4164   */\n      swap2\n      pop\n        /* \"#utility.yul\":4173:4266   */\n      tag_307\n        /* \"#utility.yul\":4262:4265   */\n      dup3\n        /* \"#utility.yul\":4173:4266   */\n      tag_229\n      jump\t// in\n    tag_307:\n        /* \"#utility.yul\":4291:4293   */\n      0x20\n        /* \"#utility.yul\":4286:4289   */\n      dup3\n        /* \"#utility.yul\":4282:4294   */\n      add\n        /* \"#utility.yul\":4275:4294   */\n      swap1\n      pop\n        /* \"#utility.yul\":3934:4300   */\n      swap2\n      swap1\n      pop\n      jump\t// out\n        /* \"#utility.yul\":4306:4725   */\n    tag_112:\n        /* \"#utility.yul\":4472:4476   */\n      0x00\n        /* \"#utility.yul\":4510:4512   */\n      0x20\n        /* \"#utility.yul\":4499:4508   */\n      dup3\n        /* \"#utility.yul\":4495:4513   */\n      add\n        /* \"#utility.yul\":4487:4513   */\n      swap1\n      pop\n        /* \"#utility.yul\":4559:4568   */\n      dup2\n        /* \"#utility.yul\":4553:4557   */\n      dup2\n        /* \"#utility.yul\":4549:4569   */\n      sub\n        /* \"#utility.yul\":4545:4546   */\n      0x00\n        /* \"#utility.yul\":4534:4543   */\n      dup4\n        /* \"#utility.yul\":4530:4547   */\n      add\n        /* \"#utility.yul\":4523:4570   */\n      mstore\n        /* \"#utility.yul\":4587:4718   */\n      tag_309\n        /* \"#utility.yul\":4713:4717   */\n      dup2\n        /* \"#utility.yul\":4587:4718   */\n      tag_230\n      jump\t// in\n    tag_309:\n        /* \"#utility.yul\":4579:4718   */\n      swap1\n      pop\n        /* \"#utility.yul\":4306:4725   */\n      swap2\n      swap1\n      pop\n      jump\t// out\n        /* \"#utility.yul\":4731:5063   */\n    tag_119:\n        /* \"#utility.yul\":4852:4856   */\n      0x00\n        /* \"#utility.yul\":4890:4892   */\n      0x40\n        /* \"#utility.yul\":4879:4888   */\n      dup3\n        /* \"#utility.yul\":4875:4893   */\n      add\n        /* \"#utility.yul\":4867:4893   */\n      swap1\n      pop\n        /* \"#utility.yul\":4903:4974   */\n      tag_311\n        /* \"#utility.yul\":4971:4972   */\n      0x00\n        /* \"#utility.yul\":4960:4969   */\n      dup4\n        /* \"#utility.yul\":4956:4973   */\n      add\n        /* \"#utility.yul\":4947:4953   */\n      dup6\n        /* \"#utility.yul\":4903:4974   */\n      tag_218\n      jump\t// in\n    tag_311:\n        /* \"#utility.yul\":4984:5056   */\n      tag_312\n        /* \"#utility.yul\":5052:5054   */\n      0x20\n        /* \"#utility.yul\":5041:5050   */\n      dup4\n        /* \"#utility.yul\":5037:5055   */\n      add\n        /* \"#utility.yul\":5028:5034   */\n      dup5\n        /* \"#utility.yul\":4984:5056   */\n      tag_213\n      jump\t// in\n    tag_312:\n        /* \"#utility.yul\":4731:5063   */\n      swap4\n      swap3\n      pop\n      pop\n      pop\n      jump\t// out\n        /* \"#utility.yul\":5069:5249   */\n    tag_231:\n        /* \"#utility.yul\":5117:5194   */\n      0x4e487b7100000000000000000000000000000000000000000000000000000000\n        /* \"#utility.yul\":5114:5115   */\n      0x00\n        /* \"#utility.yul\":5107:5195   */\n      mstore\n        /* \"#utility.yul\":5214:5218   */\n      0x11\n        /* \"#utility.yul\":5211:5212   */\n      0x04\n        /* \"#utility.yul\":5204:5219   */\n      mstore\n        /* \"#utility.yul\":5238:5242   */\n      0x24\n        /* \"#utility.yul\":5235:5236   */\n      0x00\n        /* \"#utility.yul\":5228:5243   */\n      revert\n        /* \"#utility.yul\":5255:5665   */\n    tag_123:\n        /* \"#utility.yul\":5295:5302   */\n      0x00\n        /* \"#utility.yul\":5318:5338   */\n      tag_315\n        /* \"#utility.yul\":5336:5337   */\n      dup3\n        /* \"#utility.yul\":5318:5338   */\n      tag_212\n      jump\t// in\n    tag_315:\n        /* \"#utility.yul\":5313:5338   */\n      swap2\n      pop\n        /* \"#utility.yul\":5352:5372   */\n      tag_316\n        /* \"#utility.yul\":5370:5371   */\n      dup4\n        /* \"#utility.yul\":5352:5372   */\n      tag_212\n      jump\t// in\n    tag_316:\n        /* \"#utility.yul\":5347:5372   */\n      swap3\n      pop\n        /* \"#utility.yul\":5407:5408   */\n      dup3\n        /* \"#utility.yul\":5404:5405   */\n      dup3\n        /* \"#utility.yul\":5400:5409   */\n      mul\n        /* \"#utility.yul\":5429:5459   */\n      tag_317\n        /* \"#utility.yul\":5447:5458   */\n      dup2\n        /* \"#utility.yul\":5429:5459   */\n      tag_212\n      jump\t// in\n    tag_317:\n        /* \"#utility.yul\":5418:5459   */\n      swap2\n      pop\n        /* \"#utility.yul\":5608:5609   */\n      dup3\n        /* \"#utility.yul\":5599:5606   */\n      dup3\n        /* \"#utility.yul\":5595:5610   */\n      div\n        /* \"#utility.yul\":5592:5593   */\n      dup5\n        /* \"#utility.yul\":5589:5611   */\n      eq\n        /* \"#utility.yul\":5569:5570   */\n      dup4\n        /* \"#utility.yul\":5562:5571   */\n      iszero\n        /* \"#utility.yul\":5542:5625   */\n      or\n        /* \"#utility.yul\":5519:5658   */\n      tag_318\n      jumpi\n        /* \"#utility.yul\":5638:5656   */\n      tag_319\n      tag_231\n      jump\t// in\n    tag_319:\n        /* \"#utility.yul\":5519:5658   */\n    tag_318:\n        /* \"#utility.yul\":5303:5665   */\n      pop\n        /* \"#utility.yul\":5255:5665   */\n      swap3\n      swap2\n      pop\n      pop\n      jump\t// out\n        /* \"#utility.yul\":5671:5841   */\n    tag_232:\n        /* \"#utility.yul\":5811:5833   */\n      0x67616d6520697320616c726561647920646f6e65000000000000000000000000\n        /* \"#utility.yul\":5807:5808   */\n      0x00\n        /* \"#utility.yul\":5799:5805   */\n      dup3\n        /* \"#utility.yul\":5795:5809   */\n      add\n        /* \"#utility.yul\":5788:5834   */\n      mstore\n        /* \"#utility.yul\":5671:5841   */\n      pop\n      jump\t// out\n        /* \"#utility.yul\":5847:6213   */\n    tag_233:\n        /* \"#utility.yul\":5989:5992   */\n      0x00\n        /* \"#utility.yul\":6010:6077   */\n      tag_322\n        /* \"#utility.yul\":6074:6076   */\n      0x14\n        /* \"#utility.yul\":6069:6072   */\n      dup4\n        /* \"#utility.yul\":6010:6077   */\n      tag_228\n      jump\t// in\n    tag_322:\n        /* \"#utility.yul\":6003:6077   */\n      swap2\n      pop\n        /* \"#utility.yul\":6086:6179   */\n      tag_323\n        /* \"#utility.yul\":6175:6178   */\n      dup3\n        /* \"#utility.yul\":6086:6179   */\n      tag_232\n      jump\t// in\n    tag_323:\n        /* \"#utility.yul\":6204:6206   */\n      0x20\n        /* \"#utility.yul\":6199:6202   */\n      dup3\n        /* \"#utility.yul\":6195:6207   */\n      add\n        /* \"#utility.yul\":6188:6207   */\n      swap1\n      pop\n        /* \"#utility.yul\":5847:6213   */\n      swap2\n      swap1\n      pop\n      jump\t// out\n        /* \"#utility.yul\":6219:6638   */\n    tag_131:\n        /* \"#utility.yul\":6385:6389   */\n      0x00\n        /* \"#utility.yul\":6423:6425   */\n      0x20\n        /* \"#utility.yul\":6412:6421   */\n      dup3\n        /* \"#utility.yul\":6408:6426   */\n      add\n        /* \"#utility.yul\":6400:6426   */\n      swap1\n      pop\n        /* \"#utility.yul\":6472:6481   */\n      dup2\n        /* \"#utility.yul\":6466:6470   */\n      dup2\n        /* \"#utility.yul\":6462:6482   */\n      sub\n        /* \"#utility.yul\":6458:6459   */\n      0x00\n        /* \"#utility.yul\":6447:6456   */\n      dup4\n        /* \"#utility.yul\":6443:6460   */\n      add\n        /* \"#utility.yul\":6436:6483   */\n      mstore\n        /* \"#utility.yul\":6500:6631   */\n      tag_325\n        /* \"#utility.yul\":6626:6630   */\n      dup2\n        /* \"#utility.yul\":6500:6631   */\n      tag_233\n      jump\t// in\n    tag_325:\n        /* \"#utility.yul\":6492:6631   */\n      swap1\n      pop\n        /* \"#utility.yul\":6219:6638   */\n      swap2\n      swap1\n      pop\n      jump\t// out\n        /* \"#utility.yul\":6644:6825   */\n    tag_234:\n        /* \"#utility.yul\":6784:6817   */\n      0x426f746820706c6179657273206e65656420746f20766f746520666972737400\n        /* \"#utility.yul\":6780:6781   */\n      0x00\n        /* \"#utility.yul\":6772:6778   */\n      dup3\n        /* \"#utility.yul\":6768:6782   */\n      add\n        /* \"#utility.yul\":6761:6818   */\n      mstore\n        /* \"#utility.yul\":6644:6825   */\n      pop\n      jump\t// out\n        /* \"#utility.yul\":6831:7197   */\n    tag_235:\n        /* \"#utility.yul\":6973:6976   */\n      0x00\n        /* \"#utility.yul\":6994:7061   */\n      tag_328\n        /* \"#utility.yul\":7058:7060   */\n      0x1f\n        /* \"#utility.yul\":7053:7056   */\n      dup4\n        /* \"#utility.yul\":6994:7061   */\n      tag_228\n      jump\t// in\n    tag_328:\n        /* \"#utility.yul\":6987:7061   */\n      swap2\n      pop\n        /* \"#utility.yul\":7070:7163   */\n      tag_329\n        /* \"#utility.yul\":7159:7162   */\n      dup3\n        /* \"#utility.yul\":7070:7163   */\n      tag_234\n      jump\t// in\n    tag_329:\n        /* \"#utility.yul\":7188:7190   */\n      0x20\n        /* \"#utility.yul\":7183:7186   */\n      dup3\n        /* \"#utility.yul\":7179:7191   */\n      add\n        /* \"#utility.yul\":7172:7191   */\n      swap1\n      pop\n        /* \"#utility.yul\":6831:7197   */\n      swap2\n      swap1\n      pop\n      jump\t// out\n        /* \"#utility.yul\":7203:7622   */\n    tag_135:\n        /* \"#utility.yul\":7369:7373   */\n      0x00\n        /* \"#utility.yul\":7407:7409   */\n      0x20\n        /* \"#utility.yul\":7396:7405   */\n      dup3\n        /* \"#utility.yul\":7392:7410   */\n      add\n        /* \"#utility.yul\":7384:7410   */\n      swap1\n      pop\n        /* \"#utility.yul\":7456:7465   */\n      dup2\n        /* \"#utility.yul\":7450:7454   */\n      dup2\n        /* \"#utility.yul\":7446:7466   */\n      sub\n        /* \"#utility.yul\":7442:7443   */\n      0x00\n        /* \"#utility.yul\":7431:7440   */\n      dup4\n        /* \"#utility.yul\":7427:7444   */\n      add\n        /* \"#utility.yul\":7420:7467   */\n      mstore\n        /* \"#utility.yul\":7484:7615   */\n      tag_331\n        /* \"#utility.yul\":7610:7614   */\n      dup2\n        /* \"#utility.yul\":7484:7615   */\n      tag_235\n      jump\t// in\n    tag_331:\n        /* \"#utility.yul\":7476:7615   */\n      swap1\n      pop\n        /* \"#utility.yul\":7203:7622   */\n      swap2\n      swap1\n      pop\n      jump\t// out\n        /* \"#utility.yul\":7628:7803   */\n    tag_236:\n        /* \"#utility.yul\":7768:7795   */\n      0x596f75206861766520616c72656164792072657665616c656400000000000000\n        /* \"#utility.yul\":7764:7765   */\n      0x00\n        /* \"#utility.yul\":7756:7762   */\n      dup3\n        /* \"#utility.yul\":7752:7766   */\n      add\n        /* \"#utility.yul\":7745:7796   */\n      mstore\n        /* \"#utility.yul\":7628:7803   */\n      pop\n      jump\t// out\n        /* \"#utility.yul\":7809:8175   */\n    tag_237:\n        /* \"#utility.yul\":7951:7954   */\n      0x00\n        /* \"#utility.yul\":7972:8039   */\n      tag_334\n        /* \"#utility.yul\":8036:8038   */\n      0x19\n        /* \"#utility.yul\":8031:8034   */\n      dup4\n        /* \"#utility.yul\":7972:8039   */\n      tag_228\n      jump\t// in\n    tag_334:\n        /* \"#utility.yul\":7965:8039   */\n      swap2\n      pop\n        /* \"#utility.yul\":8048:8141   */\n      tag_335\n        /* \"#utility.yul\":8137:8140   */\n      dup3\n        /* \"#utility.yul\":8048:8141   */\n      tag_236\n      jump\t// in\n    tag_335:\n        /* \"#utility.yul\":8166:8168   */\n      0x20\n        /* \"#utility.yul\":8161:8164   */\n      dup3\n        /* \"#utility.yul\":8157:8169   */\n      add\n        /* \"#utility.yul\":8150:8169   */\n      swap1\n      pop\n        /* \"#utility.yul\":7809:8175   */\n      swap2\n      swap1\n      pop\n      jump\t// out\n        /* \"#utility.yul\":8181:8600   */\n    tag_139:\n        /* \"#utility.yul\":8347:8351   */\n      0x00\n        /* \"#utility.yul\":8385:8387   */\n      0x20\n        /* \"#utility.yul\":8374:8383   */\n      dup3\n        /* \"#utility.yul\":8370:8388   */\n      add\n        /* \"#utility.yul\":8362:8388   */\n      swap1\n      pop\n        /* \"#utility.yul\":8434:8443   */\n      dup2\n        /* \"#utility.yul\":8428:8432   */\n      dup2\n        /* \"#utility.yul\":8424:8444   */\n      sub\n        /* \"#utility.yul\":8420:8421   */\n      0x00\n        /* \"#utility.yul\":8409:8418   */\n      dup4\n        /* \"#utility.yul\":8405:8422   */\n      add\n        /* \"#utility.yul\":8398:8445   */\n      mstore\n        /* \"#utility.yul\":8462:8593   */\n      tag_337\n        /* \"#utility.yul\":8588:8592   */\n      dup2\n        /* \"#utility.yul\":8462:8593   */\n      tag_237\n      jump\t// in\n    tag_337:\n        /* \"#utility.yul\":8454:8593   */\n      swap1\n      pop\n        /* \"#utility.yul\":8181:8600   */\n      swap2\n      swap1\n      pop\n      jump\t// out\n        /* \"#utility.yul\":8606:8685   */\n    tag_238:\n        /* \"#utility.yul\":8645:8652   */\n      0x00\n        /* \"#utility.yul\":8674:8679   */\n      dup2\n        /* \"#utility.yul\":8663:8679   */\n      swap1\n      pop\n        /* \"#utility.yul\":8606:8685   */\n      swap2\n      swap1\n      pop\n      jump\t// out\n        /* \"#utility.yul\":8691:8848   */\n    tag_239:\n        /* \"#utility.yul\":8796:8841   */\n      tag_340\n        /* \"#utility.yul\":8816:8840   */\n      tag_341\n        /* \"#utility.yul\":8834:8839   */\n      dup3\n        /* \"#utility.yul\":8816:8840   */\n      tag_212\n      jump\t// in\n    tag_341:\n        /* \"#utility.yul\":8796:8841   */\n      tag_238\n      jump\t// in\n    tag_340:\n        /* \"#utility.yul\":8791:8794   */\n      dup3\n        /* \"#utility.yul\":8784:8842   */\n      mstore\n        /* \"#utility.yul\":8691:8848   */\n      pop\n      pop\n      jump\t// out\n        /* \"#utility.yul\":8854:9251   */\n    tag_141:\n        /* \"#utility.yul\":8994:8997   */\n      0x00\n        /* \"#utility.yul\":9009:9084   */\n      tag_343\n        /* \"#utility.yul\":9080:9083   */\n      dup3\n        /* \"#utility.yul\":9071:9077   */\n      dup6\n        /* \"#utility.yul\":9009:9084   */\n      tag_239\n      jump\t// in\n    tag_343:\n        /* \"#utility.yul\":9109:9111   */\n      0x20\n        /* \"#utility.yul\":9104:9107   */\n      dup3\n        /* \"#utility.yul\":9100:9112   */\n      add\n        /* \"#utility.yul\":9093:9112   */\n      swap2\n      pop\n        /* \"#utility.yul\":9122:9197   */\n      tag_344\n        /* \"#utility.yul\":9193:9196   */\n      dup3\n        /* \"#utility.yul\":9184:9190   */\n      dup5\n        /* \"#utility.yul\":9122:9197   */\n      tag_239\n      jump\t// in\n    tag_344:\n        /* \"#utility.yul\":9222:9224   */\n      0x20\n        /* \"#utility.yul\":9217:9220   */\n      dup3\n        /* \"#utility.yul\":9213:9225   */\n      add\n        /* \"#utility.yul\":9206:9225   */\n      swap2\n      pop\n        /* \"#utility.yul\":9242:9245   */\n      dup2\n        /* \"#utility.yul\":9235:9245   */\n      swap1\n      pop\n        /* \"#utility.yul\":8854:9251   */\n      swap4\n      swap3\n      pop\n      pop\n      pop\n      jump\t// out\n        /* \"#utility.yul\":9257:9421   */\n    tag_240:\n        /* \"#utility.yul\":9397:9413   */\n      0x496e76616c69642072657665616c000000000000000000000000000000000000\n        /* \"#utility.yul\":9393:9394   */\n      0x00\n        /* \"#utility.yul\":9385:9391   */\n      dup3\n        /* \"#utility.yul\":9381:9395   */\n      add\n        /* \"#utility.yul\":9374:9414   */\n      mstore\n        /* \"#utility.yul\":9257:9421   */\n      pop\n      jump\t// out\n        /* \"#utility.yul\":9427:9793   */\n    tag_241:\n        /* \"#utility.yul\":9569:9572   */\n      0x00\n        /* \"#utility.yul\":9590:9657   */\n      tag_347\n        /* \"#utility.yul\":9654:9656   */\n      0x0e\n        /* \"#utility.yul\":9649:9652   */\n      dup4\n        /* \"#utility.yul\":9590:9657   */\n      tag_228\n      jump\t// in\n    tag_347:\n        /* \"#utility.yul\":9583:9657   */\n      swap2\n      pop\n        /* \"#utility.yul\":9666:9759   */\n      tag_348\n        /* \"#utility.yul\":9755:9758   */\n      dup3\n        /* \"#utility.yul\":9666:9759   */\n      tag_240\n      jump\t// in\n    tag_348:\n        /* \"#utility.yul\":9784:9786   */\n      0x20\n        /* \"#utility.yul\":9779:9782   */\n      dup3\n        /* \"#utility.yul\":9775:9787   */\n      add\n        /* \"#utility.yul\":9768:9787   */\n      swap1\n      pop\n        /* \"#utility.yul\":9427:9793   */\n      swap2\n      swap1\n      pop\n      jump\t// out\n        /* \"#utility.yul\":9799:10218   */\n    tag_144:\n        /* \"#utility.yul\":9965:9969   */\n      0x00\n        /* \"#utility.yul\":10003:10005   */\n      0x20\n        /* \"#utility.yul\":9992:10001   */\n      dup3\n        /* \"#utility.yul\":9988:10006   */\n      add\n        /* \"#utility.yul\":9980:10006   */\n      swap1\n      pop\n        /* \"#utility.yul\":10052:10061   */\n      dup2\n        /* \"#utility.yul\":10046:10050   */\n      dup2\n        /* \"#utility.yul\":10042:10062   */\n      sub\n        /* \"#utility.yul\":10038:10039   */\n      0x00\n        /* \"#utility.yul\":10027:10036   */\n      dup4\n        /* \"#utility.yul\":10023:10040   */\n      add\n        /* \"#utility.yul\":10016:10063   */\n      mstore\n        /* \"#utility.yul\":10080:10211   */\n      tag_350\n        /* \"#utility.yul\":10206:10210   */\n      dup2\n        /* \"#utility.yul\":10080:10211   */\n      tag_241\n      jump\t// in\n    tag_350:\n        /* \"#utility.yul\":10072:10211   */\n      swap1\n      pop\n        /* \"#utility.yul\":9799:10218   */\n      swap2\n      swap1\n      pop\n      jump\t// out\n        /* \"#utility.yul\":10224:10393   */\n    tag_242:\n        /* \"#utility.yul\":10364:10385   */\n      0x43616e206e6f742066696e6420706c6179657200000000000000000000000000\n        /* \"#utility.yul\":10360:10361   */\n      0x00\n        /* \"#utility.yul\":10352:10358   */\n      dup3\n        /* \"#utility.yul\":10348:10362   */\n      add\n        /* \"#utility.yul\":10341:10386   */\n      mstore\n        /* \"#utility.yul\":10224:10393   */\n      pop\n      jump\t// out\n        /* \"#utility.yul\":10399:10765   */\n    tag_243:\n        /* \"#utility.yul\":10541:10544   */\n      0x00\n        /* \"#utility.yul\":10562:10629   */\n      tag_353\n        /* \"#utility.yul\":10626:10628   */\n      0x13\n        /* \"#utility.yul\":10621:10624   */\n      dup4\n        /* \"#utility.yul\":10562:10629   */\n      tag_228\n      jump\t// in\n    tag_353:\n        /* \"#utility.yul\":10555:10629   */\n      swap2\n      pop\n        /* \"#utility.yul\":10638:10731   */\n      tag_354\n        /* \"#utility.yul\":10727:10730   */\n      dup3\n        /* \"#utility.yul\":10638:10731   */\n      tag_242\n      jump\t// in\n    tag_354:\n        /* \"#utility.yul\":10756:10758   */\n      0x20\n        /* \"#utility.yul\":10751:10754   */\n      dup3\n        /* \"#utility.yul\":10747:10759   */\n      add\n        /* \"#utility.yul\":10740:10759   */\n      swap1\n      pop\n        /* \"#utility.yul\":10399:10765   */\n      swap2\n      swap1\n      pop\n      jump\t// out\n        /* \"#utility.yul\":10771:11190   */\n    tag_156:\n        /* \"#utility.yul\":10937:10941   */\n      0x00\n        /* \"#utility.yul\":10975:10977   */\n      0x20\n        /* \"#utility.yul\":10964:10973   */\n      dup3\n        /* \"#utility.yul\":10960:10978   */\n      add\n        /* \"#utility.yul\":10952:10978   */\n      swap1\n      pop\n        /* \"#utility.yul\":11024:11033   */\n      dup2\n        /* \"#utility.yul\":11018:11022   */\n      dup2\n        /* \"#utility.yul\":11014:11034   */\n      sub\n        /* \"#utility.yul\":11010:11011   */\n      0x00\n        /* \"#utility.yul\":10999:11008   */\n      dup4\n        /* \"#utility.yul\":10995:11012   */\n      add\n        /* \"#utility.yul\":10988:11035   */\n      mstore\n        /* \"#utility.yul\":11052:11183   */\n      tag_356\n        /* \"#utility.yul\":11178:11182   */\n      dup2\n        /* \"#utility.yul\":11052:11183   */\n      tag_243\n      jump\t// in\n    tag_356:\n        /* \"#utility.yul\":11044:11183   */\n      swap1\n      pop\n        /* \"#utility.yul\":10771:11190   */\n      swap2\n      swap1\n      pop\n      jump\t// out\n        /* \"#utility.yul\":11196:11387   */\n    tag_159:\n        /* \"#utility.yul\":11236:11239   */\n      0x00\n        /* \"#utility.yul\":11255:11275   */\n      tag_358\n        /* \"#utility.yul\":11273:11274   */\n      dup3\n        /* \"#utility.yul\":11255:11275   */\n      tag_212\n      jump\t// in\n    tag_358:\n        /* \"#utility.yul\":11250:11275   */\n      swap2\n      pop\n        /* \"#utility.yul\":11289:11309   */\n      tag_359\n        /* \"#utility.yul\":11307:11308   */\n      dup4\n        /* \"#utility.yul\":11289:11309   */\n      tag_212\n      jump\t// in\n    tag_359:\n        /* \"#utility.yul\":11284:11309   */\n      swap3\n      pop\n        /* \"#utility.yul\":11332:11333   */\n      dup3\n        /* \"#utility.yul\":11329:11330   */\n      dup3\n        /* \"#utility.yul\":11325:11334   */\n      add\n        /* \"#utility.yul\":11318:11334   */\n      swap1\n      pop\n        /* \"#utility.yul\":11353:11356   */\n      dup1\n        /* \"#utility.yul\":11350:11351   */\n      dup3\n        /* \"#utility.yul\":11347:11357   */\n      gt\n        /* \"#utility.yul\":11344:11380   */\n      iszero\n      tag_360\n      jumpi\n        /* \"#utility.yul\":11360:11378   */\n      tag_361\n      tag_231\n      jump\t// in\n    tag_361:\n        /* \"#utility.yul\":11344:11380   */\n    tag_360:\n        /* \"#utility.yul\":11196:11387   */\n      swap3\n      swap2\n      pop\n      pop\n      jump\t// out\n        /* \"#utility.yul\":11393:11571   */\n    tag_244:\n        /* \"#utility.yul\":11533:11563   */\n      0x52657665616c20706861736520686173206e6f74207374617274656400000000\n        /* \"#utility.yul\":11529:11530   */\n      0x00\n        /* \"#utility.yul\":11521:11527   */\n      dup3\n        /* \"#utility.yul\":11517:11531   */\n      add\n        /* \"#utility.yul\":11510:11564   */\n      mstore\n        /* \"#utility.yul\":11393:11571   */\n      pop\n      jump\t// out\n        /* \"#utility.yul\":11577:11943   */\n    tag_245:\n        /* \"#utility.yul\":11719:11722   */\n      0x00\n        /* \"#utility.yul\":11740:11807   */\n      tag_364\n        /* \"#utility.yul\":11804:11806   */\n      0x1c\n        /* \"#utility.yul\":11799:11802   */\n      dup4\n        /* \"#utility.yul\":11740:11807   */\n      tag_228\n      jump\t// in\n    tag_364:\n        /* \"#utility.yul\":11733:11807   */\n      swap2\n      pop\n        /* \"#utility.yul\":11816:11909   */\n      tag_365\n        /* \"#utility.yul\":11905:11908   */\n      dup3\n        /* \"#utility.yul\":11816:11909   */\n      tag_244\n      jump\t// in\n    tag_365:\n        /* \"#utility.yul\":11934:11936   */\n      0x20\n        /* \"#utility.yul\":11929:11932   */\n      dup3\n        /* \"#utility.yul\":11925:11937   */\n      add\n        /* \"#utility.yul\":11918:11937   */\n      swap1\n      pop\n        /* \"#utility.yul\":11577:11943   */\n      swap2\n      swap1\n      pop\n      jump\t// out\n        /* \"#utility.yul\":11949:12368   */\n    tag_168:\n        /* \"#utility.yul\":12115:12119   */\n      0x00\n        /* \"#utility.yul\":12153:12155   */\n      0x20\n        /* \"#utility.yul\":12142:12151   */\n      dup3\n        /* \"#utility.yul\":12138:12156   */\n      add\n        /* \"#utility.yul\":12130:12156   */\n      swap1\n      pop\n        /* \"#utility.yul\":12202:12211   */\n      dup2\n        /* \"#utility.yul\":12196:12200   */\n      dup2\n        /* \"#utility.yul\":12192:12212   */\n      sub\n        /* \"#utility.yul\":12188:12189   */\n      0x00\n        /* \"#utility.yul\":12177:12186   */\n      dup4\n        /* \"#utility.yul\":12173:12190   */\n      add\n        /* \"#utility.yul\":12166:12213   */\n      mstore\n        /* \"#utility.yul\":12230:12361   */\n      tag_367\n        /* \"#utility.yul\":12356:12360   */\n      dup2\n        /* \"#utility.yul\":12230:12361   */\n      tag_245\n      jump\t// in\n    tag_367:\n        /* \"#utility.yul\":12222:12361   */\n      swap1\n      pop\n        /* \"#utility.yul\":11949:12368   */\n      swap2\n      swap1\n      pop\n      jump\t// out\n        /* \"#utility.yul\":12374:12551   */\n    tag_246:\n        /* \"#utility.yul\":12514:12543   */\n      0x52657665616c2074696d6520686173206e6f7420657870697265640000000000\n        /* \"#utility.yul\":12510:12511   */\n      0x00\n        /* \"#utility.yul\":12502:12508   */\n      dup3\n        /* \"#utility.yul\":12498:12512   */\n      add\n        /* \"#utility.yul\":12491:12544   */\n      mstore\n        /* \"#utility.yul\":12374:12551   */\n      pop\n      jump\t// out\n        /* \"#utility.yul\":12557:12923   */\n    tag_247:\n        /* \"#utility.yul\":12699:12702   */\n      0x00\n        /* \"#utility.yul\":12720:12787   */\n      tag_370\n        /* \"#utility.yul\":12784:12786   */\n      0x1b\n        /* \"#utility.yul\":12779:12782   */\n      dup4\n        /* \"#utility.yul\":12720:12787   */\n      tag_228\n      jump\t// in\n    tag_370:\n        /* \"#utility.yul\":12713:12787   */\n      swap2\n      pop\n        /* \"#utility.yul\":12796:12889   */\n      tag_371\n        /* \"#utility.yul\":12885:12888   */\n      dup3\n        /* \"#utility.yul\":12796:12889   */\n      tag_246\n      jump\t// in\n    tag_371:\n        /* \"#utility.yul\":12914:12916   */\n      0x20\n        /* \"#utility.yul\":12909:12912   */\n      dup3\n        /* \"#utility.yul\":12905:12917   */\n      add\n        /* \"#utility.yul\":12898:12917   */\n      swap1\n      pop\n        /* \"#utility.yul\":12557:12923   */\n      swap2\n      swap1\n      pop\n      jump\t// out\n        /* \"#utility.yul\":12929:13348   */\n    tag_171:\n        /* \"#utility.yul\":13095:13099   */\n      0x00\n        /* \"#utility.yul\":13133:13135   */\n      0x20\n        /* \"#utility.yul\":13122:13131   */\n      dup3\n        /* \"#utility.yul\":13118:13136   */\n      add\n        /* \"#utility.yul\":13110:13136   */\n      swap1\n      pop\n        /* \"#utility.yul\":13182:13191   */\n      dup2\n        /* \"#utility.yul\":13176:13180   */\n      dup2\n        /* \"#utility.yul\":13172:13192   */\n      sub\n        /* \"#utility.yul\":13168:13169   */\n      0x00\n        /* \"#utility.yul\":13157:13166   */\n      dup4\n        /* \"#utility.yul\":13153:13170   */\n      add\n        /* \"#utility.yul\":13146:13193   */\n      mstore\n        /* \"#utility.yul\":13210:13341   */\n      tag_373\n        /* \"#utility.yul\":13336:13340   */\n      dup2\n        /* \"#utility.yul\":13210:13341   */\n      tag_247\n      jump\t// in\n    tag_373:\n        /* \"#utility.yul\":13202:13341   */\n      swap1\n      pop\n        /* \"#utility.yul\":12929:13348   */\n      swap2\n      swap1\n      pop\n      jump\t// out\n        /* \"#utility.yul\":13354:13524   */\n    tag_248:\n        /* \"#utility.yul\":13494:13516   */\n      0x47616d6520697320616c726561647920646f6e65000000000000000000000000\n        /* \"#utility.yul\":13490:13491   */\n      0x00\n        /* \"#utility.yul\":13482:13488   */\n      dup3\n        /* \"#utility.yul\":13478:13492   */\n      add\n        /* \"#utility.yul\":13471:13517   */\n      mstore\n        /* \"#utility.yul\":13354:13524   */\n      pop\n      jump\t// out\n        /* \"#utility.yul\":13530:13896   */\n    tag_249:\n        /* \"#utility.yul\":13672:13675   */\n      0x00\n        /* \"#utility.yul\":13693:13760   */\n      tag_376\n        /* \"#utility.yul\":13757:13759   */\n      0x14\n        /* \"#utility.yul\":13752:13755   */\n      dup4\n        /* \"#utility.yul\":13693:13760   */\n      tag_228\n      jump\t// in\n    tag_376:\n        /* \"#utility.yul\":13686:13760   */\n      swap2\n      pop\n        /* \"#utility.yul\":13769:13862   */\n      tag_377\n        /* \"#utility.yul\":13858:13861   */\n      dup3\n        /* \"#utility.yul\":13769:13862   */\n      tag_248\n      jump\t// in\n    tag_377:\n        /* \"#utility.yul\":13887:13889   */\n      0x20\n        /* \"#utility.yul\":13882:13885   */\n      dup3\n        /* \"#utility.yul\":13878:13890   */\n      add\n        /* \"#utility.yul\":13871:13890   */\n      swap1\n      pop\n        /* \"#utility.yul\":13530:13896   */\n      swap2\n      swap1\n      pop\n      jump\t// out\n        /* \"#utility.yul\":13902:14321   */\n    tag_174:\n        /* \"#utility.yul\":14068:14072   */\n      0x00\n        /* \"#utility.yul\":14106:14108   */\n      0x20\n        /* \"#utility.yul\":14095:14104   */\n      dup3\n        /* \"#utility.yul\":14091:14109   */\n      add\n        /* \"#utility.yul\":14083:14109   */\n      swap1\n      pop\n        /* \"#utility.yul\":14155:14164   */\n      dup2\n        /* \"#utility.yul\":14149:14153   */\n      dup2\n        /* \"#utility.yul\":14145:14165   */\n      sub\n        /* \"#utility.yul\":14141:14142   */\n      0x00\n        /* \"#utility.yul\":14130:14139   */\n      dup4\n        /* \"#utility.yul\":14126:14143   */\n      add\n        /* \"#utility.yul\":14119:14166   */\n      mstore\n        /* \"#utility.yul\":14183:14314   */\n      tag_379\n        /* \"#utility.yul\":14309:14313   */\n      dup2\n        /* \"#utility.yul\":14183:14314   */\n      tag_249\n      jump\t// in\n    tag_379:\n        /* \"#utility.yul\":14175:14314   */\n      swap1\n      pop\n        /* \"#utility.yul\":13902:14321   */\n      swap2\n      swap1\n      pop\n      jump\t// out\n        /* \"#utility.yul\":14327:14501   */\n    tag_250:\n        /* \"#utility.yul\":14467:14493   */\n      0x426574206d757374206265206f76657220312065746865720000000000000000\n        /* \"#utility.yul\":14463:14464   */\n      0x00\n        /* \"#utility.yul\":14455:14461   */\n      dup3\n        /* \"#utility.yul\":14451:14465   */\n      add\n        /* \"#utility.yul\":14444:14494   */\n      mstore\n        /* \"#utility.yul\":14327:14501   */\n      pop\n      jump\t// out\n        /* \"#utility.yul\":14507:14873   */\n    tag_251:\n        /* \"#utility.yul\":14649:14652   */\n      0x00\n        /* \"#utility.yul\":14670:14737   */\n      tag_382\n        /* \"#utility.yul\":14734:14736   */\n      0x18\n        /* \"#utility.yul\":14729:14732   */\n      dup4\n        /* \"#utility.yul\":14670:14737   */\n      tag_228\n      jump\t// in\n    tag_382:\n        /* \"#utility.yul\":14663:14737   */\n      swap2\n      pop\n        /* \"#utility.yul\":14746:14839   */\n      tag_383\n        /* \"#utility.yul\":14835:14838   */\n      dup3\n        /* \"#utility.yul\":14746:14839   */\n      tag_250\n      jump\t// in\n    tag_383:\n        /* \"#utility.yul\":14864:14866   */\n      0x20\n        /* \"#utility.yul\":14859:14862   */\n      dup3\n        /* \"#utility.yul\":14855:14867   */\n      add\n        /* \"#utility.yul\":14848:14867   */\n      swap1\n      pop\n        /* \"#utility.yul\":14507:14873   */\n      swap2\n      swap1\n      pop\n      jump\t// out\n        /* \"#utility.yul\":14879:15298   */\n    tag_186:\n        /* \"#utility.yul\":15045:15049   */\n      0x00\n        /* \"#utility.yul\":15083:15085   */\n      0x20\n        /* \"#utility.yul\":15072:15081   */\n      dup3\n        /* \"#utility.yul\":15068:15086   */\n      add\n        /* \"#utility.yul\":15060:15086   */\n      swap1\n      pop\n        /* \"#utility.yul\":15132:15141   */\n      dup2\n        /* \"#utility.yul\":15126:15130   */\n      dup2\n        /* \"#utility.yul\":15122:15142   */\n      sub\n        /* \"#utility.yul\":15118:15119   */\n      0x00\n        /* \"#utility.yul\":15107:15116   */\n      dup4\n        /* \"#utility.yul\":15103:15120   */\n      add\n        /* \"#utility.yul\":15096:15143   */\n      mstore\n        /* \"#utility.yul\":15160:15291   */\n      tag_385\n        /* \"#utility.yul\":15286:15290   */\n      dup2\n        /* \"#utility.yul\":15160:15291   */\n      tag_251\n      jump\t// in\n    tag_385:\n        /* \"#utility.yul\":15152:15291   */\n      swap1\n      pop\n        /* \"#utility.yul\":14879:15298   */\n      swap2\n      swap1\n      pop\n      jump\t// out\n        /* \"#utility.yul\":15304:15636   */\n    tag_189:\n        /* \"#utility.yul\":15425:15429   */\n      0x00\n        /* \"#utility.yul\":15463:15465   */\n      0x40\n        /* \"#utility.yul\":15452:15461   */\n      dup3\n        /* \"#utility.yul\":15448:15466   */\n      add\n        /* \"#utility.yul\":15440:15466   */\n      swap1\n      pop\n        /* \"#utility.yul\":15476:15547   */\n      tag_387\n        /* \"#utility.yul\":15544:15545   */\n      0x00\n        /* \"#utility.yul\":15533:15542   */\n      dup4\n        /* \"#utility.yul\":15529:15546   */\n      add\n        /* \"#utility.yul\":15520:15526   */\n      dup6\n        /* \"#utility.yul\":15476:15547   */\n      tag_218\n      jump\t// in\n    tag_387:\n        /* \"#utility.yul\":15557:15629   */\n      tag_388\n        /* \"#utility.yul\":15625:15627   */\n      0x20\n        /* \"#utility.yul\":15614:15623   */\n      dup4\n        /* \"#utility.yul\":15610:15628   */\n      add\n        /* \"#utility.yul\":15601:15607   */\n      dup5\n        /* \"#utility.yul\":15557:15629   */\n      tag_220\n      jump\t// in\n    tag_388:\n        /* \"#utility.yul\":15304:15636   */\n      swap4\n      swap3\n      pop\n      pop\n      pop\n      jump\t// out\n        /* \"#utility.yul\":15642:15824   */\n    tag_252:\n        /* \"#utility.yul\":15782:15816   */\n      0x53616d6520706c617965722063616e6e6f74206a6f696e207468652067616d65\n        /* \"#utility.yul\":15778:15779   */\n      0x00\n        /* \"#utility.yul\":15770:15776   */\n      dup3\n        /* \"#utility.yul\":15766:15780   */\n      add\n        /* \"#utility.yul\":15759:15817   */\n      mstore\n        /* \"#utility.yul\":15642:15824   */\n      pop\n      jump\t// out\n        /* \"#utility.yul\":15830:16196   */\n    tag_253:\n        /* \"#utility.yul\":15972:15975   */\n      0x00\n        /* \"#utility.yul\":15993:16060   */\n      tag_391\n        /* \"#utility.yul\":16057:16059   */\n      0x20\n        /* \"#utility.yul\":16052:16055   */\n      dup4\n        /* \"#utility.yul\":15993:16060   */\n      tag_228\n      jump\t// in\n    tag_391:\n        /* \"#utility.yul\":15986:16060   */\n      swap2\n      pop\n        /* \"#utility.yul\":16069:16162   */\n      tag_392\n        /* \"#utility.yul\":16158:16161   */\n      dup3\n        /* \"#utility.yul\":16069:16162   */\n      tag_252\n      jump\t// in\n    tag_392:\n        /* \"#utility.yul\":16187:16189   */\n      0x20\n        /* \"#utility.yul\":16182:16185   */\n      dup3\n        /* \"#utility.yul\":16178:16190   */\n      add\n        /* \"#utility.yul\":16171:16190   */\n      swap1\n      pop\n        /* \"#utility.yul\":15830:16196   */\n      swap2\n      swap1\n      pop\n      jump\t// out\n        /* \"#utility.yul\":16202:16621   */\n    tag_194:\n        /* \"#utility.yul\":16368:16372   */\n      0x00\n        /* \"#utility.yul\":16406:16408   */\n      0x20\n        /* \"#utility.yul\":16395:16404   */\n      dup3\n        /* \"#utility.yul\":16391:16409   */\n      add\n        /* \"#utility.yul\":16383:16409   */\n      swap1\n      pop\n        /* \"#utility.yul\":16455:16464   */\n      dup2\n        /* \"#utility.yul\":16449:16453   */\n      dup2\n        /* \"#utility.yul\":16445:16465   */\n      sub\n        /* \"#utility.yul\":16441:16442   */\n      0x00\n        /* \"#utility.yul\":16430:16439   */\n      dup4\n        /* \"#utility.yul\":16426:16443   */\n      add\n        /* \"#utility.yul\":16419:16466   */\n      mstore\n        /* \"#utility.yul\":16483:16614   */\n      tag_394\n        /* \"#utility.yul\":16609:16613   */\n      dup2\n        /* \"#utility.yul\":16483:16614   */\n      tag_253\n      jump\t// in\n    tag_394:\n        /* \"#utility.yul\":16475:16614   */\n      swap1\n      pop\n        /* \"#utility.yul\":16202:16621   */\n      swap2\n      swap1\n      pop\n      jump\t// out\n        /* \"#utility.yul\":16627:16850   */\n    tag_254:\n        /* \"#utility.yul\":16767:16801   */\n      0x4d757374206d6174636820746865207374616b65206f6620666972737420706c\n        /* \"#utility.yul\":16763:16764   */\n      0x00\n        /* \"#utility.yul\":16755:16761   */\n      dup3\n        /* \"#utility.yul\":16751:16765   */\n      add\n        /* \"#utility.yul\":16744:16802   */\n      mstore\n        /* \"#utility.yul\":16836:16842   */\n      0x6179657200000000000000000000000000000000000000000000000000000000\n        /* \"#utility.yul\":16831:16833   */\n      0x20\n        /* \"#utility.yul\":16823:16829   */\n      dup3\n        /* \"#utility.yul\":16819:16834   */\n      add\n        /* \"#utility.yul\":16812:16843   */\n      mstore\n        /* \"#utility.yul\":16627:16850   */\n      pop\n      jump\t// out\n        /* \"#utility.yul\":16856:17222   */\n    tag_255:\n        /* \"#utility.yul\":16998:17001   */\n      0x00\n        /* \"#utility.yul\":17019:17086   */\n      tag_397\n        /* \"#utility.yul\":17083:17085   */\n      0x24\n        /* \"#utility.yul\":17078:17081   */\n      dup4\n        /* \"#utility.yul\":17019:17086   */\n      tag_228\n      jump\t// in\n    tag_397:\n        /* \"#utility.yul\":17012:17086   */\n      swap2\n      pop\n        /* \"#utility.yul\":17095:17188   */\n      tag_398\n        /* \"#utility.yul\":17184:17187   */\n      dup3\n        /* \"#utility.yul\":17095:17188   */\n      tag_254\n      jump\t// in\n    tag_398:\n        /* \"#utility.yul\":17213:17215   */\n      0x40\n        /* \"#utility.yul\":17208:17211   */\n      dup3\n        /* \"#utility.yul\":17204:17216   */\n      add\n        /* \"#utility.yul\":17197:17216   */\n      swap1\n      pop\n        /* \"#utility.yul\":16856:17222   */\n      swap2\n      swap1\n      pop\n      jump\t// out\n        /* \"#utility.yul\":17228:17647   */\n    tag_197:\n        /* \"#utility.yul\":17394:17398   */\n      0x00\n        /* \"#utility.yul\":17432:17434   */\n      0x20\n        /* \"#utility.yul\":17421:17430   */\n      dup3\n        /* \"#utility.yul\":17417:17435   */\n      add\n        /* \"#utility.yul\":17409:17435   */\n      swap1\n      pop\n        /* \"#utility.yul\":17481:17490   */\n      dup2\n        /* \"#utility.yul\":17475:17479   */\n      dup2\n        /* \"#utility.yul\":17471:17491   */\n      sub\n        /* \"#utility.yul\":17467:17468   */\n      0x00\n        /* \"#utility.yul\":17456:17465   */\n      dup4\n        /* \"#utility.yul\":17452:17469   */\n      add\n        /* \"#utility.yul\":17445:17492   */\n      mstore\n        /* \"#utility.yul\":17509:17640   */\n      tag_400\n        /* \"#utility.yul\":17635:17639   */\n      dup2\n        /* \"#utility.yul\":17509:17640   */\n      tag_255\n      jump\t// in\n    tag_400:\n        /* \"#utility.yul\":17501:17640   */\n      swap1\n      pop\n        /* \"#utility.yul\":17228:17647   */\n      swap2\n      swap1\n      pop\n      jump\t// out\n        /* \"#utility.yul\":17653:17812   */\n    tag_256:\n        /* \"#utility.yul\":17793:17804   */\n      0x46756c6c2067616d650000000000000000000000000000000000000000000000\n        /* \"#utility.yul\":17789:17790   */\n      0x00\n        /* \"#utility.yul\":17781:17787   */\n      dup3\n        /* \"#utility.yul\":17777:17791   */\n      add\n        /* \"#utility.yul\":17770:17805   */\n      mstore\n        /* \"#utility.yul\":17653:17812   */\n      pop\n      jump\t// out\n        /* \"#utility.yul\":17818:18183   */\n    tag_257:\n        /* \"#utility.yul\":17960:17963   */\n      0x00\n        /* \"#utility.yul\":17981:18047   */\n      tag_403\n        /* \"#utility.yul\":18045:18046   */\n      0x09\n        /* \"#utility.yul\":18040:18043   */\n      dup4\n        /* \"#utility.yul\":17981:18047   */\n      tag_228\n      jump\t// in\n    tag_403:\n        /* \"#utility.yul\":17974:18047   */\n      swap2\n      pop\n        /* \"#utility.yul\":18056:18149   */\n      tag_404\n        /* \"#utility.yul\":18145:18148   */\n      dup3\n        /* \"#utility.yul\":18056:18149   */\n      tag_256\n      jump\t// in\n    tag_404:\n        /* \"#utility.yul\":18174:18176   */\n      0x20\n        /* \"#utility.yul\":18169:18172   */\n      dup3\n        /* \"#utility.yul\":18165:18177   */\n      add\n        /* \"#utility.yul\":18158:18177   */\n      swap1\n      pop\n        /* \"#utility.yul\":17818:18183   */\n      swap2\n      swap1\n      pop\n      jump\t// out\n        /* \"#utility.yul\":18189:18608   */\n    tag_201:\n        /* \"#utility.yul\":18355:18359   */\n      0x00\n        /* \"#utility.yul\":18393:18395   */\n      0x20\n        /* \"#utility.yul\":18382:18391   */\n      dup3\n        /* \"#utility.yul\":18378:18396   */\n      add\n        /* \"#utility.yul\":18370:18396   */\n      swap1\n      pop\n        /* \"#utility.yul\":18442:18451   */\n      dup2\n        /* \"#utility.yul\":18436:18440   */\n      dup2\n        /* \"#utility.yul\":18432:18452   */\n      sub\n        /* \"#utility.yul\":18428:18429   */\n      0x00\n        /* \"#utility.yul\":18417:18426   */\n      dup4\n        /* \"#utility.yul\":18413:18430   */\n      add\n        /* \"#utility.yul\":18406:18453   */\n      mstore\n        /* \"#utility.yul\":18470:18601   */\n      tag_406\n        /* \"#utility.yul\":18596:18600   */\n      dup2\n        /* \"#utility.yul\":18470:18601   */\n      tag_257\n      jump\t// in\n    tag_406:\n        /* \"#utility.yul\":18462:18601   */\n      swap1\n      pop\n        /* \"#utility.yul\":18189:18608   */\n      swap2\n      swap1\n      pop\n      jump\t// out\n\n    auxdata: 0xa26469706673582212201c505a0436c5bb6a49afca67182c888d102ed20a349a2baa956023200e9c82f564736f6c63430008190033\n}\n",
				"bytecode": {
					"linkReferences": {},
					"object": "60806040525f6009553480156012575f80fd5b50611d68806100205f395ff3fe60806040526004361061011d575f3560e01c8063ad6228111161009f578063b93e0e3911610063578063b93e0e391461036d578063bb47221914610397578063c44d6f87146103ad578063c7a1865b146103d7578063dfbf53ae146103f35761011d565b8063ad622811146102af578063b040905b146102c5578063b0d74a39146102ef578063b14b28a314610319578063b357a028146103435761011d565b80633e9feea7116100e65780633e9feea7146101df578063560b3986146102095780637ba9f72e146102335780639348cef71461025d578063a285c54a146102855761011d565b806262388e1461012157806305ca5dda1461014b57806311bb1537146101755780633a4b66f11461019f5780633ccfd60b146101c9575b5f80fd5b34801561012c575f80fd5b5061013561041d565b60405161014291906114e4565b60405180910390f35b348015610156575f80fd5b5061015f610423565b60405161016c9190611517565b60405180910390f35b348015610180575f80fd5b50610189610435565b604051610196919061156f565b60405180910390f35b3480156101aa575f80fd5b506101b361045b565b6040516101c091906114e4565b60405180910390f35b3480156101d4575f80fd5b506101dd610461565b005b3480156101ea575f80fd5b506101f3610820565b6040516102009190611517565b60405180910390f35b348015610214575f80fd5b5061021d610832565b60405161022a91906115a0565b60405180910390f35b34801561023e575f80fd5b50610247610838565b60405161025491906114e4565b60405180910390f35b348015610268575f80fd5b50610283600480360381019061027e91906115e7565b61083e565b005b348015610290575f80fd5b50610299610cd5565b6040516102a6919061156f565b60405180910390f35b3480156102ba575f80fd5b506102c3610cf8565b005b3480156102d0575f80fd5b506102d9610f15565b6040516102e691906115a0565b60405180910390f35b3480156102fa575f80fd5b50610303610f1b565b6040516103109190611517565b60405180910390f35b348015610324575f80fd5b5061032d610f2e565b60405161033a91906114e4565b60405180910390f35b34801561034e575f80fd5b50610357610f34565b60405161036491906114e4565b60405180910390f35b348015610378575f80fd5b50610381610f39565b60405161038e91906114e4565b60405180910390f35b3480156103a2575f80fd5b506103ab610f3e565b005b3480156103b8575f80fd5b506103c1611099565b6040516103ce91906114e4565b60405180910390f35b6103f160048036038101906103ec919061164f565b61109e565b005b3480156103fe575f80fd5b506104076113f5565b604051610414919061156f565b60405180910390f35b60025481565b60065f9054906101000a900460ff1681565b600360019054906101000a900473ffffffffffffffffffffffffffffffffffffffff1681565b60075481565b60011515600860149054906101000a900460ff16151514610480575f80fd5b5f8054906101000a900473ffffffffffffffffffffffffffffffffffffffff1673ffffffffffffffffffffffffffffffffffffffff163373ffffffffffffffffffffffffffffffffffffffff1614806105265750600360019054906101000a900473ffffffffffffffffffffffffffffffffffffffff1673ffffffffffffffffffffffffffffffffffffffff163373ffffffffffffffffffffffffffffffffffffffff16145b610565576040517f08c379a000000000000000000000000000000000000000000000000000000000815260040161055c906116d4565b60405180910390fd5b5f73ffffffffffffffffffffffffffffffffffffffff1660085f9054906101000a900473ffffffffffffffffffffffffffffffffffffffff1673ffffffffffffffffffffffffffffffffffffffff1603610742575f8054906101000a900473ffffffffffffffffffffffffffffffffffffffff1673ffffffffffffffffffffffffffffffffffffffff166108fc60075490811502906040515f60405180830381858888f1935050505015801561061d573d5f803e3d5ffd5b50600360019054906101000a900473ffffffffffffffffffffffffffffffffffffffff1673ffffffffffffffffffffffffffffffffffffffff166108fc60075490811502906040515f60405180830381858888f19350505050158015610685573d5f803e3d5ffd5b507f87d5f4772963d1f9b76047158b4ae97c420a1b3bff2a746c828beffd9e7c3e265f8054906101000a900473ffffffffffffffffffffffffffffffffffffffff166007546040516106d89291906116f2565b60405180910390a17f87d5f4772963d1f9b76047158b4ae97c420a1b3bff2a746c828beffd9e7c3e26600360019054906101000a900473ffffffffffffffffffffffffffffffffffffffff166007546040516107359291906116f2565b60405180910390a161081e565b60085f9054906101000a900473ffffffffffffffffffffffffffffffffffffffff1673ffffffffffffffffffffffffffffffffffffffff166108fc600260075461078c9190611746565b90811502906040515f60405180830381858888f193505050501580156107b4573d5f803e3d5ffd5b507f87d5f4772963d1f9b76047158b4ae97c420a1b3bff2a746c828beffd9e7c3e2660085f9054906101000a900473ffffffffffffffffffffffffffffffffffffffff1660026007546108079190611746565b6040516108159291906116f2565b60405180910390a15b565b60035f9054906101000a900460ff1681565b60045481565b60055481565b600860149054906101000a900460ff161561088e576040517f08c379a0000000000000000000000000000000000000000000000000000000008152600401610885906117d1565b60405180910390fd5b5f801b600154141580156108a657505f801b60045414155b6108e5576040517f08c379a00000000000000000000000000000000000000000000000000000000081526004016108dc90611839565b60405180910390fd5b5f8054906101000a900473ffffffffffffffffffffffffffffffffffffffff1673ffffffffffffffffffffffffffffffffffffffff163373ffffffffffffffffffffffffffffffffffffffff1603610a5b575f151560035f9054906101000a900460ff1615151461098b576040517f08c379a0000000000000000000000000000000000000000000000000000000008152600401610982906118a1565b60405180910390fd5b5f828260405160200161099f9291906118df565b60405160208183030381529060405280519060200120905060015481146109fb576040517f08c379a00000000000000000000000000000000000000000000000000000000081526004016109f290611954565b60405180910390fd5b82600281905550600160035f6101000a81548160ff0219169083151502179055507ff171bd6ddf36696fe0e7c299df1970ee9347e8229ef483465fe9f8862995c5303384604051610a4d9291906116f2565b60405180910390a150610c10565b600360019054906101000a900473ffffffffffffffffffffffffffffffffffffffff1673ffffffffffffffffffffffffffffffffffffffff163373ffffffffffffffffffffffffffffffffffffffff1603610bd4575f151560065f9054906101000a900460ff16151514610b04576040517f08c379a0000000000000000000000000000000000000000000000000000000008152600401610afb906118a1565b60405180910390fd5b5f8282604051602001610b189291906118df565b6040516020818303038152906040528051906020012090506004548114610b74576040517f08c379a0000000000000000000000000000000000000000000000000000000008152600401610b6b90611954565b60405180910390fd5b82600581905550600160065f6101000a81548160ff0219169083151502179055507ff171bd6ddf36696fe0e7c299df1970ee9347e8229ef483465fe9f8862995c5303384604051610bc69291906116f2565b60405180910390a150610c0f565b6040517f08c379a0000000000000000000000000000000000000000000000000000000008152600401610c06906119bc565b60405180910390fd5b5b5f60095403610c2d5760b442610c2691906119da565b6009819055505b6001151560035f9054906101000a900460ff161515148015610c6157506001151560065f9054906101000a900460ff161515145b15610cd157610c6e61141a565b60085f6101000a81548173ffffffffffffffffffffffffffffffffffffffff021916908373ffffffffffffffffffffffffffffffffffffffff1602179055506001600860146101000a81548160ff021916908315150217905550610cd0610461565b5b5050565b5f8054906101000a900473ffffffffffffffffffffffffffffffffffffffff1681565b5f60095411610d3c576040517f08c379a0000000000000000000000000000000000000000000000000000000008152600401610d3390611a57565b60405180910390fd5b6009544211610d80576040517f08c379a0000000000000000000000000000000000000000000000000000000008152600401610d7790611abf565b60405180910390fd5b600860149054906101000a900460ff1615610dd0576040517f08c379a0000000000000000000000000000000000000000000000000000000008152600401610dc790611b27565b60405180910390fd5b60035f9054906101000a900460ff168015610df7575060065f9054906101000a900460ff16155b15610e60575f8054906101000a900473ffffffffffffffffffffffffffffffffffffffff1660085f6101000a81548173ffffffffffffffffffffffffffffffffffffffff021916908373ffffffffffffffffffffffffffffffffffffffff160217905550610ef0565b60065f9054906101000a900460ff168015610e87575060035f9054906101000a900460ff16155b15610eef57600360019054906101000a900473ffffffffffffffffffffffffffffffffffffffff1660085f6101000a81548173ffffffffffffffffffffffffffffffffffffffff021916908373ffffffffffffffffffffffffffffffffffffffff1602179055505b5b6001600860146101000a81548160ff021916908315150217905550610f13610461565b565b60015481565b600860149054906101000a900460ff1681565b60095481565b600381565b600181565b60011515600860149054906101000a900460ff16151514610f5d575f80fd5b5f805f6101000a81548173ffffffffffffffffffffffffffffffffffffffff021916908373ffffffffffffffffffffffffffffffffffffffff1602179055505f801b6001819055505f6002819055505f60035f6101000a81548160ff0219169083151502179055505f600360016101000a81548173ffffffffffffffffffffffffffffffffffffffff021916908373ffffffffffffffffffffffffffffffffffffffff1602179055505f801b6004819055505f6005819055505f60065f6101000a81548160ff0219169083151502179055505f6007819055505f60085f6101000a81548173ffffffffffffffffffffffffffffffffffffffff021916908373ffffffffffffffffffffffffffffffffffffffff1602179055505f600860146101000a81548160ff0219169083151502179055505f600981905550565b600281565b670de0b6b3a76400003410156110e9576040517f08c379a00000000000000000000000000000000000000000000000000000000081526004016110e090611b8f565b60405180910390fd5b5f73ffffffffffffffffffffffffffffffffffffffff165f8054906101000a900473ffffffffffffffffffffffffffffffffffffffff1673ffffffffffffffffffffffffffffffffffffffff16036111e857335f806101000a81548173ffffffffffffffffffffffffffffffffffffffff021916908373ffffffffffffffffffffffffffffffffffffffff1602179055505f600281905550806001819055505f60035f6101000a81548160ff021916908315150217905550346007819055507fc75a7eb1b909ed9b3dfae875baf41024b531546fcd92ccd27947af1b9212b4f2336001546040516111db929190611bad565b60405180910390a16113f2565b5f73ffffffffffffffffffffffffffffffffffffffff16600360019054906101000a900473ffffffffffffffffffffffffffffffffffffffff1673ffffffffffffffffffffffffffffffffffffffff16036113b6575f8054906101000a900473ffffffffffffffffffffffffffffffffffffffff1673ffffffffffffffffffffffffffffffffffffffff163373ffffffffffffffffffffffffffffffffffffffff16036112ca576040517f08c379a00000000000000000000000000000000000000000000000000000000081526004016112c190611c1e565b60405180910390fd5b600754341461130e576040517f08c379a000000000000000000000000000000000000000000000000000000000815260040161130590611cac565b60405180910390fd5b33600360016101000a81548173ffffffffffffffffffffffffffffffffffffffff021916908373ffffffffffffffffffffffffffffffffffffffff1602179055505f600581905550806004819055505f60065f6101000a81548160ff0219169083151502179055507fc75a7eb1b909ed9b3dfae875baf41024b531546fcd92ccd27947af1b9212b4f2336004546040516113a9929190611bad565b60405180910390a16113f1565b6040517f08c379a00000000000000000000000000000000000000000000000000000000081526004016113e890611d14565b60405180910390fd5b5b50565b60085f9054906101000a900473ffffffffffffffffffffffffffffffffffffffff1681565b5f6005546002540361142e575f90506114c9565b600160025414801561144257506003600554145b8061145c57506002805414801561145b57506001600554145b5b806114775750600360025414801561147657506002600554145b5b156114a3575f8054906101000a900473ffffffffffffffffffffffffffffffffffffffff1690506114c9565b600360019054906101000a900473ffffffffffffffffffffffffffffffffffffffff1690505b90565b5f819050919050565b6114de816114cc565b82525050565b5f6020820190506114f75f8301846114d5565b92915050565b5f8115159050919050565b611511816114fd565b82525050565b5f60208201905061152a5f830184611508565b92915050565b5f73ffffffffffffffffffffffffffffffffffffffff82169050919050565b5f61155982611530565b9050919050565b6115698161154f565b82525050565b5f6020820190506115825f830184611560565b92915050565b5f819050919050565b61159a81611588565b82525050565b5f6020820190506115b35f830184611591565b92915050565b5f80fd5b6115c6816114cc565b81146115d0575f80fd5b50565b5f813590506115e1816115bd565b92915050565b5f80604083850312156115fd576115fc6115b9565b5b5f61160a858286016115d3565b925050602061161b858286016115d3565b9150509250929050565b61162e81611588565b8114611638575f80fd5b50565b5f8135905061164981611625565b92915050565b5f60208284031215611664576116636115b9565b5b5f6116718482850161163b565b91505092915050565b5f82825260208201905092915050565b7f4e6f74206120706c6179657220696e20746869732067616d65000000000000005f82015250565b5f6116be60198361167a565b91506116c98261168a565b602082019050919050565b5f6020820190508181035f8301526116eb816116b2565b9050919050565b5f6040820190506117055f830185611560565b61171260208301846114d5565b9392505050565b7f4e487b71000000000000000000000000000000000000000000000000000000005f52601160045260245ffd5b5f611750826114cc565b915061175b836114cc565b9250828202611769816114cc565b915082820484148315176117805761177f611719565b5b5092915050565b7f67616d6520697320616c726561647920646f6e650000000000000000000000005f82015250565b5f6117bb60148361167a565b91506117c682611787565b602082019050919050565b5f6020820190508181035f8301526117e8816117af565b9050919050565b7f426f746820706c6179657273206e65656420746f20766f7465206669727374005f82015250565b5f611823601f8361167a565b915061182e826117ef565b602082019050919050565b5f6020820190508181035f83015261185081611817565b9050919050565b7f596f75206861766520616c72656164792072657665616c6564000000000000005f82015250565b5f61188b60198361167a565b915061189682611857565b602082019050919050565b5f6020820190508181035f8301526118b88161187f565b9050919050565b5f819050919050565b6118d96118d4826114cc565b6118bf565b82525050565b5f6118ea82856118c8565b6020820191506118fa82846118c8565b6020820191508190509392505050565b7f496e76616c69642072657665616c0000000000000000000000000000000000005f82015250565b5f61193e600e8361167a565b91506119498261190a565b602082019050919050565b5f6020820190508181035f83015261196b81611932565b9050919050565b7f43616e206e6f742066696e6420706c61796572000000000000000000000000005f82015250565b5f6119a660138361167a565b91506119b182611972565b602082019050919050565b5f6020820190508181035f8301526119d38161199a565b9050919050565b5f6119e4826114cc565b91506119ef836114cc565b9250828201905080821115611a0757611a06611719565b5b92915050565b7f52657665616c20706861736520686173206e6f742073746172746564000000005f82015250565b5f611a41601c8361167a565b9150611a4c82611a0d565b602082019050919050565b5f6020820190508181035f830152611a6e81611a35565b9050919050565b7f52657665616c2074696d6520686173206e6f74206578706972656400000000005f82015250565b5f611aa9601b8361167a565b9150611ab482611a75565b602082019050919050565b5f6020820190508181035f830152611ad681611a9d565b9050919050565b7f47616d6520697320616c726561647920646f6e650000000000000000000000005f82015250565b5f611b1160148361167a565b9150611b1c82611add565b602082019050919050565b5f6020820190508181035f830152611b3e81611b05565b9050919050565b7f426574206d757374206265206f766572203120657468657200000000000000005f82015250565b5f611b7960188361167a565b9150611b8482611b45565b602082019050919050565b5f6020820190508181035f830152611ba681611b6d565b9050919050565b5f604082019050611bc05f830185611560565b611bcd6020830184611591565b9392505050565b7f53616d6520706c617965722063616e6e6f74206a6f696e207468652067616d655f82015250565b5f611c0860208361167a565b9150611c1382611bd4565b602082019050919050565b5f6020820190508181035f830152611c3581611bfc565b9050919050565b7f4d757374206d6174636820746865207374616b65206f6620666972737420706c5f8201527f6179657200000000000000000000000000000000000000000000000000000000602082015250565b5f611c9660248361167a565b9150611ca182611c3c565b604082019050919050565b5f6020820190508181035f830152611cc381611c8a565b9050919050565b7f46756c6c2067616d6500000000000000000000000000000000000000000000005f82015250565b5f611cfe60098361167a565b9150611d0982611cca565b602082019050919050565b5f6020820190508181035f830152611d2b81611cf2565b905091905056fea26469706673582212201c505a0436c5bb6a49afca67182c888d102ed20a349a2baa956023200e9c82f564736f6c63430008190033",
					"opcodes": "PUSH1 0x80 PUSH1 0x40 MSTORE PUSH0 PUSH1 0x9 SSTORE CALLVALUE DUP1 ISZERO PUSH1 0x12 JUMPI PUSH0 DUP1 REVERT JUMPDEST POP PUSH2 0x1D68 DUP1 PUSH2 0x20 PUSH0 CODECOPY PUSH0 RETURN INVALID PUSH1 0x80 PUSH1 0x40 MSTORE PUSH1 0x4 CALLDATASIZE LT PUSH2 0x11D JUMPI PUSH0 CALLDATALOAD PUSH1 0xE0 SHR DUP1 PUSH4 0xAD622811 GT PUSH2 0x9F JUMPI DUP1 PUSH4 0xB93E0E39 GT PUSH2 0x63 JUMPI DUP1 PUSH4 0xB93E0E39 EQ PUSH2 0x36D JUMPI DUP1 PUSH4 0xBB472219 EQ PUSH2 0x397 JUMPI DUP1 PUSH4 0xC44D6F87 EQ PUSH2 0x3AD JUMPI DUP1 PUSH4 0xC7A1865B EQ PUSH2 0x3D7 JUMPI DUP1 PUSH4 0xDFBF53AE EQ PUSH2 0x3F3 JUMPI PUSH2 0x11D JUMP JUMPDEST DUP1 PUSH4 0xAD622811 EQ PUSH2 0x2AF JUMPI DUP1 PUSH4 0xB040905B EQ PUSH2 0x2C5 JUMPI DUP1 PUSH4 0xB0D74A39 EQ PUSH2 0x2EF JUMPI DUP1 PUSH4 0xB14B28A3 EQ PUSH2 0x319 JUMPI DUP1 PUSH4 0xB357A028 EQ PUSH2 0x343 JUMPI PUSH2 0x11D JUMP JUMPDEST DUP1 PUSH4 0x3E9FEEA7 GT PUSH2 0xE6 JUMPI DUP1 PUSH4 0x3E9FEEA7 EQ PUSH2 0x1DF JUMPI DUP1 PUSH4 0x560B3986 EQ PUSH2 0x209 JUMPI DUP1 PUSH4 0x7BA9F72E EQ PUSH2 0x233 JUMPI DUP1 PUSH4 0x9348CEF7 EQ PUSH2 0x25D JUMPI DUP1 PUSH4 0xA285C54A EQ PUSH2 0x285 JUMPI PUSH2 0x11D JUMP JUMPDEST DUP1 PUSH3 0x62388E EQ PUSH2 0x121 JUMPI DUP1 PUSH4 0x5CA5DDA EQ PUSH2 0x14B JUMPI DUP1 PUSH4 0x11BB1537 EQ PUSH2 0x175 JUMPI DUP1 PUSH4 0x3A4B66F1 EQ PUSH2 0x19F JUMPI DUP1 PUSH4 0x3CCFD60B EQ PUSH2 0x1C9 JUMPI JUMPDEST PUSH0 DUP1 REVERT JUMPDEST CALLVALUE DUP1 ISZERO PUSH2 0x12C JUMPI PUSH0 DUP1 REVERT JUMPDEST POP PUSH2 0x135 PUSH2 0x41D JUMP JUMPDEST PUSH1 0x40 MLOAD PUSH2 0x142 SWAP2 SWAP1 PUSH2 0x14E4 JUMP JUMPDEST PUSH1 0x40 MLOAD DUP1 SWAP2 SUB SWAP1 RETURN JUMPDEST CALLVALUE DUP1 ISZERO PUSH2 0x156 JUMPI PUSH0 DUP1 REVERT JUMPDEST POP PUSH2 0x15F PUSH2 0x423 JUMP JUMPDEST PUSH1 0x40 MLOAD PUSH2 0x16C SWAP2 SWAP1 PUSH2 0x1517 JUMP JUMPDEST PUSH1 0x40 MLOAD DUP1 SWAP2 SUB SWAP1 RETURN JUMPDEST CALLVALUE DUP1 ISZERO PUSH2 0x180 JUMPI PUSH0 DUP1 REVERT JUMPDEST POP PUSH2 0x189 PUSH2 0x435 JUMP JUMPDEST PUSH1 0x40 MLOAD PUSH2 0x196 SWAP2 SWAP1 PUSH2 0x156F JUMP JUMPDEST PUSH1 0x40 MLOAD DUP1 SWAP2 SUB SWAP1 RETURN JUMPDEST CALLVALUE DUP1 ISZERO PUSH2 0x1AA JUMPI PUSH0 DUP1 REVERT JUMPDEST POP PUSH2 0x1B3 PUSH2 0x45B JUMP JUMPDEST PUSH1 0x40 MLOAD PUSH2 0x1C0 SWAP2 SWAP1 PUSH2 0x14E4 JUMP JUMPDEST PUSH1 0x40 MLOAD DUP1 SWAP2 SUB SWAP1 RETURN JUMPDEST CALLVALUE DUP1 ISZERO PUSH2 0x1D4 JUMPI PUSH0 DUP1 REVERT JUMPDEST POP PUSH2 0x1DD PUSH2 0x461 JUMP JUMPDEST STOP JUMPDEST CALLVALUE DUP1 ISZERO PUSH2 0x1EA JUMPI PUSH0 DUP1 REVERT JUMPDEST POP PUSH2 0x1F3 PUSH2 0x820 JUMP JUMPDEST PUSH1 0x40 MLOAD PUSH2 0x200 SWAP2 SWAP1 PUSH2 0x1517 JUMP JUMPDEST PUSH1 0x40 MLOAD DUP1 SWAP2 SUB SWAP1 RETURN JUMPDEST CALLVALUE DUP1 ISZERO PUSH2 0x214 JUMPI PUSH0 DUP1 REVERT JUMPDEST POP PUSH2 0x21D PUSH2 0x832 JUMP JUMPDEST PUSH1 0x40 MLOAD PUSH2 0x22A SWAP2 SWAP1 PUSH2 0x15A0 JUMP JUMPDEST PUSH1 0x40 MLOAD DUP1 SWAP2 SUB SWAP1 RETURN JUMPDEST CALLVALUE DUP1 ISZERO PUSH2 0x23E JUMPI PUSH0 DUP1 REVERT JUMPDEST POP PUSH2 0x247 PUSH2 0x838 JUMP JUMPDEST PUSH1 0x40 MLOAD PUSH2 0x254 SWAP2 SWAP1 PUSH2 0x14E4 JUMP JUMPDEST PUSH1 0x40 MLOAD DUP1 SWAP2 SUB SWAP1 RETURN JUMPDEST CALLVALUE DUP1 ISZERO PUSH2 0x268 JUMPI PUSH0 DUP1 REVERT JUMPDEST POP PUSH2 0x283 PUSH1 0x4 DUP1 CALLDATASIZE SUB DUP2 ADD SWAP1 PUSH2 0x27E SWAP2 SWAP1 PUSH2 0x15E7 JUMP JUMPDEST PUSH2 0x83E JUMP JUMPDEST STOP JUMPDEST CALLVALUE DUP1 ISZERO PUSH2 0x290 JUMPI PUSH0 DUP1 REVERT JUMPDEST POP PUSH2 0x299 PUSH2 0xCD5 JUMP JUMPDEST PUSH1 0x40 MLOAD PUSH2 0x2A6 SWAP2 SWAP1 PUSH2 0x156F JUMP JUMPDEST PUSH1 0x40 MLOAD DUP1 SWAP2 SUB SWAP1 RETURN JUMPDEST CALLVALUE DUP1 ISZERO PUSH2 0x2BA JUMPI PUSH0 DUP1 REVERT JUMPDEST POP PUSH2 0x2C3 PUSH2 0xCF8 JUMP JUMPDEST STOP JUMPDEST CALLVALUE DUP1 ISZERO PUSH2 0x2D0 JUMPI PUSH0 DUP1 REVERT JUMPDEST POP PUSH2 0x2D9 PUSH2 0xF15 JUMP JUMPDEST PUSH1 0x40 MLOAD PUSH2 0x2E6 SWAP2 SWAP1 PUSH2 0x15A0 JUMP JUMPDEST PUSH1 0x40 MLOAD DUP1 SWAP2 SUB SWAP1 RETURN JUMPDEST CALLVALUE DUP1 ISZERO PUSH2 0x2FA JUMPI PUSH0 DUP1 REVERT JUMPDEST POP PUSH2 0x303 PUSH2 0xF1B JUMP JUMPDEST PUSH1 0x40 MLOAD PUSH2 0x310 SWAP2 SWAP1 PUSH2 0x1517 JUMP JUMPDEST PUSH1 0x40 MLOAD DUP1 SWAP2 SUB SWAP1 RETURN JUMPDEST CALLVALUE DUP1 ISZERO PUSH2 0x324 JUMPI PUSH0 DUP1 REVERT JUMPDEST POP PUSH2 0x32D PUSH2 0xF2E JUMP JUMPDEST PUSH1 0x40 MLOAD PUSH2 0x33A SWAP2 SWAP1 PUSH2 0x14E4 JUMP JUMPDEST PUSH1 0x40 MLOAD DUP1 SWAP2 SUB SWAP1 RETURN JUMPDEST CALLVALUE DUP1 ISZERO PUSH2 0x34E JUMPI PUSH0 DUP1 REVERT JUMPDEST POP PUSH2 0x357 PUSH2 0xF34 JUMP JUMPDEST PUSH1 0x40 MLOAD PUSH2 0x364 SWAP2 SWAP1 PUSH2 0x14E4 JUMP JUMPDEST PUSH1 0x40 MLOAD DUP1 SWAP2 SUB SWAP1 RETURN JUMPDEST CALLVALUE DUP1 ISZERO PUSH2 0x378 JUMPI PUSH0 DUP1 REVERT JUMPDEST POP PUSH2 0x381 PUSH2 0xF39 JUMP JUMPDEST PUSH1 0x40 MLOAD PUSH2 0x38E SWAP2 SWAP1 PUSH2 0x14E4 JUMP JUMPDEST PUSH1 0x40 MLOAD DUP1 SWAP2 SUB SWAP1 RETURN JUMPDEST CALLVALUE DUP1 ISZERO PUSH2 0x3A2 JUMPI PUSH0 DUP1 REVERT JUMPDEST POP PUSH2 0x3AB PUSH2 0xF3E JUMP JUMPDEST STOP JUMPDEST CALLVALUE DUP1 ISZERO PUSH2 0x3B8 JUMPI PUSH0 DUP1 REVERT JUMPDEST POP PUSH2 0x3C1 PUSH2 0x1099 JUMP JUMPDEST PUSH1 0x40 MLOAD PUSH2 0x3CE SWAP2 SWAP1 PUSH2 0x14E4 JUMP JUMPDEST PUSH1 0x40 MLOAD DUP1 SWAP2 SUB SWAP1 RETURN JUMPDEST PUSH2 0x3F1 PUSH1 0x4 DUP1 CALLDATASIZE SUB DUP2 ADD SWAP1 PUSH2 0x3EC SWAP2 SWAP1 PUSH2 0x164F JUMP JUMPDEST PUSH2 0x109E JUMP JUMPDEST STOP JUMPDEST CALLVALUE DUP1 ISZERO PUSH2 0x3FE JUMPI PUSH0 DUP1 REVERT JUMPDEST POP PUSH2 0x407 PUSH2 0x13F5 JUMP JUMPDEST PUSH1 0x40 MLOAD PUSH2 0x414 SWAP2 SWAP1 PUSH2 0x156F JUMP JUMPDEST PUSH1 0x40 MLOAD DUP1 SWAP2 SUB SWAP1 RETURN JUMPDEST PUSH1 0x2 SLOAD DUP2 JUMP JUMPDEST PUSH1 0x6 PUSH0 SWAP1 SLOAD SWAP1 PUSH2 0x100 EXP SWAP1 DIV PUSH1 0xFF AND DUP2 JUMP JUMPDEST PUSH1 0x3 PUSH1 0x1 SWAP1 SLOAD SWAP1 PUSH2 0x100 EXP SWAP1 DIV PUSH20 0xFFFFFFFFFFFFFFFFFFFFFFFFFFFFFFFFFFFFFFFF AND DUP2 JUMP JUMPDEST PUSH1 0x7 SLOAD DUP2 JUMP JUMPDEST PUSH1 0x1 ISZERO ISZERO PUSH1 0x8 PUSH1 0x14 SWAP1 SLOAD SWAP1 PUSH2 0x100 EXP SWAP1 DIV PUSH1 0xFF AND ISZERO ISZERO EQ PUSH2 0x480 JUMPI PUSH0 DUP1 REVERT JUMPDEST PUSH0 DUP1 SLOAD SWAP1 PUSH2 0x100 EXP SWAP1 DIV PUSH20 0xFFFFFFFFFFFFFFFFFFFFFFFFFFFFFFFFFFFFFFFF AND PUSH20 0xFFFFFFFFFFFFFFFFFFFFFFFFFFFFFFFFFFFFFFFF AND CALLER PUSH20 0xFFFFFFFFFFFFFFFFFFFFFFFFFFFFFFFFFFFFFFFF AND EQ DUP1 PUSH2 0x526 JUMPI POP PUSH1 0x3 PUSH1 0x1 SWAP1 SLOAD SWAP1 PUSH2 0x100 EXP SWAP1 DIV PUSH20 0xFFFFFFFFFFFFFFFFFFFFFFFFFFFFFFFFFFFFFFFF AND PUSH20 0xFFFFFFFFFFFFFFFFFFFFFFFFFFFFFFFFFFFFFFFF AND CALLER PUSH20 0xFFFFFFFFFFFFFFFFFFFFFFFFFFFFFFFFFFFFFFFF AND EQ JUMPDEST PUSH2 0x565 JUMPI PUSH1 0x40 MLOAD PUSH32 0x8C379A000000000000000000000000000000000000000000000000000000000 DUP2 MSTORE PUSH1 0x4 ADD PUSH2 0x55C SWAP1 PUSH2 0x16D4 JUMP JUMPDEST PUSH1 0x40 MLOAD DUP1 SWAP2 SUB SWAP1 REVERT JUMPDEST PUSH0 PUSH20 0xFFFFFFFFFFFFFFFFFFFFFFFFFFFFFFFFFFFFFFFF AND PUSH1 0x8 PUSH0 SWAP1 SLOAD SWAP1 PUSH2 0x100 EXP SWAP1 DIV PUSH20 0xFFFFFFFFFFFFFFFFFFFFFFFFFFFFFFFFFFFFFFFF AND PUSH20 0xFFFFFFFFFFFFFFFFFFFFFFFFFFFFFFFFFFFFFFFF AND SUB PUSH2 0x742 JUMPI PUSH0 DUP1 SLOAD SWAP1 PUSH2 0x100 EXP SWAP1 DIV PUSH20 0xFFFFFFFFFFFFFFFFFFFFFFFFFFFFFFFFFFFFFFFF AND PUSH20 0xFFFFFFFFFFFFFFFFFFFFFFFFFFFFFFFFFFFFFFFF AND PUSH2 0x8FC PUSH1 0x7 SLOAD SWAP1 DUP2 ISZERO MUL SWAP1 PUSH1 0x40 MLOAD PUSH0 PUSH1 0x40 MLOAD DUP1 DUP4 SUB DUP2 DUP6 DUP9 DUP9 CALL SWAP4 POP POP POP POP ISZERO DUP1 ISZERO PUSH2 0x61D JUMPI RETURNDATASIZE PUSH0 DUP1 RETURNDATACOPY RETURNDATASIZE PUSH0 REVERT JUMPDEST POP PUSH1 0x3 PUSH1 0x1 SWAP1 SLOAD SWAP1 PUSH2 0x100 EXP SWAP1 DIV PUSH20 0xFFFFFFFFFFFFFFFFFFFFFFFFFFFFFFFFFFFFFFFF AND PUSH20 0xFFFFFFFFFFFFFFFFFFFFFFFFFFFFFFFFFFFFFFFF AND PUSH2 0x8FC PUSH1 0x7 SLOAD SWAP1 DUP2 ISZERO MUL SWAP1 PUSH1 0x40 MLOAD PUSH0 PUSH1 0x40 MLOAD DUP1 DUP4 SUB DUP2 DUP6 DUP9 DUP9 CALL SWAP4 POP POP POP POP ISZERO DUP1 ISZERO PUSH2 0x685 JUMPI RETURNDATASIZE PUSH0 DUP1 RETURNDATACOPY RETURNDATASIZE PUSH0 REVERT JUMPDEST POP PUSH32 0x87D5F4772963D1F9B76047158B4AE97C420A1B3BFF2A746C828BEFFD9E7C3E26 PUSH0 DUP1 SLOAD SWAP1 PUSH2 0x100 EXP SWAP1 DIV PUSH20 0xFFFFFFFFFFFFFFFFFFFFFFFFFFFFFFFFFFFFFFFF AND PUSH1 0x7 SLOAD PUSH1 0x40 MLOAD PUSH2 0x6D8 SWAP3 SWAP2 SWAP1 PUSH2 0x16F2 JUMP JUMPDEST PUSH1 0x40 MLOAD DUP1 SWAP2 SUB SWAP1 LOG1 PUSH32 0x87D5F4772963D1F9B76047158B4AE97C420A1B3BFF2A746C828BEFFD9E7C3E26 PUSH1 0x3 PUSH1 0x1 SWAP1 SLOAD SWAP1 PUSH2 0x100 EXP SWAP1 DIV PUSH20 0xFFFFFFFFFFFFFFFFFFFFFFFFFFFFFFFFFFFFFFFF AND PUSH1 0x7 SLOAD PUSH1 0x40 MLOAD PUSH2 0x735 SWAP3 SWAP2 SWAP1 PUSH2 0x16F2 JUMP JUMPDEST PUSH1 0x40 MLOAD DUP1 SWAP2 SUB SWAP1 LOG1 PUSH2 0x81E JUMP JUMPDEST PUSH1 0x8 PUSH0 SWAP1 SLOAD SWAP1 PUSH2 0x100 EXP SWAP1 DIV PUSH20 0xFFFFFFFFFFFFFFFFFFFFFFFFFFFFFFFFFFFFFFFF AND PUSH20 0xFFFFFFFFFFFFFFFFFFFFFFFFFFFFFFFFFFFFFFFF AND PUSH2 0x8FC PUSH1 0x2 PUSH1 0x7 SLOAD PUSH2 0x78C SWAP2 SWAP1 PUSH2 0x1746 JUMP JUMPDEST SWAP1 DUP2 ISZERO MUL SWAP1 PUSH1 0x40 MLOAD PUSH0 PUSH1 0x40 MLOAD DUP1 DUP4 SUB DUP2 DUP6 DUP9 DUP9 CALL SWAP4 POP POP POP POP ISZERO DUP1 ISZERO PUSH2 0x7B4 JUMPI RETURNDATASIZE PUSH0 DUP1 RETURNDATACOPY RETURNDATASIZE PUSH0 REVERT JUMPDEST POP PUSH32 0x87D5F4772963D1F9B76047158B4AE97C420A1B3BFF2A746C828BEFFD9E7C3E26 PUSH1 0x8 PUSH0 SWAP1 SLOAD SWAP1 PUSH2 0x100 EXP SWAP1 DIV PUSH20 0xFFFFFFFFFFFFFFFFFFFFFFFFFFFFFFFFFFFFFFFF AND PUSH1 0x2 PUSH1 0x7 SLOAD PUSH2 0x807 SWAP2 SWAP1 PUSH2 0x1746 JUMP JUMPDEST PUSH1 0x40 MLOAD PUSH2 0x815 SWAP3 SWAP2 SWAP1 PUSH2 0x16F2 JUMP JUMPDEST PUSH1 0x40 MLOAD DUP1 SWAP2 SUB SWAP1 LOG1 JUMPDEST JUMP JUMPDEST PUSH1 0x3 PUSH0 SWAP1 SLOAD SWAP1 PUSH2 0x100 EXP SWAP1 DIV PUSH1 0xFF AND DUP2 JUMP JUMPDEST PUSH1 0x4 SLOAD DUP2 JUMP JUMPDEST PUSH1 0x5 SLOAD DUP2 JUMP JUMPDEST PUSH1 0x8 PUSH1 0x14 SWAP1 SLOAD SWAP1 PUSH2 0x100 EXP SWAP1 DIV PUSH1 0xFF AND ISZERO PUSH2 0x88E JUMPI PUSH1 0x40 MLOAD PUSH32 0x8C379A000000000000000000000000000000000000000000000000000000000 DUP2 MSTORE PUSH1 0x4 ADD PUSH2 0x885 SWAP1 PUSH2 0x17D1 JUMP JUMPDEST PUSH1 0x40 MLOAD DUP1 SWAP2 SUB SWAP1 REVERT JUMPDEST PUSH0 DUP1 SHL PUSH1 0x1 SLOAD EQ ISZERO DUP1 ISZERO PUSH2 0x8A6 JUMPI POP PUSH0 DUP1 SHL PUSH1 0x4 SLOAD EQ ISZERO JUMPDEST PUSH2 0x8E5 JUMPI PUSH1 0x40 MLOAD PUSH32 0x8C379A000000000000000000000000000000000000000000000000000000000 DUP2 MSTORE PUSH1 0x4 ADD PUSH2 0x8DC SWAP1 PUSH2 0x1839 JUMP JUMPDEST PUSH1 0x40 MLOAD DUP1 SWAP2 SUB SWAP1 REVERT JUMPDEST PUSH0 DUP1 SLOAD SWAP1 PUSH2 0x100 EXP SWAP1 DIV PUSH20 0xFFFFFFFFFFFFFFFFFFFFFFFFFFFFFFFFFFFFFFFF AND PUSH20 0xFFFFFFFFFFFFFFFFFFFFFFFFFFFFFFFFFFFFFFFF AND CALLER PUSH20 0xFFFFFFFFFFFFFFFFFFFFFFFFFFFFFFFFFFFFFFFF AND SUB PUSH2 0xA5B JUMPI PUSH0 ISZERO ISZERO PUSH1 0x3 PUSH0 SWAP1 SLOAD SWAP1 PUSH2 0x100 EXP SWAP1 DIV PUSH1 0xFF AND ISZERO ISZERO EQ PUSH2 0x98B JUMPI PUSH1 0x40 MLOAD PUSH32 0x8C379A000000000000000000000000000000000000000000000000000000000 DUP2 MSTORE PUSH1 0x4 ADD PUSH2 0x982 SWAP1 PUSH2 0x18A1 JUMP JUMPDEST PUSH1 0x40 MLOAD DUP1 SWAP2 SUB SWAP1 REVERT JUMPDEST PUSH0 DUP3 DUP3 PUSH1 0x40 MLOAD PUSH1 0x20 ADD PUSH2 0x99F SWAP3 SWAP2 SWAP1 PUSH2 0x18DF JUMP JUMPDEST PUSH1 0x40 MLOAD PUSH1 0x20 DUP2 DUP4 SUB SUB DUP2 MSTORE SWAP1 PUSH1 0x40 MSTORE DUP1 MLOAD SWAP1 PUSH1 0x20 ADD KECCAK256 SWAP1 POP PUSH1 0x1 SLOAD DUP2 EQ PUSH2 0x9FB JUMPI PUSH1 0x40 MLOAD PUSH32 0x8C379A000000000000000000000000000000000000000000000000000000000 DUP2 MSTORE PUSH1 0x4 ADD PUSH2 0x9F2 SWAP1 PUSH2 0x1954 JUMP JUMPDEST PUSH1 0x40 MLOAD DUP1 SWAP2 SUB SWAP1 REVERT JUMPDEST DUP3 PUSH1 0x2 DUP2 SWAP1 SSTORE POP PUSH1 0x1 PUSH1 0x3 PUSH0 PUSH2 0x100 EXP DUP2 SLOAD DUP2 PUSH1 0xFF MUL NOT AND SWAP1 DUP4 ISZERO ISZERO MUL OR SWAP1 SSTORE POP PUSH32 0xF171BD6DDF36696FE0E7C299DF1970EE9347E8229EF483465FE9F8862995C530 CALLER DUP5 PUSH1 0x40 MLOAD PUSH2 0xA4D SWAP3 SWAP2 SWAP1 PUSH2 0x16F2 JUMP JUMPDEST PUSH1 0x40 MLOAD DUP1 SWAP2 SUB SWAP1 LOG1 POP PUSH2 0xC10 JUMP JUMPDEST PUSH1 0x3 PUSH1 0x1 SWAP1 SLOAD SWAP1 PUSH2 0x100 EXP SWAP1 DIV PUSH20 0xFFFFFFFFFFFFFFFFFFFFFFFFFFFFFFFFFFFFFFFF AND PUSH20 0xFFFFFFFFFFFFFFFFFFFFFFFFFFFFFFFFFFFFFFFF AND CALLER PUSH20 0xFFFFFFFFFFFFFFFFFFFFFFFFFFFFFFFFFFFFFFFF AND SUB PUSH2 0xBD4 JUMPI PUSH0 ISZERO ISZERO PUSH1 0x6 PUSH0 SWAP1 SLOAD SWAP1 PUSH2 0x100 EXP SWAP1 DIV PUSH1 0xFF AND ISZERO ISZERO EQ PUSH2 0xB04 JUMPI PUSH1 0x40 MLOAD PUSH32 0x8C379A000000000000000000000000000000000000000000000000000000000 DUP2 MSTORE PUSH1 0x4 ADD PUSH2 0xAFB SWAP1 PUSH2 0x18A1 JUMP JUMPDEST PUSH1 0x40 MLOAD DUP1 SWAP2 SUB SWAP1 REVERT JUMPDEST PUSH0 DUP3 DUP3 PUSH1 0x40 MLOAD PUSH1 0x20 ADD PUSH2 0xB18 SWAP3 SWAP2 SWAP1 PUSH2 0x18DF JUMP JUMPDEST PUSH1 0x40 MLOAD PUSH1 0x20 DUP2 DUP4 SUB SUB DUP2 MSTORE SWAP1 PUSH1 0x40 MSTORE DUP1 MLOAD SWAP1 PUSH1 0x20 ADD KECCAK256 SWAP1 POP PUSH1 0x4 SLOAD DUP2 EQ PUSH2 0xB74 JUMPI PUSH1 0x40 MLOAD PUSH32 0x8C379A000000000000000000000000000000000000000000000000000000000 DUP2 MSTORE PUSH1 0x4 ADD PUSH2 0xB6B SWAP1 PUSH2 0x1954 JUMP JUMPDEST PUSH1 0x40 MLOAD DUP1 SWAP2 SUB SWAP1 REVERT JUMPDEST DUP3 PUSH1 0x5 DUP2 SWAP1 SSTORE POP PUSH1 0x1 PUSH1 0x6 PUSH0 PUSH2 0x100 EXP DUP2 SLOAD DUP2 PUSH1 0xFF MUL NOT AND SWAP1 DUP4 ISZERO ISZERO MUL OR SWAP1 SSTORE POP PUSH32 0xF171BD6DDF36696FE0E7C299DF1970EE9347E8229EF483465FE9F8862995C530 CALLER DUP5 PUSH1 0x40 MLOAD PUSH2 0xBC6 SWAP3 SWAP2 SWAP1 PUSH2 0x16F2 JUMP JUMPDEST PUSH1 0x40 MLOAD DUP1 SWAP2 SUB SWAP1 LOG1 POP PUSH2 0xC0F JUMP JUMPDEST PUSH1 0x40 MLOAD PUSH32 0x8C379A000000000000000000000000000000000000000000000000000000000 DUP2 MSTORE PUSH1 0x4 ADD PUSH2 0xC06 SWAP1 PUSH2 0x19BC JUMP JUMPDEST PUSH1 0x40 MLOAD DUP1 SWAP2 SUB SWAP1 REVERT JUMPDEST JUMPDEST PUSH0 PUSH1 0x9 SLOAD SUB PUSH2 0xC2D JUMPI PUSH1 0xB4 TIMESTAMP PUSH2 0xC26 SWAP2 SWAP1 PUSH2 0x19DA JUMP JUMPDEST PUSH1 0x9 DUP2 SWAP1 SSTORE POP JUMPDEST PUSH1 0x1 ISZERO ISZERO PUSH1 0x3 PUSH0 SWAP1 SLOAD SWAP1 PUSH2 0x100 EXP SWAP1 DIV PUSH1 0xFF AND ISZERO ISZERO EQ DUP1 ISZERO PUSH2 0xC61 JUMPI POP PUSH1 0x1 ISZERO ISZERO PUSH1 0x6 PUSH0 SWAP1 SLOAD SWAP1 PUSH2 0x100 EXP SWAP1 DIV PUSH1 0xFF AND ISZERO ISZERO EQ JUMPDEST ISZERO PUSH2 0xCD1 JUMPI PUSH2 0xC6E PUSH2 0x141A JUMP JUMPDEST PUSH1 0x8 PUSH0 PUSH2 0x100 EXP DUP2 SLOAD DUP2 PUSH20 0xFFFFFFFFFFFFFFFFFFFFFFFFFFFFFFFFFFFFFFFF MUL NOT AND SWAP1 DUP4 PUSH20 0xFFFFFFFFFFFFFFFFFFFFFFFFFFFFFFFFFFFFFFFF AND MUL OR SWAP1 SSTORE POP PUSH1 0x1 PUSH1 0x8 PUSH1 0x14 PUSH2 0x100 EXP DUP2 SLOAD DUP2 PUSH1 0xFF MUL NOT AND SWAP1 DUP4 ISZERO ISZERO MUL OR SWAP1 SSTORE POP PUSH2 0xCD0 PUSH2 0x461 JUMP JUMPDEST JUMPDEST POP POP JUMP JUMPDEST PUSH0 DUP1 SLOAD SWAP1 PUSH2 0x100 EXP SWAP1 DIV PUSH20 0xFFFFFFFFFFFFFFFFFFFFFFFFFFFFFFFFFFFFFFFF AND DUP2 JUMP JUMPDEST PUSH0 PUSH1 0x9 SLOAD GT PUSH2 0xD3C JUMPI PUSH1 0x40 MLOAD PUSH32 0x8C379A000000000000000000000000000000000000000000000000000000000 DUP2 MSTORE PUSH1 0x4 ADD PUSH2 0xD33 SWAP1 PUSH2 0x1A57 JUMP JUMPDEST PUSH1 0x40 MLOAD DUP1 SWAP2 SUB SWAP1 REVERT JUMPDEST PUSH1 0x9 SLOAD TIMESTAMP GT PUSH2 0xD80 JUMPI PUSH1 0x40 MLOAD PUSH32 0x8C379A000000000000000000000000000000000000000000000000000000000 DUP2 MSTORE PUSH1 0x4 ADD PUSH2 0xD77 SWAP1 PUSH2 0x1ABF JUMP JUMPDEST PUSH1 0x40 MLOAD DUP1 SWAP2 SUB SWAP1 REVERT JUMPDEST PUSH1 0x8 PUSH1 0x14 SWAP1 SLOAD SWAP1 PUSH2 0x100 EXP SWAP1 DIV PUSH1 0xFF AND ISZERO PUSH2 0xDD0 JUMPI PUSH1 0x40 MLOAD PUSH32 0x8C379A000000000000000000000000000000000000000000000000000000000 DUP2 MSTORE PUSH1 0x4 ADD PUSH2 0xDC7 SWAP1 PUSH2 0x1B27 JUMP JUMPDEST PUSH1 0x40 MLOAD DUP1 SWAP2 SUB SWAP1 REVERT JUMPDEST PUSH1 0x3 PUSH0 SWAP1 SLOAD SWAP1 PUSH2 0x100 EXP SWAP1 DIV PUSH1 0xFF AND DUP1 ISZERO PUSH2 0xDF7 JUMPI POP PUSH1 0x6 PUSH0 SWAP1 SLOAD SWAP1 PUSH2 0x100 EXP SWAP1 DIV PUSH1 0xFF AND ISZERO JUMPDEST ISZERO PUSH2 0xE60 JUMPI PUSH0 DUP1 SLOAD SWAP1 PUSH2 0x100 EXP SWAP1 DIV PUSH20 0xFFFFFFFFFFFFFFFFFFFFFFFFFFFFFFFFFFFFFFFF AND PUSH1 0x8 PUSH0 PUSH2 0x100 EXP DUP2 SLOAD DUP2 PUSH20 0xFFFFFFFFFFFFFFFFFFFFFFFFFFFFFFFFFFFFFFFF MUL NOT AND SWAP1 DUP4 PUSH20 0xFFFFFFFFFFFFFFFFFFFFFFFFFFFFFFFFFFFFFFFF AND MUL OR SWAP1 SSTORE POP PUSH2 0xEF0 JUMP JUMPDEST PUSH1 0x6 PUSH0 SWAP1 SLOAD SWAP1 PUSH2 0x100 EXP SWAP1 DIV PUSH1 0xFF AND DUP1 ISZERO PUSH2 0xE87 JUMPI POP PUSH1 0x3 PUSH0 SWAP1 SLOAD SWAP1 PUSH2 0x100 EXP SWAP1 DIV PUSH1 0xFF AND ISZERO JUMPDEST ISZERO PUSH2 0xEEF JUMPI PUSH1 0x3 PUSH1 0x1 SWAP1 SLOAD SWAP1 PUSH2 0x100 EXP SWAP1 DIV PUSH20 0xFFFFFFFFFFFFFFFFFFFFFFFFFFFFFFFFFFFFFFFF AND PUSH1 0x8 PUSH0 PUSH2 0x100 EXP DUP2 SLOAD DUP2 PUSH20 0xFFFFFFFFFFFFFFFFFFFFFFFFFFFFFFFFFFFFFFFF MUL NOT AND SWAP1 DUP4 PUSH20 0xFFFFFFFFFFFFFFFFFFFFFFFFFFFFFFFFFFFFFFFF AND MUL OR SWAP1 SSTORE POP JUMPDEST JUMPDEST PUSH1 0x1 PUSH1 0x8 PUSH1 0x14 PUSH2 0x100 EXP DUP2 SLOAD DUP2 PUSH1 0xFF MUL NOT AND SWAP1 DUP4 ISZERO ISZERO MUL OR SWAP1 SSTORE POP PUSH2 0xF13 PUSH2 0x461 JUMP JUMPDEST JUMP JUMPDEST PUSH1 0x1 SLOAD DUP2 JUMP JUMPDEST PUSH1 0x8 PUSH1 0x14 SWAP1 SLOAD SWAP1 PUSH2 0x100 EXP SWAP1 DIV PUSH1 0xFF AND DUP2 JUMP JUMPDEST PUSH1 0x9 SLOAD DUP2 JUMP JUMPDEST PUSH1 0x3 DUP2 JUMP JUMPDEST PUSH1 0x1 DUP2 JUMP JUMPDEST PUSH1 0x1 ISZERO ISZERO PUSH1 0x8 PUSH1 0x14 SWAP1 SLOAD SWAP1 PUSH2 0x100 EXP SWAP1 DIV PUSH1 0xFF AND ISZERO ISZERO EQ PUSH2 0xF5D JUMPI PUSH0 DUP1 REVERT JUMPDEST PUSH0 DUP1 PUSH0 PUSH2 0x100 EXP DUP2 SLOAD DUP2 PUSH20 0xFFFFFFFFFFFFFFFFFFFFFFFFFFFFFFFFFFFFFFFF MUL NOT AND SWAP1 DUP4 PUSH20 0xFFFFFFFFFFFFFFFFFFFFFFFFFFFFFFFFFFFFFFFF AND MUL OR SWAP1 SSTORE POP PUSH0 DUP1 SHL PUSH1 0x1 DUP2 SWAP1 SSTORE POP PUSH0 PUSH1 0x2 DUP2 SWAP1 SSTORE POP PUSH0 PUSH1 0x3 PUSH0 PUSH2 0x100 EXP DUP2 SLOAD DUP2 PUSH1 0xFF MUL NOT AND SWAP1 DUP4 ISZERO ISZERO MUL OR SWAP1 SSTORE POP PUSH0 PUSH1 0x3 PUSH1 0x1 PUSH2 0x100 EXP DUP2 SLOAD DUP2 PUSH20 0xFFFFFFFFFFFFFFFFFFFFFFFFFFFFFFFFFFFFFFFF MUL NOT AND SWAP1 DUP4 PUSH20 0xFFFFFFFFFFFFFFFFFFFFFFFFFFFFFFFFFFFFFFFF AND MUL OR SWAP1 SSTORE POP PUSH0 DUP1 SHL PUSH1 0x4 DUP2 SWAP1 SSTORE POP PUSH0 PUSH1 0x5 DUP2 SWAP1 SSTORE POP PUSH0 PUSH1 0x6 PUSH0 PUSH2 0x100 EXP DUP2 SLOAD DUP2 PUSH1 0xFF MUL NOT AND SWAP1 DUP4 ISZERO ISZERO MUL OR SWAP1 SSTORE POP PUSH0 PUSH1 0x7 DUP2 SWAP1 SSTORE POP PUSH0 PUSH1 0x8 PUSH0 PUSH2 0x100 EXP DUP2 SLOAD DUP2 PUSH20 0xFFFFFFFFFFFFFFFFFFFFFFFFFFFFFFFFFFFFFFFF MUL NOT AND SWAP1 DUP4 PUSH20 0xFFFFFFFFFFFFFFFFFFFFFFFFFFFFFFFFFFFFFFFF AND MUL OR SWAP1 SSTORE POP PUSH0 PUSH1 0x8 PUSH1 0x14 PUSH2 0x100 EXP DUP2 SLOAD DUP2 PUSH1 0xFF MUL NOT AND SWAP1 DUP4 ISZERO ISZERO MUL OR SWAP1 SSTORE POP PUSH0 PUSH1 0x9 DUP2 SWAP1 SSTORE POP JUMP JUMPDEST PUSH1 0x2 DUP2 JUMP JUMPDEST PUSH8 0xDE0B6B3A7640000 CALLVALUE LT ISZERO PUSH2 0x10E9 JUMPI PUSH1 0x40 MLOAD PUSH32 0x8C379A000000000000000000000000000000000000000000000000000000000 DUP2 MSTORE PUSH1 0x4 ADD PUSH2 0x10E0 SWAP1 PUSH2 0x1B8F JUMP JUMPDEST PUSH1 0x40 MLOAD DUP1 SWAP2 SUB SWAP1 REVERT JUMPDEST PUSH0 PUSH20 0xFFFFFFFFFFFFFFFFFFFFFFFFFFFFFFFFFFFFFFFF AND PUSH0 DUP1 SLOAD SWAP1 PUSH2 0x100 EXP SWAP1 DIV PUSH20 0xFFFFFFFFFFFFFFFFFFFFFFFFFFFFFFFFFFFFFFFF AND PUSH20 0xFFFFFFFFFFFFFFFFFFFFFFFFFFFFFFFFFFFFFFFF AND SUB PUSH2 0x11E8 JUMPI CALLER PUSH0 DUP1 PUSH2 0x100 EXP DUP2 SLOAD DUP2 PUSH20 0xFFFFFFFFFFFFFFFFFFFFFFFFFFFFFFFFFFFFFFFF MUL NOT AND SWAP1 DUP4 PUSH20 0xFFFFFFFFFFFFFFFFFFFFFFFFFFFFFFFFFFFFFFFF AND MUL OR SWAP1 SSTORE POP PUSH0 PUSH1 0x2 DUP2 SWAP1 SSTORE POP DUP1 PUSH1 0x1 DUP2 SWAP1 SSTORE POP PUSH0 PUSH1 0x3 PUSH0 PUSH2 0x100 EXP DUP2 SLOAD DUP2 PUSH1 0xFF MUL NOT AND SWAP1 DUP4 ISZERO ISZERO MUL OR SWAP1 SSTORE POP CALLVALUE PUSH1 0x7 DUP2 SWAP1 SSTORE POP PUSH32 0xC75A7EB1B909ED9B3DFAE875BAF41024B531546FCD92CCD27947AF1B9212B4F2 CALLER PUSH1 0x1 SLOAD PUSH1 0x40 MLOAD PUSH2 0x11DB SWAP3 SWAP2 SWAP1 PUSH2 0x1BAD JUMP JUMPDEST PUSH1 0x40 MLOAD DUP1 SWAP2 SUB SWAP1 LOG1 PUSH2 0x13F2 JUMP JUMPDEST PUSH0 PUSH20 0xFFFFFFFFFFFFFFFFFFFFFFFFFFFFFFFFFFFFFFFF AND PUSH1 0x3 PUSH1 0x1 SWAP1 SLOAD SWAP1 PUSH2 0x100 EXP SWAP1 DIV PUSH20 0xFFFFFFFFFFFFFFFFFFFFFFFFFFFFFFFFFFFFFFFF AND PUSH20 0xFFFFFFFFFFFFFFFFFFFFFFFFFFFFFFFFFFFFFFFF AND SUB PUSH2 0x13B6 JUMPI PUSH0 DUP1 SLOAD SWAP1 PUSH2 0x100 EXP SWAP1 DIV PUSH20 0xFFFFFFFFFFFFFFFFFFFFFFFFFFFFFFFFFFFFFFFF AND PUSH20 0xFFFFFFFFFFFFFFFFFFFFFFFFFFFFFFFFFFFFFFFF AND CALLER PUSH20 0xFFFFFFFFFFFFFFFFFFFFFFFFFFFFFFFFFFFFFFFF AND SUB PUSH2 0x12CA JUMPI PUSH1 0x40 MLOAD PUSH32 0x8C379A000000000000000000000000000000000000000000000000000000000 DUP2 MSTORE PUSH1 0x4 ADD PUSH2 0x12C1 SWAP1 PUSH2 0x1C1E JUMP JUMPDEST PUSH1 0x40 MLOAD DUP1 SWAP2 SUB SWAP1 REVERT JUMPDEST PUSH1 0x7 SLOAD CALLVALUE EQ PUSH2 0x130E JUMPI PUSH1 0x40 MLOAD PUSH32 0x8C379A000000000000000000000000000000000000000000000000000000000 DUP2 MSTORE PUSH1 0x4 ADD PUSH2 0x1305 SWAP1 PUSH2 0x1CAC JUMP JUMPDEST PUSH1 0x40 MLOAD DUP1 SWAP2 SUB SWAP1 REVERT JUMPDEST CALLER PUSH1 0x3 PUSH1 0x1 PUSH2 0x100 EXP DUP2 SLOAD DUP2 PUSH20 0xFFFFFFFFFFFFFFFFFFFFFFFFFFFFFFFFFFFFFFFF MUL NOT AND SWAP1 DUP4 PUSH20 0xFFFFFFFFFFFFFFFFFFFFFFFFFFFFFFFFFFFFFFFF AND MUL OR SWAP1 SSTORE POP PUSH0 PUSH1 0x5 DUP2 SWAP1 SSTORE POP DUP1 PUSH1 0x4 DUP2 SWAP1 SSTORE POP PUSH0 PUSH1 0x6 PUSH0 PUSH2 0x100 EXP DUP2 SLOAD DUP2 PUSH1 0xFF MUL NOT AND SWAP1 DUP4 ISZERO ISZERO MUL OR SWAP1 SSTORE POP PUSH32 0xC75A7EB1B909ED9B3DFAE875BAF41024B531546FCD92CCD27947AF1B9212B4F2 CALLER PUSH1 0x4 SLOAD PUSH1 0x40 MLOAD PUSH2 0x13A9 SWAP3 SWAP2 SWAP1 PUSH2 0x1BAD JUMP JUMPDEST PUSH1 0x40 MLOAD DUP1 SWAP2 SUB SWAP1 LOG1 PUSH2 0x13F1 JUMP JUMPDEST PUSH1 0x40 MLOAD PUSH32 0x8C379A000000000000000000000000000000000000000000000000000000000 DUP2 MSTORE PUSH1 0x4 ADD PUSH2 0x13E8 SWAP1 PUSH2 0x1D14 JUMP JUMPDEST PUSH1 0x40 MLOAD DUP1 SWAP2 SUB SWAP1 REVERT JUMPDEST JUMPDEST POP JUMP JUMPDEST PUSH1 0x8 PUSH0 SWAP1 SLOAD SWAP1 PUSH2 0x100 EXP SWAP1 DIV PUSH20 0xFFFFFFFFFFFFFFFFFFFFFFFFFFFFFFFFFFFFFFFF AND DUP2 JUMP JUMPDEST PUSH0 PUSH1 0x5 SLOAD PUSH1 0x2 SLOAD SUB PUSH2 0x142E JUMPI PUSH0 SWAP1 POP PUSH2 0x14C9 JUMP JUMPDEST PUSH1 0x1 PUSH1 0x2 SLOAD EQ DUP1 ISZERO PUSH2 0x1442 JUMPI POP PUSH1 0x3 PUSH1 0x5 SLOAD EQ JUMPDEST DUP1 PUSH2 0x145C JUMPI POP PUSH1 0x2 DUP1 SLOAD EQ DUP1 ISZERO PUSH2 0x145B JUMPI POP PUSH1 0x1 PUSH1 0x5 SLOAD EQ JUMPDEST JUMPDEST DUP1 PUSH2 0x1477 JUMPI POP PUSH1 0x3 PUSH1 0x2 SLOAD EQ DUP1 ISZERO PUSH2 0x1476 JUMPI POP PUSH1 0x2 PUSH1 0x5 SLOAD EQ JUMPDEST JUMPDEST ISZERO PUSH2 0x14A3 JUMPI PUSH0 DUP1 SLOAD SWAP1 PUSH2 0x100 EXP SWAP1 DIV PUSH20 0xFFFFFFFFFFFFFFFFFFFFFFFFFFFFFFFFFFFFFFFF AND SWAP1 POP PUSH2 0x14C9 JUMP JUMPDEST PUSH1 0x3 PUSH1 0x1 SWAP1 SLOAD SWAP1 PUSH2 0x100 EXP SWAP1 DIV PUSH20 0xFFFFFFFFFFFFFFFFFFFFFFFFFFFFFFFFFFFFFFFF AND SWAP1 POP JUMPDEST SWAP1 JUMP JUMPDEST PUSH0 DUP2 SWAP1 POP SWAP2 SWAP1 POP JUMP JUMPDEST PUSH2 0x14DE DUP2 PUSH2 0x14CC JUMP JUMPDEST DUP3 MSTORE POP POP JUMP JUMPDEST PUSH0 PUSH1 0x20 DUP3 ADD SWAP1 POP PUSH2 0x14F7 PUSH0 DUP4 ADD DUP5 PUSH2 0x14D5 JUMP JUMPDEST SWAP3 SWAP2 POP POP JUMP JUMPDEST PUSH0 DUP2 ISZERO ISZERO SWAP1 POP SWAP2 SWAP1 POP JUMP JUMPDEST PUSH2 0x1511 DUP2 PUSH2 0x14FD JUMP JUMPDEST DUP3 MSTORE POP POP JUMP JUMPDEST PUSH0 PUSH1 0x20 DUP3 ADD SWAP1 POP PUSH2 0x152A PUSH0 DUP4 ADD DUP5 PUSH2 0x1508 JUMP JUMPDEST SWAP3 SWAP2 POP POP JUMP JUMPDEST PUSH0 PUSH20 0xFFFFFFFFFFFFFFFFFFFFFFFFFFFFFFFFFFFFFFFF DUP3 AND SWAP1 POP SWAP2 SWAP1 POP JUMP JUMPDEST PUSH0 PUSH2 0x1559 DUP3 PUSH2 0x1530 JUMP JUMPDEST SWAP1 POP SWAP2 SWAP1 POP JUMP JUMPDEST PUSH2 0x1569 DUP2 PUSH2 0x154F JUMP JUMPDEST DUP3 MSTORE POP POP JUMP JUMPDEST PUSH0 PUSH1 0x20 DUP3 ADD SWAP1 POP PUSH2 0x1582 PUSH0 DUP4 ADD DUP5 PUSH2 0x1560 JUMP JUMPDEST SWAP3 SWAP2 POP POP JUMP JUMPDEST PUSH0 DUP2 SWAP1 POP SWAP2 SWAP1 POP JUMP JUMPDEST PUSH2 0x159A DUP2 PUSH2 0x1588 JUMP JUMPDEST DUP3 MSTORE POP POP JUMP JUMPDEST PUSH0 PUSH1 0x20 DUP3 ADD SWAP1 POP PUSH2 0x15B3 PUSH0 DUP4 ADD DUP5 PUSH2 0x1591 JUMP JUMPDEST SWAP3 SWAP2 POP POP JUMP JUMPDEST PUSH0 DUP1 REVERT JUMPDEST PUSH2 0x15C6 DUP2 PUSH2 0x14CC JUMP JUMPDEST DUP2 EQ PUSH2 0x15D0 JUMPI PUSH0 DUP1 REVERT JUMPDEST POP JUMP JUMPDEST PUSH0 DUP2 CALLDATALOAD SWAP1 POP PUSH2 0x15E1 DUP2 PUSH2 0x15BD JUMP JUMPDEST SWAP3 SWAP2 POP POP JUMP JUMPDEST PUSH0 DUP1 PUSH1 0x40 DUP4 DUP6 SUB SLT ISZERO PUSH2 0x15FD JUMPI PUSH2 0x15FC PUSH2 0x15B9 JUMP JUMPDEST JUMPDEST PUSH0 PUSH2 0x160A DUP6 DUP3 DUP7 ADD PUSH2 0x15D3 JUMP JUMPDEST SWAP3 POP POP PUSH1 0x20 PUSH2 0x161B DUP6 DUP3 DUP7 ADD PUSH2 0x15D3 JUMP JUMPDEST SWAP2 POP POP SWAP3 POP SWAP3 SWAP1 POP JUMP JUMPDEST PUSH2 0x162E DUP2 PUSH2 0x1588 JUMP JUMPDEST DUP2 EQ PUSH2 0x1638 JUMPI PUSH0 DUP1 REVERT JUMPDEST POP JUMP JUMPDEST PUSH0 DUP2 CALLDATALOAD SWAP1 POP PUSH2 0x1649 DUP2 PUSH2 0x1625 JUMP JUMPDEST SWAP3 SWAP2 POP POP JUMP JUMPDEST PUSH0 PUSH1 0x20 DUP3 DUP5 SUB SLT ISZERO PUSH2 0x1664 JUMPI PUSH2 0x1663 PUSH2 0x15B9 JUMP JUMPDEST JUMPDEST PUSH0 PUSH2 0x1671 DUP5 DUP3 DUP6 ADD PUSH2 0x163B JUMP JUMPDEST SWAP2 POP POP SWAP3 SWAP2 POP POP JUMP JUMPDEST PUSH0 DUP3 DUP3 MSTORE PUSH1 0x20 DUP3 ADD SWAP1 POP SWAP3 SWAP2 POP POP JUMP JUMPDEST PUSH32 0x4E6F74206120706C6179657220696E20746869732067616D6500000000000000 PUSH0 DUP3 ADD MSTORE POP JUMP JUMPDEST PUSH0 PUSH2 0x16BE PUSH1 0x19 DUP4 PUSH2 0x167A JUMP JUMPDEST SWAP2 POP PUSH2 0x16C9 DUP3 PUSH2 0x168A JUMP JUMPDEST PUSH1 0x20 DUP3 ADD SWAP1 POP SWAP2 SWAP1 POP JUMP JUMPDEST PUSH0 PUSH1 0x20 DUP3 ADD SWAP1 POP DUP2 DUP2 SUB PUSH0 DUP4 ADD MSTORE PUSH2 0x16EB DUP2 PUSH2 0x16B2 JUMP JUMPDEST SWAP1 POP SWAP2 SWAP1 POP JUMP JUMPDEST PUSH0 PUSH1 0x40 DUP3 ADD SWAP1 POP PUSH2 0x1705 PUSH0 DUP4 ADD DUP6 PUSH2 0x1560 JUMP JUMPDEST PUSH2 0x1712 PUSH1 0x20 DUP4 ADD DUP5 PUSH2 0x14D5 JUMP JUMPDEST SWAP4 SWAP3 POP POP POP JUMP JUMPDEST PUSH32 0x4E487B7100000000000000000000000000000000000000000000000000000000 PUSH0 MSTORE PUSH1 0x11 PUSH1 0x4 MSTORE PUSH1 0x24 PUSH0 REVERT JUMPDEST PUSH0 PUSH2 0x1750 DUP3 PUSH2 0x14CC JUMP JUMPDEST SWAP2 POP PUSH2 0x175B DUP4 PUSH2 0x14CC JUMP JUMPDEST SWAP3 POP DUP3 DUP3 MUL PUSH2 0x1769 DUP2 PUSH2 0x14CC JUMP JUMPDEST SWAP2 POP DUP3 DUP3 DIV DUP5 EQ DUP4 ISZERO OR PUSH2 0x1780 JUMPI PUSH2 0x177F PUSH2 0x1719 JUMP JUMPDEST JUMPDEST POP SWAP3 SWAP2 POP POP JUMP JUMPDEST PUSH32 0x67616D6520697320616C726561647920646F6E65000000000000000000000000 PUSH0 DUP3 ADD MSTORE POP JUMP JUMPDEST PUSH0 PUSH2 0x17BB PUSH1 0x14 DUP4 PUSH2 0x167A JUMP JUMPDEST SWAP2 POP PUSH2 0x17C6 DUP3 PUSH2 0x1787 JUMP JUMPDEST PUSH1 0x20 DUP3 ADD SWAP1 POP SWAP2 SWAP1 POP JUMP JUMPDEST PUSH0 PUSH1 0x20 DUP3 ADD SWAP1 POP DUP2 DUP2 SUB PUSH0 DUP4 ADD MSTORE PUSH2 0x17E8 DUP2 PUSH2 0x17AF JUMP JUMPDEST SWAP1 POP SWAP2 SWAP1 POP JUMP JUMPDEST PUSH32 0x426F746820706C6179657273206E65656420746F20766F746520666972737400 PUSH0 DUP3 ADD MSTORE POP JUMP JUMPDEST PUSH0 PUSH2 0x1823 PUSH1 0x1F DUP4 PUSH2 0x167A JUMP JUMPDEST SWAP2 POP PUSH2 0x182E DUP3 PUSH2 0x17EF JUMP JUMPDEST PUSH1 0x20 DUP3 ADD SWAP1 POP SWAP2 SWAP1 POP JUMP JUMPDEST PUSH0 PUSH1 0x20 DUP3 ADD SWAP1 POP DUP2 DUP2 SUB PUSH0 DUP4 ADD MSTORE PUSH2 0x1850 DUP2 PUSH2 0x1817 JUMP JUMPDEST SWAP1 POP SWAP2 SWAP1 POP JUMP JUMPDEST PUSH32 0x596F75206861766520616C72656164792072657665616C656400000000000000 PUSH0 DUP3 ADD MSTORE POP JUMP JUMPDEST PUSH0 PUSH2 0x188B PUSH1 0x19 DUP4 PUSH2 0x167A JUMP JUMPDEST SWAP2 POP PUSH2 0x1896 DUP3 PUSH2 0x1857 JUMP JUMPDEST PUSH1 0x20 DUP3 ADD SWAP1 POP SWAP2 SWAP1 POP JUMP JUMPDEST PUSH0 PUSH1 0x20 DUP3 ADD SWAP1 POP DUP2 DUP2 SUB PUSH0 DUP4 ADD MSTORE PUSH2 0x18B8 DUP2 PUSH2 0x187F JUMP JUMPDEST SWAP1 POP SWAP2 SWAP1 POP JUMP JUMPDEST PUSH0 DUP2 SWAP1 POP SWAP2 SWAP1 POP JUMP JUMPDEST PUSH2 0x18D9 PUSH2 0x18D4 DUP3 PUSH2 0x14CC JUMP JUMPDEST PUSH2 0x18BF JUMP JUMPDEST DUP3 MSTORE POP POP JUMP JUMPDEST PUSH0 PUSH2 0x18EA DUP3 DUP6 PUSH2 0x18C8 JUMP JUMPDEST PUSH1 0x20 DUP3 ADD SWAP2 POP PUSH2 0x18FA DUP3 DUP5 PUSH2 0x18C8 JUMP JUMPDEST PUSH1 0x20 DUP3 ADD SWAP2 POP DUP2 SWAP1 POP SWAP4 SWAP3 POP POP POP JUMP JUMPDEST PUSH32 0x496E76616C69642072657665616C000000000000000000000000000000000000 PUSH0 DUP3 ADD MSTORE POP JUMP JUMPDEST PUSH0 PUSH2 0x193E PUSH1 0xE DUP4 PUSH2 0x167A JUMP JUMPDEST SWAP2 POP PUSH2 0x1949 DUP3 PUSH2 0x190A JUMP JUMPDEST PUSH1 0x20 DUP3 ADD SWAP1 POP SWAP2 SWAP1 POP JUMP JUMPDEST PUSH0 PUSH1 0x20 DUP3 ADD SWAP1 POP DUP2 DUP2 SUB PUSH0 DUP4 ADD MSTORE PUSH2 0x196B DUP2 PUSH2 0x1932 JUMP JUMPDEST SWAP1 POP SWAP2 SWAP1 POP JUMP JUMPDEST PUSH32 0x43616E206E6F742066696E6420706C6179657200000000000000000000000000 PUSH0 DUP3 ADD MSTORE POP JUMP JUMPDEST PUSH0 PUSH2 0x19A6 PUSH1 0x13 DUP4 PUSH2 0x167A JUMP JUMPDEST SWAP2 POP PUSH2 0x19B1 DUP3 PUSH2 0x1972 JUMP JUMPDEST PUSH1 0x20 DUP3 ADD SWAP1 POP SWAP2 SWAP1 POP JUMP JUMPDEST PUSH0 PUSH1 0x20 DUP3 ADD SWAP1 POP DUP2 DUP2 SUB PUSH0 DUP4 ADD MSTORE PUSH2 0x19D3 DUP2 PUSH2 0x199A JUMP JUMPDEST SWAP1 POP SWAP2 SWAP1 POP JUMP JUMPDEST PUSH0 PUSH2 0x19E4 DUP3 PUSH2 0x14CC JUMP JUMPDEST SWAP2 POP PUSH2 0x19EF DUP4 PUSH2 0x14CC JUMP JUMPDEST SWAP3 POP DUP3 DUP3 ADD SWAP1 POP DUP1 DUP3 GT ISZERO PUSH2 0x1A07 JUMPI PUSH2 0x1A06 PUSH2 0x1719 JUMP JUMPDEST JUMPDEST SWAP3 SWAP2 POP POP JUMP JUMPDEST PUSH32 0x52657665616C20706861736520686173206E6F74207374617274656400000000 PUSH0 DUP3 ADD MSTORE POP JUMP JUMPDEST PUSH0 PUSH2 0x1A41 PUSH1 0x1C DUP4 PUSH2 0x167A JUMP JUMPDEST SWAP2 POP PUSH2 0x1A4C DUP3 PUSH2 0x1A0D JUMP JUMPDEST PUSH1 0x20 DUP3 ADD SWAP1 POP SWAP2 SWAP1 POP JUMP JUMPDEST PUSH0 PUSH1 0x20 DUP3 ADD SWAP1 POP DUP2 DUP2 SUB PUSH0 DUP4 ADD MSTORE PUSH2 0x1A6E DUP2 PUSH2 0x1A35 JUMP JUMPDEST SWAP1 POP SWAP2 SWAP1 POP JUMP JUMPDEST PUSH32 0x52657665616C2074696D6520686173206E6F7420657870697265640000000000 PUSH0 DUP3 ADD MSTORE POP JUMP JUMPDEST PUSH0 PUSH2 0x1AA9 PUSH1 0x1B DUP4 PUSH2 0x167A JUMP JUMPDEST SWAP2 POP PUSH2 0x1AB4 DUP3 PUSH2 0x1A75 JUMP JUMPDEST PUSH1 0x20 DUP3 ADD SWAP1 POP SWAP2 SWAP1 POP JUMP JUMPDEST PUSH0 PUSH1 0x20 DUP3 ADD SWAP1 POP DUP2 DUP2 SUB PUSH0 DUP4 ADD MSTORE PUSH2 0x1AD6 DUP2 PUSH2 0x1A9D JUMP JUMPDEST SWAP1 POP SWAP2 SWAP1 POP JUMP JUMPDEST PUSH32 0x47616D6520697320616C726561647920646F6E65000000000000000000000000 PUSH0 DUP3 ADD MSTORE POP JUMP JUMPDEST PUSH0 PUSH2 0x1B11 PUSH1 0x14 DUP4 PUSH2 0x167A JUMP JUMPDEST SWAP2 POP PUSH2 0x1B1C DUP3 PUSH2 0x1ADD JUMP JUMPDEST PUSH1 0x20 DUP3 ADD SWAP1 POP SWAP2 SWAP1 POP JUMP JUMPDEST PUSH0 PUSH1 0x20 DUP3 ADD SWAP1 POP DUP2 DUP2 SUB PUSH0 DUP4 ADD MSTORE PUSH2 0x1B3E DUP2 PUSH2 0x1B05 JUMP JUMPDEST SWAP1 POP SWAP2 SWAP1 POP JUMP JUMPDEST PUSH32 0x426574206D757374206265206F76657220312065746865720000000000000000 PUSH0 DUP3 ADD MSTORE POP JUMP JUMPDEST PUSH0 PUSH2 0x1B79 PUSH1 0x18 DUP4 PUSH2 0x167A JUMP JUMPDEST SWAP2 POP PUSH2 0x1B84 DUP3 PUSH2 0x1B45 JUMP JUMPDEST PUSH1 0x20 DUP3 ADD SWAP1 POP SWAP2 SWAP1 POP JUMP JUMPDEST PUSH0 PUSH1 0x20 DUP3 ADD SWAP1 POP DUP2 DUP2 SUB PUSH0 DUP4 ADD MSTORE PUSH2 0x1BA6 DUP2 PUSH2 0x1B6D JUMP JUMPDEST SWAP1 POP SWAP2 SWAP1 POP JUMP JUMPDEST PUSH0 PUSH1 0x40 DUP3 ADD SWAP1 POP PUSH2 0x1BC0 PUSH0 DUP4 ADD DUP6 PUSH2 0x1560 JUMP JUMPDEST PUSH2 0x1BCD PUSH1 0x20 DUP4 ADD DUP5 PUSH2 0x1591 JUMP JUMPDEST SWAP4 SWAP3 POP POP POP JUMP JUMPDEST PUSH32 0x53616D6520706C617965722063616E6E6F74206A6F696E207468652067616D65 PUSH0 DUP3 ADD MSTORE POP JUMP JUMPDEST PUSH0 PUSH2 0x1C08 PUSH1 0x20 DUP4 PUSH2 0x167A JUMP JUMPDEST SWAP2 POP PUSH2 0x1C13 DUP3 PUSH2 0x1BD4 JUMP JUMPDEST PUSH1 0x20 DUP3 ADD SWAP1 POP SWAP2 SWAP1 POP JUMP JUMPDEST PUSH0 PUSH1 0x20 DUP3 ADD SWAP1 POP DUP2 DUP2 SUB PUSH0 DUP4 ADD MSTORE PUSH2 0x1C35 DUP2 PUSH2 0x1BFC JUMP JUMPDEST SWAP1 POP SWAP2 SWAP1 POP JUMP JUMPDEST PUSH32 0x4D757374206D6174636820746865207374616B65206F6620666972737420706C PUSH0 DUP3 ADD MSTORE PUSH32 0x6179657200000000000000000000000000000000000000000000000000000000 PUSH1 0x20 DUP3 ADD MSTORE POP JUMP JUMPDEST PUSH0 PUSH2 0x1C96 PUSH1 0x24 DUP4 PUSH2 0x167A JUMP JUMPDEST SWAP2 POP PUSH2 0x1CA1 DUP3 PUSH2 0x1C3C JUMP JUMPDEST PUSH1 0x40 DUP3 ADD SWAP1 POP SWAP2 SWAP1 POP JUMP JUMPDEST PUSH0 PUSH1 0x20 DUP3 ADD SWAP1 POP DUP2 DUP2 SUB PUSH0 DUP4 ADD MSTORE PUSH2 0x1CC3 DUP2 PUSH2 0x1C8A JUMP JUMPDEST SWAP1 POP SWAP2 SWAP1 POP JUMP JUMPDEST PUSH32 0x46756C6C2067616D650000000000000000000000000000000000000000000000 PUSH0 DUP3 ADD MSTORE POP JUMP JUMPDEST PUSH0 PUSH2 0x1CFE PUSH1 0x9 DUP4 PUSH2 0x167A JUMP JUMPDEST SWAP2 POP PUSH2 0x1D09 DUP3 PUSH2 0x1CCA JUMP JUMPDEST PUSH1 0x20 DUP3 ADD SWAP1 POP SWAP2 SWAP1 POP JUMP JUMPDEST PUSH0 PUSH1 0x20 DUP3 ADD SWAP1 POP DUP2 DUP2 SUB PUSH0 DUP4 ADD MSTORE PUSH2 0x1D2B DUP2 PUSH2 0x1CF2 JUMP JUMPDEST SWAP1 POP SWAP2 SWAP1 POP JUMP INVALID LOG2 PUSH5 0x6970667358 0x22 SLT KECCAK256 SHR POP GAS DIV CALLDATASIZE 0xC5 0xBB PUSH11 0x49AFCA67182C888D102ED2 EXP CALLVALUE SWAP11 0x2B 0xAA SWAP6 PUSH1 0x23 KECCAK256 0xE SWAP13 DUP3 CREATE2 PUSH5 0x736F6C6343 STOP ADDMOD NOT STOP CALLER "
				},
				"gasEstimates": {
					"creation": {
						"codeDepositCost": "1505600",
						"executionCost": "6578",
						"totalCost": "1512178"
					},
					"external": {
						"PAPER()": "391",
						"ROCK()": "347",
						"SCISSORS()": "436",
						"forceWin()": "infinite",
						"gameDone()": "2584",
						"play(bytes32)": "infinite",
						"playerA()": "2616",
						"playerAEncVote()": "2470",
						"playerARevealed()": "2489",
						"playerAVote()": "2449",
						"playerB()": "2627",
						"playerBEncVote()": "2470",
						"playerBRevealed()": "2512",
						"playerBVote()": "2492",
						"resetGame()": "178190",
						"reveal(uint256,uint256)": "infinite",
						"revealDeadline()": "2514",
						"stake()": "2515",
						"winner()": "2618",
						"withdraw()": "infinite"
					},
					"internal": {
						"findWinner()": "19207"
					}
				},
				"methodIdentifiers": {
					"PAPER()": "c44d6f87",
					"ROCK()": "b93e0e39",
					"SCISSORS()": "b357a028",
					"forceWin()": "ad622811",
					"gameDone()": "b0d74a39",
					"play(bytes32)": "c7a1865b",
					"playerA()": "a285c54a",
					"playerAEncVote()": "b040905b",
					"playerARevealed()": "3e9feea7",
					"playerAVote()": "0062388e",
					"playerB()": "11bb1537",
					"playerBEncVote()": "560b3986",
					"playerBRevealed()": "05ca5dda",
					"playerBVote()": "7ba9f72e",
					"resetGame()": "bb472219",
					"reveal(uint256,uint256)": "9348cef7",
					"revealDeadline()": "b14b28a3",
					"stake()": "3a4b66f1",
					"winner()": "dfbf53ae",
					"withdraw()": "3ccfd60b"
				}
			},
			"storageLayout": {
				"storage": [
					{
						"astId": 12,
						"contract": "contracts/lab01_2.sol:RockPaperScissors",
						"label": "playerA",
						"offset": 0,
						"slot": "0",
						"type": "t_address"
					},
					{
						"astId": 14,
						"contract": "contracts/lab01_2.sol:RockPaperScissors",
						"label": "playerAEncVote",
						"offset": 0,
						"slot": "1",
						"type": "t_bytes32"
					},
					{
						"astId": 16,
						"contract": "contracts/lab01_2.sol:RockPaperScissors",
						"label": "playerAVote",
						"offset": 0,
						"slot": "2",
						"type": "t_uint256"
					},
					{
						"astId": 18,
						"contract": "contracts/lab01_2.sol:RockPaperScissors",
						"label": "playerARevealed",
						"offset": 0,
						"slot": "3",
						"type": "t_bool"
					},
					{
						"astId": 20,
						"contract": "contracts/lab01_2.sol:RockPaperScissors",
						"label": "playerB",
						"offset": 1,
						"slot": "3",
						"type": "t_address"
					},
					{
						"astId": 22,
						"contract": "contracts/lab01_2.sol:RockPaperScissors",
						"label": "playerBEncVote",
						"offset": 0,
						"slot": "4",
						"type": "t_bytes32"
					},
					{
						"astId": 24,
						"contract": "contracts/lab01_2.sol:RockPaperScissors",
						"label": "playerBVote",
						"offset": 0,
						"slot": "5",
						"type": "t_uint256"
					},
					{
						"astId": 26,
						"contract": "contracts/lab01_2.sol:RockPaperScissors",
						"label": "playerBRevealed",
						"offset": 0,
						"slot": "6",
						"type": "t_bool"
					},
					{
						"astId": 28,
						"contract": "contracts/lab01_2.sol:RockPaperScissors",
						"label": "stake",
						"offset": 0,
						"slot": "7",
						"type": "t_uint256"
					},
					{
						"astId": 30,
						"contract": "contracts/lab01_2.sol:RockPaperScissors",
						"label": "winner",
						"offset": 0,
						"slot": "8",
						"type": "t_address"
					},
					{
						"astId": 32,
						"contract": "contracts/lab01_2.sol:RockPaperScissors",
						"label": "gameDone",
						"offset": 20,
						"slot": "8",
						"type": "t_bool"
					},
					{
						"astId": 35,
						"contract": "contracts/lab01_2.sol:RockPaperScissors",
						"label": "revealDeadline",
						"offset": 0,
						"slot": "9",
						"type": "t_uint256"
					}
				],
				"types": {
					"t_address": {
						"encoding": "inplace",
						"label": "address",
						"numberOfBytes": "20"
					},
					"t_bool": {
						"encoding": "inplace",
						"label": "bool",
						"numberOfBytes": "1"
					},
					"t_bytes32": {
						"encoding": "inplace",
						"label": "bytes32",
						"numberOfBytes": "32"
					},
					"t_uint256": {
						"encoding": "inplace",
						"label": "uint256",
						"numberOfBytes": "32"
					}
				}
			},
			"userdoc": {
				"kind": "user",
				"methods": {},
				"version": 1
			}
		}
	}
}